:020000040800F2
:100000000804002021680008E3720008E572000877
:1000100000000000000000000000000000000000E0
:10002000000000000000000000000000E77200086F
:100030000000000000000000E9720008EB720008F8
:10004000ED720008EF720008F1720008F372000808
:10005000F5720008F7720008F97200081D5C0008CC
:10006000FB720008FD720008FF72000801730008AF
:100070009D5E00080373000805730008393A000804
:10008000077300080000000000000000097300086A
:10009000000000000B7300080D730008C532000853
:1000A000000000000F7300081173000813730008AC
:1000B000157300080000000017730008197300088A
:1000C00010B50400E4B2002C06D08D48006800286A
:1000D00002D08B48006880478A480078002809D001
:1000E000022811D00BD3042818D012D306281FD011
:1000F00019D322E02000C0B200F020F81DE020005B
:10010000C0B200F025F818E02000C0B200F071F88D
:1001100013E02000C0B200F0EFFA0EE02000C0B201
:1001200000F067FD09E02000C0B200F09BFB04E096
:100130002000C0B200F070FAFFE710BD10B5040057
:10014000E4B2022C03D1012000F0BFF8FFE710BD9C
:1001500010B50400E4B2002C09D0022C10D007D353
:10016000042C19D010D3062C26D01DD340E03FE03C
:1001700065480068002802D063480068804737E07F
:10018000002000F0A2F833E060480068002802D0A8
:100190005E48006880472BE0B4480068002802D021
:1001A000B2480068804723E0B1480068002802D0C8
:1001B000AF48006880471BE002205249087000F0F9
:1001C0008DFD8068AB49884205D000F087FD8068CE
:1001D00000F08CFDF3E700F081FD4068A5498842FE
:1001E00005D000F07BFD406800F080FDF3E7FFE7FD
:1001F00010BD10B50400E4B2002C09D0022C18D0B8
:1002000007D3042C1FD018D3062C48D021D35BE091
:100210005AE000F063FD80689649884203D10120CE
:100220003849087004E000F059FD806800F05EFD78
:100230004AE001203349087046E000F04FFD406875
:1002400000F054FD40E000F049FD006800F04EFD74
:100250003AE000F043FD007C00280FD000F03EFDA6
:1002600040698549884209D000F038FD406900287E
:1002700004D02000C0B200F04BF80FE000F02EFDDB
:10028000C0687C49884209D000F028FDC068002879
:1002900004D000F023FDC06800F028FD14E000F059
:1002A0001DFD007C00280ED000F018FD4069724949
:1002B000884208D000F012FD4069002803D02000D9
:1002C000C0B200F025F8FFE710BD10B50400E4B29D
:1002D000002C0AD100200B490870AA4800680028A9
:1002E0000DD0A8480068804709E001200549087042
:1002F000C8480068002802D0C6480068804710BD82
:100300007C0900206A0900206C0900207009002087
:10031000F1B584B06846007C052802D0062879D063
:10032000A2E000F0DBFC007C012806D0022817D0F8
:1003300004283BD005285AD06BE000F0CFFC050024
:1003400000F0CCFC040000F0C9FC696989894A1EF0
:1003500092B2616949684069006800F09FF958E00D
:1003600000F0BCFC040000F0B9FC050000F0B6FC95
:10037000060000F0B3FC070000F0B0FC029000F0B3
:10038000ADFC6169098A09B201916969C98909B23B
:10039000009171698B89DBB279698A680299496930
:1003A00049684069006800F0FDFB32E000F096FC0F
:1003B000040000F093FC050000F090FC060000F043
:1003C0008DFC070000F08AFC6169098A09B201917D
:1003D0006969C98909B2009171698B89DBB2002210
:1003E000796949684069006800F0DCFB11E000F0C1
:1003F00075FC40698089002801D0012400E00024B8
:1004000000F06CFC2100C9B24069006800F0BCF843
:10041000FFE729E000F062FC007C032804D00428F8
:1004200009D006280ED01EE000F058FC4069806814
:1004300000F0D0F917E000F051FC4069806800F04E
:10044000C9F910E000F04AFC40694069002805D075
:1004500000F044FC40694069804703E01E21A04849
:1004600000F025FCFFE7FFE705B0F0BD74090020B0
:1004700078090020CC6C0008B86F0008FEB5002099
:100480006946087000260024BE204000029000202B
:100490000190944F019A0299380000F0BDFC9248F7
:1004A0000168904800F0E0FC90480078002804D0F3
:1004B00000F014FC406940698047002004000020DF
:1004C000060000200500EDB2132D24DA8848F6B2AC
:1004D000EDB271194018C021405C202801D1641987
:1004E00017E08348F6B2EDB271194018C021405CA4
:1004F0000A2801D164190EE07D48F6B2EDB27119F7
:100500004018C021405C002803D1012069460870D2
:1005100001E06D1CD7E76846007800280FD07448CA
:10052000F6B280190100C0317148BC4A1278142318
:100530005A4380186F4A801800F096FC21E0002092
:100540006B49E4B20919C02288546948F6B280198F
:100550000100C0316648B14A127814235A4380180A
:10056000644A801800F080FCAC480078152808DA4E
:10057000AA480078401CA94908702000401C361881
:100580009FE7F7BD8409002038B504000D00002C5A
:1005900004D11E21894800F08AFB39E0200000F0D8
:1005A0006BFCBE214900884204D31E21844800F020
:1005B0007EFB2DE0200000F05FFC002804D11E210E
:1005C000804800F074FB23E000F088FB406940693C
:1005D000002807D1EDB2002D04D01E217A4800F08A
:1005E00066FB15E07948007879490870062077495C
:1005F000087000F073FB8169894800F035FC3A48C7
:1006000004603A480570002086490870FFF736FFFD
:1006100031BD00008009002010B504003348007887
:10062000002801D0FFF72AFFE4B2002C09D0022CE9
:100630000DD007D3042C19D00AD3062C2CD026D3E6
:100640002BE02AE0624800787749087025E024E032
:1006500072480078062808DB72480078002804D029
:1006600070480078401E6F49087016E06B480078AB
:1006700006280BDB6B48007868490978491F8842D7
:1006800004DA68480078401C6649087005E0504864
:1006900000786549087000E0FFE710BD70B50500FF
:1006A0000C00160049480078494908700320474962
:1006B000087000F013FB81695C4800F0D5FB2088CE
:1006C0001321414369185A4800F0CEFB084845669B
:1006D000208858490880584804605848068070BDF2
:1006E0005C700008C8040020C4040020C00400207E
:1006F000080400204F02000010B50400E4B2002CF2
:1007000009D0022C11D007D3042C1FD00ED3062CF5
:1007100042D02AD341E040E02D4800782B490870B0
:100720001E21474800F0C3FA37E036E04148008810
:1007300042490988884203D300203E49088004E0EA
:100740003C480088401C3B49088026E03948008826
:10075000002804D1394800883649088004E035482B
:100760000088401E3349088017E03348006800289D
:1007700009D0304800883049096808801E21314876
:1007800000F095FA03E01E212F4800F090FA10487F
:1007900000780E49087000E0FFE7E4B2032C02D0B5
:1007A000E4B2042C09D12948406E22490988132259
:1007B0004A4381181E4800F057FB10BD70700008B6
:1007C0003871000848710008587100086A09002053
:1007D0006B090020F8B50400134800781C49087024
:1007E00005201149087000F079FA8169194800F074
:1007F0003BFB13260025184F2A003100380000F07B
:100800000BFB2100144800F02FFB14480460124831
:1008100000F032FB401E12490870F1BDD4070020E1
:1008200044060020D30700206A0900205804002055
:100830007004002084040020880400208C04002020
:10084000E47100084C720008F071000808040020F0
:100850006B09002090040020A3040020B8040020AD
:10086000BC04002070B50600BC48BD49097840189A
:100870009B21405C0500F6B2002E0CD0022E47D022
:100880000AD3042E00D1A9E04BD3062E00D147E1B4
:1008900000D200E17DE17CE1B048B149097840181F
:1008A0009B21405C002825D0AC48AD490978401810
:1008B0009C21405C002815D0A94800780400A74876
:1008C000E4B200199B21405C002817D0A348E4B291
:1008D00000199C21405CA149E4B209199B2288546B
:1008E000641CECE700209D499D4A127889189B22E0
:1008F000885403E01E21A74800F0D9F998480078F1
:10090000002804D096480078401E9549087040E1C0
:10091000A1480078A14908701E21A14800F0C7F93C
:1009200037E16D1CEDB2202D07DA20208B498C4A6F
:10093000127889189B2288544FE0EDB22E2D0ADAE6
:10094000EDB2212D07DB2E208449854A12788918C3
:100950009B22885441E0EDB2302D0ADAEDB22F2D02
:1009600007DB30207D497E4A127889189B22885403
:1009700033E0EDB2412D0ADAEDB23A2D07DB41202A
:100980007649774A127889189B22885425E0EDB27F
:10099000612D0ADAEDB25B2D07DB61206F49704AE9
:1009A000127889189B22885417E0EDB27B2D07DB63
:1009B00020206A496A4A127889189B2288540CE0E0
:1009C00066486749097840189B21405C401C634990
:1009D000634A127889189B228854DAE06D1EEDB2C2
:1009E0007B2D07DB7A205D495D4A127889189B22AE
:1009F00088544FE0EDB25B2D0ADBEDB2612D07DAD2
:100A00005A205649564A127889189B22885441E048
:100A1000EDB23A2D0ADBEDB2412D07DA39204F490C
:100A20004F4A127889189B22885433E0EDB22F2D5B
:100A30000ADBEDB2302D07DA2E204849484A1278F9
:100A400089189B22885425E0EDB2212D0ADBEDB2F6
:100A50002E2D07DA20204149414A127889189B221D
:100A6000885417E0EDB2202D07DA7A203B493C4A42
:100A7000127889189B2288540CE038483849097844
:100A800040189B21405C401E3449354A1278891831
:100A90009B2288547DE032480078002807D12F48F7
:100AA0002F49097840189B21405C002837D02C48FA
:100AB0000078002807D129482949097840189B2146
:100AC000405C20282BD02648007811280FDA2348D4
:100AD0002349097840189A21405C20280BD11F48EF
:100AE0001F49097840189B21405C202803D1002031
:100AF0001B49087013E01A480078401C1849087018
:100B000016481749097840189B21405C002806D1F7
:100B100020201249124A127889189B22885438E002
:100B2000704800F0A9F9401E04000C48E4B2001916
:100B30009B21405C202807D100200849E4B2091914
:100B40009B228854641EF0E7664800F095F900285F
:100B500008D11E210F4800F0AAF819E0080400206F
:100B6000BC0400206048006800280DD00A480078C6
:100B70000A4908705B495C48006800F075F91E215D
:100B8000914800F094F803E01E21904800F08FF89F
:100B9000FFE770BD487100086B0900206A0900205A
:100BA000E4710008FEB507000C00089E099D884806
:100BB00000788849087004208549087000F08EF894
:100BC0008169854800F050F93900844800F04CF9FB
:100BD000834844640198824988646846007A814960
:100BE000087020887E49C8877F4806807F48058036
:100BF000F7BD10B50400E4B2002C09D0022C11D0CE
:100C000007D3042C20D00ED3062C4ED02DD34DE08C
:100C10004CE0704800786E4908701E21744800F05E
:100C200046F843E042E06E48C08F6F490988884229
:100C300004D36E4800886A49C88704E06848C08FBA
:100C4000401C6749C88731E0684800886449C98FFB
:100C5000884204D3644800886149C88704E060483A
:100C6000C08F401E5E49C88720E05D48406C002868
:100C700009D05B48C08F5A49496C08801E215248F0
:100C800000F015F803E01E21504800F010F8544819
:100C9000806C002804D05248C08F5149896C08806C
:100CA0004C4800784A49087000E0FFE710BD38B5AD
:100CB00004000D00002C10D0EDB2002D0DD021004D
:100CC0004C4800F0D1F84B4800F0D6F8444908757C
:100CD0004348457501204249087031BD46480068C7
:100CE00070470000A3040020B804002070B5040081
:100CF0004248844201D0002C00D163E0FFF7EEFFB0
:100D0000C068844204D0FFF7E9FF8068844202D1C2
:100D100000203B49087038480460374800680500E7
:100D2000A8683649884206D0A8680600B1693548E7
:100D300000F09AF803E03449324800F095F80020BA
:100D40003249087031480078401C304908706868A2
:100D50002A49884208D12D48007829490978401A43
:100D6000401F012808DB01E06D68EBE727480078A9
:100D7000401F234908700CE0214800782349097876
:100D8000401A401C012804DB20480078401E1C4902
:100D9000087000201E490870A96911481C4A127881
:100DA00014235A4380181B4A801800F05DF8184835
:100DB0000078401C1649087028681049884201D004
:100DC0002D68E9E770BD00004C720008F071000862
:100DD0006A0900206B090020200400203304002051
:100DE0000804002054040020480400204A04002085
:100DF000E47100080904002004000020CC6C000805
:100E000069090020D80700205472000867090020F3
:100E100068090020E30300001206130A1A43130CAA
:100E20001A4300BF094205D0830705D00270401C59
:100E3000491EF9D170470000130030B414001500AA
:100E4000103902D310393CC0FCD2490700D30CC082
:100E500000D504C0890002D30280801C002900D57F
:100E6000027030BC70470000002300E05B1CCA5CCD
:100E7000002AC254FAD17047010000E0491C0A78E8
:100E8000002AFBD1081A7047F1B5A2B014001D006A
:100E9000049100200D900AE00498229A9047049053
:100EA000002800D1C1E20D98401C0D90641C2178EF
:100EB000080001D10D98BAE22529EDD10020079054
:100EC000089009900A900B900C9002E0010001201C
:100ED0000843641C21782029F8D023290ED02B291F
:100EE00004D02D2907D030290BD00DE001000220BD
:100EF000084380B2EDE701000420F9E70100082073
:100F0000F6E701001020F3E72A290FD129682960AC
:100F10000A68091D29600F92002A05D551420F91D8
:100F200001000420084380B2641C12E000210F91EC
:100F30000AE00F9A714B9A4205D093009A1852001A
:100F4000511830390F91641C21780A00303A0A2A6E
:100F5000EFD321782E2903D00021C9430E911EE042
:100F6000641C21782A2907D1296829600A68091D8B
:100F700029600E92641C12E000210E910AE00E9A84
:100F80005E4B9A4205D093009A185200511830399E
:100F90000E91641C21780A00303A0A2AEFD302A984
:100FA00008872678310054487844FF304D3000F0EF
:100FB000E4FD002801D0641C00E0002602A83A21CC
:100FC0004654405C682804D12178682901D1622008
:100FD00005E06C2807D120786C2804D1712002A983
:100FE0003A228854641C12A806902678641C3000AB
:100FF000253824D02038022800D8C8E0133800D182
:10100000EBE00B3800D157E1401E00D12FE1401E2C
:10101000022800D8BBE0001F00D128E1401F00D10A
:1010200086E0401E00D1D8E0401E26D0C01E0BD066
:10103000801E00D1D1E0C01E00D1CEE046E12520C7
:1010400012A9087001204BE1286828600668001D7D
:10105000286005960E9F002F03D53000FFF70CFF88
:1010600009E03A000021300000F091FD002801D095
:10107000801B00E03800089033E12868286002688F
:10108000001D28600020C0430021104002AA03C2B6
:1010900012A80590069B3C2602A803C8002904D18B
:1010A000002802D10E9A002A14D0761E019602075B
:1010B000120F3032D2B23A2A00DB27329A55000999
:1010C0000A071043090901D1002803D0059A9F1986
:1010D000BA42EAD33C20801B0890991905910E99D9
:1010E00088420FDA081A0A9002A8008F04490140CA
:1010F00002A80187F5E000BFAC610000FFFFFF7FA1
:10110000EFFF0000002900D4EBE002A93822895C3F
:1011100014220A40102A00D0E3E00F99079A891A96
:101120000A9A891A0E1A012E00DADAE00A96D8E035
:1011300002A83A21405C622819D0682806D06A28A3
:101140000CD06C281BD0712808D018E028682860C3
:101150000168001D28600D980880C2E0286828609A
:101160000268001D28600D98C11703C2B9E0286805
:1011700028600168001D28600D980870B1E028689B
:1011800028600168001D28600D980860A9E02A68A1
:10119000D21D072082432A6003CA2A6002AA03C222
:1011A000002902D507982D210AE002A8008F8107A7
:1011B00002D507982B2103E0C00705D50798202109
:1011C00012AA1154401C079012A8079940180590C4
:1011D000310002A800F0F6F983E002A83A21405C51
:1011E0006C280BD0712801D06A2807D12A68D21D3B
:1011F000072082432A6003CA2A6005E02968296023
:101200000868091D2960002102AA03C202A83A2128
:10121000405C682803D102A803C880B20BE06228B2
:1012200003D102A803C8C0B205E0742801D07A280F
:1012300004D102A803C8002102AA03C202A83821CF
:10124000405C00072FD502A803C8002901D100285F
:1012500029D020203043782825D10798302112AAA0
:101260001154401C411C079112A90E541BE0290087
:1012700002A83A22805C00F0DCF802AA03C202A8AD
:10128000002902DA07982D2109E0008F810702D595
:1012900007982B2103E0C00705D50798202112AA43
:1012A0001154401C079012A807994018059031006E
:1012B00002A800F0F2F814E00120079028682860E6
:1012C0000168001D286012A801700AE0252012A9FB
:1012D000087001200790300003D012A84670022049
:1012E00007900F980799401A0A99401A0899401ACE
:1012F0000B99401A0999401A0C99401A019002A8BA
:101300003821405C400711D42020694608700198BC
:1013100001280BDB019E01236A4602A9229800F0F6
:1013200012FC002800D080E0761EF4D1079F12AE98
:10133000002F0CD031780498229A9047049000280E
:1013400073D00D98401C0D90761C7F1EF2D130207A
:10135000694608700A9E012E09DB01236A4602A92C
:10136000229800F0F0FB00285FD1761EF5D1059E93
:10137000089F002F0CD031780498229A904704904F
:10138000002852D00D98401C0D90761C7F1EF2D183
:101390003020694608700B9E012E09DB01236A4646
:1013A00002A9229800F0CFFB00283ED1761EF5D18D
:1013B000059808994618099F002F0CD03178049899
:1013C000229A9047049000282FD00D98401C0D9031
:1013D000761C7F1EF2D13020694608700C9E012ECB
:1013E00009DB01236A4602A9229800F0ACFB002821
:1013F0001BD1761EF5D102A83821405C400700D4ED
:1014000055E52020694608700198012800DA4EE56C
:10141000019E01236A4602A9229800F094FB00284D
:1014200003D1761E00D142E5F3E70020C04323B08C
:10143000F0BD0A00622822D0682819D06A2808D096
:101440006C2823D0712804D074281FD07A2808D0A3
:101450001CE01368DB1D07208343136003CB13607C
:101460007047116811600868091D116000217047FC
:10147000116811600868091D116000B20BE0116865
:1014800011600868091D116040B204E01168116024
:101490000868091D1160C1177047F3B583B0006972
:1014A00000906846027C6F2A01D1082406E02021C2
:1014B0001143782901D00A2400E010243C25039828
:1014C00003C806000F00642A01D0692A07D1002949
:1014D00005DA00200021801BB94106000F00002F13
:1014E00010D1002E0ED10398006B00280AD1082CD1
:1014F0003AD103983821405C000735D53B25302090
:10150000009930E06D1E0195300039002200E3178C
:1015100000F049FB3032D2B23A2A03DB6846007C45
:101520005138121800984255300039002200E31754
:1015300000F039FB06000F0001D1002E05D0039802
:10154000C068009949198842DCD3082C0CD1039853
:101550003821405C000707D50098405D302803D053
:101560006D1E3020009948553C20401B039988612E
:1015700000994919039AD1600399096B884209DAE5
:10158000081A039908620398008FBA49014003982A
:10159000018715E0002913D503993822895C1422AC
:1015A0000A40102A0CD10399496B039A5269891A8F
:1015B000039A126A891A0D1A012D01DB039805623C
:1015C00005B0F0BDF3B591B006AA03C802AB03C3E2
:1015D0001198006B002801D5062007E008D112A859
:1015E000007820210143672902D101201199086365
:1015F000119840684100490D9F4B994223D1000347
:101600000FD11198006800280BD10320119988612F
:1016100012A8007861381A2864D300BF9FA00090F8
:101620000AE003201199886112A8007861381A280D
:1016300056D300BF9AA00090032200991198C06869
:1016400000F0E6FA14E1012947DB8C4A02408C489D
:101650001043119A50608B48091A09B28A484843CE
:101660008A4900F019FB040002A803C800220023E5
:1016700000F06CFB06D202A803C88022120651407B
:1016800002AA03C2684684800720019909B2421A5F
:1016900000207F49012A27DB009202AA30CA0026D7
:1016A0000F000098C00707D532003B00200029003A
:1016B00000F065FB04000D00009840100090300021
:1016C000390032003B0000F05AFB06000F00009882
:1016D0000028E6D102A830C027E000200023BCE0AB
:1016E00070A0A8E770A09AE754420026694F10E066
:1016F000E00707D504A803C832003B0000F03FFB19
:1017000006000F00641004A803C804AA0CCA00F065
:1017100036FB04AA03C2002CEAD102A803C8320097
:101720003B0000F0EEFB02AA03C212A800782021C1
:1017300001430491662903D1019800B20A3000E008
:1017400006201199096B08180090142801DB13205A
:10175000009030206946087606A8441C00980128AD
:1017600039DB02A803C800F02DFC059006460834BA
:10177000042530000A2100F092FA0F0030000A21FF
:1017800000F08DFA06003037601E077030000A2125
:1017900000F085FA0F0030000A2100F080FA060000
:1017A000A41E303727706D1EE3D108340098083826
:1017B00000900128D2DB059800F020FC02000B000D
:1017C00002A803C800F087FC0022334B00F0D7FAD0
:1017D00002AA03C2C5E706A8401C201A06A94A1C93
:1017E0006B4605E0401E019909B2491E9980521CC2
:1017F00011783029F6D00499662903D1019909B2EC
:10180000491C04E0652901D1012100E00021119B60
:101810001B6B5B181BB2984200DA03001BB2190065
:101820001DD4814204DA505C352801DB392000E008
:101830003020541800E05B1E641E491E2578854246
:10184000F9D0392802D1505C401C5054002906D5EB
:10185000521E5B1C019800B2401C694688800198AA
:1018600000B200901BB212A80178119800F01EF887
:1018700013B0F0BDEFFF0000FF070000FFFF0F8077
:101880000000E03FFE03000097750000A086010005
:10189000000024400000F03F84D79741494E4600A5
:1018A0004E414E006E616E00696E6600F3B585B004
:1018B00014001D00066B012D01DA0125AEA42020C5
:1018C00008430C9F662801D17F1C17E0672800D0D1
:1018D000AAE00321C9438F4200DA91E0B74200DB5E
:1018E0008EE07F1C05983821405C000702D4B54289
:1018F00000DA2E003FB2F61B00D50026059881695C
:10190000C06840183FB2012F2CDA491C3022027007
:10191000012E04DA05983822805C000704D52E20B9
:10192000059AD2685054491C0598816178428642D4
:1019300000DA77423FB2784205994862F619AE4222
:1019400000DA35002DB20598C5612A0021000598FE
:10195000C068059B9B69C01800F05AF9701B059977
:101960008862D2E03A0095421EDA2A00210000F097
:101970004FF9059989694919059A9161781B059A6A
:101980005062012E04DA05983822805C000708D5E1
:101990002E20059AD26850540598C069401C0599BC
:1019A000C86105988662B0E0210000F031F9059821
:1019B0008069C019ED1B012E04DA05993822895C73
:1019C000090704D52E21059AD2681154401C0599A7
:1019D00088612DB2AE4200DA35002DB22A00E1193D
:1019E0000598C068059B9B69C01800F011F905981F
:1019F0008069401905998861701B0599486284E0E7
:101A0000B54205DA05993822895C090700D42E0011
:101A1000761E00D500266846007E672801D1652025
:101A200000E045206946087605988169481C059ABA
:101A300090612278059BDB685A54611C012E04DA00
:101A4000059A3823D25C12071DD50200401C059B65
:101A500098612E23059CE468A354012E13DB6D1EB0
:101A60002DB2AE4200DA35002DB22A00059BDB68AC
:101A7000181800F0CDF8059880694019059988611B
:101A8000701B059948620598C068059989694118D5
:101A90006846007E0870380003D42B2048708C1CE8
:101AA00003E02D224A708C1C4742002502AE08E05C
:101AB0000A22684600F086FB01983070009F6D1C7A
:101AC000761C39B20129F3DA022D08DA6846007E65
:101AD00020210143652902D130202070641C002D93
:101AE00009D130202070641C07E06D1E02A8405D03
:101AF00030302070641C012DF7DA0598C068059914
:101B000089694018201A0599C86105983821405CF8
:101B100014210140102914D105984069059989695B
:101B200040180599496A40180599C96940180599EE
:101B3000896A40180599496B884202DA081A0599A2
:101B4000086207B0F0BDF1B50E0014000027002BAD
:101B50000FD01D002178B068009A9047B06000282F
:101B600006D0F06A401CF062641C6D1E01D0F1E7E3
:101B7000FF433800F2BD00003000C9B200E0401C55
:101B800002788A4202D0002AF9D100207047C9B2F7
:101B900001E0401C521E002A03D003788B42F8D18A
:101BA000704700207047124224D0994228D970B55E
:101BB00000251B4202D00C00002109E00024012670
:101BC00049186441944200D3A41A7641F8D33100F5
:101BD000012601E0764109D2001864416D41A41A42
:101BE0009D41F7D2A4185D41B619F5D3300022000B
:101BF0002B0070BD1B42D8D108B500F0F3FA08BD28
:101C000001D19042D3D202000B0000210020704786
:101C1000124207D08B0706D00B78491C0370401C7A
:101C2000521EF7D87047830706D00B78491C037003
:101C3000401C521EF9D1704770B4103A03D378C9D2
:101C4000103A78C0FBD2530701D318C918C001D588
:101C500008C908C0D20704D30B880380891C801CE4
:101C6000002A01D50B78037070BC7047F446002839
:101C700004D4494200F013F8404260474042002932
:101C800005D45FD000F00BF840424942604749421A
:101C900000F005F84942604703460B43E6D40022B2
:101CA000030A8B420BD203098B4219D243088B42A1
:101CB0002ED2411A00D20146524110467047FF22EF
:101CC00009023FD012068B4205D3121209028B4241
:101CD00001D31212090203098B4219D300E0090A49
:101CE000C3098B4201D3CB01C01A524183098B42F5
:101CF00001D38B01C01A524143098B4201D34B01DE
:101D0000C01A524103098B4201D30B01C01A524140
:101D1000C3088B4201D3CB00C01A524183088B42C7
:101D200001D38B00C01A524143088B4201D34B00B0
:101D3000C01A5241884200D3401A5241CFD20146C4
:101D40001046704708B500F04FFA08BD30B40124C2
:101D500064054D00EC420BD85D00EC4208D80C0045
:101D60001C4364000443144304D2994200D19042BE
:101D700030BC7047FCD08B42FAD18242F8E7F0B514
:101D80000E005E400125ED072E40B446AE0ADF1876
:101D90004C18F44208D2F7420ED2640D01D07F0DE8
:101DA00012D100206146F0BD05D1F74201D87F0D68
:101DB00005D10020C143F0BDFBD1640DF9D0002056
:101DC000C143490549088FE0E419C902DB022943F0
:101DD0002B43DB0A460DC00231438E4630B487B236
:101DE00095B27D432E0CADB2140C7C43A419260C85
:101DF000240425439CB27C43A419190C7943270C75
:101E0000C919A4B20F043C43090C000C97B2474314
:101E10002E0CBE193543ADB2170C4743360CBF1913
:101E2000A6B2BF193E043543240C3E0C36199FB2AE
:101E30004743BF19BCB23E0C89191F0C47437F189A
:101E40003E043443390C704680B297B247432E0C9F
:101E5000BE193543ADB2170C4743360CBF19A6B2B5
:101E6000BF193E043543240C3E0C36199FB247433C
:101E7000BF19BCB23E0C89191F0C47437F183E04A2
:101E80003443390C77463F0C90B278432E0C8019BE
:101E90000604ADB22E43050CA0B22D18120C7A43E5
:101EA0005019020C80B2240CA4189AB27A43121969
:101EB00014042043120C89181B0C7B43C91830BC36
:101EC000EF0A394203D1B61940414941641E6F12ED
:101ED000BF0DE41B0BDBFF19BC4211DA2405002700
:101EE0004208AE417841614166463143F0BD641C11
:101EF00005D1401C6141CF0201D34908F4E750E706
:101F00005DE7F0B40E005E400125ED072E40B446BB
:101F1000AE0ADF184C18F4423BD2F74241D2640DAE
:101F200043D07F0D38D0E41BC902DB0229432B4389
:101F3000CF0ADB0A0600B61A9F4104D2641EB61906
:101F40007F41B6185F416812800D24180018844242
:101F500022DAE80C0021B6197F41B61A9F4102D25D
:101F6000B6185F413F1C40414941F4D3241C21DD98
:101F70002405B6197F41B61A9F4105D33743C607DA
:101F800037430026012F7041614166463143F0BC62
:101F90007047FCD1F74205D20020C14349054908EA
:101FA000F3E704D00020C143F1E77F0DFAD0002011
:101FB0006146ECE72442FAD1401C61410F03F6D39D
:101FC0000020E2E74A1812D2400DC902084301215D
:101FD000C9070843520D40210901521A521C06D468
:101FE00052421F3201D4D0407047C01770470020C2
:101FF00070470268531C036011707047010000BFF6
:1020000042221201D21E004207D002D4521E0018F2
:10201000FCD5C10A40051205891870478B4200D1D2
:10202000824205D98446100062468C4619006346F8
:10203000DF184C18640D7F0D3AD0661C760537D03A
:10204000E61B352E34DCDB022B43DB0A0C0DC90208
:102050002943C912202E0DDB1700203E06D01F0099
:10206000F741F3405F400026012A7741C0187141D3
:102070000DD217E01700F741F2405740F3415A40A4
:10208000B340F3405A400026801859410AD3A21C9D
:1020900052050FD0C207012F724117004008CB072D
:1020A00018434908641C24054208AF41704161414E
:1020B000F0BC7047641C21050020F9E76B4010E07C
:1020C0006B40ABE7F742F3D1E943F1E72442EFD1AC
:1020D00000200021ECE7F0B40125ED070F005F4080
:1020E000EED40C00871A9C4105D2C01BA141D21925
:1020F000634169406B40AE0ADF184C18F442E1D2EC
:10210000640D7F0DE2D0E61B362ED1DCDB022B43C3
:10211000DB0AA4460C0DC9022943C90A012E28DC9A
:1021200004D1D6075208DF073A435B08EF0A76422C
:102130009041994114D039423BD1B61940414941AF
:10214000761C394204D1761C001849413942FAD034
:10215000B9436746B74208D9A41B24052143A7E722
:102160000042EAD13642E8D1A2E7E40AE1070020C2
:102170009EE7202E0BDD203E1F00F340F7415F401D
:10218000012A002257417E42984191410BE01700FD
:10219000F741F2405740F3415A40B340F3405A40B0
:1021A0007E42904199410A0303D2641EB619404110
:1021B00049410027641E24054208AE41784161412F
:1021C000F0BC70477CB504000E00150030002900FB
:1021D000FFF762FD00904543701B0190684603C8FD
:1021E00003C473BD7047670070471A0070B584B0B0
:1021F00002A88C490A88028001A8801C8A490A88A2
:10220000028001A889490A88028000A8801C8849A8
:102210000A880280684687490A880280864A002127
:10222000002000F0B2FCB948FEF726FE0400E4B23C
:10223000002C01D1012004004026E4B206206043B6
:102240000221FFF729FD301A0500B04A1C212800A1
:10225000C0B200F09AFC6A462421EDB2AC48007886
:10226000062358432818C0B200F08FFC01AA382179
:10227000002000F08AFC02AA3821282000F085FC0A
:1022800001AA921C3821522000F07FFC00AA921C67
:1022900038217A2000F079FC7FBD70B586B000A8A7
:1022A000801C9C490A88028068469B490A880280F3
:1022B00003A89A490CC90CC00839083801A89849E4
:1022C0000CC90CC008390838964A0021002000F0DB
:1022D0005CFC9548FEF7D0FD05004026EDB20620D7
:1022E00068430221FFF7D8FC301A04008E4A1C21F3
:1022F0002000C0B200F049FC03AA3821002000F001
:1023000044FC00AA921C3821282000F03EFC6A46BA
:102310003821522000F039FC01AA3821682000F051
:1023200034FC06B070BDF0B58BB000A8801C7F49AE
:102330000A88028068467E490A88028004A87D498E
:102340000CC90CC00839083802A87B490CC90CC05C
:1023500008390838794A0021002000F016FC784836
:102360000078012827D07748C08F75490978FFF792
:1023700093FC05007348C08F71490978ADB2694379
:10238000401A04006E48007864280BD1A4B20A2CCD
:1023900008DAA4B22300ADB22A006B4906A800F007
:1023A00043FD0EE0A4B22300ADB22A00674906A89F
:1023B00000F03AFD05E06348C28F65A106A800F071
:1023C00033FD644906A800F04BFD06A8FEF754FD56
:1023D0006946087140276846007906214843022172
:1023E000FFF75AFC381A060006AA1C213000C0B2BA
:1023F00000F0CBFB04AA3821002000F0C6FB00AAA5
:10240000921C3821282000F0C0FB6A463821522057
:1024100000F0BBFB02AA3821682000F0B6FB0BB02D
:10242000F0BD0000C632000812520008F652000843
:10243000225500086E55000890040020F0B583B0C6
:1024400040480078002860D03E48407D401E3D490D
:1024500048753C48407D002802D100203949087069
:1024600068463849097D06225143083101714021EF
:102470000091684600790221FFF70EFC0099081AC6
:102480000700172006000020050068460079290093
:10249000C9B2884226D300200400E4B2112C1FDA0E
:1024A000E4B2002C0BD0E4B2102C08D0EDB2002D19
:1024B00005D0280069460979C0B2884207D10122B7
:1024C0003119C9B27819C0B200F071FB06E00022E0
:1024D0003119C9B27819C0B200F069FB641CDCE79D
:1024E0006D1CD2E7402100911648007D062148432B
:1024F0000221FFF7D1FB0099081A69464871A94AE1
:102500001C216846407900F040FBF7BDA304002081
:10251000BC040020666900080E6D00087472000893
:102520007C72000858040020700400201A6D000816
:10253000E0720008847200088C72000820040020F9
:102540005404002008040020947200089C720008C3
:102550002575200033040020FFB585B000206946B2
:10256000888168466946098B642251430183059836
:1025700000B200F083FC694648816846008B6946DA
:102580004989884203D26846008B6946488168467B
:102590004189402048436946098BFFF77DFB694626
:1025A0004871012069464870684608A909786A465A
:1025B0005278891A491E817008A800780321FFF714
:1025C0006BFB401E6946487208A800784000032152
:1025D000FFF762FB401C6946087268466946097F3E
:1025E0006A4652788918491CC171684680786946E4
:1025F0004978401A401E801069468871402069461B
:102600000870802308A802786846017F002000F047
:102610002BFB00200500280069464979C0B288429A
:102620004FD200200400200069468979C0B2884258
:1026300045D2E4B2A0006946C97940180600059861
:1026400000B2039909B288421BDB68460078EDB2FC
:1026500040190700AF48BFB2B6B2F110C9017918EE
:102660004218AC48BFB2B6B2F110C901791840188F
:1026700040780F2133005B075B0F99400143517095
:102680001BE068460078EDB2401B401E0700A148E1
:10269000BFB2B6B2F110C901791842189D48BFB255
:1026A000B6B2F110C9017918401840780F213300F3
:1026B0005B075B0F994001435170641CB3E76D1CCD
:1026C000A9E700200500EDB2802D69DA68460570A3
:1026D000EDB2402D03DB6946280040380870002029
:1026E0000400200008A90978C0B2884256D2EDB291
:1026F0003F2D02D0EDB2402D08D1684640786946A2
:102700000871684680786946C87007E06846407A74
:10271000694608716846007A6946C870684600785C
:102720000721FFF7B9FA002903D06846007800288E
:1027300032D1E4B2002C11D0684600792100C9B230
:10274000884205D220006946C978C0B2884205D3C4
:10275000E4B208A80078401E84421DD16D48EDB255
:102760006946097FE4B20919C910C90169184218FC
:102770006848EDB26946097FE4B20919C910C90178
:1027800069184018407801216B461B7F1B195B07B5
:102790005B0F994001435170641CA2E76D1C92E7E6
:1027A00009B0F0BD09040020F3B583B000206946EC
:1027B000888020206946087068466946098A642234
:1027C00051430182039800B200F058FB69464880EB
:1027D0006846008A69464988884203D26846008A6A
:1027E0006946488068464188162048436946098AF8
:1027F000FFF752FA6946487004232C2208217C20F6
:1028000000F032FA00200500280069464978C0B27D
:1028100088424ED200200400E4B2042C47DAE4B22D
:1028200020007C300700039800B2019909B2884269
:102830001EDB68460078EDB2401B401E060035489E
:10284000BFB2B6B2F1108022514379184218314814
:10285000BFB2B6B2F11080235943791840184078BE
:10286000012133005B075B0F9940014351701CE06D
:1028700068460078EDB2401906002648BFB2B6B2ED
:10288000F11080225143791842182248BFB2B6B2E3
:10289000F110802359437918401840780121330002
:1028A0005B075B0F994001435170641CB4E76D1CDA
:1028B000AAE700200500EDB2022D29DA684600786B
:1028C000EDB2401B060000200400E4B2042C1DDA27
:1028D000E4B220007C3007000E48BFB2B6B2F1105F
:1028E00080225143791842180A48BFB2B6B2F1109B
:1028F00080235943791840184078012133005B0741
:102900005B0F994001435170641CDEE76D1CD2E7F8
:1029100005B0F0BD88090020F3B581B07120070033
:102920000020060069463800801C48706946300067
:10293000801C087068460079652802DB64206946BF
:10294000087100200500EDB20F2D1ED200200400FA
:10295000E4B2082C17DAC348EDB2405D0121A14072
:10296000084207D001223119C9B27819C0B200F06B
:102970001EF906E000223119C9B27819C0B200F080
:1029800016F9641CE4E76D1CDDE7002005006846CD
:1029900000790A21FFF780F9EDB2854213DA0020B1
:1029A0000400E4B2042C0CDA012268460078011914
:1029B000C9B2684640784019C0B200F0F8F8641C0B
:1029C000EFE76D1CE3E76846007A002823D000207B
:1029D0000500EDB2062D1ED200200400E4B2082C42
:1029E00017DABB48EDB2405D0121A140084207D093
:1029F00001223119C9B27819C0B200F0D8F806E046
:102A000000223119C9B27819C0B200F0D0F8641CA4
:102A1000E4E76D1CDDE7F7BDF7B507000E00002009
:102A20000500EDB2182D70DA00200400E4B2082C85
:102A300069DAEDB228000221FFF72EF900292FD123
:102A4000A4486946097A182251434018EDB240194A
:102A5000A149405C0121A140084210D00122311956
:102A6000C9B200910192EDB228000221FFF714F9DA
:102A70003818019A0099C0B200F099F841E000229C
:102A80003119C9B200910192EDB228000221FFF77D
:102A900003F93818019A0099C0B200F088F830E0C4
:102AA0008C486946097A182251434018EDB2401902
:102AB0008949405C0121A140084211D0012231190D
:102AC0000839C9B200910192EDB228000221FFF746
:102AD000E3F83818019A0099C0B200F068F810E0E5
:102AE000002231190839C9B200910192EDB22800D3
:102AF0000221FFF7D1F83818019A0099C0B200F00E
:102B000056F8641C92E76D1C8BE7F7BD70B50500A5
:102B10000E0014002078002809D022783100C9B2B4
:102B20002800C0B2FFF778FF641C0C35F2E770BDD7
:102B3000F4B507000E0000200500EDB2062D23DAE3
:102B400000200400E4B2082C1CDAAF48694609787A
:102B5000062251434018EDB2405D0121A1400842D8
:102B600007D001223119C9B27819C0B200F01FF89C
:102B700006E000223119C9B27819C0B200F017F886
:102B8000641CDFE76D1CD8E7F1BD70B505000E00D1
:102B900014002078002809D022783100C9B228001A
:102BA000C0B2FFF7C5FF641CAD1DF2E770BD70B584
:102BB000D2B2002A1AD0022A30D046D2934BC0B2E9
:102BC000C9B2CC1080256C4304191B198F4CC0B2BC
:102BD000C9B2CD1080267543451964196478012562
:102BE0004E07760FB54025435D702EE0874BC0B28F
:102BF000C9B2CC1080256C4304191B19834CC0B298
:102C0000C9B2CD1080267543451964196478012531
:102C10004E07760FB540AC435C7016E07B4BC0B2FC
:102C2000C9B2CC1080256C4304191B19774CC0B273
:102C3000C9B2CD1080267543451964196478012501
:102C40004E07760FB54065405D7070BD70B580244D
:102C5000E40000256E4E2A0021003000FEF7DCF86B
:102C600070BD000078710008F5B56D462D79EDB2A4
:102C7000ED082C00E4B2E5006E463679B54200DA84
:102C8000641C0025280005002600EDB2F6B2B5420E
:102C90001DD200252A0015001E00EDB2F6B2B54285
:102CA00013D25A4F6D462D78D2B2AD18AC46C9B288
:102CB000C0B2C5004D19EE1080256E436546AD19B2
:102CC0007D1900266E70521CE5E7401CDBE7F3BD62
:102CD0005C72000834650008B0FBFFFF80B5AE20D1
:102CE00000F06BF88D2000F068F8102000F065F817
:102CF00001BD80B58D2000F060F8142000F05DF873
:102D0000AF2000F05AF801BD80B542480088424922
:102D1000C96B8862414800F0B5F83E4800883E49DA
:102D2000C96B8861AE2000F048F8002000F045F83B
:102D3000102000F042F8402000F03FF8812000F021
:102D40003CF8802000F039F8C82000F036F8A120C7
:102D500000F033F8202000F030F8002000F02DF8CB
:102D6000A62000F02AF8A82000F027F83F2000F065
:102D700024F8D32000F021F8002000F01EF8D52020
:102D800000F01BF8F02000F018F8D92000F015F83A
:102D9000F12000F012F8DA2000F00FF8122000F015
:102DA0000CF8DB2000F009F8402000F006F8402085
:102DB0001649087000F017F801BD38B505007824F1
:102DC0006846002101806846457015480068000487
:102DD00001D500BFF9E70222694601202043C0B2B5
:102DE00000F0EAF931BD10B578240D480068000400
:102DF00001D500BFF9E70B4A044901202043C0B2C6
:102E000000F0DAF910BD0000044400088809002031
:102E1000890900200C670008CC6600081027000014
:102E200018540040010400000CB41CB5040004A8B0
:102E30000190009401AB0A006946084878441C30B0
:102E4000FEF722F80021009A1170002801D40098A2
:102E5000001B02B0019910BC03B0084797F1FFFFB7
:102E6000020000E0521C1378002BFBD10B7813708A
:102E7000002B02D0521C491CF8E77047002800D5EF
:102E80004042704700B51249096802220A431049BE
:102E90000A6031210F4A116080B20F4908600F4962
:102EA000096801220A430D490A600D490968082290
:102EB0000A430B490A600A49096801220A43084982
:102EC0000A6007490968C90701D500BFF9E700BDD5
:102ED0001C100240280400402C0400401404004050
:102EE00000040040AF48006803210143AD48016081
:102EF000AC4800680C210143AA480160AA48006858
:102F000001210143A8480160A7480068042101434A
:102F1000A5480160A14800688021890301439F48BA
:102F200001609D4800688021890301439A4801603F
:102F3000994800689A490140974801609B48006899
:102F4000A021C90501439948016098480068032100
:102F5000014396480160954800688021490001437B
:102F60009248016091480068904908608F48006865
:102F70008021490301438D480160704700B58C4AA8
:102F8000126801239A438A4B1A60894A1268012306
:102F90001343874A1360C34A1268864B1340C14AE1
:102FA000136089B2FF290EDDBE4A1268FF231B049D
:102FB0001343BC4A1360BB4A126880235B0413436B
:102FC000B84A13600BE0B74A12680B041343B54AC2
:102FD0001360B44A1268B44B1340B24A1360B14A4A
:102FE0001268FF239A43AF4B1A60AE4A1268C0B210
:102FF0000243AC4B1A60AB4A12688023DB001343D8
:10300000A84A1360A74A126880239B011343A54A6C
:10301000136000BDF8B505000C001600A348006859
:10302000000468D4310089B22800C0B2FFF7A6FFBF
:10303000B6B2FF2E00DDFF3E9C480068400704D575
:103040009B4800682070641CF6E7984800684006BA
:1030500009D5944800688021C90101439148016065
:1030600002200700E8E791480068000625D58D4852
:103070000068504901408B480160B6B2FF2E0FDD59
:1030800088480068FF21090401438648016085489B
:10309000006880214904014382480160FF3ECBE77C
:1030A00080480068310401437E4801607D48006823
:1030B0007D4901407B480160BEE77C480068C0064E
:1030C0000ED57C480068102101437A480160794898
:1030D00000682021014377480160032007000CE0CD
:1030E000724800688006A7D5724800682021014315
:1030F0007048016001E0012007003800C0B2F2BD55
:1031000000B52B4A126801239A43294B1A60284ABA
:10311000126801231343264A1360624A1268254B42
:103120001340604A136089B2FF290EDD5D4A1268C0
:10313000FF231B0413435B4A13605A4A126880231F
:103140005B041343574A13600BE0564A12680B04A2
:103150001343544A1360534A1268534B1340514A65
:103160001360504A1268FF239A434E4B1A604D4A2F
:103170001268C0B202434B4B1A604A4A12684E4B67
:103180001340484A1360474A126880239B01134347
:10319000444A136000BD0000101002401C100240A1
:1031A000FFFFDFFF081400480C14004810540040D3
:1031B00000540040FFFF00FFF8B505000C001600AA
:1031C0003A480068000468D4310089B22800C0B2CF
:1031D000FFF796FFB6B2FF2E00DDFF3E33480068D2
:1031E000800704D5207835490860641CF6E72F482D
:1031F0000068400609D52B4800688021C9010143B9
:103200002848016002200700E8E728480068000617
:1032100025D5244800682A49014022480160B6B2F9
:10322000FF2E0FDD1F480068FF21090401431D48E0
:1032300001601C480068802149040143194801606D
:10324000FF3ECBE717480068310401431548016091
:10325000144800681449014012480160BEE7134851
:103260000068C0060ED513480068102101431148BC
:10327000016010480068202101430E4801600320CE
:1032800007000CE0094800688006A7D509480068D7
:10329000202101430748016001E0012007003800B8
:1032A000C0B2F2BD04540040FFFFFFFE18540040BE
:1032B000245400401C540040FFFBFFFF28540040F2
:1032C000FFFF00FF704718000121C206D20E914097
:1032D000254A116070470121C206D20E9140234A4F
:1032E00011607047F0B540B2002821D5204C40B2A3
:1032F0000207120F083A9508042255431C4A40B2AF
:1033000003071B0F083B9B0804267343D258FF2377
:103310008607B60F08277E43B3409A438B01DBB282
:103320008607B60F08277E43B340134363511AE064
:10333000104A40B2830804246343D258FF23840711
:10334000A40F08256C43A3409A438B01DBB284078A
:10335000A40F08256C43A3401343064A40B28408D7
:1033600004256C431351F0BD00E100E080E100E072
:103370001CED00E000E400E0F0B589B0BD488078C5
:10338000022800D075E2BB48817CBA48407C00022C
:103390000843B849097C09040143B648C07B0006CC
:1033A00008430890D7480078022800D15EE2D6484A
:1033B00040690899884204D0D348008B002800D186
:1033C00054E20020D1494880CF48008B002809D022
:1033D0000020CD4908830898CB4948611E21CC487C
:1033E000FDF765FCCB480068401CCA490860C64828
:1033F000408BDA4941430D009E48C07801029D4848
:10340000007908437D2148436421FEF745FC010013
:103410002800FEF744FC0790964840790002954941
:1034200089790843B84908829248C07901029148D5
:10343000007A08437D2148436421FEF72DFC0100FA
:103440002800FEF72CFC06908A48407A0102894841
:10345000807A08437D2148436421FEF71DFC01006A
:103460002800FEF71CFC05908248C07A01028148C2
:10347000007B08437D2148436421FEF70DFC0100D9
:103480002800FEF70CFC04907A48407B0102794842
:10349000807B08437D2148436421FEF7FDFB01004A
:1034A0002800FEF7FCFB039007989749C88007980F
:1034B000AB49884202D3AA489349C88006989249EA
:1034C00008810698A649884202D3A5488E490881FA
:1034D00005988D4948810598A149884202D3A048A2
:1034E0008949488104988849888104989C49884280
:1034F00002D39B488449888103988349C8810398F3
:103500009749884202D396487F49C8817E4880887F
:10351000022819DB7C484088002808D17A48808836
:10352000794948801E21D448FDF7C1FB07E0764861
:103530004088012803D11E21D048FDF7B8FB72480E
:103540004088401E70494880CD480078002800D04F
:10355000F6E06D48018A00916B48008A0A21FEF767
:103560009BFB0099081A02906748018A00916648FF
:10357000008A0A21FEF790FB009908180190C148C3
:103580006149098818224A438018C08A02998842F2
:1035900017D30199BB485C4A128818235343C018BB
:1035A000C08A81420DD3B8480088002809D0002085
:1035B000B64908600020B64908700020B549087077
:1035C000BEE0B1480088002858D0B04800684E4995
:1035D000098A4018AD490860AD480078401CAC49E4
:1035E0000870AC480078401CAA490870A8480078C8
:1035F000052800DAA4E0A5480068A5490978FEF787
:103600004EFBA549088000209F490880A2480188F8
:103610000091A14800880A21FEF73EFB0099081A94
:1036200007009D48018800919B4800880A21FEF709
:1036300033FB00990818060001200400E4B20F2CA7
:1036400000DB7DE08F48E4B2182161434018C08A56
:10365000B84211D38B48E4B2182161434018C08AA4
:10366000864209D3E4B28848048001208449087066
:1036700066E000BF2C120020641CDFE7854800785C
:10368000401C84490870844800880299884211D3FC
:1036900001988149098888420CD37D480078401CF4
:1036A0007B490870794800681749098A40187749AA
:1036B00008600AE01448008A7749088001207449AC
:1036C00008701148008A71490860714800780A281A
:1036D00022DB6E4800686E490978FEF7E0FA6E4911
:1036E0000880022066490870002067490880002091
:1036F0006849087000206649087000206349086026
:103700001EE000BFC61100208C0D00205C120020BE
:103710002C720008141200205E4800780F280FD386
:103720001E219948FDF7C3FA002055490870002072
:103730005849087000205649087000205349086015
:10374000A5480078012800D090E0A4480088FF2810
:1037500008DB1E21A248FDF7AAFA87E0A086010037
:10376000FFFF00009F48C1889E489C4A12880223A0
:103770005343C01881839C4801689A48974A12882D
:1037800002235343C018808B081897490860934858
:103790000088401C9149088090480088022844DB3A
:1037A000914800688D490988FEF779FA8F490880A9
:1037B00000208F490860002004002000C0B2874923
:1037C000098880B2884228D2884800888549E4B2B6
:1037D000022262438918898B88420ED3844800688C
:1037E000824909887F4AE4B202236343D218928B4C
:1037F000891A40187E4908600DE07D4800687949C3
:10380000E4B2022262438918898B784A1288891AA5
:10381000401877490860641CCFE7754800686F4915
:103820000988FEF73CFA7349088016486D490988F3
:1038300018224A438018808A002817D06948C08817
:103840006849C98848436C49FEF726FA0D49654A1C
:10385000128818235343C918898A48436649FEF7DA
:103860001BFA0221FEF718FA644908800020644917
:10387000887009B0F0BD000098700008A8700008BA
:103880002A110020B80F00202C1100202411002044
:1038900028110020291100202011002080B559484E
:1038A0000068012101435748016057480068012121
:1038B000014355480160544800680121884352493A
:1038C0000860312051490860514852490860524807
:1038D00000885249C96E886151480068012101433E
:1038E0004F4801604E480068302101434C48016058
:1038F0004C4800680A2101434A4801604848006872
:103900004749086047480068012101434548016074
:10391000454800680221014343480160424800686D
:10392000012101434048016040480068404901408E
:103930003E4801603D480068022188433B490860D9
:103940003A480068012188433849086000202C4922
:10395000087000202A4948700020294988700F20EB
:10396000FFF7B2FC0F210F20FFF7BCFC31480068C5
:10397000012101432F4801602E48006802210143C4
:103980002C48016001BD0000B870000880B51D48DA
:103990000068012188431B4908601F4800881F49AF
:1039A000C96E88621F480068012188431D4908606C
:1039B0001D480068022188431B4908601A480068B6
:1039C000012188431849086001200D4988700F20A3
:1039D000FFF781FC01BD0000C6110020B00F0020E0
:1039E000C87000088C0D0020A80F0020B40F002024
:1039F000AC0F0020B60F002010270000B20F0020EF
:103A00002C1200201C100240101002402800004020
:103A1000E09304002C0000403C670008CC660008DE
:103A200018000040200000400C0000401000004042
:103A3000FFFDFFFF1400004000B5A24800688005AC
:103A400022D5A0480068A04901409E4801609D48D9
:103A50000068022188439B4908608020C0050068F7
:103A6000012188438021C905086098488078022890
:103A700000D125E100209549087000209349487045
:103A80000020924988701BE18E480068800700D4AE
:103A9000F7E08C480068022188438A4908608B4817
:103AA0008078022808D18020C00500680121884361
:103AB0008021C905086003E18548006880062AD591
:103AC000844800688449884221D28248006883493A
:103AD00088421CD38020C0050068012188438021D2
:103AE000C905086000207949087078484078102896
:103AF00007D176488078032803D002207349887064
:103B000005E000207149487000207049887000204D
:103B100070490860D4E08020C0050068C00700D468
:103B2000A3E08020C0050068012188438021C905E9
:103B30000860684800686A49884212D2654800688F
:103B4000684988420DD361488078002809D1002057
:103B50005E49087000205D49487001205B4988700B
:103B600083E05C4800686049884233D25948006865
:103B70005E4988422ED35548807801282AD153487F
:103B8000524949784018C0780121504A1278914032
:103B900088434E494D4A52788918C8704B4800787E
:103BA000401C4A4908704948007808285DDB00201D
:103BB0004649087045484078401C4449487043488D
:103BC0004078112851DB03204049887000203F498C
:103BD00048704AE03F4800683F49884233D23D4838
:103BE00000683E4988422ED33848807801282AD17F
:103BF0003648364949784018C0780121334A12784E
:103C0000914001433148314A52788018C1702F48A1
:103C10000078401C2D4908702C480078082824DBC7
:103C200000202A49087029484078401C27494870DC
:103C300026484078112818DB03202449887000208A
:103C40002249487011E08020C005006801218843A6
:103C50008021C905086000201C49087000201B490C
:103C600048700020194988702AE000202049086027
:103C70008020C0050068012101438020C00501604B
:103C80001EE010480068C0071AD50E4800680121E0
:103C900088430C4908608020C005006801218843E2
:103CA0008021C905086009488078022808D00020D2
:103CB00006490870002005494870002003498870B3
:103CC00000BD000010000040FFFDFFFF2C1200208F
:103CD0001000004834000040BB040000DE03000078
:103CE000131B00002616000075090000BC07000029
:103CF0002400004080B57B480078002803D0794834
:103D00000078012812D17848808802280EDB764896
:103D1000408875498988884208D0734880887249EC
:103D200048801E217148FCF7C2FF17E06D480078FB
:103D3000012813D16E48008800280FD000206C495C
:103D4000088000206B49086000206B490880002033
:103D50006A4908801E216A48FCF7A9FF01BDF0B539
:103D600083B001A867490A8802800020070000206C
:103D7000060000200500EDB20D2D1ED2002004002B
:103D8000E4B2082C17DA6048EDB2405D0121A14091
:103D9000084207D001223119C9B27819C0B2FEF722
:103DA00006FF06E000223119C9B27819C0B2FEF749
:103DB000FEFE641CE4E76D1CDDE7C84800780628B9
:103DC0004EDB7D2007000A20060000200500EDB232
:103DD000342D0FDA00200400E4B2022C08DA0122AC
:103DE0007119C9B23819C0B2FEF7E1FE641CF3E7DD
:103DF0006D1CECE77C200700B9480078401E2C21A0
:103E00004843B6490978491EFDF746FF69464870A0
:103E1000684640780A30060000200500EDB2042D07
:103E20001ED200200400E4B2082C17DAAD48EDB22F
:103E3000405D0121A140084207D001223119C9B2D9
:103E40007819C0B2FEF7B3FE06E000223119C9B2FC
:103E50007819C0B2FEF7ABFE641CE4E76D1CDDE729
:103E600068469F490978A04A1278891A81709F4A4A
:103E700001210E20FEF789FE01AA684680780A21FA
:103E80004843801C0100C9B20020FEF77EFE934823
:103E90000078062804DA684690490978017002E043
:103EA0000520694608700020050028006946097849
:103EB000C0B2884214D28E488B490978EDB24919B4
:103EC0001422514340188B494218EDB20A2068432E
:103ED0000C300100C9B20820FEF757FE6D1CE4E764
:103EE000F7BD0000C61100208C0D0020887100086D
:103EF000B00F0020A80F0020B60F0020B40F002044
:103F000098710008EA21000868710008F0B58FB0C8
:103F100079487A49098818224A43821800210020EA
:103F2000FEF733FE7548C0886421FDF7B5FE040036
:103F300068467249C988A4B264226243891A4181E1
:103F4000A4B2002C03D168466C49C98841812F2056
:103F5000009068464389A4B2220069490DA8FEF783
:103F600063FF0DAA18210020FEF7D0FD63480089E9
:103F70006421FDF791FE020062A106A8FEF754FF3E
:103F800006AA0F216220FEF700FE5C4840896421EA
:103F9000FDF782FE02005BA105A8FEF745FF05AA1A
:103FA00019216220FEF7F1FD544880896421FDF754
:103FB00073FE020053A104A8FEF736FF04AA2321D2
:103FC0006220FEF7E2FD4D48808802280DDB4B4859
:103FD00083884A484288C3490BA8FEF725FF0BAAED
:103FE0002D215C20FEF7D1FD0EE04448C0896421FC
:103FF000FDF752FE020043A103A8FEF715FF03AA36
:104000002D216220FEF7C1FDB7480021405EFEF77A
:1040100035FF0A21FDF740FE0400A4B220000A216A
:10402000FDF73AFE0500A4B2ADB20A206843201A9B
:104030000700ADB2002D00D12700F8200190BFB2DB
:104040000097ADB22B00E222A84909A8FEF7ECFECA
:1040500009AA28210020FEF798FD08233822A2484B
:1040600081888C46A0480021405E6146FEF774FAC4
:104070009D480221405EFEF701FF0A21FDF70CFE7C
:104080000400A4B220000A21FDF706FE06006846DF
:10409000A4B2B6B20A217143611A0181B6B2002EF0
:1040A00001D168460481F82001906846008900909B
:1040B000B6B23300E8228D4907A8FEF7B5FE07AA7D
:1040C00028212A20FEF761FD8748C1888648022200
:1040D000805EFEF769FB0FB0F0BD000068090020AC
:1040E00067090020DC72000869090020D807002059
:1040F00008040020E3030000B80F00208C0D00200E
:10410000FC7100082575000030B591B0B148B24986
:10411000098818224A43821800210020FEF735FD45
:10412000AD48C0886421FDF7B7FD0400AA48C088E7
:10413000A4B264216143401A0500A4B2002C02D14C
:10414000A548C08805002F200090ADB22B00A4B276
:104150002200A2490EA8FEF767FE0EAA1821002031
:10416000FEF7D4FC9C4800896421FDF795FD020010
:104170009BA105A8FEF758FE05AA0F216220FEF7B5
:1041800004FD954840896421FDF786FD020094A155
:1041900004A8FEF749FE04AA19216220FEF7F5FCE7
:1041A0008D4880896421FDF777FD02008CA103A86A
:1041B000FEF73AFE03AA23216220FEF7E6FC8648BA
:1041C000808802280DDB84488388834842884549DB
:1041D0000CA8FEF729FE0CAA2D215C20FEF7D5FCC9
:1041E0000EE07D48C0896421FDF756FD02007CA1E8
:1041F00002A8FEF719FE02AA2D216220FEF7C5FCD7
:104200007848028876A101A8FEF70EFE01AA3721A0
:104210006220FEF7BAFC744800886421FDF73CFD7B
:10422000040071480088A4B264216143401A05006B
:10423000A4B2002C02D16C4800880500ADB20095F4
:10424000A4B22300E622694908A8FEF7EDFD08AAFA
:1042500024210020FEF799FC654800886421FDF7C1
:104260001BFD040062480088A4B264216143401A27
:104270000500A4B2002C02D15D4800880500ADB253
:104280000095A4B22300E522584906A8FEF7CCFD0C
:1042900006AA24213120FEF778FC564800886421C4
:1042A000FDF7FAFC040053480088A4B2642161437E
:1042B000401A05003A200090ADB22B00A4B22200B3
:1042C00046490AA8FEF7B0FDA4B2002C02D1494825
:1042D000008805000AAA38210020FEF717FC11B05B
:1042E00030BD0000647200086412002008720008EB
:1042F000F0B589B040480021405EFEF7BFFD0A21BD
:10430000FDF7CAFC0400A4B220000A21FDF7C4FC9A
:104310000500A4B2ADB20A206843201A0700ADB26E
:10432000002D00D127003D200190BFB20097ADB213
:104330002B003B22314906A8FEF776FD06AA08218C
:104340000020FEF7E3FB2C2312222B4881888C46A9
:1043500029480021405E6146FEF7FEF8264802210A
:10436000405EFEF78BFD0A21FDF796FC0400A4B227
:1043700020000A21FDF790FC06006846A4B2B6B200
:104380000A217143611A0181B6B2002E01D168463B
:104390000481F8200190684600890090B6B233008D
:1043A000E822164904A8FEF73FFD04AA00214C208C
:1043B000FEF7EBFBF82000900F488388F1221049AC
:1043C00003A8FEF731FD03AA09214C20FEF7DDFB0F
:1043D00009B0F0BDB80F00208C0D0020FC71000862
:1043E00025750000B00F0020B40F002014720008E3
:1043F000B60F0020B20F00206412002008720008DF
:104400006C720008000000000000003E4551453E6F
:10441000003E6B6F6B3E001C3E7C3E1C00183C7ED9
:104420003C180030367F363000185C7E5C18000087
:10443000000000000000000000000000000000007C
:104440000000000000000030484A360E00062979BE
:10445000290600000000000000607E0A353F002AA7
:104460001C361C2A00007F3E1C0800081C3E7F00F2
:104470000014367F361400005F005F000006097FDD
:10448000017F00224D5559220060606060000014D9
:10449000B6FFB6140004067F06040010307F30100B
:1044A0000008083E1C0800081C3E08080078404030
:1044B000404000083E083E0800303C3F3C300003CE
:1044C0000F3F0F030000000000000000065F060021
:1044D00000070300070300247E247E2400242B6AA7
:1044E0001200006313086463003649562050000030
:1044F0000703000000003E4100000000413E0000B4
:1045000000083E1C3E080008083E08080000E06065
:104510000000000808080808000060600000002093
:1045200010080402003E5149453E0000427F400011
:10453000006251494946002249494936001814127F
:104540007F10002F49494931003C4A494930000158
:104550007109050300364949493600064949291EB3
:1045600000006C6C00000000EC6C000000081422DD
:1045700041000024242424240000412214080002C5
:1045800001590906003E415D551E007E1111117E44
:10459000007F49494936003E41414122007F414167
:1045A000413E007F49494941007F09090901003E18
:1045B0004149497A007F0808087F0000417F410097
:1045C00000304040403F007F08142241007F4040BF
:1045D0004040007F0204027F007F0204087F003E0B
:1045E0004141413E007F09090906003E4151215EDB
:1045F000007F090919660026494949320001017FF7
:104600000101003F4040403F001F2040201F003F6D
:10461000403C403F0063140814630007087008071B
:1046200000714945430000007F4141000002040839
:104630001020000041417F0000040201020480803C
:1046400080808080000003070000002054545478CC
:10465000007F4444443800384444442800384444EB
:10466000447F00385454540800087E09090000189B
:10467000A4A4A47C007F040478000000007D400016
:10468000004080847D00007F102844000000007FEF
:104690004000007C04180478007C04047800003892
:1046A0004444443800FC444444380038444444FC06
:1046B00000447844040800085454542000043E4444
:1046C0002400003C40207C00001C2040201C003CBA
:1046D0006030603C006C10106C00009CA0603C00DE
:1046E000006454544C0000083E4141000000007733
:1046F0000000000041413E08000201020100003CB0
:104700002623263C001EA1E12112003D40207D0011
:1047100000385454550900205555557800205554FB
:104720005578002055555478002057555778001C6F
:10473000A2E2221400385555550800385554550842
:104740000038555554080000017C41000000017DEF
:1047500041000000017C400000702924297000788D
:104760002F252F78007C545455450034547C5458E0
:10477000007E097F494900384545390000384544E5
:104780003900003945443800003C41217D00003D9E
:1047900041207C00009CA1603D00003D42423D0064
:1047A000003C41403D0080706858380400483E4954
:1047B0004962007E615D433F0022140814220040DC
:1047C000887E09020020545555780000007D410084
:1047D000003844453900003C40217D00007A090A38
:1047E0007100007A1122790000085555555E004E7F
:1047F00051514E000030484D40203E415D4B553EEA
:1048000004040404041C0017084C6A500017083400
:104810002A780000307D30000008140008140014CD
:1048200008001408441144114411AA55AA55AA5568
:10483000BBEEBBEEBBEE000000FF0000080808FF67
:10484000000000702825297000702925297000704B
:10485000292528703E415D55413E0AFB00FF0000BE
:1048600000FF00FF00000AFA02FE00000A0B080F1A
:10487000000000182466240000292A7C2A29080840
:1048800008F800000000000F08080808080F0808D2
:10489000080808F80808000000FF080808080808C9
:1048A0000808080808FF08080020565556790070C7
:1048B0002A252A71000F080B0A0A00FE02FA0A0ACA
:1048C0000A0B080B0A0A0AFA02FA0A0A00FF00FB9E
:1048D0000A0A0A0A0A0A0A0A0AFB00FB0A0A005D17
:1048E0002222225D00225559300000087F49413EB6
:1048F000007C55555544007C55545544007C555515
:1049000054440000000700000000447D4500000002
:10491000457D45000000457C45000808080F000063
:10492000000000F80808FFFFFFFFFFFFF0F0F0F0C5
:10493000F0F00000007700000000457D4400000119
:1049400001010101003C42433D0000FE4A4A34009F
:104950000001314A3C02003D43423C000032494ADA
:1049600031001C2222261A02FF2020103F2000FEC8
:10497000AA281000000C12FF120C003C40413D0020
:10498000003C41413D00003D41403C00009CA06195
:104990003D0000040871090400000202020000004A
:1049A000070300000000080808000000242E24006F
:1049B00000242424242405170A342A780006097FB9
:1049C000017F00224D5559220008082A08080000DE
:1049D0000818180000060909060000000800080071
:1049E00000000800000000020F00000000090F0591
:1049F000000000090D0A0000003C3C3C3C000000A7
:104A00000000000080B50121232000F019F849487A
:104A1000FEF738FA0021232000F012F800212420AC
:104A200000F00EF81021252000F00AF84248434912
:104A3000888041484149C8803F484049088101BDBC
:104A400070B582B006000D003A24684606706846CC
:104A50004570B6480068000401D500BFF9E702229E
:104A600069462000C0B2FEF7A7FB73BD11B581B047
:104A70003A24AE480068000401D500BFF9E70122DE
:104A800001A92000C0B2FEF797FBA8480068000407
:104A900001D500BFF9E70122694601202043C0B2D9
:104AA000FEF7B8FA6846007816BD10B582B03A2411
:104AB0002820694608709D480068000401D500BFA1
:104AC000F9E7012269462000C0B2FEF775FB97485E
:104AD0000068000401D500BFF9E7062294490120CF
:104AE0002043C0B2FEF796FA13BDF0B585B00500BD
:104AF0000C0017002100200000F044F9029039005A
:104B0000380000F03FF901900199029800F028F96F
:104B10000600002E01D1012006003100280000F01F
:104B20007BF90090009800F050FA0390039805B0CC
:104B3000F0BD000010270000FF3F0000FC11002026
:104B4000F0B585B00A247B4800780100C9B2102076
:104B5000FFF776FF774840780100C9B21120FFF7D0
:104B60006FFF744880780100C9B21220FFF768FF18
:104B700087212020FFF764FFE4B2002C36D02720E5
:104B8000FFF774FF694608736846007B8007F3D01F
:104B9000FFF78BFF6748007C6649497C09020143A7
:104BA00009B2654800F022FA6249488163490880E9
:104BB0006048807C5F49C97C0902014309B26048B2
:104BC00000F014FA5B4988815C4948805948007DAF
:104BD0005849497D0902014309B25A4800F006FAD2
:104BE0005449C88155498880641EC5E700212020AA
:104BF000FFF726FF4F480A21415E534800F008FAAC
:104C00004C4948814B480C21415E504800F000FA65
:104C10004849888147480E21415E4D4800F0F8F927
:104C20004449C88143480A21415E4A4800684843D4
:104C300040490422895EFDF72FF807003D480C210A
:104C4000415E4448006848433A490622895EFDF7C0
:104C500023F8060037480E21415E3E48006848436D
:104C600034490822895EFDF717F8050039480068C5
:104C7000874204DB374800680A38070009E03548F6
:104C800000684142B94204DB0A2032490968401AEF
:104C9000070030480068864204DB2E4800680A3866
:104CA000060009E02B4800684142B14204DB0A20BB
:104CB00028490968401A060026480068854204DB36
:104CC000244800680A38050009E02248006841428B
:104CD000A94204DB0A201F490968401A05001E4842
:104CE00002902A0039003000FFF7FFFE0190019981
:104CF000029800F047F8019001986421484300149D
:104D000016490880320039002800FFF7EEFE0090B7
:104D10000099029800F036F800900098642148430A
:104D200000140E49488005B0F0BD00001854004042
:104D30000C120020FC110020E41100204012002081
:104D4000EC110020F4110020381100205411002033
:104D500070110020C8720008BA4B3900641200209C
:104D600030B5020013000C001D1920005840002827
:104D700006D428005840002802D56848006800E0A2
:104D8000280030BDF0B504000D002000E1172A0016
:104D9000EB1700F025FA02000B0010001900C813F1
:104DA000C9170600002B0CDC01DB002A09D2F043F6
:104DB000002802D05948006817E00020521E8341A5
:104DC00004E0002E02D0554800680EE010001900E3
:104DD000000C0F04384309140100100000B2C01386
:104DE0000700FF07FF0F3FB2C819F0BD00B5010073
:104DF0000022002901D120200DE0080F0007002823
:104E000002D1121D0901F8E7002902D4521C490001
:104E1000FAE71000C0B200BDF3B583B004980028D3
:104E200002D13F48006877E00398002801D4039C32
:104E300001E0039844420498002801D4049E01E054
:104E400004984642002002901125300D00050028EC
:104E500019D0770C7F1C20003900FCF720FF02904E
:104E600020000021009001910298002132000023CF
:104E700000F0B6F9400CCA031043490C009A019B9C
:104E8000121A8B4114003007000F002804D1042DA2
:104E900002DB36092D1FF6E7002C29D0002D27D480
:104EA0002000FFF7A3FF00900098854200DA0095EC
:104EB0000098844000982D1A20003100FCF7EFFE86
:104EC000070020003100FCF7EAFE0C0002993800D0
:104ED000A840081802900020C043E840C143394070
:104EE000002902D00D48006816E064006D1ED3E76B
:104EF0000298401C0290029841080398049A42408C
:104F0000002A08D506480068814202D1034800689B
:104F100002E048420100080005B0F0BDB872000888
:104F2000B4720008F1B584B00C000498C017029068
:104F3000049802994018029941400091002C1ED417
:104F4000009821180098201AFFF766FF0700390023
:104F50003800FFF717FF3900FFF714FF01900199A0
:104F6000C9208001FFF70EFF050039001C48FFF73C
:104F700009FF281A1B490968401806001DE000981F
:104F8000011B00982018FFF747FF07003900380081
:104F9000FFF7F8FE3900FFF7F5FE01900199C920EF
:104FA0008001FFF7EFFE050039000D48FFF7EAFE2C
:104FB000281A0D490968401806000498002801D5F0
:104FC00070420600300005B0F0BD10B50400034883
:104FD00001682000FFF7A6FF10BD0000C4720008A2
:104FE00050FB0000BC720008C072000830B504001D
:104FF0000D0020682DB240190421615E401A206026
:1050000020683021FCF748FEA0800420205E30BDDF
:10501000F0B58DB005000E00E86804906A480421E0
:10502000405E00F0F7F8070000200400022C09DAC7
:1050300002206043285E09A904226243891848605F
:10504000641CF3E70A9800F0E5F80100049800F00A
:10505000FAF800F051F900B206900698E880049939
:10506000686900F0F0F80100049800F0ECF8010025
:10507000009155480221405E00F0CCF8009900F004
:1050800058F902900298A8610298390000F0DBF804
:1050900001900298390000F0D6F8390000F0D3F8FA
:1050A0000100009148480021405E00F0B3F80099EB
:1050B00000F03FF90100019800F0CBF9039003984C
:1050C0002861069800F0A6F80100019136B2300080
:1050D00000F0A0F80090069800F09CF8390000F06D
:1050E000B2F80100009800F05CF9039900F0ABF809
:1050F000019900F01EF900F0FFF800B209900020BD
:105100000400032C08DA09A8042161434058022155
:1051100061436852641CF4E70398390000F093F887
:105120000100FE20800500F03CF90100029800F02B
:105130008AF8686109980A9902225143401A0B992A
:10514000401808900820285E089940180790079892
:105150002881079800F05EF81C4900F07AF9059064
:1051600005981B4900F0CAF90AD20598194900F0C0
:10517000D9F905D80599FE20800500F0DAF8E86035
:10518000686900F0E3F9022801D1002068610998FC
:1051900000B20DB0F0BD10B504000F48006824B295
:1051A00000190E490022895E401A0B4908600A481E
:1051B00000686421FCF770FD084908800748002159
:1051C000405E10BD000000003011002000FC7F4652
:1051D0000100803F000080BF701200207812002084
:1051E00030B4434351435D18010C0C00130C5C4375
:1051F0002D1980B2434392B251430024C91864412F
:1052000024040B04090C09195043C018694130BC2F
:10521000704719009D21020008D5F446524200F063
:1052200005F80122D2071043604700000AD002D4DB
:10523000491E9218FCD5C905100A1206524100D326
:10524000012A4841704730B405004D400122D20781
:1052500015404B180418240E2ED01B0E32D0FF2CF4
:1052600034D0FF2B3AD0E418000209021043114356
:10527000000A090A9446C2B24A43000AC3B24B4329
:10528000000A4843110A5B181A43D2B2190A0918D6
:1052900001D44918641E080A7F3C23DBFE2C08DA7F
:1052A000E40509061143634699416041284330BC37
:1052B0007047FF20C005F9E728001B0EFF2BF6D131
:1052C000D043F4E72800FF2CF1D1F9E74002F7D1F1
:1052D000FF2B01D14902F3D1E005E7E7D8054902E8
:1052E000E4D0EDE743020020641CDFD15B129B1C7D
:1052F000DCD9D805DAE71B000122D2070118090E14
:105300007F3910D449421F310FD4001805D2C00193
:105310001043C84000D5D0437047C0011043C84077
:1053200005D440427047002070470042F3D510007A
:1053300070470122D20703004B402ED4431A01D2FA
:10534000C01AC91830B44B180418240E1B0E22D0F2
:10535000FF2C20D0E31A182B1DDC09021143C40DC9
:10536000641E0002104394461925ED1A0A00AA4053
:10537000D940451801D36D08A41CE405D209280AB8
:105380002D062A436546AA41604103181B0EFF2BD8
:1053900001D3C00DC00530BC7047514006E05140FC
:1053A000CCE70122D20703004B40F8D4431A03D2C2
:1053B000C01AC9185040514030B44B18090211436B
:1053C0000418240E1B0E40D0FF2C3AD025009D411E
:1053D0000BD31ED8C50D4002401A0BD3ED050100BA
:1053E000400AC90591416841D5E7C50D40024918F9
:1053F000401AD0D001214008491C0018FCD58C422D
:1054000004D36D1A000AED054019C4E7E805104001
:10541000C1E7182DBFDCAC1C0D00E140E5414D405B
:10542000012D4941C40D00021043451A01D46D19E4
:105430009543641EE405280A2D069541604130BC61
:105440007047FF2BA7D1D843A5E72442A3D1002062
:10545000A1E730B405004D400122D20715404B189A
:105460000418240E28D01B0E2FD0FF2C34D0FF2B75
:1054700037D0E41A000209021043114343084808D8
:10548000D10D1B1A02D2641EDB181B18DB188342D5
:1054900000D31B1A4941F9D37F3426DDFE2C08DAEC
:1054A000E4054808C907194391416041284330BCCD
:1054B0007047FF20C005F9E728001B0E03D0FF2B23
:1054C000F5D14902F3D0D043F1E7FF2C01D14002DE
:1054D000F9D1FF20C005E9E74002F4D1FF2BF8D154
:1054E000F1E728004902E2D0EDE70B020020244258
:1054F000DCD15B129B1CD9D9D805D7E70CB40122AB
:1055000012060318DA4207D84B18DA4204D8020010
:105510000A43921802D288420CBC7047FCD08142E8
:10552000FAE71A000CB4012212060318DA4207D86F
:105530004B18DA4204D802000A43921802D2814280
:105540000CBC7047FCD088420CBC70474100090E6F
:10555000FF2906D0002902D00020C0437047002058
:105560007047400201D00220704701207047DF00E1
:1055700080B5674800680069BA4909880840002872
:1055800008D1B9480078652804DAB7480078401C8B
:10559000B5490870B54800680069B54909880840F0
:1055A000002808D1B0484078652804DAAE48407831
:1055B000401CAD494870AF4800680069B54909888A
:1055C000084000280CD1A8488078652808DAA64849
:1055D0008079002804D1A4488078401CA2498870B2
:1055E000AD48806F0069AD490988084000280CD19A
:1055F0009D48C078652808DA9B48C079002804D106
:105600009948C078401C9849C870414800680069B2
:1056100094490988084000280FD093480079002851
:105620000BD191480078002807D08F4800781428C3
:1056300003DA00F021F9032012E13548006800691F
:1056400088490988084000280ED187480079002839
:105650000AD185480078142806DB00F00DF90120F6
:10566000814908710320FBE02948006800697D49F1
:105670000988084000280BD17B480079012807D110
:1056800079480078022803DB00F0F6F80320E7E011
:105690001F4800680069734909880840002807D03E
:1056A00071480079012803D100206F490871D6E0C4
:1056B0006E48006800696E490988084000280FD0CC
:1056C0006948407900280BD167484078002807D006
:1056D00065484078142803DA00F0CEF80420BFE0D3
:1056E000624800680069624909880840002811D1B1
:1056F0005D48407900280DD15B484078142809DBCB
:1057000000F0BAF80120584948710420A8E000BF11
:1057100050670008554800680069554909880840E5
:1057200000280BD150484079012807D14E484078D5
:10573000022803DB00F0A0F8042091E04B48006849
:1057400000694B4909880840002807D0464840793D
:10575000012803D100204449487180E04548006891
:1057600000694C490988084000280BD03E488079E0
:10577000002807D13C488078002803D000F07CF84E
:1057800005206DE03B4800680069424909880840EF
:1057900000280ED13448807900280AD13248807818
:1057A000142806DB00F068F801202F4988710620D4
:1057B00056E03048006800693649098808400028EA
:1057C0000BD029488079012807D127488078002804
:1057D00003D100202449887141E02F48806F00697F
:1057E0002E490988084000280FD01F48C07900289A
:1057F0000BD11D48C078002807D01B48C07814285A
:1058000003DA00F039F801202AE02348806F0069AC
:1058100022490988084000280ED11348C079002881
:105820000AD11148C078142806DB00F025F80120C1
:105830000D49C871022013E01748806F00691749AD
:105840000988084000280AD00748C079012806D1F5
:105850000548C078002802D100200349C871002003
:1058600002BD00BF54670008541200208067000882
:105870008467000874670008002009490870002048
:105880000749487000200649887000200449C87004
:105890007047000078670008CC6600084867000879
:1058A0005412002010B55D48924988805C489149A7
:1058B000C8805C488F4908815B488E4948815B48B5
:1058C0008C4988815A488B49C8815A48894908823D
:1058D0005948884948828848864988828748854946
:1058E000C88287488349088300200400E4B20F2C53
:1058F00013DAE4B22200521C82498348E4B218232E
:105900006343C018FDF790FA0A207F49E4B21822D9
:10591000624389188882641CE8E77C497C48FBF76D
:10592000A3FA7C497C48FBF79FFA7C497C48FBF74B
:105930009BFA05207B4988805A207A49C88001203B
:1059400079498880C82078494883FC2080057749B8
:10595000486177487549C861FC20800573498861B2
:10596000FC20800571490863714870498863FC20F8
:1059700080056E494863FC2080056C49C8646C480A
:105980006A494865FC208005684908650120674927
:1059900088800220654948800F20644908800520DE
:1059A00064498880002064490860002063490860D9
:1059B000002063490860634863490860634864499C
:1059C000086064486449086064486549086065483F
:1059D000FBF78CF900F0B4F90020FAF776FC00F040
:1059E0001FFAFBF77BF96049086000F0E0FA00F06D
:1059F00061FBFFF7BDFDC0B2FAF762FB4D480078CE
:105A00000128EED1FDF7B8FC58480078012801D0F4
:105A1000FFF796F800F012F8E3E7000036100000F8
:105A2000D20F0000820F0000410F0000190F00008C
:105A3000C90E0000B50E0000A60E000080B5FDF7EF
:105A400005F92C4841782B480078FCF765FF484859
:105A50000078012809D027D303281BD017D30528A5
:105A60001ED01AD306281ED01EE040480078002819
:105A700003D0022807D003D308E0FEF747FA05E079
:105A8000FEF742FB02E0FEF733FCFFE70CE0FEF717
:105A900066F909E0FCF701FC06E0FCF744FC03E0D2
:105AA000FCF7A4FB00E0FFE732480078012803D0B0
:105AB00030480078022807D100202E4908700E22B5
:105AC00019491148FAF7EAFD1748008B00280CD055
:105AD0001548008B401E144908831348008B00288A
