:020000040800F2
:10000000100400207D700008AF4F00083352000834
:1000100000000000000000000000000000000000E0
:100020000000000000000000000000002B5300084A
:100030000000000000000000775400081D70000858
:10004000AB540008DF620008576500085B670008D2
:100050005F6700086B700008637400086F74000825
:10006000097600080B760008297000080D76000854
:10007000B34A00080F760008117600082D460008E4
:10008000137600080000000000000000157600084C
:100090000000000017760008197600083970000883
:1000A000000000001B7600081D7600081F7600087F
:1000B000217600080000000023760008697000081F
:1000C00010B50400002C01D101205EE04120205C2D
:1000D000002805D1002040216054200001F08BF958
:1000E0002420412160542068006801218843216850
:1000F0000860606887490140206801612068806865
:100100008549014020688160E068012806D1A06827
:100110008021090201432068816005E0A0688421F4
:100120000902014320688160E068022803D1802031
:1001300000012168486020684068784901432068D0
:1001400041602068C068744901402068C16020692E
:1001500061690143A069000208432168C860E06941
:10016000216A014320680160206800680121014381
:10017000206801600020606420204121605400203C
:100180002063002042216054002010BDFEB5040011
:100190000E00089F00254120205C202800D0B5E0FB
:1001A0004020205C012801D10220B0E00120402144
:1001B000605401F0A7F90500009519230122802160
:1001C0000902200000F03EFF002801D003209EE03D
:1001D000212041216054102042216054002060649D
:1001E0000198606268460089608500206063608DC8
:1001F000FF280ED9FF2020858020800100908023D9
:100200005B04228DD2B2310089B2200001F01CF8CB
:100210000DE0608D208580208001009080239B046C
:10022000228DD2B2310089B2200001F00DF8608D2C
:10023000002849D02A003900200000F02CFF0028B7
:1002400006D0606C042801D1012060E003205EE04C
:10025000606A411C6162007821688862608D401E7E
:100260006085208D401E2085208D0028DFD1608D87
:100270000028DCD000953B0000228021200000F007
:10028000E1FE002801D0032041E0608DFF280DD958
:10029000FF2020850020009080235B04228DD2B2B5
:1002A000310089B2200000F0CFFFC0E7608D2085CB
:1002B0000020009080239B04228DD2B2310089B2AD
:1002C000200000F0C1FFB2E72A003900200000F052
:1002D0000FFF002806D0606C042801D1012016E031
:1002E000032014E020202168C861206840686D491F
:1002F00001402068416020204121605400204221BB
:100300006054002040216054002000E00220FEBD27
:1003100000000000FFFFFFF0FF7FFFFF00800002F2
:10032000FEB504000E00089F00254120205C202817
:1003300000D0B5E04020205C012801D10220B0E0CF
:1003400001204021605401F0DDF8050000951923DB
:10035000012280210902200000F074FE002801D053
:1003600003209EE02220412160541020422160544D
:100370000020606401986062684600896085002002
:100380006063608DFF280ED9FF20208590208001BA
:10039000009080235B04228DD2B2310089B220000C
:1003A00000F052FF0DE0608D2085902080010090CC
:1003B00080239B04228DD2B2310089B2200000F04C
:1003C00043FF608D002849D02A003900200000F04A
:1003D000B8FE002806D0606C042801D1012060E03E
:1003E00003205EE0606A411C61622168496A017015
:1003F000208D401E2085608D401E6085208D002848
:10040000DFD1608D0028DCD000953B0000228021E8
:10041000200000F017FE002801D0032041E0608D8D
:10042000FF280DD9FF2020850020009080235B0449
:10043000228DD2B2310089B2200000F005FFC0E762
:10044000608D20850020009080239B04228DD2B2F5
:10045000310089B2200000F0F7FEB2E72A0039002F
:10046000200000F045FE002806D0606C042801D171
:10047000012016E0032014E020202168C8612068D4
:1004800040680849014020684160202041216054B3
:10049000002042216054002040216054002000E0F0
:1004A0000220FEBD00E800FEF8B582B004000F0097
:1004B000160000254120205C202878D12068806922
:1004C000000401D5022073E04020205C012801D106
:1004D00002206DE001204021605421204121605420
:1004E00010204221605400206064666268460089E2
:1004F00060853048E06231486063608DFF2805D92F
:10050000FF20208580204004050004E0608D2085C8
:10051000802080040500208D002831D02848A16B60
:1005200088622848A16B08630020A16BC862002084
:10053000A16B4863238D2068020028323100A06B34
:1005400001F01EF88020800100902B00228DD2B295
:10055000390089B2200000F077FE608D218D401AAD
:1005600060850020402160541121200000F083FEAE
:10057000206800688021C90101432068016014E0FF
:100580000D48606380208001009080239B04228DB1
:10059000D2B2390089B2200000F056FE002040217E
:1005A00060540121200000F066FE002000E00220DF
:1005B000FEBD00000000FFFF55060008F50800081A
:1005C000830F0008E90F000870B5040020688669F1
:1005D00020680568606B002804D02A0031002000E4
:1005E000636B984770BD70B5040020688669206809
:1005F0000568F00509D5280607D5606C012101437F
:100600006164802040002168C861700509D5280612
:1006100007D5606C0821014361648020C000216817
:10062000C861B00509D5280607D5606C02210143D1
:100630006164802080002168C861606C0B210140EA
:10064000002903D0616C200000F008FC70BD41213E
:10065000405C7047F8B504000D00160000274020EC
:10066000205C012801D10220A8E001204021605433
:10067000E8060CD5F0060AD510202168C861606C28
:10068000042101436164200000F068FC8AE06807EF
:100690000ED570070CD5606A411C61622168496AF9
:1006A0000170208D401E2085608D401E608579E0A0
:1006B000A8070ED5B0070CD5606A411C61620078AE
:1006C00021688862208D401E2085608D401E6085D7
:1006D00068E0280647D5700645D5208D002835D11D
:1006E000608D002832D0206840688005800D0700AA
:1006F000608DFF280DD9FF202085002000908023E9
:100700005B04228DD2B2390089B2200000F09CFD3A
:1007100048E0608D2085E06A754988420AD0002053
:100720000090E36A228DD2B2390089B2200000F035
:100730008BFD37E00020009080239B04228DD2B2F5
:10074000390089B2200000F07FFD2BE0206840686E
:10075000800103D4200000F0F9F923E040212000BB
:1007600000F07CFB1EE068061CD570061AD5608D73
:10077000002813D120684068800113D4E06A5C49E6
:10078000884207D1206840688021C9010143206860
:10079000416007E0200000F0D9F903E0402120008B
:1007A00000F05CFBA80605D5B00603D529002000A3
:1007B00000F026FA0020402160540020F2BD70B500
:1007C00004000D0016004020205C012801D1022009
:1007D0008CE0012040216054E80635D5F00633D581
:1007E000608D002828D1E06A80218904884204D0E5
:1007F000E06A80218904884208D14120205C2828B1
:1008000004D12900200000F0F3FA63E0E06A3849DF
:1008100088420DD04120205C292809D11020216870
:10082000C861200000F09AFB200000F0BCF951E004
:1008300010202168C8614DE010202168C861606CFB
:1008400004210143616445E068071BD5700719D591
:10085000608D00280BD0606A411C61622168496A82
:100860000170208D401E2085608D401E6085608D4A
:1008700000282FD1E06A1E4988422BD0200000F0CA
:1008800092F927E0280706D5300704D52900200073
:1008900000F0E9F81EE0A8071CD5B0071AD5608D56
:1008A00000280CD0606A411C61620078216888626F
:1008B000608D401E6085208D401E20850AE0E06A24
:1008C00080214904884202D0E06A002802D1200039
:1008D00000F069F9A80605D5B00603D52900200067
:1008E00000F0FAF9002040216054002070BD0000A3
:1008F0000000FFFFF0B583B004000E0017000020D9
:100900006946888000254020205C012801D1022012
:1009100069E0012040216054F00610D5F8060ED59C
:1009200010202168C861606C0421014361641221B8
:10093000200000F0A0FC200000F010FB4FE030068B
:1009400045D5780643D52068006840218843216852
:100950000860608D002835D068462168496889059F
:10096000890D8180608DFF2805D9FF20208580209A
:100970004004050004E0608D20858020800405008F
:10098000002000902B00228DD2B268468188200082
:1009900000F05AFC608D218D401A60854120205C5A
:1009A000222807D1206800688021090201432068BD
:1009B000016014E0206800688021C90101432068BB
:1009C00001600CE04021200000F048FA07E0B0068A
:1009D00005D5B80603D53100200000F011F900203C
:1009E000402160540020FEBD70B504000D001600CB
:1009F0004020205C012801D1022033E00120402169
:100A00006054E8061AD5F00618D54120205C21284C
:100A100003D1A06B0068406802E0E06B00684068AA
:100A2000002803D110202168C86117E01020216838
:100A3000C861606C0421014361640FE0280705D59B
:100A4000300703D508202168C86107E0A80605D54E
:100A5000B00603D52900200000F03EF90020402117
:100A60006054002070BDF2B582B00400002600255D
:100A700000270020694608804120205C2821014091
:100A800028295CD120688069000C0100C907C90FC2
:100A90000E0020688069000CFE2101400D002068D6
:100AA00080688005800D070068462168C968FE22BD
:100AB0000A400280E068022832D1ADB20620284008
:100AC000390089B2C90906220A40904216D13D0078
:100AD000A06C401CA064A06C022836D10020A06449
:100AE00008202168C8610020402160542A0092B289
:100AF0003100C9B2200000F049FE26E068460088B7
:100B000005000421200000F009FC00204021605471
:100B10002A0092B23100C9B2200000F037FE14E082
:100B20000421200000F0FAFB0020402160542A003C
:100B300092B23100C9B2200000F028FE05E0082082
:100B40002168C861002040216054F7BD10B5040041
:100B50000020422160544120205C212811D1202016
:100B60004121605411202063002060630121200096
:100B700000F0D4FB002040216054200000F007FE6C
:100B800010E0202041216054122020630020606387
:100B90000221200000F0C2FB002040216054200010
:100BA00000F0F6FD10BD10B5040000204221605495
:100BB0004120205C29280FD1282041216054212088
:100BC00020630121200000F0A9FB00204021605497
:100BD000200000F0DEFD12E04120205C2A280ED12A
:100BE000282041216054222020630221200000F0AF
:100BF00095FB002040216054200000F0CBFD10BD8B
:100C000038B504000D0020202168C86120684068C4
:100C1000914901402068416000202063002060630A
:100C2000CD48E062E80606D510202168C861606CF6
:100C3000042101436164200000F090F903212000A9
:100C400000F06CFB606C002803D14120205C602820
:100C500004D1616C200000F001F93CE04120205CEF
:100C600021281AD12020412160544220205C4028B4
:100C700009D100204221605400204021605420000E
:100C800000F089FD27E0002042216054002040212F
:100C90006054200000F07BFD1DE04120205C2228F4
:100CA00019D12020412160544220205C402809D1E4
:100CB000002042216054002040216054200000F0B8
:100CC0006BFD08E000204221605400204021605468
:100CD000200000F05DFD31BD38B504000D0020207E
:100CE0002168C86108202168C8610721200000F040
:100CF00015FB20684068802109020143206841609B
:100D0000206840685449014020684160200000F09C
:100D100025F920680068400403D4206800680004B6
:100D20000BD54120205C212803D1A06B00684068CE
:100D300002E0E06B006840686085608D002803D0A9
:100D4000606C042101436164680712D5606A411C2C
:100D500061622168496A0170208D002809D0208DC8
:100D6000401E2085608D401E6085606C042101431B
:100D700061640020206300204221605400206063F1
:100D8000606C00280CD0616C200000F067F84120F6
:100D9000205C28282BD12900200000F029F826E02B
:100DA000E06A8D4988420BD08B48E06220204121C7
:100DB0006054002040216054200000F0EEFC16E05A
:100DC0004120205C222809D12020412160540020AC
:100DD00040216054200000F0DDFC08E0202041218B
:100DE0006054002040216054200000F0D2FC31BD4E
:100DF00038B504000D007848E06200202063202010
:100E00004121605400204221605400206063680743
:100E100012D5606A411C61622168496A0170208DA7
:100E2000002809D0208D401E2085608D401E6085E1
:100E3000606C0421014361640721200000F06EFA18
:100E400010202168C861002040216054200000F07B
:100E5000A4FC31BD0000000000E800FE38B504002D
:100E60000D000020422160543B48E0620020608574
:100E7000606C284360644120205C282807D0412012
:100E8000205C292803D04120205C2A280BD1032193
:100E9000200000F043FA2820412160540020206304
:100EA0004E4860630EE00721200000F037FA412031
:100EB000205C602802D02020412160540020206363
:100EC0000020606320680068400415D52068006831
:100ED00043490140206801604248A16B48630020FB
:100EE00040216054A06B00F093FB002832D0A06B2F
:100EF000A16B496B88472DE020680068000415D578
:100F000020680068AF490140206801603548E16B06
:100F10004863002040216054E06B00F079FB00281A
:100F200018D0E06BE16B496B884713E04120205CEF
:100F3000602809D1202041216054002040216054C4
:100F4000200000F02BFC05E0002040216054200030
:100F500000F025FC31BD00000000FFFF00B5016876
:100F60008969890702D5002102689162016889694F
:100F7000C90705D40168896901220A4301688A61A9
:100F800000BD38B505006C6A20680068144901404E
:100F900020680160608D002804D11221200000F03B
:100FA0006AF917E0606A218D40186062608DFF2841
:100FB00002D9FF20208501E0608D2085238D2068E7
:100FC00002002832616AA06B00F0DAFA12212000D8
:100FD00000F051F931BD00000000FFFFBF0700081D
:100FE000FFBFFFFF0710000838B50400656A2868D6
:100FF00040688021090201432868416010212800CF
:10100000FFF72CFF31BD38B50400656A28684068D9
:10101000802109020143286841600020A96B4863D0
:101020000020E96B48634120285C602806D120201D
:1010300041216854280000F0B1FB02E0280000F0D4
:10104000AEFB31BDF4B504000F001D00069E206804
:1010500080693840B84201D1012000E00020694693
:101060000978884215D10020C0438542EFD0002D79
:1010700004D000F047FA801B8542E8D220204121AD
:10108000605400204221605400204021605403201D
:1010900000E00020F2BD70B504000D0016002068CD
:1010A0008069800722D432002900200000F08CF8EB
:1010B000002801D001201AE00020C0438542EED074
:1010C000002D04D000F01EFA801B8542E7D2606C30
:1010D00020210143616420204121605400204221ED
:1010E0006054002040216054032000E0002070BDC7
:1010F00070B504000D0016002068806980061ED4BB
:1011000032002900200000F05FF8002801D0012003
:1011100016E0002D04D000F0F5F9801B8542EBD2DB
:10112000606C202101436164202041216054002033
:1011300042216054002040216054032000E0002040
:1011400070BD70B504000D0016002068806940076E
:1011500035D432002900200000F036F8002801D0F4
:1011600001202DE020688069800615D520202168A7
:10117000C8612068406865490140206841600020DE
:1011800060642020412160540020422160540020EE
:1011900040216054012013E0002D04D000F0B2F98A
:1011A000801B8542D1D2606C2021014361642020E4
:1011B00041216054002040216054032000E00020C1
:1011C00070BD0000FF7FFFFF70B504000D0016002A
:1011D00020688069C00635D520688069800615D4EE
:1011E0000020C0438542F7D0002D04D000F08AF9DA
:1011F000801B8542F0D220204121605400204221F2
:10120000605400204021605403201CE0102021681D
:10121000C86120202168C8612000FFF79FFE206878
:1012200040683A4901402068416004206064202001
:10123000412160540020422160540020402160542C
:10124000012000E0002070BDF0B4049C0025066879
:10125000766835002E002E4D35402F0089B28E0560
:10126000B60DD2B2150435431D4325433D430668F0
:101270007560F0BC704710B502000023506B254C20
:10128000A04203D0506B244CA0421ED189B2480723
:1012900002D51800B823034389B211200840112851
:1012A00002D118009023034389B21220084012286B
:1012B00002D118002023034389B2122008401228CB
:1012C0001DD118004023034319E089B2480702D515
:1012D0001800B823034389B2C80702D51800F223C7
:1012E000034389B2880702D51800F423034389B267
:1012F00012200840122802D118002023034310684E
:101300000068184314682060002010BD00E800FE4B
:10131000009800FCF5080008E909000810B5020073
:10132000002389B2C8070BD518004223034341208C
:10133000105C28240440282C02D01800B02303435A
:1013400089B288070BD51800442303434120105C61
:1013500028240440282C02D01800B023034389B26B
:10136000480702D51800B823034389B2112008406A
:10137000112802D118009023034389B2122008409B
:10138000122802D118002023034389B212200840FA
:10139000122802D1180040230343106800689843C4
:1013A00014682060002010BD80B54D480068012100
:1013B00001434B4801604A4800680100C907C90F52
:1013C00000910098002200210420C04300F04AFA56
:1013D000002200210120C04300F044FA0022002135
:1013E0000020C04300F03EFA3E480068102101434F
:1013F0003C48016001BD10B586B0040020683A4940
:1014000088426BD1032001901220029001200390AA
:10141000032004900120059001A9344800F060FAEF
:101420003348006880218903014331480160304816
:101430000068802189030840009000982D482E49BB
:10144000086000202C49486000202B4988608020DB
:101450002949C860002028490861002026494861C0
:10146000002025498861802080012349C8612248E5
:1014700000F04EF8002801D000F072FB1E48E06337
:101480001D4844621D481E49086010201C494860E0
:1014900000201B49886080201949C8600020184935
:1014A00008610020164948610020154988618020A4
:1014B00040011349C861124800F02AF8002801D001
:1014C00000F04EFB0E48A0630D484462002200214C
:1014D000172000F0C7F9172000F0CEF906B010BDB4
:1014E0001810024000000140005400400014004861
:1014F0001C10024030000240280D00201C00024059
:101500006C0D002001480068704700BF100E0020DD
:1015100038B504000025002C01D101202DE0022067
:10152000212160542068006805002800134D054003
:1015300028006168A2680A43E168114322690A43EE
:1015400061691143A2690A43E569154305432068AF
:101550000560200000F007F90020A0620020E06292
:1015600000202063002060630020A063012021216F
:101570006054002020216054002032BD0FC0FFFFC6
:10158000F2B5040017001E0000252020205C012871
:1015900001D102203BE00120202160542120205C69
:1015A00001282DD10220212160540020A063206851
:1015B0000068012188432168086033003A000099DF
:1015C000200000F0BBF8E06A002806D02068006820
:1015D0000E210143206801600BE0206800680A21A9
:1015E0000143206801602068006804218843216865
:1015F000086020680068012101432068016004E060
:10160000002020216054022005002800C0B2F2BD55
:1016100038B5040000252120205C022804D00420D5
:10162000A063012005001CE0206800680E218843AB
:1016300021680860206800680121884321680860EB
:101640000120216C8840E16B486001202121605419
:10165000002020216054606B002802D02000616BC4
:1016600088472800C0B232BD70B50400E06B056841
:10167000206806680420216C88402840002817D084
:10168000700715D520680068800605D420680068BA
:1016900004218843216808600420216C8840E16BA4
:1016A0004860E06A002848D02000E16A884744E0AA
:1016B0000220216C8840284000281DD0B0071BD58F
:1016C00020680068800608D4206800680A218843E2
:1016D000216808600120212160540220216C88408B
:1016E000E16B4860002020216054A06A002824D0CB
:1016F0002000A16A884720E00820216C884028400B
:1017000000281AD0300718D5206800680E218843B9
:10171000216808600120216C8840E16B486001204D
:10172000A063012021216054002020216054206BFF
:10173000002802D02000216B884770BD30B50124FD
:10174000056CAC40C56B6C60046863604468102C29
:1017500004D10468A2600468E16003E00468A16049
:101760000468E26030BD10B50400206805494018E7
:10177000142100F010FA800020640348E06310BDDB
:1017800000000000F8FFFDBF0000024070477047F6
:101790007047704770477047704770477047704791
:1017A0000121C206D20E9140424A11607047F0B545
:1017B00040B2002821D5404C40B20207120F083A2F
:1017C0009508042255433C4A40B203071B0F083BCF
:1017D0009B0804267343D258FF238607B60F0827B9
:1017E0007E43B3409A438B01DBB28607B60F0827CE
:1017F0007E43B340134363511AE0304A40B283083A
:1018000004246343D258FF238407A40F08256C43A4
:10181000A3409A438B01DBB28407A40F08256C43D5
:10182000A3401343254A40B2840804256C43135156
:10183000F0BD10B50400601E80214904884201D328
:1018400001200EE0601E1E49086003210020C043F5
:10185000FFF7ADFF00201B49086007201A49086008
:10186000002010BD70B504000D00160029002000F6
:1018700040B2FFF79CFF70BD10B50400200040B2DD
:10188000FFF78EFF10BD10B504002000FFF7D1FF59
:1018900010BD00B5042806D10B49096804220A438B
:1018A00009490A6005E00849096804229143064A8B
:1018B000116000BD00E100E01CED00E000E400E08C
:1018C00014E000E018E000E010E000E080B500F077
:1018D00001F801BD70470268531C03601170704726
:1018E000F8B502000023002400250868D84000282D
:1018F00000D1DAE0086801269E4006403400002C42
:1019000000D1D0E04868022802D0486812281BD1D4
:10191000D808042670431018006A05000F201E0026
:101920007607760F04277E43B040854308691E0082
:101930007607760F04277E43B04028430500D80879
:1019400004267043101805621068050003201E006D
:1019500002277E43B040854308798007800F1E0030
:1019600002277E43B04028430500156048680128DF
:1019700008D04868022805D04868112802D0486875
:1019800012281CD19068050003201E0002277E4308
:10199000B0408543C8681E0002277E43B0402843FC
:1019A000050095605068050001209840854348680F
:1019B0000600F606F60F9E402E4335005560D068AF
:1019C000050003201E0002277E43B040854388683F
:1019D0001E0002277E43B04028430500D5604868BA
:1019E000C00060D531480068012606432F480660D4
:1019F0002E4800680600F607F60F009600982C485F
:101A00009E0804277E43805905000F201E00B6075C
:101A1000B60F04277E43B04085439020C005824224
:101A200001D100200AE02348824201D1012005E0D3
:101A30002148824201D1022000E005201E00B607A5
:101A4000B60F04277E43B0402843050018489E087F
:101A500004277E438551194800680500A54348685E
:101A6000C00300D5254315480560154800680500EA
:101A7000A5434868800300D52543114805601148F7
:101A800000680500A5434868C00200D525430D48FD
:101A900005600D4800680500A5434868800200D530
:101AA0002543094805605B1C1FE7F1BD1810024083
:101AB00008000140000400480008004800040140FC
:101AC00004040140080401400C04014000B597B033
:101AD00032200A9001200D900120129001200F90D9
:101AE00010200E9010201090002013900AA800F0F3
:101AF000A9F8002801D000F033F807200090032057
:101B0000019000200290002003900121684600F01F
:101B100057FB002801D000F023F810480490002063
:101B200007900020099004A800F094FC002801D040
:101B300000F016F800F074FCFA21890000F02BF890
:101B4000FFF7A1FE0420FFF7A4FE002200210020E1
:101B5000C043FFF787FE17B000BD00002000020061
:101B600000B5FEE7F446002804D4494200F013F81B
:101B7000404260474042002905D45FD000F00BF896
:101B8000404249426047494200F005F849426047F7
:101B900003460B43E6D40022030A8B420BD203090F
:101BA0008B4219D243088B422ED2411A00D20146F1
:101BB000524110467047FF2209023FD012068B4265
:101BC00005D3121209028B4201D312120902030932
:101BD0008B4219D300E0090AC3098B4201D3CB0120
:101BE000C01A524183098B4201D38B01C01A524162
:101BF00043098B4201D34B01C01A524103098B4266
:101C000001D30B01C01A5241C3088B4201D3CB0050
:101C1000C01A524183088B4201D38B00C01A524133
:101C200043088B4201D34B00C01A5241884200D373
:101C3000401A5241CFD201461046704708B500F015
:101C4000C1FC08BD70B582B0040000252078C00733
:101C500075D5B04800680C21014004290ED0AD486C
:101C600000680C210140082911D1AA480068C02150
:101C70004902014080204002814208D1BD480068ED
:101C800080035CD56068002859D101208CE260682F
:101C9000012807D1B7480068802149020143B548AF
:101CA00001602DE0606800280CD1B2480068B2499C
:101CB0000140B0480160AF480068B0490140AD48FC
:101CC00001601DE0606805280ED1AA4800688021E7
:101CD000C9020143A7480160A64800688021490263
:101CE0000143A44801600BE0A2480068A2490140FA
:101CF000A04801609F480068A04901409D480160DC
:101D0000606800280DD0FFF7FDFB050099480068CA
:101D1000800314D4FFF7F6FB401B6528F6D303209D
:101D200042E2FFF7EFFB050092480068800306D50A
:101D3000FFF7E8FB401B6528F6D3032034E2207848
:101D400080075CD5734800680C21014000290ED043
:101D5000704800680C21014008291BD16D480068BB
:101D6000C0214902014080200002814212D18148F5
:101D70000068800704D5E068012801D0012013E243
:101D80007C480068F82188432169C90001437948EB
:101D9000016034E0E06800281DD076480068012129
:101DA000014374480160FFF7ADFB0500714800680E
:101DB000800706D4FFF7A6FB401B0328F6D30320B9
:101DC000F2E16C480068F82188432169C9000143A9
:101DD0006848016013E0674800680121884365494D
:101DE0000860FFF78FFB050062480068800706D592
:101DF000FFF788FB401B0328F6D30320D4E12078AB
:101E000000072AD5E069002813D0B54800680121F1
:101E10000143B3480160FFF775FB0500B048006857
:101E200080071AD4FFF76EFB401B0328F6D303206C
:101E3000BAE1AB48006801218843A9490860FFF76F
:101E400061FB0500A6480068800706D5FFF75AFB2E
:101E5000401B0328F6D30320A6E12078400700D4D6
:101E600097E000269F480068C0000FD49D48006896
:101E70008021490501439B4801609A480068802100
:101E80004905084000900098012006009648006827
:101E9000C00514D494480068802149000143924849
:101EA0000160FFF72FFB05008F480068C00506D4CE
:101EB000FFF728FB401B6528F6D3032074E1A068D8
:101EC000012806D1B948006801210143B7480160E3
:101ED0002EE0A06800280CD1B44800680121884396
:101EE000B2490860B148006804218843AF490860DE
:101EF0001EE0A06805280FD1AC480068042101430A
:101F0000AA480160A948006801210143A74801606F
:101F10000EE000BF04100240A4480068012188437D
:101F2000A2490860A1480068042188439F490860CD
:101F3000A06800280ED0FFF7E5FA05009B4800686E
:101F400080071DD4FFF7DEFA401B99498842F5D37C
:101F5000032029E1FFF7D6FA0500944800688007BE
:101F60000ED5FFF7CFFA401B91498842F5D30320E5
:101F70001AE100BF00100240FFFFFEFFFFFFFBFF62
:101F8000F6B2012E05D1574800688A4901405548EC
:101F900001602078C00655D56069012823D18648A4
:101FA00000680421014384480160834800680121DE
:101FB000014381480160FFF7A5FA05007E480068EB
:101FC000800706D4FFF79EFA401B0328F6D30320B0
:101FD000EAE079480068F8218843A169C900014313
:101FE000754801602EE060690421C94388420FD121
:101FF00071480068042188436F4908606E48006892
:10200000F8218843A169C90001436B48016019E0C8
:102010006948006804210143674801606648006818
:102020000121884364490860FFF76CFA05006248A3
:102030000068800706D5FFF765FA401B0328F6D332
:102040000320B1E02078800650D55C4800680C2160
:1020500001400C290ED0594800680C210140082984
:1020600011D156480068C02149020140C0204002F9
:10207000814208D150480068C00337D5206A012842
:1020800034D0012090E0206A002814D04A4800682B
:1020900080214902014348480160FFF733FA0500F7
:1020A00045480068C00321D4FFF72CFA401B0328E1
:1020B000F6D3032078E040480068A64901403E4836
:1020C0000160FFF71FFA05003B480068C0030DD50B
:1020D000FFF718FA401B0328F6D3032064E000BF83
:1020E000241002401C10024000700040606A00286A
:1020F00059D0324800680C210140082951D0606A4B
:1021000002283AD1954800689349014093480160FC
:10211000FFF7F8F9050091480068800106D5FFF740
:10212000F1F9401B0328F6D303203DE08C480068FA
:102130000F218843216B0143894801601F480068D3
:1021400088490140E06A0843A16A01431B480160D5
:102150008248006880214904014380480160FFF7FC
:10216000D1F905007D48006880011CD4FFF7CAF949
:10217000401B0328F6D3032016E078480068764910
:10218000014076480160FFF7BDF90500734800681B
:10219000800108D5FFF7B6F9401B0328F6D30320CA
:1021A00002E0012000E0002076BD00002010024087
:1021B00089130000FFFFFFEF3410024004100240BB
:1021C00070B505000C000026674800680100C907CB
:1021D000C90FA1420FD264480068012188432043FF
:1021E00061490860604800680100C907C90FA14241
:1021F00001D00120ACE02878800707D58A48006824
:10220000F0218843A9680143874801602878C00706
:102210006CD56868012805D150480068800319D43E
:10222000012095E06868022805D14C4800688001CB
:1022300010D401208CE06868032805D17B48006831
:10224000C00307D4012083E044480068800701D41C
:1022500001207DE0744800680321884369680143D8
:1022600071480160FFF74EF90600686801280DD13A
:102270006D4800680C210140042937D0FFF742F96E
:10228000801B6B498842F3D3032061E06868022811
:102290000DD1654800680C210140082926D0FFF7C0
:1022A00031F9801B62498842F3D3032050E068680B
:1022B00003280DD15C4800680C2101400C2915D081
:1022C000FFF720F9801B5A498842F3D303203FE0EF
:1022D000554800680C210140002907D0FFF712F98A
:1022E000801B53498842F3D3032031E01E48006825
:1022F0000100C907C90F8C420FD21B480068012199
:102300008843204318490860174800680100C9073E
:10231000C90FA14201D001201AE02878400707D553
:102320004148006843490140E86808433E49086065
:1023300000F01CF840493C4A126812091207120FBB
:10234000895CC8403D490860002000F03CF900204D
:1023500070BD0000FFFFFEFFFFFFFFFE0010024008
:102360002C100240FF7FC2FF00200240F0B589B070
:1023700005A83349102200F04DF901A83149102277
:1023800000F048F9002400200090002500260027D6
:102390002548006804000C202040042804D00828A8
:1023A00005D00C2834D036E02748070035E005A8D2
:1023B000A10C0907090F405C060001A82349096820
:1023C0000907090F405C0090C02040022040802196
:1023D0004902884206D11C480099FFF7DCFB704394
:1023E000050013E0C02040022040C021490288427D
:1023F00006D117480099FFF7CEFB7043050005E0B2
:1024000011480099FFF7C7FB704305002F0004E057
:102410000F48070001E00C480700380009B0F0BD84
:102420000648006870470000041002403410024063
:1024300089130000FFF8FFFF607500080800002006
:10244000407500085075000800127A002C100240F8
:10245000006CDC02F8B50400002500262068C003EB
:1024600071D500274F480068C0000FD44D48006860
:102470008021490501434B4801604A48006880219A
:102480004905084000900098012007004648006870
:10249000C00514D4444800688021490001434248E3
:1024A0000160FFF72FF805003F480068C00506D41B
:1024B000FFF728F8401B6528F6D3032070E03B485F
:1024C0000068C021890001400E00002E2AD06068FB
:1024D000C021890001408E4224D03448006834492C
:1024E00001400E00314800688021490201432F4815
:1024F00001602E4800682F4901402C4801602B489C
:102500000660F0070ED5FEF7FDFF050027480068BE
:10251000800707D4FEF7F6FF401B27498842F5D312
:1025200003203DE0214800682149014060680843DC
:102530001E490860FFB2012F05D11A4800681F49E3
:102540000140184801602078C00707D51C48006882
:1025500003218843A168014319480160207880065F
:1025600007D51748006810218843E16801431448E3
:1025700001602068800307D51148006880218843E6
:10258000616901430E4801602068400507D50C4889
:102590000068402188432169014309480160002007
:1025A000F2BD00001C1002400070004020100240EC
:1025B000FFFCFFFFFFFFFEFF89130000FFFFFFEF9F
:1025C00030100240704710B50400FFF729FFFA21D0
:1025D0008900FFF7E0FAFFF756F9002221000020FA
:1025E000C043FFF73FF9002010BD1A00124207D088
:1025F0008B0706D00B78491C0370401C521EF7D87D
:102600007047830706D00B78491C0370401C521E8C
:10261000F9D1704770B4103A03D378C9103A78C032
:10262000FBD2530701D318C918C001D508C908C087
:10263000D20704D30B880380891C801C002A01D593
:102640000B78037070BC7047F0B593B000F0F6FFE4
:10265000FFF73CFA01F002F801F03CF901F00EF945
:1026600001F0C4FD01F05EFE01F049FF02F03CF90B
:1026700002F0E1F9C749C84802F074FA01200400E9
:10268000E4B2102C0BDAE4B22200C449C248E4B22E
:1026900012236343C01802F06DFA641CF0E70520B2
:1026A000BF4908805A20BF4908800120C749C87126
:1026B000FF201430C54908830120BB490880012050
:1026C000B94948800F20B84988800220B649C8809F
:1026D0000020B5490883B548B3494861B44802F0C1
:1026E00068FA02F02EF902F061FAB249086002F0CD
:1026F0005DFAB0490860B548C079022806DBAE48EB
:10270000007880210143AC48017005E0AA480078B8
:102710004006400EA8490870D6488078022800D0AC
:10272000C0E2D448807CD349497C09020143D148A6
:10273000007C00040843CF49C97B09060143099185
:102740009D480078C0B240098007800F022800D160
:10275000A5E29E4840690999884209D096480078C8
:10276000C0B200090100C907C90F002900D196E2D3
:1027700091480078C0B200090100C907C90F0029BB
:102780000FD08D480078EF2101408B4801700998E7
:102790008E494861B849B94802F0E4F91E20B849A9
:1027A0000870B8480068401CB64908608748008B2C
:1027B000B54941430291AF48C0780102AD48007964
:1027C00008437D2148436421FFF7E2F901000298A4
:1027D000FFF7E1F90890A74840790002A5498979F7
:1027E00008437A494882A348C0790102A148007A87
:1027F00008437D2148436421FFF7CAF9010002988C
:10280000FFF7C9F907909B48407A01029948807AFE
:1028100008437D2148436421FFF7BAF9010002987B
:10282000FFF7B9F906909348C07A01029148007BFE
:1028300008437D2148436421FFF7AAF9010002986B
:10284000FFF7A9F905908B48407B01028948807BFE
:1028500008437D2148436421FFF79AF9010002985B
:10286000FFF799F904900898584908810898BC49DD
:10287000884202D3BA48554908810798534948818C
:102880000798B749884202D3B5485049488106980D
:102890004E4988810698B249884202D3B0484B49D4
:1028A000888105984949C8810598AD49884202D375
:1028B000AB484649C8810498444908820498A8490D
:1028C000884202D3A648414908823B480078C0B2FA
:1028D000C009C0B200281FD03C48807900280BD125
:1028E0003A48C07939498871CC49644802F03AF9CC
:1028F0001E20634908700AE034488079012806D117
:10290000C7495E4802F02EF91E20C64908702F48BC
:102910008079401E2D498871C3480078002800D076
:1029200009E12A48458A2948408A0A21FFF730F9F7
:10293000281A01902548458A2448408A0A21FFF731
:1029400027F92818039014482049898802224A430D
:102950008018A0214900405A019988422ED303983B
:102960000D491A4A928802235343C918A0225200E3
:10297000895A884222D3AD48007800281ED0002012
:10298000AB4908600020AB4908700020AA490870D4
:10299000D1E000BFB47400085C0A0020C8740008CD
:1029A000580A00205A0A0020B00D0020CDCCCC3DA2
:1029B0007C730008080E00200C0E00209B48007855
:1029C000002865D09A480068004901E014080020FA
:1029D000498A40189649086096480078401C9549F5
:1029E000087095480078401C934908709148007819
:1029F000052800DA9FE08E4800688E490978FFF7C5
:102A0000CAF8D8490880002088490870D548058848
:102A1000D44800880A21FFF7BBF8281A0B90D14848
:102A20000588D04800880A21FFF7B2F828180A90D4
:102A300001200400E4B2102C00DB7CE0CA48E4B2C0
:102A4000022161434018A0214900405A0B99884255
:102A50001CD30A98C449E4B2022262438918A02216
:102A60005200895A884211D37048047001206E497F
:102A7000087060E0E40D0020C4750008A40C00207C
:102A8000CF0C00203C0A0020A0860100641CD1E786
:102A900069480078401C68490870B248008801996C
:102AA000884211D30398AF49098888420CD3614802
:102AB0000078401C5F4908705D480068C349498A36
:102AC00040185B4908600AE0C048408AA549088070
:102AD000012058490870BD48408A5549086055484A
:102AE00000780A2817DB5248006852490978FFF736
:102AF00052F89C49088002204B49087001204B493C
:102B0000087000204C49087000204A4908700020D5
:102B1000474908600FE0484800780F280BD303208E
:102B2000414908700020444908700020414908705C
:102B300000203F490860CD480078C0B240098007B6
:102B4000800F012800D0AAE0C9480088FF2809DBCF
:102B5000C849C94802F006F81E20324908709EE0B4
:102B6000FFFF0000994800899849C14A1288022352
:102B70005343C9184883C14800689449BC4A128825
:102B800002235343C918498B4018BC490860B84810
:102B90000088401CB6490880B5480088022855DBEB
:102BA000B6480068B2490988FEF7F5FFB4490880C5
:102BB0000020B4490860002004002000C0B2AC49E5
:102BC000098880B2884239D2AD4800887F49E4B292
:102BD000022262438918498B88420ED3A9480068B3
:102BE000A7490988794AE4B202236343D218528B79
:102BF000891A4018A34908600DE0A248006873498B
:102C0000E4B2022262438918498B9D4A1288891ACC
:102C100040189C490860641CCFE700BFF0740008AE
:102C200070750008CF0C0020C60B0020BC0B0020E4
:102C3000C00B0020C40B0020C50B00209148006889
:102C40008B490988FEF7A7FF8F4908805F48808875
:102C5000002824D044485D49898802224A438018CC
:102C600090214900405A002819D0584800895749F6
:102C7000098948438549FEF78BFF3B49534A9288AF
:102C800002235343C91890225200895A48437F496E
:102C9000FEF77EFF0221FEF77BFF7D4908800020C2
:102CA0007C49887000F046FA8026F6000025A44F83
:102CB0002A003100380001F0E7FF4448007801F0B5
:102CC00003F9B74800689F49884202D100F00EFB23
:102CD00001E000F087FA9C480078012846D1B0480E
:102CE0000068010018310EA801F03CFF0EA800F0AA
:102CF00011FEAC480078002815D0AB480021405E9A
:102D0000A8490978FEF744FF0190A7480021405EDA
:102D10000199FEF740FF0391039B019AA3490CA878
:102D200001F028FF06E0A0480021425EA0A10CA807
:102D300001F020FF0CA801F0CFFF69460870402584
:102D400068460078062148430221FEF721FF281A31
:102D5000694648700CAA1C216846407801F0CEF9FB
:102D600044E000BFBE0B00205C0A002091480078C0
:102D7000012803D08F480078022829D18E490EA857
:102D800001F0F0FE0EA800F0C5FD8C488C490978D2
:102D90001222514341180EA801F0ECFE0EA801F0DA
:102DA0009BFF694608704025684600780621484325
:102DB0000221FEF7EDFE281A694648700EAA1C2172
:102DC0006846407801F09AF910E000BF140800202E
:102DD00078480078032809D19749274801F0C2FEB6
:102DE0001E209649087000207249087093480078A8
:102DF000002838D091480078401E904908701B4840
:102E00000078C0B200090100C907C90F002910D01D
:102E10008A48007800280CD114480078EF2101403E
:102E2000124801708649144801F09CFE1E20834917
:102E30000870114801F050FF694608706846007834
:102E400000F0C8FD4025684600780621484302216D
:102E5000FEF79EFE281A69464870074A1C216846FC
:102E6000407801F04BF901F03DFA3AE40C0E0020F5
:102E7000340A002000750008A40C00202C0A002051
:102E8000380A0020300A00203A0A002010270000EB
:102E9000360A0020E40D002080B5414800686949E9
:102EA000884211D163206849088001206749088061
:102EB0006748C07900B200F049F86549C8716448B4
:102EC000C079634988713AE03548006861498842B1
:102ED0000DD15A205C49088001205C4908805E4879
:102EE000008800B200F032F85B49088027E02C48E7
:102EF00000685A4988420DD159495A4801F032FEBA
:102F0000C8204E490870584800781021014356489F
:102F1000017014E022480068544988420FD1544897
:102F2000494908806420494908800A201D490870E1
:102F30004748008B00B200F009F84549088301BDFD
:102F4000110400207C730008D60C002000B501009D
:102F50000800624A1278012A1BD1464A1278012AD7
:102F60000BD1114A0023D25E100000225B4B1A7075
:102F700000220C4B1A7000B211E03E4A1278022A6D
:102F80000CD10022554B1A700022064B1A7000B269
:102F900005E0054A11800122504B1A7000B200BDB5
:102FA000080E0020D90C0020D00C0020CC750008A1
:102FB00025750000C60B0020DC7400085C0A0020A8
:102FC000BC0B002080B5464800682B49884206D1DA
:102FD000254800789F210140234801701AE04048AD
:102FE00000684049884208D11F4800789F2101406D
:102FF000202008431C4908700CE0394800683A4911
:10300000884207D1184800789F210140402008439A
:103010001549087044A1134801F0A4FD1E2007497A
:1030200008702F48006880684049884202D14048B3
:1030300001F0BFFD01BD000010750008CF0C00209D
:10304000D4750008B8710008D20C0020D40C002000
:1030500014080020E8700008580A00201C740008BA
:103060007C750008A40C00200C0E002030720008B3
:10307000E7030000D80C0020BC730008F0B585B051
:1030800006000D0014002800290001F02DFE02901A
:103090002000210001F028FE01900299019801F022
:1030A0007BFE07003800002101F002FF01D18148BA
:1030B00007003000390001F00BFF0090009801F08C
:1030C0005DFF01F075FF85A20CCA01F0BFFF02F0A1
:1030D0007FF80390039805B0F0BD0000D60C0020E7
:1030E000080E0020C87200089071000838B504006E
:1030F00024B2002C0BD424B2200002F09BF8002252
:103100006D4B02F0B1F802F063F805000AE024B25A
:10311000200002F08FF80022724B02F0A5F802F0B6
:1031200057F80500280032BD4F4B000040710008E1
:103130007C730008F0B583B0012500205F49488109
:1031400000205E49888100205C49C88187212020B9
:1031500001F009F92C00E4B2002C09D0272001F07D
:103160001BF90600B007F6D001F03EF9641EF2E745
:103170000021202001F0F7F850480A21405E02F0BB
:10318000D5F84E4988804D480C21405E02F0E5F8A4
:103190004A49C88049480E21405E02F0F5F8474987
:1031A000088146480421405EFFF7A0FF0190434894
:1031B0000621405EFFF79AFF009040480821405EDC
:1031C000FFF794FF07003A0001990098FFF756FFB8
:1031D0003B490860009A01993800FFF74FFF4249C8
:1031E0000860F7BD70B582B0684636490A8802802B
:1031F00000F042FE34480078062801DB00F044FD70
:10320000324800780500EDB231480078401F854211
:1032100008DA2F480078062804DB2D480078401F84
:1032200005000DE02A480078401FEDB2A84207DAF9
:10323000EDB227480078281A401D052800DB6D1ED6
:103240002248057022480078401B0600214A0121CF
:103250000E2000F053FF6A46F6B20A207043801C2D
:103260000100C9B2002000F049FF00200400E4B2D0
:10327000052C13DA1748EDB2E4B229191422514390
:10328000401802001432E4B20A2060430C300100FE
:10329000C9B2082000F032FF641CE8E70E4800784D
:1032A000012803D0D2480078002801D0FFF7F4FDB0
:1032B00073BD00007D1D902680FFCF40CC0D002007
:1032C000500A0020EA250008CD0C0020CE0C00207A
:1032D000CC0C0020C80B0020D60C0020000000C041
:1032E000DCA54C400000D040540A002030B59DB011
:1032F000F8200290BF48006801F040FE49004908EC
:1033000000900191E822BC490BA801F033FCBB48B6
:103310000078C0B240098007800F002808D0B74865
:103320000078C0B240098007800F012800D01CE15E
:10333000B34800896421FEF72BFC0400B0480089E3
:10334000A4B264216143401A0500A4B2002C02D14A
:10335000AB48008905002F200090ADB22B00A4B22D
:103360002200A84915A801F005FCA5484089642160
:10337000FEF70EFC0200A4A108A801F0FBFBA04888
:1033800080896421FEF704FC02009FA107A801F0D8
:10339000F1FB9B48C0896421FEF7FAFB02009AA169
:1033A00006A801F0E7FB95480078C0B2C009C0B29A
:1033B00000280DD09248C37991488279934913A887
:1033C00001F0D8FB13AA2D215C2000F097FE0EE03F
:1033D0008B48008A6421FEF7DBFB02008AA105A866
:1033E00001F0C8FB05AA2D21622000F087FE884865
:1033F0008349898812224A4382180021002000F064
:103400007DFE15AA1821002000F036FE08AA0F2123
:10341000622000F073FE07AA1921622000F06EFE00
:1034200006AA2321622000F069FE74480078C0B229
:1034300040098007800F002827D1F82002907548A6
:10344000006801F09BFD4900490800900191E222CB
:10345000694909A801F08EFB09AA2821002000F083
:103460004DFE0BAA28212A2000F048FE082338220E
:10347000694801886748006800F0F1FA67480188E8
:103480005C48006800F057FCB0E0654802885EA127
:1034900004A801F06FFB634800886421FEF778FB05
:1034A000040060480088A4B264216143401A05000A
:1034B000A4B2002C02D15B4800880500ADB2009593
:1034C000A4B22300E62258490FA801F053FB574845
:1034D00000886421FEF75CFB040054480088A4B215
:1034E00064216143401A0500A4B2002C02D14F4868
:1034F00000880500ADB20095A4B22300E5224A4938
:103500000DA801F037FB4A4800886421FEF740FB14
:10351000040047480088A4B264216143401A0500B2
:10352000A4B2002C02D14248008805003A20009045
:10353000ADB22B00A4B22200324911A801F01AFB4F
:1035400004AA3721622000F0D9FD0FAA242100200F
:1035500000F0D4FD0DAA2421312000F0CFFD11AAE6
:103560003821002000F088FD40E024480078C0B2F7
:1035700040098007800F02282FD13D200290254866
:10358000006801F0FBFC49004908009001913B22D2
:10359000194909A801F0EEFAF82000901E480388A6
:1035A000F122244903A801F0E5FA09AA0821002024
:1035B00000F062FD0BAA00214C2000F09FFD03AA41
:1035C00009214C2000F09AFD2E2312221248018876
:1035D0001048006800F043FA08E0174917A801F006
:1035E000C9FA17AA0021082000F088FD1DB030BDDF
:1035F000D80C0020540A0020887500080C0E00200A
:10360000140800209475000825750000DC7500087A
:103610005C0A0020500A0020580A00205A0A0020A4
:10362000340A0020380A0020A07500083A0A002059
:10363000360A0020E47500088474000880B5064846
:10364000006810210143044801600020FEF7BBFF21
:10365000FDF7AAFE002002BD0020024038B58148D7
:103660000400814800680C21484320180500AC4242
:1036700010D2207AC0B240080007000F0090207AD4
:103680000300DB07DB0FA279E179206800F003F883
:103690000C34ECE731BDF4B583B004000D001E001E
:1036A000099F9020C005844206D17048006880219F
:1036B000890201436D4801606D48844206D16B4820
:1036C00000688021C902014368480160694884425A
:1036D00006D1664800688021090301436348016000
:1036E0006548844206D1614800688021C9030143CE
:1036F0005E480160F6B2002E03D00120A840A06110
:1037000002E00120A840A0622068032102226A434F
:1037100091408843206060680121A940884360602F
:10372000E068032102226A4391408843E060EDB2E1
:1037300028000821FEF72CFA0421484320180290A3
:10374000EDB228000821FEF723FA0421484320188F
:10375000016A01910F200090EDB228000821FEF7C8
:1037600017FA042041430098884001998143029848
:1037700001626846007B00280BD0022812D010D3CB
:1037800004281FD016D3062833D025D307283AD0D3
:1037900045E02068032102226A43914001432160F1
:1037A0003DE03CE0E068012102226A439140014390
:1037B000E16034E0E068022102226A439140014363
:1037C000E1602CE02068012102226A43914001431C
:1037D00021606068606022E02068012102226A4363
:1037E00091400143216060680121A940014361606B
:1037F00015E02068022102226A43914001432160C2
:10380000606860600BE02068022102226A439140F8
:103810000143216060680121A94001436160EDB26C
:1038200028000821FEF7B4F904214843211801912A
:10383000EDB228000821FEF7ABF904214843201817
:10384000016A0091FFB2EDB228000821FEF7A0F94D
:1038500004204143380088400099084301990862D8
:10386000FFBD0000E06E00080000002014100240C0
:1038700000040048000800480014004880B52148B2
:103880002149086021482049486000201E4988607D
:1038900001201D49C86000201B49086100201A4909
:1038A000486100201849886100201749C86100203C
:1038B000154908621448FCF703FC002801D0FEF704
:1038C0004FF90021104801F083FD002801D0FEF7D8
:1038D00047F901BD80B50E480068012101430C483D
:1038E00001600B4800680100C907C90F00910098EA
:1038F000002200210A20FDF7B5FF0A20FDF7BCFFDA
:1039000001BD000000540040DC0C00200B02000050
:1039100014100240F1B586B000A8801C2B490A881B
:10392000028068462A490A88028008200700082089
:10393000060000200500EDB2702D23DA00200400FF
:10394000E4B2302C1CDAE4B2002C08D0E4B22F2C04
:1039500005D0EDB2002D02D0EDB26F2D07D10122BE
:103960003119C9B27819C0B200F0DAFB06E00022C2
:103970003119C9B27819C0B200F0D2FB641CDFE77C
:103980006D1CD8E7069A0A210A2000F0B7FB00AAAE
:10399000921C2E212E2000F0B1FB6A462E214C20D5
:1039A00000F0ACFBB64901A801F0DCF801AA2E2119
:1039B0000A2000F0A3FBB34901A801F0D3F801AA43
:1039C0002E215E2000F09AFB07B0F0BDAE4E00083D
:1039D0007A4F0008F1B582B068466946097A062236
:1039E000514308310171402100916846007902215C
:1039F000FEF7CEF80099081A0700172006000020ED
:103A00000500684600792900C9B2884226D3002003
:103A10000400E4B2112C1FDAE4B2002C0BD0E4B2A3
:103A2000102C08D0EDB2002D05D028006946097988
:103A3000C0B2884207D101223119C9B27819C0B287
:103A400000F06EFB06E000223119C9B27819C0B24D
:103A500000F066FB641CDCE76D1CD2E7F7BDF7B530
:103A600088B01F0001206946087268466946097AD5
:103A7000791A491E017368460AA909786A46127ABA
:103A80008918491C417268466946097B6A46127A60
:103A9000891A491EC17300200500EDB2802D58DA45
:103AA0002E00EDB2402D02DB280040380600F6B2B1
:103AB00030000721FEF76CF8002902D0F6B2002E84
:103AC00045D10020040020003900C0B2C9B28842AC
:103AD0003DD2FFB238000321FEF75AF8401E694676
:103AE0008873FFB2022078430321FEF751F8401C8F
:103AF00069464873EDB23F2D02D0EDB2402D07D19B
:103B00006846007A694688736846007B6946487350
:103B1000E4B2002C10D06846807B2100C9B28842F4
:103B200005D220006946497BC0B2884204D3E4B282
:103B3000FFB2781E844208D101220AA80078011938
:103B4000C9B22800C0B200F0EBFA641CBBE76D1CE0
:103B5000A3E7802006000899C64801F0C5F801F0E7
:103B60006DFC6946088268466946898C6422514327
:103B7000C182002069464881049800B20299091464
:103B8000884200DAB61E684605990914029A121492
:103B9000891A8182059800B200286ED0029800141C
:103BA00001F06AFC0100089801F080FC07D8684623
:103BB000049909B2029A1214891A418206E06846F1
:103BC00002990914049A12B2891A4182059800B226
:103BD00004990914884203DA059800B269464882BC
:103BE00004990914802048430221FDF7D1FF05996B
:103BF00009B2FDF7CDFF69460883002005002800C3
:103C0000C0B2069909B200B2884236DA0020040038
:103C100020006946C97BC0B288422CD2049800B209
:103C200002990914884212DB01226846407A211861
:103C3000C9B200910192F6B230000221FDF7A8FF4F
:103C40004019019A0099C0B200F06AFA11E001220D
:103C50006846407A2118C9B200910192F6B230004C
:103C60000221FDF795FF401B019A0099C0B200F0B8
:103C700057FA641CCCE76D1CC1E70BB0F0BD000027
:103C8000EC750008F4750008F8B534206946087032
:103C90007D2007000A200600002005002800694654
:103CA0000978C0B288420FD200200400E4B2022C8E
:103CB00008DA01227119C9B23819C0B200F030FA1D
:103CC000641CF3E76D1CE9E77C200700AA48007834
:103CD000401E694609784843A8490978FDF758FF0E
:103CE00069464870684640780A30060000200500A2
:103CF000EDB2042D1ED200200400E4B2082C17DA25
:103D00009F48EDB2405D0121A140084207D0012249
:103D10003119C9B27819C0B200F002FA06E00022E7
:103D20003119C9B27819C0B200F0FAF9641CE4E79D
:103D30006D1CDDE7F1BDF3B585B0402006000599A7
:103D40004C4800F0D1FF01F079FB69468880684655
:103D50006946098B642251434181002007003800E5
:103D6000019909B200B2884200DAB61E684602998B
:103D70000914C91B0181029800B2002878D03FB213
:103D8000380001F079FB0100059801F08FFB05D8A0
:103D90006846019909B2C91BC18004E068460199CF
:103DA00009B2791AC180029800B2019909148842B7
:103DB00003DA029800B26946C880019909142C20E0
:103DC00048430221FDF7E4FE029909B2FDF7E0FE47
:103DD00069468881002005002800C0B2039909B215
:103DE00000B288422DDA00200400E4B2042C26DA66
:103DF000019800B2390009B288420FDB012200921B
:103E0000F6B230000221FDF7C3FE411B009AC9B291
:103E100020007C30C0B200F083F90EE00122009255
:103E2000F6B230000221FDF7B3FE4119009AC9B283
:103E300020007C30C0B200F073F9641CD5E76D1C23
:103E4000CAE700200500EDB2022D11DA00200400BF
:103E5000E4B2042C0ADA01222020411BC9B220005E
:103E60007C30C0B200F05CF9641CF1E76D1CEAE73D
:103E700007B0F0BD0000C842F8B5002700260020BA
:103E80000500EDB20D2D1ED200200400E4B2082C76
:103E900017DA9948EDB2405D0121A140084207D0F0
:103EA00001223119C9B27819C0B200F039F906E01F
:103EB00000223119C9B27819C0B200F031F9641C7E
:103EC000E4E76D1CDDE7F1BDF1B582B071200700BC
:103ED0000020060069463800801C487069463000A2
:103EE000801C08706846007A652802DB64206946F9
:103EF000087200200500EDB20F2D1EDA002004002C
:103F0000E4B2082C17DAB848EDB2405D0121A140B7
:103F1000084207D001223119C9B27819C0B200F0A5
:103F2000FFF806E000223119C9B27819C0B200F0DA
:103F3000F7F8641CE4E76D1CDDE700200500684627
:103F4000007A0A21FDF724FEEDB2854213DA002043
:103F50000400E4B2042C0CDA01226846007801194E
:103F6000C9B2684640784019C0B200F0D9F8641C64
:103F7000EFE76D1CE3E7F7BDCC0C0020CD0C002073
:103F800004760008F7B507000E0000200500EDB22A
:103F9000182D70DA00200400E4B2082C69DAEDB2C2
:103FA00028000221FDF7F4FD00292FD1CC486946F5
:103FB000097A182251434018EDB24019D149405CAA
:103FC0000121A140084210D001223119C9B200914B
:103FD0000192EDB228000221FDF7DAFD3818019AAE
:103FE0000099C0B200F09CF841E000223119C9B23A
:103FF00000910192EDB228000221FDF7C9FD3818A9
:10400000019A0099C0B200F08BF830E0B4486946DC
:10401000097A182251434018EDB24019B949405C61
:104020000121A140084211D0012231190839C9B239
:1040300000910192EDB228000221FDF7A9FD381888
:10404000019A0099C0B200F06BF810E0002231191B
:104050000839C9B200910192EDB228000221FDF7A2
:1040600097FD3818019A0099C0B200F059F8641C05
:1040700092E76D1C8BE7F7BD70B505000E001400CC
:104080002078002809D022783100C9B22800C0B2B7
:10409000FFF778FF641C0C35F2E770BDF4B507003C
:1040A0000E0000200500EDB2062D23DA00200400EA
:1040B000E4B2082C1CDA9448694609780622514378
:1040C0004018EDB2405D0121A140084207D0012215
:1040D0003119C9B27819C0B200F022F806E0002206
:1040E0003119C9B27819C0B200F01AF8641CDFE7C0
:1040F0006D1CD8E7F1BD00002075000870B5050003
:104100000E0014002078002809D022783100C9B2AE
:104110002800C0B2FFF7C2FF641CAD1DF2E770BDFE
:10412000F0B504000D001600F6B2002E20D0022ECD
:104130003CD058D2E4B2EDB228000821FDF728FDAA
:1041400080214843201871490F18E4B2EDB22800CD
:104150000821FDF71DFD8021484320186B490818F0
:10416000407801216A07520F9140014379703AE08B
:10417000E4B2EDB228000821FDF70AFD8021484392
:10418000201862490F18E4B2EDB228000821FDF7AB
:10419000FFFC8021484320185C4908184078012121
:1041A0006A07520F9140884378701CE0E4B2EDB288
:1041B00028000821FDF7ECFC8021484320185349D2
:1041C0000F18E4B2EDB228000821FDF7E1FC8021D0
:1041D000484320184D490818407801216A07520FBA
:1041E000914041407970F0BD3075000880B5484875
:1041F00000884849C96B8862474801F06BF9444818
:1042000000884449C96B8861AE2000F04EF8002058
:1042100000F04BF8102000F048F8402000F045F87E
:10422000812000F042F8802000F03FF8C82000F024
:104230003CF8A12000F039F8202000F036F80020EA
:1042400000F033F8A62000F030F8A82000F02DF898
:104250003F2000F02AF8D32000F027F8002000F0DB
:1042600024F8D52000F021F8F02000F01EF8D92025
:1042700000F01BF8F12000F018F8DA2000F015F833
:10428000122000F012F8DB2000F00FF8402000F0C0
:104290000CF88D2000F009F8142000F006F8AF208B
:1042A00000F003F800F01EF801BD30B583B0050042
:1042B000782401A80021018001A845701748FCF767
:1042C000C6F92028FAD1FA2080000090022301AA22
:1042D000E4B20121214389B21048FBF757FF37BDF3
:1042E000606D000810B578244020084908700C4B18
:1042F000064AE4B20121214389B20848FCF7D4F808
:1043000010BD0000B0FBFFFF606700081004002034
:10431000206F0008E06E000810270000DC0C002071
:104320000104000080B50121232000F01CF84B4857
:1043300001F0D0F80021232000F015F800212420FE
:1043400000F011F81021252000F00DF800211020B8
:1043500000F009F80021112000F005F800211220DA
:1043600000F001F801BD7CB506000D003A24684656
:10437000067101A845703A48FCF769F92028FAD17E
:10438000FA2080000090022301AAE4B2210089B241
:104390003348FBF7FBFE73BD11B583B03A243048B8
:1043A000FCF755F92028FAD1FA208000009001236B
:1043B00003AAE4B2210089B22948FBF7E7FE2848A6
:1043C000FCF745F92028FAD1FA208000009001235B
:1043D00001AAE4B20121214389B22148FBF7A0FFE1
:1043E0006846007904B010BD1CB53A2428206946FF
:1043F00008711B48FCF72BF92028FAD1FA2080001D
:104400000090012301AAE4B2210089B21448FBF70D
:10441000BDFEFA20800000900623124AE4B201217A
:10442000214389B20E48FBF77BFF0F48007C0E4901
:10443000497C090201430C4841810B48807C0A49B0
:10444000C97C09020143084881810748007D06496B
:10445000497D090201430448C18113BD10270000B2
:10446000DC0C0020DC0D0020CC0D00200121C20658
:10447000D20E91405C4A11607047F0B540B20028FE
:1044800021D55A4C40B20207120F083A950804226F
:104490005543564A40B203071B0F083B9B080426AE
:1044A0007343D258FF238607B60F08277E43B340D5
:1044B0009A438B01DBB28607B60F08277E43B340D1
:1044C000134363511AE04A4A40B283080424634309
:1044D000D258FF238407A40F08256C43A3409A43B6
:1044E0008B01DBB28407A40F08256C43A340134360
:1044F0003F4A40B2840804256C431351F0BD80B597
:104500003C480068012101433A4801603A4800688C
:104510000121014338480160374800680121884380
:10452000354908603120354908603548354908600B
:10453000354800883549C96E8861354800680121D1
:10454000014333480160324800683021014330485C
:104550000160304800680A2101432E4801602C4860
:1045600000682B4908602B48006801210143294855
:10457000016029480068022101432748016026485C
:10458000006801210143244801602448006824494F
:1045900001402248016021480068022188431F49E8
:1045A00008601E480068012188431C4908600020FB
:1045B0001C49087000201B49487000201949887068
:1045C0000F20FFF753FF0F210F20FFF756FF16486C
:1045D000006801210143144801601348006802216A
:1045E00001431148016001BD00E100E01CED00E065
:1045F00000E400E01C1002401010024028000040BF
:10460000E09304002C000040506F0008E06E0008AA
:1046100018000040200000400C0000401000004046
:10462000FFFDFFFFE40D00201400004000B5A2488C
:104630000068800522D5A0480068A04901409E4836
:1046400001609D480068022188439B4908608020E2
:10465000C0050068012188438021C9050860984889
:104660008078022800D125E10020954908700020BB
:10467000934948700020924988701BE18E48006879
:10468000800700D4F7E08C480068022188438A49FB
:1046900008608B488078022808D18020C005006817
:1046A000012188438021C905086003E1854800682D
:1046B00080062AD5844800688449884221D28248ED
:1046C0000068834988421CD38020C005006801210E
:1046D00088438021C905086000207949087078481E
:1046E0004078102807D176488078032803D002202C
:1046F0007349887005E000207149487000207049B6
:104700008870002070490860D4E08020C0050068EF
:10471000C00700D4A3E08020C005006801218843C1
:104720008021C9050860684800686A49884212D239
:1047300065480068684988420DD361488078002840
:1047400009D100205E49087000205D4948700120B1
:104750005B49887083E05C4800686049884233D2D6
:10476000594800685E4988422ED355488078012810
:104770002AD15348524949784018C0780121504AFB
:104780001278914088434E494D4A52788918C87032
:104790004B480078401C4A4908704948007808286E
:1047A0005DDB00204649087045484078401C44497C
:1047B000487043484078112851DB032040498870F5
:1047C00000203F4948704AE03F4800683F4988421E
:1047D00033D23D4800683E4988422ED3384880781D
:1047E00001282AD13648364949784018C078012135
:1047F000334A1278914001433148314A5278801847
:10480000C1702F480078401C2D4908702C48007852
:10481000082824DB00202A49087029484078401CD9
:104820002749487026484078112818DB032024497E
:10483000887000202249487011E08020C00500687F
:10484000012188438021C905086000201C490870A7
:1048500000201B4948700020194988702AE0002078
:10486000204908608020C0050068012101438020A4
:10487000C00501601EE010480068C0071AD50E4848
:104880000068012188430C4908608020C005006849
:10489000012188438021C9050860094880780228E1
:1048A00008D0002006490870002005494870002003
:1048B0000349887000BD000010000040FFFDFFFFAD
:1048C000E40D00201000004834000040BB0400004C
:1048D000DE030000131B000026160000750900000F
:1048E000BC07000024000040254800688021090121
:1048F00001432348016023480068802109010143E6
:10490000204801601F4800681F4901401D480160A0
:1049100031201E4908601E481E4908601E48006874
:10492000012101431C4801601C4800680821014323
:104930001A480160194800680121014317480160C5
:10494000704700B515490968C90708D513490968B2
:10495000C90701D500BFF9E70021080001E00121E6
:1049600008000E49096801220A430C490A600C49F3
:10497000096804220A430A490A60C0B200BD000067
:10498000181002400C100240FFF7FFFF282C0140D6
:10499000409C00002C2C0140142C0140002C0140B4
:1049A000082401400121C206D20E9140614A1160E3
:1049B0007047F0B540B2002821D55F4C40B20207E5
:1049C000120F083A9508042255435B4A40B2030788
:1049D0001B0F083B9B0804267343D258FF2386070E
:1049E000B60F08277E43B3409A438B01DBB286079C
:1049F000B60F08277E43B340134363511AE04F4A72
:104A000040B2830804246343D258FF238407A40FD1
:104A100008256C43A3409A438B01DBB28407A40FA3
:104A200008256C43A3401343444A40B2840804253C
:104A30006C431351F0BD80B5414800688021890066
:104A400001433F4801603F480068802189000143DD
:104A50003C4801603B4800683B49014039480160DF
:104A60003A48006880210906014338480160374808
:104A70000068002801D500BFF9E73448006801212B
:104A80000143324801603248006832480068102112
:104A900001433048016030480068182101432E4826
:104AA00001600C20FFF77EFF0E210C20FFF781FF35
:104AB00001BD00B52548006840071FD424480068A0
:104AC00000070DD5224800680821014320480160F5
:104AD000224800682249488001202149087028E0C6
:104AE0001B480068C00624D51948006810210143FE
:104AF0001748016002201A4908701AE0134800683C
:104B0000102101431148016010480068C00601D51A
:104B100000BFF9E70E480068082101430C48016016
:104B20000B480068102101430948016002200C492C
:104B3000087000BD00E100E01CED00E000E400E0D2
:104B4000181002400C100240FFFDFFFF0824014036
:104B50000024014028240140042401404024014055
:104B6000F80D0020002300E05B1CCA5C002AC25440
:104B7000FAD170470CB41CB5040004A8019000944D
:104B800001AB0A006946084878441C3000F0D2FCAA
:104B90000021009A1170002801D40098001B02B077
:104BA000019910BC03B008472FCDFFFF30480068C3
:104BB0007047F1B582B002982E49884202D002981F
:104BC000002800D153E0FFF7F1FF0299C06881424D
:104BD00005D0FFF7EBFF02998068814202D10020E7
:104BE000254908700298224908602148006805009C
:104BF00000200400A8680090641C204804706868C5
:104C00001C49884202D10020040001E06D68F1E7F0
:104C1000E4B20A2C10DA1420019000261848E4B2FD
:104C200014216143401807001437320001993800FD
:104C300000F02AF8641CEBE70098010018311048D6
:104C4000FFF790FF00200400290018310C48E4B25F
:104C50001422624380181430FFF784FF641C094853
:104C6000047028680349884201D02D68ECE7F7BD3D
:104C7000040000209C740008CE0C0020CC0C002006
:104C8000C80B0020CD0C00201206130A1A43130C87
:104C90001A4300BF094205D0830705D00270401CAB
:104CA000491EF9D170470000130030B414001500FC
:104CB000103902D310393CC0FCD2490700D30CC0D4
:104CC00000D504C0890002D30280801C002900D5D1
:104CD000027030BC70470000010000E0491C0A78F7
:104CE000002AFBD1081A704730B405004D4001225C
:104CF000D20715404B180418240E2ED01B0E32D0AC
:104D0000FF2C34D0FF2B3AD0E418000209021043E4
:104D10001143000A090A9446C2B24A43000AC3B2C8
:104D20004B43000A4843110A5B181A43D2B2190ACE
:104D3000091801D44918641E080A7F3C23DBFE2CA5
:104D400008DAE405090611436346994160412843A6
:104D500030BC7047FF20C005F9E728001B0EFF2B71
:104D6000F6D1D043F4E72800FF2CF1D1F9E7400257
:104D7000F7D1FF2B01D14902F3D1E005E7E7D805D0
:104D80004902E4D0EDE743020020641CDFD15B124E
:104D90009B1CDCD9D805DAE70122D20703004B407F
:104DA0002ED4431A01D2C01AC91830B44B180418B3
:104DB000240E1B0E22D0FF2C20D0E31A182B1DDC52
:104DC00009021143C40D641E0002104394461925C4
:104DD000ED1A0A00AA40D940451801D36D08A41C59
:104DE000E405D209280A2D062A436546AA416041F6
:104DF00003181B0EFF2B01D3C00DC00530BC70473C
:104E0000514001E05140CCE7431A03D2C01AC918FF
:104E10005040514030B44B18090211430418240E7D
:104E20001B0E40D0FF2C3AD025009D410BD31ED83D
:104E3000C50D4002401A0BD3ED050100400AC9051B
:104E400091416841DAE7C50D40024918401AD5D0B2
:104E500001214008491C0018FCD58C4204D36D1A6E
:104E6000000AED054019C9E7E8051040C6E7182D0E
:104E7000C4DCAC1C0D00E140E5414D40012D494131
:104E8000C40D00021043451A01D46D199543641EE8
:104E9000E405280A2D069541604130BC7047FF2B80
:104EA000ACD1D843AAE72442A8D10020A6E7180035
:104EB000944602000A43921808D0884206D1012283
:104EC00012060018D042084600D880426246704759
:104ED00030B405004D400122D20715404B1804188C
:104EE000240E28D01B0E2FD0FF2C34D0FF2B37D010
:104EF000E41A000209021043114343084808D10D87
:104F00001B1A02D2641EDB181B18DB18834200D365
:104F10001B1A4941F9D37F3426DDFE2C08DAE4055B
:104F20004808C907194391416041284330BC704784
:104F3000FF20C005F9E728001B0E03D0FF2BF5D199
:104F40004902F3D0D043F1E7FF2C01D14002F9D15F
:104F5000FF20C005E9E74002F4D1FF2BF8D1F1E7CB
:104F600028004902E2D0EDE70B0200202442DCD108
:104F70005B129B1CD9D9D805D7E71900012212066C
:104F80000118CA420AD28A420DD8382212060909EB
:104F90008918C20FD20711434007704700D0490853
:104FA0000909014301E0C10FC90700207047FEE76E
:104FB00013B54800400D204A904211D000281AD065
:104FC000684603C80022002301F039F919D2684667
:104FD00003C88022120651406A4603C2082411E029
:104FE0000A03120B684603C8104304D1002905D4F4
:104FF00012A003C81CBD684603C81CBD11A003C88D
:105000001CBD0024684603C801220A4B01F030F998
:105010000AD8002019466A460CCA00F025F96A46EB
:1050200003C22000022444402200684603C801F065
:1050300057F91CBD0000F03FFF070000182D445435
:10504000FB21F93F182D4454FB21F9BFF0B50E00A8
:105050005E400125ED072E40B446AE0ADF184C181D
:10506000F44208D2F7420ED2640D01D07F0D12D166
:1050700000206146F0BD05D1F74201D87F0D05D172
:105080000020C143F0BDFBD1640DF9D00020C14325
:10509000490549088FE0E419C902DB0229432B4383
:1050A000DB0A460DC00231438E4630B487B295B25A
:1050B0007D432E0CADB2140C7C43A419260C2404A1
:1050C00025439CB27C43A419190C7943270CC919B8
:1050D000A4B20F043C43090C000C97B247432E0CBA
:1050E000BE193543ADB2170C4743360CBF19A6B2F3
:1050F000BF193E043543240C3E0C36199FB247437A
:10510000BF19BCB23E0C89191F0C47437F183E04DF
:105110003443390C704680B297B247432E0CBE1907
:105120003543ADB2170C4743360CBF19A6B2BF19B1
:105130003E043543240C3E0C36199FB24743BF1939
:10514000BCB23E0C89191F0C47437F183E04344300
:10515000390C77463F0C90B278432E0C8019060428
:10516000ADB22E43050CA0B22D18120C7A43501983
:10517000020C80B2240CA4189AB27A4312191404B7
:105180002043120C89181B0C7B43C91830BCEF0A52
:10519000394203D1B61940414941641E6F12BF0D17
:1051A000E41B0BDBFF19BC4211DA2405002742087F
:1051B000AE417841614166463143F0BD641C05D182
:1051C000401C6141CF0201D34908F4E750E75DE795
:1051D000012252054B18DA4201D9581570475B0D70
:1051E0000722D2019B1A10D9FF2B1DD2DB05012209
:1051F000D2070A4013430903020D1143490AC200B2
:10520000524100D9491CC81870470AD1800A0A03C4
:1052100002435212921C04D9D3070B40D005184305
:105220007047C80FC0077047C80F0002FF30C005A5
:105230007047FEE7010009D5F446404200F006F849
:105240000122D20711436047010000BF4222120130
:10525000D21E004207D002D4521E0018FCD5C10A4B
:105260004005120589187047F0B40E005E40012514
:10527000ED072E40B446AE0ADF184C18F4423BD27C
:10528000F74241D2640D43D07F0D38D0E41BC902F0
:10529000DB0229432B43CF0ADB0A0600B61A9F41E3
:1052A00004D2641EB6197F41B6185F416812800DA2
:1052B00024180018844222DAE80C0021B6197F4134
:1052C000B61A9F4102D2B6185F413F1C4041494186
:1052D000F4D3241C21DD2405B6197F41B61A9F4161
:1052E00005D33743C60737430026012F704161417C
:1052F00066463143F0BC7047FCD1F74205D200202E
:10530000C14349054908F3E704D00020C143F1E750
:105310007F0DFAD000206146ECE72442FAD1401C10
:1053200061410F03F6D30020E2E7FEE710B5040069
:105330002148006824B2001920490022895E401AE1
:105340001D4908601C4800680421FCF721FC1B492A
:1053500008801A480021405E10BD10B504001848AE
:10536000006824B2001917490022895E401A1449C6
:105370000860134800680421FCF70AFC1149088002
:1053800010480021405E10BD10B504000E480068B2
:1053900024B200190D490022895E401A0A490860AA
:1053A000094800680421FCF7F3FB08490880074816
:1053B0000021405E10BD0000FC0D0020140E0020F6
:1053C000000E0020160E0020040E0020180E0020F3
:1053D00000B502004120105C20282AD14020105C3A
:1053E000012801D1022025E001204023D0542420AF
:1053F0004123D05410680068012398431368186053
:10540000106800680C4B0340106803601068006867
:10541000084313681860106800680123034310688C
:10542000036020204123D05400204023D05400208A
:1054300000E0022000BD0000FFEFFFFF0122D207C5
:105440000118090E7F3910D449421F310FD40018BA
:1054500005D2C0011043C84000D5D0437047C001F9
:105460001043C84005D440427047002070470042B6
:10547000F3D510007047FEE79D21020008D5F446E1
:10548000524200F005F80122D207104360470000A5
:105490000AD002D4491E9218FCD5C905100A12067A
:1054A000524100D3012A48417047FEE70CB4012263
:1054B00012060318DA4207D84B18DA4204D8020061
:1054C0000A43921802D281420CBC7047FCD0884239
:1054D0000CBC704700B51249096802220A43104902
:1054E0000A6031210F4A116080B20F4908600F49EC
:1054F000096801220A430D490A600D49096808221A
:105500000A430B490A600A49096801220A4308490B
:105510000A6007490968C90701D500BFF9E700BD5E
:105520001C100240280400402C04004014040040D9
:1055300000040040F1B5A4B014001F0014ADA96030
:105540000020E8620AE0A868249A9047A860002832
:1055500000D1CBE2E86A401CE862641C21780800B4
:1055600001D1E86AC4E22529EDD100206861A86173
:10557000E86128626862A86202E001000120084335
:10558000641C21782029F8D023290ED02B2904D09F
:105590002D2907D030290BD00DE00100022008434F
:1055A00080B2EDE701000420F9E701000820F6E7EA
:1055B00001001020F3E72A290FD1396839600A6801
:1055C000091D39606A63002A05D5514269630100EB
:1055D0000420084380B2641C12E0002169630AE0E1
:1055E0006A6B774B9A4205D093009A185200511873
:1055F00030396963641C21780A00303A0A2AEFD3F3
:1056000021782E2903D00021C94329631EE0641CA0
:1056100021782A2907D1396839600A68091D39605B
:105620002A63641C12E0002129630AE02A6B644BA0
:105630009A4205D093009A185200511830392963C4
:10564000641C21780A00303A0A2AEFD3288726788A
:1056500031005A487844FF30653000F031FF0028AF
:1056600001D0641C00E000263A202E54285C6828F3
:1056700004D12178682901D1622005E06C2806D187
:1056800020786C2803D171203A216854641C05A845
:1056900028612678641C3000253824D02038022860
:1056A00000D8D4E0133800D1F6E00B3800D15DE12A
:1056B000401E00D137E1401E022800D8C7E0001F7D
:1056C00000D130E1401F00D193E0401E00D1E3E063
:1056D000401E27D0C01E0BD0801E00D1DCE0C01EB3
:1056E00000D1D9E04CE1252069460875012051E13F
:1056F000386838600168001D3860E9602E6B002E44
:1057000003D50846FFF7E8FA0AE032000021E8680E
:1057100000F0E0FE002802D0E968401A00E0300006
:10572000A86138E1386838600268001D38600020E0
:10573000C0430021104014AA03C205A8E8602869EC
:1057400000903C2214A803C802AB03C302A803C8FC
:10575000002904D1002802D1286B00281DD0521E38
:1057600002A803C80007000F3030C0B23A2800DB9F
:1057700027300099885402A803C800090B07184372
:10578000090902AB03C302A803C801D1002804D051
:10579000E868009989188842E1D33C20801AA86102
:1057A00000998918E960296B88420DDA081A286285
:1057B000288F044901402987EDE000BF401E00000A
:1057C000FFFFFF7FEFFF0000002900D4E3E0382156
:1057D000695C14220A40102A00D0DCE0696B6A6917
:1057E000891A2A6A891A0A1A012A00DAD3E02A6277
:1057F000D1E03A20285C622819D0682806D06A28AF
:105800000CD06C281BD0712808D018E0386838609C
:105810000168001D3860E86A0880BCE038683860BC
:105820000268001D3860E86AC11703C2B3E0386837
:1058300038600168001D3860E86A0870ABE03868BD
:1058400038600168001D3860E86A0860A3E03A68C3
:10585000D21D072082433A6003CA3A6014AA03C2E9
:10586000002902D568692D2109E0288F810702D51A
:1058700068692B2103E0C00705D56869202105AAC6
:105880001154401C686105A869694018E86031003E
:1058900014A800F0F9F97EE03A20285C6C280BD0BF
:1058A000712801D06A2807D13A68D21D07208243A7
:1058B0003A6003CA3A6005E0396839600868091D32
:1058C0003960002114AA03C23A20285C682803D159
:1058D00014A803C880B20BE0622803D114A803C83F
:1058E000C0B205E0742801D07A2804D114A803C8F6
:1058F000002114AA03C23820285C00072DD514A863
:1059000003C8002901D1002827D02020304378285F
:1059100023D16869302105AA1154401C411C6961DA
:1059200005A90E5419E039003A20285C00F0E2F88D
:1059300014AA03C2002902DA68692D2109E0288F20
:10594000810702D568692B2103E0C00705D5686986
:10595000202105AA1154401C686105A869694018F6
:10596000E860310014A800F0F9F814E00120686143
:10597000386838600168001D3860684601750AE0C3
:1059800025206946087501206861300003D005A80C
:10599000467002206861686B6969401A296A401A7A
:1059A000A969401A696A401AE969401AA96A401A45
:1059B00004903820285C400711D4202069460871E3
:1059C000049801280BDB049E012301AA14A9249842
:1059D00000F01BFC002800D088E0761EF4D1686936
:1059E00005AE00280FD000903178A868249A90471F
:1059F000A86000287AD0E86A401CE862761C00980B
:105A0000401E0090F0D13020694608712E6A012EA8
:105A100009DB012301AA14A9249800F0F6FB002851
:105A200064D1761EF5D1EE68A86900280FD00090E9
:105A30003178A868249A9047A860002856D0E86A70
:105A4000401CE862761C0098401E0090F0D1302087
:105A5000694608716E6A012E09DB012301AA14A9A7
:105A6000249800F0D2FB002840D1761EF5D1E868DA
:105A7000A9694618E86900280FD000903178A86815
:105A8000249A9047A860002830D0E86A401CE86259
:105A9000761C0098401E0090F0D1302069460871B5
:105AA000AE6A012E09DB012301AA14A9249800F093
:105AB000ACFB00281AD1761EF5D13820285C4007AF
:105AC00000D44BE52020694608710498012800DACB
:105AD00044E5049E012301AA14A9249800F095FB33
