:020000040800F2
:100000000804002021640008FF5A0008335B000840
:1000100000000000000000000000000000000000E0
:100020000000000000000000000000000F69000850
:1000300000000000000000001B690008496C000877
:100040004B6C00084D6C00084F6C0008516C0008A8
:10005000536C0008556C0008576C00083D420008BE
:10006000596C00085B6C00085D6C00085F6C000850
:100070004D500008616C0008636C0008412E0008B8
:10008000656C00080000000000000000676C0008BC
:1000900000000000696C00086B6C00080D1400087B
:1000A000000000006D6C00086F6C0008716C0008A7
:1000B000736C000800000000756C0008776C000885
:1000C000FAB587B0070014000E9E200000F0B0FEC5
:1000D0006946487008A8007869464978884203D381
:1000E00008A80078172800DB3DE0F6B2002E03D107
:1000F00007206946087002E03E206946087000202B
:100100000500280008A90978C0B2884219D22078D1
:1001100000280AD0207801A9EDB24855002001A995
:10012000EDB249194870641C09E06846007801A9DD
:10013000EDB24855002001A9EDB2491948706D1C77
:10014000DFE7F6B2002E07D101AA6846017F38002A
:10015000C0B200F01FFD06E001AA6846017F38002A
:10016000C0B200F0D5FC09B0F0BDF3B585B000A871
:10017000801CA6490A8802806846A5490A88028030
:1001800003A8A4490CC90CC00839083801A8A24921
:100190000CC90CC0083908380820070008200600E0
:1001A00000200500EDB2702D23DA00200400E4B237
:1001B000302C1CDAE4B2002C08D0E4B22F2C05D08D
:1001C000EDB2002D02D0EDB26F2D07D10122311911
:1001D000C9B27819C0B200F0EFFC06E00022311974
:1001E000C9B27819C0B200F0E7FC641CDFE76D1CEF
:1001F000D8E7059A0A210A2000F0CCFC6846007E68
:1002000001280AD100AA921C2E212E2000F0C2FC47
:100210006A462E214C2000F0BDFC03AA2E210A20A4
:1002200000F0B8FC01AA2E215E2000F0B3FC07B05C
:10023000F0BDF0B58BB000A8801C78490A88028018
:10024000684677490A88028004A876490CC90CC020
:100250000839083802A874490CC90CC00839083894
:10026000724A0021002000F095FC7148007E0028B1
:1002700039D170480078012817D06F4800886D493F
:10028000097800F0F3FD06006F466B480088B6B2AF
:10029000310000F0EBFDB98068468388B6B23200C9
:1002A000664906A800F03CFE05E06348028864A1A8
:1002B00006A800F035FE634906A800F04DFE06A82A
:1002C00000F0B6FD05004027EDB20620684302218C
:1002D00000F0CCFD381A040006AA1C212000C0B290
:1002E00000F058FC12E0584800F0A2FD050040273D
:1002F000EDB206206843022100F0B8FD381A040070
:10030000514A1C212000C0B200F044FC04AA38214C
:10031000002000F03FFC00AA921C3821282000F0A9
:1003200039FC6A463821522000F034FC02AA3821F8
:10033000682000F02FFC0BB0F0BDF0B583B03C4856
:100340000078002860D03A48807D401E3849887582
:100350003748807D002802D1002035490870684662
:100360003349497D062251430831017140210091F2
:1003700068460079022100F079FD0099081A07000B
:100380001720060000200500684600792900C9B240
:10039000884226D300200400E4B2112C1FDAE4B214
:1003A000002C0BD0E4B2102C08D0EDB2002D05D0FB
:1003B000280069460979C0B2884207D10122311963
:1003C000C9B27819C0B200F0F7FB06E0002231197B
:1003D000C9B27819C0B200F0EFFB641CDCE76D1CF9
:1003E000D2E7402100911248407D06214843022176
:1003F00000F03CFD0099081A69464871D24A1C2158
:100400006846407900F0C6FBF7BD0000BE24000836
:10041000AA260008F46B0008FC6B00088658000848
:10042000B25A0008046C00080C6C00082508002073
:100430000C0800205C08002052080020146C000802
:1004400025752000390800203E080020FFB585B042
:1004500000206946888168466946098B64225143B9
:100460000183059800B200F085FD69464881684621
:10047000008B69464989884203D26846008B6946E9
:10048000488168464189402048436946098B00F00D
:10049000EDFC69464871012069464870684608A924
:1004A00009786A465278891A491E817008A800782E
:1004B000032100F0DBFC401E6946487208A8007862
:1004C0004000032100F0D2FC401C694608726846D7
:1004D0006946097F6A4652788918491CC171684685
:1004E000807869464978401A401E801069468871B4
:1004F000402069460870802308A802786846017F7A
:10050000002000F0B5FB002005002800694649796D
:10051000C0B288424FD20020040020006946897989
:10052000C0B2884245D2E4B2A0006946C9794018F9
:100530000600059800B2039909B288421BDB6846A1
:100540000078EDB2401907008048BFB2B6B2F11092
:10055000C901791842187D48BFB2B6B2F110C9017D
:100560007918401840780F2133005B075B0F9940E2
:10057000014351701BE068460078EDB2401B401EFD
:1005800007007248BFB2B6B2F110C901791842181B
:100590006E48BFB2B6B2F110C90179184018407860
:1005A0000F2133005B075B0F994001435170641CBE
:1005B000B3E76D1CA9E700200500EDB2802D69DAD4
:1005C00068460570EDB2402D03DB694628004038CF
:1005D000087000200400200008A90978C0B28842F1
:1005E00056D2EDB23F2D02D0EDB2402D08D1684673
:1005F000407869460871684680786946C87007E0A7
:100600006846407A694608716846007A6946C8704B
:1006100068460078072100F029FC002903D06846CD
:100620000078002832D1E4B2002C11D0684600795D
:100630002100C9B2884205D220006946C978C0B2FB
:10064000884205D3E4B208A80078401E84421DD138
:100650003E48EDB26946097FE4B20919C910C901E3
:10066000691842183948EDB26946097FE4B20919A0
:10067000C910C90169184018407801216B461B7FD9
:100680001B195B075B0F994001435170641CA2E783
:100690006D1C92E709B0F0BDF8B5342069460870CA
:1006A0007D2007000A20060000200500280069467A
:1006B0000978C0B288420FD200200400E4B2022CB4
:1006C00008DA01227119C9B23819C0B200F074FAFF
:1006D000641CF3E76D1CE9E77C200700CB48007839
:1006E000401E694609784843C949097800F0BEFBB5
:1006F00069464870684640780A30060000200500C8
:10070000EDB2042D1ED200200400E4B2082C17DA4A
:10071000C048EDB2405D0121A140084207D001224E
:100720003119C9B27819C0B200F046FA06E00022C9
:100730003119C9B27819C0B200F03EFA641CE4E77E
:100740006D1CDDE7F1BD00000D080020080400204D
:10075000F3B583B000206946888020206946087080
:1007600068466946098A642251430182039800B2AF
:1007700000F000FC694648806846008A694649885E
:10078000884203D26846008A6946488068464188A4
:10079000162048436946098A00F068FB694648709C
:1007A00004232C2208217C2000F062FA002005009E
:1007B000280069464978C0B288424ED20020040021
:1007C000E4B2042C47DAE4B220007C30070003983E
:1007D00000B2019909B288421EDB68460078EDB28A
:1007E000401B401E0600C948BFB2B6B2F1108022BD
:1007F000514379184218C548BFB2B6B2F1108023F0
:100800005943791840184078012133005B075B0F8A
:100810009940014351701CE068460078EDB24019E0
:100820000600BA48BFB2B6B2F1108022514379181F
:100830004218B648BFB2B6B2F110802359437918B6
:1008400040184078012133005B075B0F994001435A
:100850005170641CB4E76D1CAAE700200500EDB2DE
:10086000022D29DA68460078EDB2401B0600002010
:100870000400E4B2042C1DDAE4B220007C3007004E
:10088000A248BFB2B6B2F110802251437918421883
:100890009E48BFB2B6B2F110802359437918401870
:1008A0004078012133005B075B0F99400143517091
:1008B000641CDEE76D1CD2E705B0F0BDF8B500277B
:1008C000002600200500EDB20D2D1ED200200400F0
:1008D000E4B2082C17DAAE48EDB2405D0121A14028
:1008E000084207D001223119C9B27819C0B200F00C
:1008F00063F906E000223119C9B27819C0B200F0DC
:100900005BF9641CE4E76D1CDDE7F1BDF3B581B074
:10091000712007000020060069463800801C4870DE
:1009200069463000801C087068460079652802DB43
:1009300064206946087100200500EDB20F2D1ED21B
:1009400000200400E4B2082C17DAC848EDB2405D7C
:100950000121A140084207D001223119C9B27819FA
:10096000C0B200F029F906E000223119C9B27819A5
:10097000C0B200F021F9641CE4E76D1CDDE7002043
:100980000500684600790A2100F070FAEDB2854250
:1009900013DA00200400E4B2042C0CDA01226846C9
:1009A00000780119C9B2684640784019C0B200F019
:1009B00003F9641CEFE76D1CE3E76846007A002842
:1009C00023D000200500EDB2062D1ED20020040029
:1009D000E4B2082C17DAC048EDB2405D0121A14015
:1009E000084207D001223119C9B27819C0B200F00B
:1009F000E3F806E000223119C9B27819C0B200F05C
:100A0000DBF8641CE4E76D1CDDE7F7BD340B002068
:100A1000350B0020446C0008F7B507000E000020DD
:100A20000500EDB2182D70DA00200400E4B2082CA5
:100A300069DAEDB22800022100F018FA00292FD15E
:100A4000A6486946097A182251434018EDB2401968
:100A5000A349405C0121A140084210D00122311974
:100A6000C9B200910192EDB22800022100F0FEF916
:100A70003818019A0099C0B200F09EF841E00022B7
:100A80003119C9B200910192EDB22800022100F0A3
:100A9000EDF93818019A0099C0B200F08DF830E0F5
:100AA0008E486946097A182251434018EDB2401920
:100AB0008B49405C0121A140084211D0012231192B
:100AC0000839C9B200910192EDB22800022100F06C
:100AD000CDF93818019A0099C0B200F06DF810E015
:100AE000002231190839C9B200910192EDB22800F3
:100AF000022100F0BBF93818019A0099C0B200F049
:100B00005BF8641C92E76D1C8BE7F7BD08040020BE
:100B100070B505000E0014002078002809D0227856
:100B20003100C9B22800C0B2FFF776FF641C0C3553
:100B3000F2E770BDF4B507000E0000200500EDB22D
:100B4000062D23DA00200400E4B2082C1CDAB04899
:100B500069460978062251434018EDB2405D0121F3
:100B6000A140084207D001223119C9B27819C0B298
:100B700000F022F806E000223119C9B27819C0B29B
:100B800000F01AF8641CDFE76D1CD8E7F1BD000027
:100B9000E46A000870B505000E00140020780028F3
:100BA00009D022783100C9B22800C0B2FFF7C2FFD5
:100BB000641CAD1DF2E770BD70B5D2B2002A1AD028
:100BC000022A30D046D2934BC0B2C9B2CC10802595
:100BD0006C4304191B198F4CC0B2C9B2CD108026CA
:100BE000754345196419647801254E07760FB540A1
:100BF00025435D702EE0874BC0B2C9B2CC10802572
:100C00006C4304191B19834CC0B2C9B2CD108026A5
:100C1000754345196419647801254E07760FB54070
:100C2000AC435C7016E07B4BC0B2C9B2CC108025DF
:100C30006C4304191B19774CC0B2C9B2CD10802681
:100C4000754345196419647801254E07760FB54040
:100C500065405D7070BD70B58024E40000256E4E67
:100C60002A002100300000F089F970BDF46A000804
:100C7000F5B56D462D79EDB2ED082C00E4B2E50036
:100C80006E463679B54200DA641C0025280005005E
:100C90002600EDB2F6B2B5421DD200252A0015009D
:100CA0001E00EDB2F6B2B54213D25A4F6D462D7802
:100CB000D2B2AD18AC46C9B2C0B2C5004D19EE10E3
:100CC00080256E436546AD197D1900266E70521C55
:100CD000E5E7401CDBE7F3BDDC6B0008346100088E
:100CE000B0FBFFFF80B5AE2000F06BF88D2000F068
:100CF00068F8102000F065F801BD80B58D2000F087
:100D000060F8142000F05DF8AF2000F05AF801BD43
:100D100080B5424800884249C96B8862414800F06A
:100D200055F93E4800883E49C96B8861AE2000F005
:100D300048F8002000F045F8102000F042F840206C
:100D400000F03FF8812000F03CF8802000F039F8F6
:100D5000C82000F036F8A12000F033F8202000F081
:100D600030F8002000F02DF8A62000F02AF8A82086
:100D700000F027F83F2000F024F8D32000F021F8FD
:100D8000002000F01EF8D52000F01BF8F02000F045
:100D900018F8D92000F015F8F12000F012F8DA2048
:100DA00000F00FF8122000F00CF8DB2000F009F83A
:100DB000402000F006F840201649087000F017F8AF
:100DC00001BD38B5050078246846002101806846D9
:100DD000457015480068000401D500BFF9E70222FC
:100DE000694601202043C0B200F08AFA31BD10B537
:100DF00078240D480068000401D500BFF9E70B4ACC
:100E0000044901202043C0B200F07AFA10BD00006E
:100E1000345B000808040020090400200C6300086B
:100E2000CC620008102700001854004001040000A4
:100E3000010000E0491C0A78002AFBD1081A70471B
:100E4000F446002804D4494200F013F840426047B9
:100E50004042002905D45FD000F00BF840424942DF
:100E60006047494200F005F84942604703460B439A
:100E7000E6D40022030A8B420BD203098B4219D21B
:100E800043088B422ED2411A00D2014652411046ED
:100E90007047FF2209023FD012068B4205D312127F
:100EA00009028B4201D31212090203098B4219D3A2
:100EB00000E0090AC3098B4201D3CB01C01A524199
:100EC00083098B4201D38B01C01A524143098B42E3
:100ED00001D34B01C01A524103098B4201D30B01CC
:100EE000C01A5241C3088B4201D3CB00C01A5241F1
:100EF00083088B4201D38B00C01A524143088B42B6
:100F000001D34B00C01A5241884200D3401A5241CB
:100F1000CFD201461046704708B500F07DFA08BDF3
:100F20000CB41CB5040004A80190009401AB0A00A5
:100F30006946084878441C3000F070FA0021009A95
:100F40001170002801D40098001B02B0019910BC58
:100F500003B00847BB040000020000E0521C1378F5
:100F6000002BFBD10B781370002B02D0521C491CB4
:100F7000F8E77047002800D5404270471206130A70
:100F80001A43130C1A4300BF094205D0830705D04A
:100F90000270401C491EF9D170470000130030B4A4
:100FA00014001500103902D310393CC0FCD2490797
:100FB00000D30CC000D504C0890002D30280801C7D
:100FC000002900D5027030BC7047000000B51249FE
:100FD000096802220A4310490A6031210F4A116050
:100FE00080B20F4908600F49096801220A430D4980
:100FF0000A600D49096808220A430B490A600A4938
:10100000096801220A4308490A6007490968C907B3
:1010100001D500BFF9E700BD1C10024028040040C4
:101020002C0400401404004000040040AF48006855
:1010300003210143AD480160AC4800680C21014325
:10104000AA480160AA48006801210143A84801603C
:10105000A748006804210143A5480160A148006831
:101060008021890301439F4801609D4800688021D9
:10107000890301439A480160994800689A490140F0
:10108000974801609B480068A021C9050143994821
:101090000160984800680321014396480160954823
:1010A000006880214900014392480160914800682E
:1010B000904908608F4800688021490301438D48AA
:1010C0000160704700B58C4A126801239A438A4B2D
:1010D0001A60894A126801231343874A1360C34A7E
:1010E0001268864B1340C14A136089B2FF290EDD96
:1010F000BE4A1268FF231B041343BC4A1360BB4A59
:10110000126880235B041343B84A13600BE0B74AAC
:1011100012680B041343B54A1360B44A1268B44B07
:101120001340B24A1360B14A1268FF239A43AF4B8F
:101130001A60AE4A1268C0B20243AC4B1A60AB4AA6
:1011400012688023DB001343A84A1360A74A126881
:1011500080239B011343A54A136000BDF8B5050029
:101160000C001600A3480068000468D4310089B25E
:101170002800C0B2FFF7A6FFB6B2FF2E00DDFF3E8B
:101180009C480068400704D59B4800682070641C98
:10119000F6E798480068400609D594480068802121
:1011A000C90101439148016002200700E8E7914826
:1011B0000068000625D58D480068504901408B48DD
:1011C0000160B6B2FF2E0FDD88480068FF210904D8
:1011D0000143864801608548006880214904014335
:1011E00082480160FF3ECBE780480068310401433C
:1011F0007E4801607D4800687D4901407B48016070
:10120000BEE77C480068C0060ED57C480068102107
:1012100001437A48016079480068202101437748FA
:101220000160032007000CE0724800688006A7D523
:1012300072480068202101437048016001E00120EC
:1012400007003800C0B2F2BD00B52B4A1268012376
:101250009A43294B1A60284A126801231343264AED
:101260001360624A1268254B1340604A136089B2CA
:10127000FF290EDD5D4A1268FF231B0413435B4AFE
:1012800013605A4A126880235B041343574A136061
:101290000BE0564A12680B041343544A1360534A36
:1012A0001268534B1340514A1360504A1268FF238F
:1012B0009A434E4B1A604D4A1268C0B202434B4BE0
:1012C0001A604A4A12684E4B1340484A1360474A14
:1012D000126880239B011343444A136000BD000041
:1012E000101002401C100240FFFFDFFF08140048EE
:1012F0000C1400481054004000540040FFFF00FF51
:10130000F8B505000C0016003A480068000468D4DF
:10131000310089B22800C0B2FFF796FFB6B2FF2EA7
:1013200000DDFF3E33480068800704D5207835494A
:101330000860641CF6E72F480068400609D52B4872
:1013400000688021C901014328480160022007008C
:10135000E8E728480068000625D5244800682A499F
:10136000014022480160B6B2FF2E0FDD1F48006821
:10137000FF21090401431D4801601C4800688021C9
:101380004904014319480160FF3ECBE71748006854
:1013900031040143154801601448006814490140B4
:1013A00012480160BEE713480068C0060ED5134816
:1013B0000068102101431148016010480068202195
:1013C00001430E480160032007000CE00948006853
:1013D0008006A7D50948006820210143074801601D
:1013E00001E0012007003800C0B2F2BD0454004003
:1013F000FFFFFFFE18540040245400401C540040DE
:10140000FFFBFFFF28540040FFFF00FF704702680A
:10141000531C03601170704770471A00F1B5A4B0F7
:1014200014001F0014ADA9600020E8620AE0A8685B
:10143000249A9047A860002800D1CBE2E86A401CBB
:10144000E862641C2178080001D1E86AC4E2252919
:10145000EDD100206861A861E86128626862A86235
:1014600002E0010001200843641C21782029F8D003
:1014700023290ED02B2904D02D2907D030290BD0B9
:101480000DE001000220084380B2EDE701000420D6
:10149000F9E701000820F6E701001020F3E72A2908
:1014A0000FD1396839600A68091D39606A63002AFA
:1014B00005D55142696301000420084380B2641CD1
:1014C00012E0002169630AE06A6B774B9A4205D00B
:1014D00093009A185200511830396963641C2178BE
:1014E0000A00303A0A2AEFD321782E2903D00021AE
:1014F000C94329631EE0641C21782A2907D1396871
:1015000039600A68091D39602A63641C12E00021F1
:1015100029630AE02A6B644B9A4205D093009A181B
:101520005200511830392963641C21780A00303A7E
:101530000A2AEFD32887267831005A487844FF30AA
:10154000653000F0F0FD002801D0641C00E00026AA
:101550003A202E54285C682804D12178682901D1CA
:10156000622005E06C2806D120786C2803D1712018
:101570003A216854641C05A828612678641C300050
:10158000253824D02038022800D8D4E0133800D1E0
:10159000F6E00B3800D15DE1401E00D137E1401E7E
:1015A000022800D8C7E0001F00D130E1401F00D161
:1015B00093E0401E00D1E3E0401E27D0C01E0BD0B8
:1015C000801E00D1DCE0C01E00D1D9E04CE1252016
:1015D00069460875012051E1386838600168001DCE
:1015E0003860E9602E6B002E03D50846FFF720FC1B
:1015F0000AE032000021E86800F09FFD002802D0D8
:10160000E968401A00E03000A86138E138683860C5
:101610000268001D38600020C0430021104014AA59
:1016200003C205A8E860286900903C2214A803C8FA
:1016300002AB03C302A803C8002904D1002802D1C9
:10164000286B00281DD0521E02A803C80007000FF7
:101650003030C0B23A2800DB27300099885402A805
:1016600003C800090B071843090902AB03C302A80A
:1016700003C801D1002804D0E8680099891888427D
:10168000E1D33C20801AA86100998918E960296B90
:1016900088420DDA081A2862288F044901402987F8
:1016A000EDE000BF78550000FFFFFF7FEFFF000077
:1016B000002900D4E3E03821695C14220A40102A92
:1016C00000D0DCE0696B6A69891A2A6A891A0A1AE9
:1016D000012A00DAD3E02A62D1E03A20285C6228AD
:1016E00019D0682806D06A280CD06C281BD0712825
:1016F00008D018E0386838600168001D3860E86A72
:101700000880BCE0386838600268001D3860E86A0C
:10171000C11703C2B3E0386838600168001D386043
:10172000E86A0870ABE0386838600168001D38600E
:10173000E86A0860A3E03A68D21D072082433A6055
:1017400003CA3A6014AA03C2002902D568692D2190
:1017500009E0288F810702D568692B2103E0C007C3
:1017600005D56869202105AA1154401C686105A8A7
:1017700069694018E860310014A800F0F9F97EE0CA
:101780003A20285C6C280BD0712801D06A2807D138
:101790003A68D21D072082433A6003CA3A6005E0E6
:1017A000396839600868091D3960002114AA03C22C
:1017B0003A20285C682803D114A803C880B20BE043
:1017C000622803D114A803C8C0B205E0742801D070
:1017D0007A2804D114A803C8002114AA03C238200F
:1017E000285C00072DD514A803C8002901D10028C2
:1017F00027D020203043782823D16869302105AADA
:101800001154401C411C696105A90E5419E03900AE
:101810003A20285C00F0E2F814AA03C2002902DA98
:1018200068692D2109E0288F810702D568692B217D
:1018300003E0C00705D56869202105AA1154401CA2
:10184000686105A869694018E860310014A800F0D3
:10185000F9F814E001206861386838600168001DFB
:101860003860684601750AE0252069460875012040
:101870006861300003D005A8467002206861686B7B
:101880006969401A296A401AA969401A696A401AA6
:10189000E969401AA96A401A04903820285C400778
:1018A00011D4202069460871049801280BDB049E9E
:1018B000012301AA14A9249800F01BFC002800D0E1
:1018C00088E0761EF4D1686905AE00280FD000903C
:1018D0003178A868249A9047A86000287AD0E86AEE
:1018E000401CE862761C0098401E0090F0D1302029
:1018F000694608712E6A012E09DB012301AA14A989
:10190000249800F0F6FB002864D1761EF5D1EE682D
:10191000A86900280FD000903178A868249A9047D1
:10192000A860002856D0E86A401CE862761C00983F
:10193000401E0090F0D13020694608716E6A012E79
:1019400009DB012301AA14A9249800F0D2FB002886
:1019500040D1761EF5D1E868A9694618E8690028E3
:101960000FD000903178A868249A9047A86000288A
:1019700030D0E86A401CE862761C0098401E009057
:10198000F0D1302069460871AE6A012E09DB0123CF
:1019900001AA14A9249800F0ACFB00281AD1761EE5
:1019A000F5D13820285C400700D44BE5202069465B
:1019B00008710498012800DA44E5049E012301AA75
:1019C00014A9249800F095FB002803D1761E00D1BD
:1019D00038E5F3E70020C04325B0F0BD0A006228D7
:1019E00022D0682819D06A2808D06C2823D0712802
:1019F00004D074281FD07A2808D01CE01368DB1D9F
:101A000007208343136003CB136070471168116094
:101A10000868091D1160002170471168116008688D
:101A2000091D116000B20BE0116811600868091D02
:101A3000116040B204E0116811600868091D11606E
:101A4000C1177047F3B583B0006900906846027C07
:101A50006F2A01D1082406E020211143782901D002
:101A60000A2400E010243C25039803C806000F0058
:101A7000642A01D0692A07D1002905DA0020002153
:101A8000801BB94106000F00002F10D1002E0ED18F
:101A90000398006B00280AD1082C3AD1039838210A
:101AA000405C000735D53B253020009930E06D1EA5
:101AB0000195300039002200E31700F04AFB303274
:101AC000D2B23A2A03DB6846007C513812180098DB
:101AD0004255300039002200E31700F03AFB0600BF
:101AE0000F0001D1002E05D00398C0680099491954
:101AF0008842DCD3082C0CD103983821405C0007C5
:101B000007D50098405D302803D06D1E3020009925
:101B100048553C20401B0399886100994919039A54
:101B2000D1600399096B884209DA081A039908629F
:101B30000398008FBA4901400398018715E00029F6
:101B400013D503993822895C14220A40102A0CD13B
:101B50000399496B039A5269891A039A126A891A7E
:101B60000D1A012D01DB0398056205B0F0BD0000E0
:101B7000F3B591B006AA03C802AB03C31198006B7A
:101B8000002801D5062007E008D112A800782021FE
:101B90000143672902D10120119908631198406817
:101BA0004100490D9F4B994223D100030FD1119859
:101BB000006800280BD103201199886112A80078D1
:101BC00061381A2864D300BF9FA000900AE0032068
:101BD0001199886112A8007861381A2856D300BF7D
:101BE0009AA00090032200991198C06800F0E6FACC
:101BF00014E1012947DB8C4A02408C481043119ABA
:101C000050608B48091A09B28A4848438A49FFF74D
:101C10002DF9040002A803C80022002300F0FCFAFA
:101C200006D202A803C880221206514002AA03C2AB
:101C3000684684800720019909B2421A00207F4932
:101C4000012A27DB009202AA30CA00260F00009862
:101C5000C00707D532003B002000290000F0F5FA4C
:101C600004000D0000984010009030003900320050
:101C70003B0000F0EAFA06000F0000980028E6D1C9
:101C800002A830C027E000200023BCE070A0A8E735
:101C900070A09AE754420026694F10E0E00707D58C
:101CA00004A803C832003B0000F0CFFA06000F0082
:101CB000641004A803C804AA0CCA00F0C6FA04AA57
:101CC00003C2002CEAD102A803C832003B0000F096
:101CD0007EFB02AA03C212A80078202101430491CE
:101CE000662903D1019800B20A3000E0062011995C
:101CF000096B08180090142801DB13200090302095
:101D00006946087606A8441C0098012839DB02A819
:101D100003C800F0BDFB05900646083404253000DA
:101D20000A21FFF7A6F80F0030000A21FFF7A1F8FB
:101D300006003037601E077030000A21FFF799F85F
:101D40000F0030000A21FFF794F80600A41E303778
:101D500027706D1EE3D108340098083800900128E0
:101D6000D2DB059800F0ACFB02000B0002A803C810
:101D700000F013FC0022334B00F067FA02AA03C202
:101D8000C5E706A8401C201A06A94A1C6B4605E0B8
:101D9000401E019909B2491E9980521C11783029C0
:101DA000F6D00499662903D1019909B2491C04E0CF
:101DB000652901D1012100E00021119B1B6B5B18FB
:101DC0001BB2984200DA03001BB219001DD48142F5
:101DD00004DA505C352801DB392000E0302054184B
:101DE00000E05B1E641E491E25788542F9D0392823
:101DF00002D1505C401C5054002906D5521E5B1C79
:101E0000019800B2401C69468880019800B2009099
:101E10001BB212A80178119800F01EF813B0F0BDA3
:101E2000EFFF0000FF070000FFFF0F800000E03F12
:101E3000FE03000097750000A0860100000024400A
:101E40000000F03F84D79741494E46004E414E0076
:101E50006E616E00696E6600F3B585B014001D00FA
:101E6000066B012D01DA0125AEA4202008430C9F4A
:101E7000662801D17F1C17E0672800D0AAE0032163
:101E8000C9438F4200DA91E0B74200DB8EE07F1C4D
:101E900005983821405C000702D4B54200DA2E00D4
:101EA0003FB2F61B00D5002605988169C06840182E
:101EB0003FB2012F2CDA491C30220270012E04DAC5
:101EC00005983822805C000704D52E20059AD26838
:101ED0005054491C059881617842864200DA774265
:101EE0003FB2784205994862F619AE4200DA3500F1
:101EF0002DB20598C5612A0021000598C068059B90
:101F00009B69C01800F05AF9701B05998862D2E0ED
:101F10003A0095421EDA2A00210000F04FF9059997
:101F200089694919059A9161781B059A5062012EB9
:101F300004DA05983822805C000708D52E20059A1F
:101F4000D26850540598C069401C0599C86105982D
:101F50008662B0E0210000F031F905988069C0196F
:101F6000ED1B012E04DA05993822895C090704D596
:101F70002E21059AD2681154401C059988612DB212
:101F8000AE4200DA35002DB22A00E1190598C0688A
:101F9000059B9B69C01800F011F9059880694019EC
:101FA00005998861701B0599486284E0B54205DA9D
:101FB00005993822895C090700D42E00761E00D5C9
:101FC00000266846007E672801D1652000E0452094
:101FD0006946087605988169481C059A90612278BF
:101FE000059BDB685A54611C012E04DA059A3823DC
:101FF000D25C12071DD50200401C059B98612E2360
:10200000059CE468A354012E13DB6D1E2DB2AE4275
:1020100000DA35002DB22A00059BDB68181800F0A5
:10202000CDF805988069401905998861701B05995C
:1020300048620598C0680599896941186846007E1C
:102040000870380003D42B2048708C1C03E02D222C
:102050004A708C1C4742002502AE08E00A226846FE
:1020600000F012FB01983070009F6D1C761C39B295
:102070000129F3DA022D08DA6846007E20210143A7
:10208000652902D130202070641C002D09D1302038
:102090002070641C07E06D1E02A8405D3030207087
:1020A000641C012DF7DA0598C06805998969401804
:1020B000201A0599C86105983821405C1421014017
:1020C000102914D105984069059989694018059926
:1020D000496A40180599C96940180599896A4018E4
:1020E0000599496B884202DA081A0599086207B017
:1020F000F0BDF1B50E0014000027002B0FD01D001D
:102100002178B068009A9047B060002806D0F06A45
:10211000401CF062641C6D1E01D0F1E7FF433800E3
:10212000F2BD00003000C9B200E0401C02788A42D3
:1021300002D0002AF9D100207047C9B201E0401C4A
:10214000521E002A03D003788B42F8D1704700203A
:102150007047124224D0994228D970B500251B42FD
:1021600002D00C00002109E0002401264918644136
:10217000944200D3A41A7641F8D33100012601E03D
:10218000764109D2001864416D41A41A9D41F7D2ED
:10219000A4185D41B619F5D3300022002B0070BDA4
:1021A0001B42D8D108B500F07FFA08BD01D190429A
:1021B000D3D202000B00002100207047124207D04A
:1021C0008B0706D00B78491C0370401C521EF7D8B1
:1021D0007047830706D00B78491C0370401C521EC1
:1021E000F9D1704770B4103A03D378C9103A78C067
:1021F000FBD2530701D318C918C001D508C908C0BC
:10220000D20704D30B880380891C801C002A01D5C7
:102210000B78037070BC704730B4012464054D0026
:10222000EC420BD85D00EC4208D80C001C43640063
:102230000443144304D2994200D1904230BC704709
:10224000FCD08B42FAD18242F8E7F0B50E005E4036
:102250000125ED072E40B446AE0ADF184C18F442B3
:1022600008D2F7420ED2640D01D07F0D12D10020AA
:102270006146F0BD05D1F74201D87F0D05D10020A0
:10228000C143F0BDFBD1640DF9D00020C143490525
:1022900049088FE0E419C902DB0229432B43DB0A1A
:1022A000460DC00231438E4630B487B295B27D43AD
:1022B0002E0CADB2140C7C43A419260C2404254327
:1022C0009CB27C43A419190C7943270CC919A4B2F8
:1022D0000F043C43090C000C97B247432E0CBE1967
:1022E0003543ADB2170C4743360CBF19A6B2BF1920
:1022F0003E043543240C3E0C36199FB24743BF19A8
:10230000BCB23E0C89191F0C47437F183E0434436E
:10231000390C704680B297B247432E0CBE19354334
:10232000ADB2170C4743360CBF19A6B2BF193E0415
:102330003543240C3E0C36199FB24743BF19BCB23B
:102340003E0C89191F0C47437F183E043443390C57
:1023500077463F0C90B278432E0C80190604ADB23C
:102360002E43050CA0B22D18120C7A435019020C02
:1023700080B2240CA4189AB27A4312191404204390
:10238000120C89181B0C7B43C91830BCEF0A394268
:1023900003D1B61940414941641E6F12BF0DE41BC1
:1023A0000BDBFF19BC4211DA240500274208AE41BD
:1023B0007841614166463143F0BD641C05D1401C43
:1023C0006141CF0201D34908F4E750E75DE7F0B47B
:1023D0000E005E400125ED072E40B446AE0ADF1820
:1023E0004C18F4423BD2F74241D2640D43D07F0DEA
:1023F00038D0E41BC902DB0229432B43CF0ADB0A96
:102400000600B61A9F4104D2641EB6197F41B61861
:102410005F416812800D24180018844222DAE80C0B
:102420000021B6197F41B61A9F4102D2B6185F410A
:102430003F1C40414941F4D3241C21DD2405B61939
:102440007F41B61A9F4105D33743C607374300265D
:10245000012F7041614166463143F0BC7047FCD1A9
:10246000F74205D20020C14349054908F3E704D0EB
:102470000020C143F1E77F0DFAD000206146ECE770
:102480002442FAD1401C61410F03F6D30020E2E759
:102490004A1812D2400DC90208430121C907084356
:1024A000520D40210901521A521C06D452421F32C9
:1024B00001D4D0407047C017704700207047180003
:1024C000010000BF42221201D21E004207D002D4F6
:1024D000521E0018FCD5C10A400512058918704724
:1024E0008B4200D1824205D98446100062468C4658
:1024F00019006346DF184C18640D7F0D3AD0661C36
:10250000760537D0E61B352E34DCDB022B43DB0AA5
:102510000C0DC9022943C912202E0DDB1700203EE5
:1025200006D01F00F741F3405F400026012A7741A3
:10253000C01871410DD217E01700F741F240574023
:10254000F3415A40B340F3405A40002680185941A5
:102550000AD3A21C52050FD0C207012F72411700E7
:102560004008CB0718434908641C24054208AF41C2
:1025700070416141F0BC7047641C21050020F9E7FF
:102580006B4010E06B40ABE7F742F3D1E943F1E772
:102590002442EFD100200021ECE7F0B40125ED0743
:1025A0000F005F40EED40C00871A9C4105D2C01B7F
:1025B000A141D219634169406B40AE0ADF184C1843
:1025C000F442E1D2640D7F0DE2D0E61B362ED1DC61
:1025D000DB022B43DB0AA4460C0DC9022943C90ABE
:1025E000012E28DC04D1D6075208DF073A435B08E6
:1025F000EF0A76429041994114D039423BD1B61945
:1026000040414941761C394204D1761C00184941A9
:102610003942FAD0B9436746B74208D9A41B24050A
:102620002143A7E70042EAD13642E8D1A2E7E40A13
:10263000E10700209EE7202E0BDD203E1F00F34027
:10264000F7415F40012A002257417E429841914163
:102650000BE01700F741F2405740F3415A40B340B6
:10266000F3405A407E42904199410A0303D2641ECE
:10267000B619404149410027641E24054208AE4175
:1026800078416141F0BC70477CB504000E00150034
:1026900030002900FEF7EAFB00904543701B0190D3
:1026A000684603C803C473BD704719000121C20600
:1026B000D20E9140254A116070470121C206D20E08
:1026C0009140234A11607047F0B540B2002821D5EF
:1026D000204C40B20207120F083A950804225543D5
:1026E0001C4A40B203071B0F083B9B080426734398
:1026F000D258FF238607B60F08277E43B3409A437C
:102700008B01DBB28607B60F08277E43B340134325
:1027100063511AE0104A40B2830804246343D2583C
:10272000FF238407A40F08256C43A3409A438B0121
:10273000DBB28407A40F08256C43A3401343064A69
:1027400040B2840804256C431351F0BD00E100E061
:1027500080E100E01CED00E000E400E0F0B589B0AD
:10276000C1488078022800D08AE2BF48817CBE48F8
:10277000407C00020843BC49097C09040143BA4873
:10278000C07B000608430890B8480078022800D1B2
:1027900073E2D548006B0899884204D0D248808EF5
:1027A000002800D169E20020D6494880CE48808EBA
:1027B000002809D00020CC4988860898CA490863B7
:1027C0001E21D14800F091FDD0480068401CCF493F
:1027D0000860C548C08ECE4941430D00A248C0786C
:1027E0000102A148007908437D2148436421FEF796
:1027F0003DFB01002800FEF73CFB07909A4840791A
:102800000002994989790843B74988859648C07973
:1028100001029548007A08437D2148436421FEF770
:1028200025FB01002800FEF724FB06908E48407A25
:1028300001028D48807A08437D2148436421FEF7D8
:1028400015FB01002800FEF714FB05908648C07AAE
:1028500001028548007B08437D2148436421FEF73F
:1028600005FB01002800FEF704FB04907E48407B36
:1028700001027D48807B08437D2148436421FEF7A7
:10288000F5FA01002800FEF7F4FA0390079896493C
:1028900048840798B049884202D3AF489249488497
:1028A0000698914988840698AB49884202D3AA4881
:1028B0008D49888405988C49C8840598A649884222
:1028C00002D3A5488849C884049887490885049894
:1028D000A149884202D3A0488349088503988249C8
:1028E000488503989C49884202D39B487E49488585
:1028F0007D48008C022819DB7B48C08B002808D15A
:102900007948008C7849C8831E21C24800F0EDFC4C
:1029100007E07548C08B012803D11E21D94800F07B
:10292000E4FC7148C08B401E6F49C883D6480078CC
:10293000002800D002E16C48818D00916A48808DAA
:102940000A21FEF793FA0099081A02906648818DD1
:1029500000916548808D0A21FEF788FA00990818D1
:102960000190CA486049898B02224A438018A021FD
:102970004900405A0299884219D30199C3485A4ADA
:10298000928B02235343C018A0225200805A8142E6
:102990000DD3BF480088002809D00020BD49086039
:1029A0000020BD4908700020BC490870C6E0B84846
:1029B000008800285ED0B74800684B49898D4018D0
:1029C000B4490860B4480078401CB3490870B34863
:1029D0000078401CB1490870AF480078052800DA3B
:1029E000ACE0AC480068AC490978FEF742FAAC4963
:1029F00008800020A6490880A94801880091A848BD
:102A000000880A21FEF732FA0099081A0700A44844
:102A100001880091A24800880A21FEF727FA009950
:102A20000818060001200400E4B2102C00DB85E049
:102A30009648E4B2022161434018A0214900405A5F
:102A4000B84215D39148E4B2022161434018A02155
:102A50004900405A86420BD3E4B28D4804800120DD
:102A6000894908706AE000BF9C0F0020E00F002039
:102A7000641CD9E789480078401C88490870884858
:102A800000880299884211D30198854909888842B3
:102A90000CD381480078401C7F4908707D4800684D
:102AA0001149898D40187B4908600AE00E48808DE5
:102AB0007B4908800120784908700B48808D754952
:102AC0000860754800780A2824DB7248006872495B
:102AD0000978FEF7CEF97249088002206A49087029
:102AE00001206B4902E000BF3C0B00200880002061
:102AF0006A4908700020684908700020654908602C
:102B00001CE000BFCC0F0020946B0008840D002057
:102B1000A0860100614800780F280FD31E219C4831
:102B200000F0E3FB00205849087000205B49087062
:102B300000205949087000205649086095480078DF
:102B4000012800D099E0A7480088FF2806DB1E2155
:102B5000A54800F0CAFB90E0FFFF0000A348418CAD
:102B6000A248A04A128802235343C0180187A048F4
:102B700001689E489B4A128802235343C018008F65
:102B800008189B49086097480088401C95490880B0
:102B900094480088022847DB9548006891490988D5
:102BA000FEF767F9934908800020934908600020E8
:102BB00004002000C0B28B49098880B288422BD221
:102BC0008C4800888949E4B2022262438918098F3F
:102BD00088420ED38848006886490988834AE4B24F
:102BE00002236343D218128F891A40188249086061
:102BF0000DE0814800687D49E4B2022262438918F1
:102C0000098F7C4A1288891A40187B490860641C25
:102C1000CFE700BFE4690008774800687149098878
:102C2000FEF727F9754908807048808B002824D06A
:102C300016486E49898B02224A4380189021490028
:102C4000405A002819D06948408C6849498C48434B
:102C50006B49FEF70BF90D49644A928B02235343EB
:102C6000C91890225200895A48436549FEF7FEF878
:102C70000221FEF7FBF86349088000206249887052
:102C800009B0F0BDF46900080E0F0020A40D00206B
:102C9000040F0020080F00200C0F00200D0F002053
:102CA000060F002080B559480068012101435748AC
:102CB00001605748006801210143554801605448AC
:102CC0000068012188435249086031205149086059
:102CD000514852490860524800885249C96E88617B
:102CE00051480068012101434F4801604E48006887
:102CF000302101434C4801604C4800680A210143DF
:102D00004A480160484800684749086047480068E9
:102D10000121014345480160454800680221014303
:102D20004348016042480068012101434048016076
:102D300040480068404901403E4801603D48006805
:102D4000022188433B4908603A48006801218843D2
:102D50003849086000202C49087000202A49487032
:102D60000020294988700F20FFF7A0FC0F210F20B9
:102D7000FFF7AAFC31480068012101432F48016098
:102D80002E480068022101432C48016001BD00006B
:102D9000046A0008E00F002080B51C48006801218B
:102DA00088431A4908601E4800881E49C96E886217
:102DB0001E480068012188431C4908601C480068BF
:102DC000022188431A490860194800680121884394
:102DD0001749086001200C4988700F20FFF76DFC2F
:102DE00001BD00007C0D0020146A00083C0B00208F
:102DF000740D0020800D0020780D0020820D002031
:102E0000102700007E0D00209C0F00201C100240A7
:102E10001010024028000040E09304002C00004005
:102E20003C630008CC62000818000040200000400D
:102E30000C00004010000040FFFDFFFF14000040A8
:102E400000B5A2480068800522D5A0480068A049C6
:102E500001409E4801609D480068022188439B49CB
:102E600008608020C0050068012188438021C905D1
:102E7000086098488078022800D125E10020954913
:102E800008700020934948700020924988701BE127
:102E90008E480068800700D4F7E08C480068022163
:102EA00088438A4908608B488078022808D18020AE
:102EB000C0050068012188438021C905086003E13D
:102EC0008548006880062AD584480068844988427D
:102ED00021D282480068834988421CD38020C005E3
:102EE0000068012188438021C905086000207949D4
:102EF000087078484078102807D1764880780328F1
:102F000003D002207349887005E0002071494870A1
:102F1000002070498870002070490860D4E080204B
:102F2000C0050068C00700D4A3E08020C005006889
:102F3000012188438021C9050860684800686A4902
:102F4000884212D265480068684988420DD36148BA
:102F50008078002809D100205E49087000205D4972
:102F6000487001205B49887083E05C4800686049D4
:102F7000884233D2594800685E4988422ED355486A
:102F8000807801282AD15348524949784018C0789E
:102F90000121504A1278914088434E494D4A527857
:102FA0008918C8704B480078401C4A490870494845
:102FB000007808285DDB00204649087045484078C5
:102FC000401C4449487043484078112851DB032095
:102FD0004049887000203F4948704AE03F480068F7
:102FE0003F49884233D23D4800683E4988422ED34B
:102FF0003848807801282AD136483649497840181F
:10300000C0780121334A1278914001433148314A56
:1030100052788018C1702F480078401C2D490870E4
:103020002C480078082824DB00202A490870294809
:103030004078401C2749487026484078112818DB02
:1030400003202449887000202249487011E0802024
:10305000C0050068012188438021C905086000205F
:103060001C49087000201B494870002019498870CD
:103070002AE00020204908608020C0050068012166
:1030800001438020C00501601EE010480068C007B1
:103090001AD50E480068012188430C490860802039
:1030A000C0050068012188438021C90508600948DE
:1030B0008078022808D000200649087000200549C1
:1030C000487000200349887000BD000010000040D7
:1030D000FFFDFFFF9C0F002010000048340000405F
:1030E000BB040000DE030000131B000026160000D6
:1030F00075090000BC0700002400004010B5884896
:10310000007804000020864908708648007800286E
:1031100006D0022828D022D304282FD029D332E089
:10312000E4B2052C1AD101207E49087000F0F4F8B1
:103130008068A749884205D000F0EEF8806800F06A
:10314000F3F8F3E700F0E8F84068A149884205D0B9
:1031500000F0E2F8406800F0E7F8F3E713E0200041
:10316000C0B200F041F90EE02000C0B200F064F8F7
:1031700009E02000C0B200F01DF804E02000C0B259
:1031800000F002F8FFE710BD00B5C0B2002809D07A
:10319000022809D007D3042808D006D3062807D070
:1031A00005D306E005E004E003E002E001E000E012
:1031B000FFE700BD00B5C0B2002809D0022809D041
:1031C00007D3042808D006D3062807D005D306E085
:1031D00005E004E003E002E001E000E0FFE700BDFD
:1031E000FFB581B00A9F0B9C0C9E0D9D4D48007849
:1031F0007849087002204B4908700399764800F01E
:103200006DF90499754800F069F93900744800F0C7
:1032100065F97448C464684600797249087668465E
:10322000007A944908702088934908809348068062
:103230009D48058005B0F0BD10B504006948007ECA
:10324000002851D1E4B2002C09D0022C11D007D3B0
:10325000042C20D00ED3062C45D02DD344E043E0DF
:103260005C4800782F4908701E21904800F03DF816
:103270003AE039E08048008880490988884204D3D0
:10328000894800887C49088004E07B480088401C0D
:103290007949088028E0844800887749098888426D
:1032A00004D3764800887449088004E07248008896
:1032B000401E7149088017E04A48C06C002809D0B8
:1032C0006D4800884749C96C08801E21784800F085
:1032D0000CF803E01E21774800F007F83D4800781D
:1032E0001049087000E0FFE710BD38B504000D007C
:1032F000002C10D0EDB2002D0DD021006E4800F052
:10330000EDF86D48FDF794FD3649487535488575EB
:1033100001203449087031BD6848006870470000DA
:10332000390B0020370B002070B504002848844278
:1033300001D0002C00D149E0FFF7EEFFC0688442C5
:1033400004D0FFF7E9FF8068844202D100205C4985
:1033500008705A480460594800680500A8681C496C
:10336000884206D0A8680600B169564800F0B6F851
:1033700003E05549534800F0B1F800205349087064
:1033800052480078401C51490870686810498842CA
:1033900003D100204E49087001E06D68F0E7A9698B
:1033A00010484B4A127814235A438018CC225200FA
:1033B000801800F093F846480078401C4449087093
:1033C00028680349884201D02D68E8E770BD0000F5
:1033D000CC680008380B00202508002039080020A0
:1033E0003E0800200C08002010B50400E4B2002CB8
:1033F00009D0022C18D007D3042C1FD018D3062CC8
:1034000036D021D335E034E0FFF786FF80683149BC
:10341000884203D100203049087004E0FFF77CFFA8
:103420008068FFF781FF24E000202B49087020E02E
:10343000FFF772FF4068FFF777FF1AE0FFF76CFFB6
:103440000068FFF771FF14E0FFF766FFC0682149CD
:10345000884204D0FFF760FFC068002802D100F066
:103460000FF804E0FFF758FFC068FFF75DFF00E0CA
:10347000FFE710BD5C08002052080020540800201F
:1034800010B50E4800681349884203D00B48006805
:10349000002800D106E0094800684469200000289F
:1034A00000D0A04710BD000056080020586B00084F
:1034B000C46B0008CC6B00080D080020040000203D
:1034C000360B002090090020D46B0008340B00203C
:1034D000350B0020CC680008370B0020002300E0EB
:1034E0005B1CCA5C002AC254FAD17047F8B5684622
:1034F000B4490A880280FDF7E1F9B348007806284C
:1035000001DBFDF7C9F8B14800780500EDB2B0481D
:103510000078401F854208DAAD480078062804DBB1
:10352000AB480078401F05000DE0A9480078401F17
:10353000EDB2A84207DAEDB2A5480078281A401D7E
:10354000052800DB6D1EA1480570A1480078401BCE
:103550000700A04A01210E20FDF71CFB6A46FFB2BE
:103560000A207843801C0100C9B20020FDF712FB3D
:1035700095480078062803DA93480078060001E0B1
:10358000052006000020040020003100C0B2C9B2AE
:10359000884214D29048EDB2E4B229191422514362
:1035A0004018CC2149004218E4B20A2060430C3094
:1035B0000100C9B20820FDF7EDFA641CE4E7F1BD93
:1035C000F0B58FB000200090122384488449898B85
:1035D00012224A43821800210020FCF771FD804826
:1035E000408C6421FDF742FC040068467C49498C0C
:1035F000A4B264226243891A4181A4B2002C03D18F
:1036000068467749498C41812F200090684643895C
:10361000A4B2220073490DA8FDF782FC012000909E
:1036200007230DAA18210020FCF74AFD6C48808C66
:103630006421FDF71BFC02006BA106A8FDF770FCDE
:1036400000200090032306AA0F216220FCF738FD1A
:103650006348C08C6421FDF709FC020062A105A843
:10366000FDF75EFC00200090032305AA19216220CB
:10367000FCF726FD5A48008D6421FDF7F7FB020098
:1036800059A104A8FDF74CFC00200090032304AAD4
:1036900023216220FCF714FD5148008C022810DB26
:1036A0004F48038C4E48C28B50490BA8FDF738FC9D
:1036B0000020009005230BAA2D215C20FCF700FDC3
:1036C00011E04748408D6421FDF7D0FB020046A180
:1036D00003A8FDF725FC00200090032303AA2D2159
:1036E0006220FCF7EDFCC9480021405EFDF742FC7A
:1036F0000A21FDF7BBFB0400A4B220000A21FDF75C
:10370000B5FB0500A4B2ADB20A206843201A070039
:10371000ADB2002D00D12700F8200190BFB2009774
:10372000ADB22B00E222BA4909A8FDF7F9FB00204F
:103730000090062309AA28210020FCF7C1FC0823D9
:103740003822B44801888C46B0480021405E61466A
:10375000FCF77CFEB0480021405EFDF70BFC0A211F
:10376000FDF784FB0400A4B220000A21FDF77EFBD4
:1037700006006846A4B2B6B20A217143611A0181FB
:10378000B6B2002E01D168460481F8200190684647
:1037900000890090B6B23300E8229D4907A8FDF7E2
:1037A000BFFB00200090062307AA28212A20FCF74F
:1037B00087FC9A48018898480022805EFCF7C8FF81
:1037C0000FB0F0BD1A140008350B0020360B002096
:1037D000340B0020900900200C080020A40D0020CC
:1037E0003C0B0020646B000825750000E46B0008AA
:1037F00030B591B0002000901223C548C549898B8F
:1038000012224A43821800210020FCF759FCC148CB
:10381000408C6421FDF72AFB0400BE48408CA4B212
:1038200064216143401A0500A4B2002C02D1B948BA
:10383000408C05002F200090ADB22B00A4B22200D6
:10384000B5490EA8FDF76CFB0120009007230EAAD6
:1038500018210020FCF734FCAE48808C6421FDF771
:1038600005FB0200ADA105A8FDF75AFB0020009062
:10387000032305AA0F216220FCF722FCA548C08C77
:103880006421FDF7F3FA0200A4A104A8FDF748FBA8
:1038900000200090032304AA19216220FCF710FCE9
:1038A0009C48008D6421FDF7E1FA02009BA103A86A
:1038B000FDF736FB00200090032303AA232162209A
:1038C000FCF7FEFB9348008C022810DB9148038C28
:1038D0009048C28B92490CA8FDF722FB0020009073
:1038E00005230CAA2D215C20FCF7EAFB11E0894896
:1038F000408D6421FDF7BAFA020088A102A8FDF705
:103900000FFB00200090032302AA2D216220FCF768
:10391000D7FB8448028881A101A8FDF701FB0020A4
:103920000090032301AA37216220FCF7C9FB7E48DF
:1039300000886421FDF79AFA04007B480088A4B24D
:1039400064216143401A0500A4B2002C02D17648DC
:1039500000880500ADB20095A4B22300E6227349A9
:1039600008A8FDF7DDFA00200090072308AA24210B
:103970000020FCF7A5FB6E4800886421FDF776FA6D
:1039800004006B480088A4B264216143401A05001A
:10399000A4B2002C02D1664800880500ADB20095A3
:1039A000A4B22300E522614906A8FDF7B9FA002078
:1039B0000090072306AA24213120FCF781FB5D48F3
:1039C00000886421FDF752FA04005A480088A4B226
:1039D00064216143401A05003A200090ADB22B00EB
:1039E000A4B222004C490AA8FDF79AFAA4B2002C0E
:1039F00002D15048008805000120009007230AAA40
:103A000038210020FCF75CFB11B030BD9C0D00207C
:103A1000706B0008A00D00209E0D0020A20D00205C
:103A2000F0B589B044480021405EFDF7A3FA0A21B1
:103A3000FDF71CFA0400A4B220000A21FDF716FAD3
:103A40000500A4B2ADB20A206843201A0700ADB247
:103A5000002D00D127003D200190BFB20097ADB2EC
:103A60002B003B22354906A8FDF75AFA01200090A9
:103A7000062306AA08210020FCF722FB2C23122291
:103A80002F4801888C462C480021405E6146FCF797
:103A9000DDFC2C480021405EFDF76CFA0A21FDF7A1
:103AA000E5F90400A4B220000A21FDF7DFF90600C1
:103AB0006846A4B2B6B20A217143611A0181B6B256
:103AC000002E01D168460481F820019068460089E3
:103AD0000090B6B23300E822184904A8FDF720FA96
:103AE00000200090062304AA00214C20FCF7E8FAED
:103AF000F820009012480388F122134903A8FDF72B
:103B00000FFA03AA09214C20FDF744F809B0F0BDD3
:103B1000A40D00203C0B0020646B000825750000FC
:103B2000E46B00087C0D0020800D00207C6B0008F9
:103B3000820D00207E0D00209C0D0020706B00087F
:103B4000A00D00209E0D0020EC6B000810B5BA48B7
:103B5000BA498880BA48B949C880BA48B749088183
:103B6000B948B6494881B948B4498881B848B34989
:103B7000C881B848B1490882B748B0494882B748B7
:103B8000AE498882B648AD49C882C148AB4908836E
:103B9000C049C148FFF7A2FC01200400E4B2102C88
:103BA0000BDAE4B22200BD49BB48E4B212236343FE
:103BB000C018FDF7B5F9641CF0E70520B849088086
:103BC0005A20B849088001209C490884C8209B4994
:103BD000C886FC208005B4494861B448B249C86130
:103BE000FC208005B0498861FC208005AE4908634F
:103BF000AE48AD498863FC208005AB494863FC2092
:103C00008005A949C864A948A7494865FC208005E2
:103C1000A54908650120A44988800220A24948805E
:103C20000F20A14908800520A1498880A148FFF7FD
:103C30007BFB00F091FB00F050FBFFF76DFB9E4912
:103C4000086000F0C4FB00F045FC00F023FD0228F2
:103C50000BD000D206E1042841D023D3062870D02F
:103C600077D3072800D1A0E0FCE094480078012831
:103C700003D09248007802280CD1914800880F2880
:103C800003DB01208E49088004E08D480088401C39
:103C90008B49088086480078012802D10320894991
:103CA0000870E2E085480078012803D08348007856
:103CB00002280CD182480088022803DA0F208049AC
:103CC000088004E07E480088401E7D4908807848CE
:103CD0000078012802D104207A490870C5E07748AD
:103CE0000078012803D075480078022821D11E21D0
:103CF0007548FFF7FAFA75480078022807D174482A
:103D0000807C042815D101207149887411E0714824
:103D1000008861496A4A128802235343C918A022C5
:103D200052008852664800884449888300206349CD
:103D300008705F480078012802D1052061490870A9
:103D400093E05B480078012802D106205D490870A5
:103D50008BE05A480078012803D0584800780228A0
:103D60001BD10020354988861E215B48FFF7BDFA2C
:103D700056480078022807D15548807C04280CD189
:103D800002205349887408E000202C4988830020D1
:103D90004B490880002049490870454800780128AF
:103DA00002D10120474908705FE0484800780028A8
:103DB00032D13F48007801282ED12048008C0228BB
:103DC0000EDB1E48C08B1D49098C884208D01B4859
:103DD000008C1A49C8831E217A48FFF786FA29E029
:103DE00079480088002814D08A480078012810D12A
:103DF0000020754908800020874908600020874915
:103E000008800020864908801E218648FFF76DFA49
:103E100010E000F062FA0DE025480078002802D199
:103E200000F074FA06E022480078012802D102204E
:103E30002449087019E000BF361000003C0B002038
:103E4000D20F0000820F0000410F0000190F000088
:103E5000C90E0000B50E0000A60E00009D0E000069
:103E6000790E0000002017490870FFF747F9104845
:103E70000078012800D0E0E6FEF770FC6548007885
:103E8000012801D000F042FE00F0D4F8D5E600BFD2
:103E90000B0E000094690008A40D0020A86900081A
:103EA000A00D0020A20D0020100F0020CDCCCC3D95
:103EB000CC0F002014650008DC0F00200E0F00203E
:103EC000040F0020390B0020B46B0008370B0020D2
:103ED000B00F0020060F0020406B000800B585B031
:103EE0000120514908708C480068504988420ED121
:103EF00001200390632002904D4801900020009023
:103F000086A3874A01210020FFF76AF958E082481A
:103F10000068844988420ED1012003905A20029003
:103F2000814801900020009080A3814A0121002057
:103F3000FFF756F944E0784800687E49884207D187
:103F400064217D48FFF7D1F964207C49888637E0F9
:103F5000714800687A4988420ED1642003907948FC
:103F60000290794801900020009078A3784A0A21B5
:103F70000020FFF735F923E067480068754988425B
:103F80001ED0654800687449884202D100F0BAFE2C
:103F900016E0614800687149884211D10120039000
:103FA0001E2002906E480190002000906DA36E4A82
:103FB00001210020FFF714F900206C494880FFE739
:103FC00005B000BD846A00087C0D002080B5524811
:103FD00000686749884203D100200E49087010E04C
:103FE0004D4800686349884203D10120094908709F
:103FF00007E0494800686049884202D1022005492B
:1040000008701E215DA0FFF770F900205C49087060
:1040100001BD0000E00F0020740D0020820D002083
:10402000800D0020946A00085C080020F4650008F8
:104030005C0B002070B586B0FCF70DFE3F48417860
:104040003E480078FCF762FC4D480078002806D016
:10405000022819D015D304281AD018D319E04948DA
:104060000078002803D0022807D003D308E0FFF728
:10407000A7FA05E0FFF7BCFB02E0FFF7D1FCFFE782
:1040800007E0FFF733FA04E0FCF7D3F801E000E0C3
:10409000FFE73D480078012803D03B48007802281C
:1040A00023D13A496846FFF719FA01216846FCF71F
:1040B0005CF837483749098812224A438118684614
:1040C000FCF72EFF6846FCF7B3FE04004026E4B27E
:1040D000062060430221FCF7C9FE301A05006A463B
:1040E0001C212800C0B2FCF755FD1448808E002822
:1040F0000CD01248808E401E104988860F48808E52
:10410000002803D11E212448FFF7EFF8FCF715F92A
:10411000FCF76DFE06B070BDDC0F0020706373000D
:10412000A46A0008D4660008A00D0020646567003A
:10413000B46A0008B86600084C6B00083C0B00200D
:104140009C660008E7030000720B00206D6D000004
:10415000C46A0008F06600080C670008646600087E
:10416000D00F00206D696E00D46A0008CC0F0020CB
:10417000A0650008BC650008D86500084F4B00002A
:10418000370B0020E00F00200E0F0020BC69000854
:10419000A40D0020040F0020BC6B00080121C20602
:1041A000D20E91405E4A116070470121C206D20EC4
:1041B00091405C4A11607047F0B540B2002821D5AB
:1041C000594C40B20207120F083A95080422554391
:1041D000554A40B203071B0F083B9B080426734354
:1041E000D258FF238607B60F08277E43B3409A4371
:1041F0008B01DBB28607B60F08277E43B34013431B
:1042000063511AE0494A40B2830804246343D258F8
:10421000FF238407A40F08256C43A3409A438B0116
:10422000DBB28407A40F08256C43A34013433F4A25
:1042300040B2840804256C431351F0BD80B53C485E
:10424000006800060AD53A480068802101433848D2
:10425000016000F00BFE0720FFF7A7FF01BD80B54E
:1042600034480068802149050143324801603248E2
:104270000068042101433048016030480068022191
:1042800088432E4908602D480068012101432B48CE
:1042900001602B4800682A4908602A48006880218C
:1042A00001432848016028480068802101432648CE
:1042B00001602648006880218843244908601C4822
:1042C0000068802101431A4801600720FFF766FF5C
:1042D0000F210720FFF770FF01BD80B500201C49AA
:1042E000087000201A49488000201A49887100206F
:1042F0001849C871FCF7F6FCFEF74EFD00F056FEBB
:10430000FFF7ADFF30BF00F063FE01BD80B50120B7
:104310000F490870FCF7F1FCFEF7C4FC01BD00007A
:1043200000E100E080E100E01CED00E000E400E0DE
:10433000140401401C10024010ED00E00070004029
:104340000C000140000401400C040140080401403D
:10435000CC0F0020C40F002080B500F087FD00F0D6
:10436000D1FEFCF763FEFCF7D3FC00F031FB00F05C
:1043700001F801BD4948006880210901014347480F
:1043800001604548006880210901014342480160FD
:1043900041480068424901403F480160312041499D
:1043A00008604148414908604148006801210143D3
:1043B0003F4801603F480068082101433D480160D3
:1043C0003C480068012101433A480160704770B5DC
:1043D00086B038480068C00705D536480068C00771
:1043E00006D500BFF9E734480068401C3249086030
:1043F00032484088401C3149488031480068401CA0
:104400002F4908602D4881882E4848432649FCF7EB
:104410002DFD050029484088281A0400A4B2642C08
:1044200015DAA4B2002C12D0A4B21F48604326496A
:10443000FCF71CFD401C0600F6B23200234968461A
:10444000FCF76EFD02216846FEF74FFF16E02800DC
:104450001A49498880B2884206D218480078012853
:1044600002D1FFF73AFF09E014484088332805DB02
:1044700012480078002801D1FFF72FFF0D4800688F
:10448000012101430B4801601148006804210143E8
:104490000F48016006B070BD0C10024018100240B9
:1044A000FFF7FFFF282C014050C300002C2C0140D7
:1044B000142C0140002C0140980D0020CC0F00204E
:1044C000940D00200087930340420F00D06900083C
:1044D00008240140F8B567488078012800D0C7E07B
:1044E00000206449887064480068006962498988CE
:1044F0000840000A002801D1012000E000205F49A7
:1045000048705C4801885E484843FA218900FCF7FE
:10451000ADFC00B200F0DBFF0500584845802800E4
:104520005649898880B2884202D36420060060E040
:104530005248008B290089B2884217D30020060018
:104540004E48408B002854D1ADB24E48854204DA23
:104550003C214D48FEF7C9FE03E03C214B48FEF7E5
:10456000C4FE9620C0004549488342E000204349EC
:1045700048830A200400E4B2002C13D028003F49ED
:10458000E4B2022262438918898880B2884207D344
:104590006420E4B20A216143401A060068460470B0
:1045A000641EE8E7354869460978022251434018FD
:1045B000408832496A46127802235A43891889880A
:1045C000401A07002D4869460978022251434018D5
:1045D00080882D1AADB20A206843FFB23900FCF77B
:1045E00045FC0700FFB2002F03D0FFB20A2F00DA0C
:1045F000F619224800783100C9B288420FD21F480C
:104600000078C01CF6B2B04203DB214800780128D4
:104610001AD101201E4908701848067014E03000B5
:1046200016490978C0B288420ED2F6B21348007813
:10463000C01E864203DB16480078022804D10220FF
:10464000134908700D4806700C48408B002804D0B0
:104650000A48408B401E094948830848408B00287F
:1046600006D1064840880749884201DAFFF735FE3F
:10467000F1BD00BFD40F0020CC6200083C0B00202D
:104680004C060000490D000030690008046B00086A
:10469000E60F002080B5A64800680069A549098892
:1046A0000840002808D1A4480078652804DAA24808
:1046B0000078401CA0490870B64800680069B649F7
:1046C00009880840002808D19B484078652804DA0A
:1046D00099484078401C98494870B0480068006983
:1046E000AF490988084000280CD193488078652894
:1046F00008DA91488079002804D18F488078401CDE
:104700008D498870AE48806F0069AE4909880840BD
:1047100000280CD18848C078652808DA8648C07916
:10472000002804D18448C078401C8349C870804860
:10473000006800697F490988084000280FD07E483A
:10474000007900280BD17C480078002807D07A48EF
:104750000078142803DA00F025F9022019E17448E2
:104760000068006973490988084000280ED1724822
:10477000007900280AD170480078142806DB00F080
:1047800011F901206C490871022002E168480068B3
:10479000006968490988084000280BD166480079FB
:1047A000012807D164480078022803DB00F0FAF8FA
:1047B0000220EEE05E48006800695E490988084012
:1047C000002807D05C480079012803D100205A490D
:1047D0000871DDE06F48006800696F49098808408A
:1047E00000280FD05448407900280BD15248407817
:1047F000002807D050484078142803DA00F0D2F897
:104800000320C6E0634800680069634909880840DE
:1048100000280ED14848407900280AD146484078FF
:10482000142806DB00F0BEF801204349487103203C
:10483000AFE05848006800695749098808400028D7
:104840000BD13D484079012807D13B4840780228E8
:1048500003DB00F0A7F803209BE04E4800680069E6
:104860004D4909880840002807D03348407901287D
:1048700003D10020304948718AE048480068006947
:1048800047490988084000280BD02B488079002828
:1048900007D129488078002803D000F083F804204D
:1048A00077E03E48006800693D49098808400028D3
:1048B0000ED12148807900280AD11F488078142819
:1048C00006DB00F06FF801201B498871062060E0CC
:1048D00032480068006932490988084000280BD036
:1048E00015488079012807D113488078002803D122
:1048F0000020114988714BE03148806F00693149CF
:1049000009880840002819D00B48C079002815D123
:104910000948C078002811D00748C07814280DDA5B
:1049200000F040F8002028494880052031E000BF11
:104930005063000854630008C40F00202048806FB3
:10494000006920490988084000280ED11F48C07915
:1049500000280AD11D48C078142806DB00F022F890
:1049600001201A49C871072013E01548806F0069BB
:1049700014490988084000280AD01448C079012841
:1049800006D11248C078002802D100200F49C87112
:10499000012002BD8063000884630008746300087E
:1049A0007863000800200949087000200749487012
:1049B00000200649887000200449C8707047000034
:1049C000CC62000848630008CC0F0020C40F002010
:1049D00080B50121232000F019F84948FCF7F6FAC8
:1049E0000021232000F012F80021242000F00EF80E
:1049F0001021252000F00AF84248434988804148A8
:104A00004149C8803F484049088101BD70B582B026
:104A100006000D003A246846067068464570B648A0
:104A20000068000401D500BFF9E7022269462000B2
:104A3000C0B2FCF765FC73BD11B581B03A24AE4835
:104A40000068000401D500BFF9E7012201A9200098
:104A5000C0B2FCF755FCA8480068000401D500BFAF
:104A6000F9E70122694601202043C0B2FCF776FB3A
:104A70006846007816BD10B582B03A2428206946F1
:104A800008709D480068000401D500BFF9E70122C5
:104A900069462000C0B2FCF733FC97480068000468
:104AA00001D500BFF9E70622954901202043C0B295
:104AB000FCF754FB13BDF0B585B005000C001700E2
:104AC0002100200000F03AFD02903900380000F08B
:104AD00035FD01900199029800F01EFD0600002EA0
:104AE00001D1012006003100280000F071FD009086
:104AF000009800F046FE0390039805B0F0BD00005A
:104B000010270000FF3F0000840F0020F0B585B0A3
:104B10000A247A4800780100C9B21020FFF776FF16
:104B2000764840780100C9B21120FFF76FFF734843
:104B300080780100C9B21220FFF768FF872120208A
:104B4000FFF764FFE4B2002C36D02720FFF774FF94
:104B5000694608736846007B8007F3D0FFF78BFF38
:104B60006648007C6549497C0902014309B2B148A5
:104B700000F0D8FB61494881AF4908805F48807CDC
:104B80005E49C97C0902014309B2AC4800F0CAFB86
:104B90005A498881A84948805848007D5749497D2D
:104BA0000902014309B2A64800F0BCFB5349C88181
:104BB000A1498880641EC5E700212020FFF726FF59
:104BC0004E480A21415E9F4800F0BEFB4B49488198
:104BD0004A480C21415E9C4800F0B6FB4749888159
:104BE00046480E21415E994800F0AEFB4349C8811A
:104BF00042480A21415E9648006848433F490422E2
:104C0000895EFCF733F907003C480C21415E90486F
:104C10000068484339490622895EFCF727F90600F7
:104C200036480E21415E8A480068484333490822CD
:104C3000895EFCF71BF9050085480068874204DBA4
:104C4000834800680A38070009E08148006841424B
:104C5000B94204DB0A207E490968401A07007C48F3
:104C60000068864204DB7A4800680A38060009E0DA
:104C7000774800684142B14204DB0A207449096860
:104C8000401A060072480068854204DB70480068DC
:104C90000A38050009E06E4800684142A94204DB79
:104CA0000A206B490968401A05006A4802902A00E8
:104CB00039003000FFF7FFFE01900199029800F0E3
:104CC0003DFC01900198642148430014624908802A
:104CD000320039002800FFF7EEFE0090009902989C
:104CE00000F02CFC009000986421484300145B49BC
:104CF000088005B0F0BD000018540040840F00206B
:104D0000940F002000B54C48807C002806D0022873
:104D100000D186E00CD3032858D089E00220504906
:104D2000087004204449887405204349C8747FE012
:104D30004148C07C052809D047D307281CD010D390
:104D400009282FD023D30A2837D03EE03A480088DC
:104D50003949C88004203849887406203649C87407
:104D600033E035480088344908810420324988748A
:104D700007203149C87428E02F4840882E494881CF
:104D800004202D49887408202B49C8741DE02A4846
:104D900040882949888104202749887409202649A8
:104DA000C87412E0244880882349C881042022491D
:104DB00088740A202049C87407E01F4880881E496B
:104DC000088203201C498874FFE731E01A48082153
:104DD000405E19490622895E401A0221FCF746F816
:104DE0002049888014480C21405E13490A22895EBC
:104DF000401A0221FCF73AF81A49C8800E481021DF
:104E0000405E0D490E22895E401A0221FCF72EF801
:104E10001449088105201449087000200649887447
:104E200006E0012010490870002003498874FFE75C
:104E300000BD00006C0F0020B00F0020740F002098
:104E40007C0F0020180F0020340F0020500F00208E
:104E5000406C0008BA4B39009C0D00209E0D0020CC
:104E6000370B0020840F0020390B002000B52348A9
:104E70000068012101432148016020480068800743
:104E800001D400BFF9E71D480068802149020143B1
:104E90001A48016019480068800301D400BFF9E78F
:104EA0001748006803210143154801601448006851
:104EB0008007800F032801D000BFF7E71148006882
:104EC000102101430F4801600E480068800601D49C
:104ED00000BFF9E70B480068012101430948016060
:104EE000094800688021884307490860064800682F
:104EF000102101430448016000BD00BF341002408E
:104F00000410024000200240301002400121C2067D
:104F1000D20E91406E4A116070470121C206D20E36
:104F200091406C4A11607047F0B540B2002821D51D
:104F3000694C40B20207120F083A95080422554303
:104F4000654A40B203071B0F083B9B0804267343C6
:104F5000D258FF238607B60F08277E43B3409A43F3
:104F60008B01DBB28607B60F08277E43B34013439D
:104F700063511AE0594A40B2830804246343D2586B
:104F8000FF238407A40F08256C43A3409A438B0199
:104F9000DBB28407A40F08256C43A34013434F4A98
:104FA00040B2840804256C431351F0BD80B54C48D1
:104FB0000068802189000143494801604948006830
:104FC00049490140474801600C20FFF7A6FF01BD99
:104FD00080B5444800688021890001434148016050
:104FE0003F4800688021890001433D4801603C48FA
:104FF00000683D4901403A4801603C480068802112
:10500000090601433948016038480068002801D585
:1050100000BFF9E7354800680121014333480160CA
:10502000334800683348006810210143314801606B
:1050300031480068182101432F4801600C20FFF718
:1050400065FF0E210C20FFF76FFF01BD00B527485B
:10505000006840071FD42648006800070DD5244883
:10506000006808210143224801602448006824495F
:10507000088001202249887028E01D480068C00689
:1050800024D51B4800681021014319480160002005
:105090001B4988701AE01548006810210143134825
:1050A000016012480068C00601D500BFF9E710484A
:1050B0000068082101430E4801600D480068102176
:1050C00001430B48016000200D49887000BD0000BD
:1050D00000E100E080E100E01CED00E000E400E021
:1050E0000C10024018100240FFFDFFFF0824014091
:1050F00000240140282401400424014040240140B0
:10510000D40F002038B581480400814800680C2184
:10511000484320180500AC4210D2207AC0B24008A3
:105120000007000F0090207A0300DB07DB0FA27955
:10513000E179206800F003F80C34ECE731BDF4B5F8
:1051400083B004000D001E00099F9020C00584421A
:1051500006D1704800688021890201436D480160D2
:105160006D48844206D16B4800688021C902014322
:10517000684801606948844206D166480068802119
:1051800009030143634801606548844206D16148D0
:1051900000688021C90301435E480160F6B2002E19
:1051A00003D00120A840A06102E00120A840A06235
:1051B0002068032102226A4391408843206060688E
:1051C0000121A94088436060E068032102226A430C
:1051D00091408843E060EDB228000821FBF746FECD
:1051E0000421484320180290EDB228000821FBF763
:1051F0003DFE042148432018016A01910F200090D0
:10520000EDB228000821FBF731FE0420414300984D
:10521000884001998143029801626846007B00281A
:105220000BD0022812D010D304281FD016D3062882
:1052300033D025D307283AD045E020680321022245
:105240006A439140014321603DE03CE0E068012178
:1052500002226A4391400143E16034E0E0680221A8
:1052600002226A4391400143E1602CE02068012161
:1052700002226A439140014321606068606022E03D
:105280002068012102226A43914001432160606845
:105290000121A9400143616015E02068022102223A
:1052A0006A43914001432160606860600BE02068C0
:1052B000022102226A43914001432160606801217A
:1052C000A94001436160EDB228000821FBF7CEFD43
:1052D0000421484321180191EDB228000821FBF771
:1052E000C5FD042148432018016A0091FFB2EDB2C8
:1052F00028000821FBF7BAFD04204143380088400C
:105300000099084301990862FFBD0000CC620008C3
:10531000000000201410024000040048000800486B
:105320000014004830B504000D0020682DB240196B
:105330000421615E401A206020683021FBF796FD51
:10534000A0800420205E30BDF0B58DB005000E00B9
:10535000E86804906A480421405E00F023FA0700E0
:1053600000200400022C09DA02206043285E09A90B
:105370000422624389184860641CF3E70A9800F02D
:1053800011FA0100049800F026FA00F07DFA00B24C
:1053900006900698E8800499686900F01CFA0100FC
:1053A000049800F018FA0100009155480221405E6F
:1053B00000F0F8F9009900F084FA02900298A861D0
:1053C0000298390000F007FA01900298390000F0C5
:1053D00002FA390000F0FFF901000091484800216D
:1053E000405E00F0DFF9009900F06BFA01000198CF
:1053F00000F0F7FA039003982861069800F0D2F9BC
:105400000100019136B2300000F0CCF9009006980E
:1054100000F0C8F9390000F0DEF90100009800F052
:1054200088FA039900F0D7F9019900F04AFA00F0E0
:105430002BFA00B2099000200400032C08DA09A816
:10544000042161434058022161436852641CF4E71F
:105450000398390000F0BFF90100FE20800500F03C
:1054600068FA0100029800F0B6F9686109980A9993
:1054700002225143401A0B99401808900820285ED8
:1054800008994018079007982881079800F08AF932
:105490001C4900F0A6FA059005981B4900F0F6FAA1
:1054A0000AD20598194900F005FB05D80599FE2098
:1054B000800500F006FAE860686900F00FFB02283A
:1054C00001D100206861099800B20DB0F0BD10B59F
:1054D00004000F48006824B200190E490022895EBA
:1054E000401A0B4908600A4800686421FBF7BEFCBB
:1054F0000849088007480021405E10BD00000000F8
:10550000100F002000FC7F460100803F000080BF9C
:10551000D80F0020E40F002030B5020013000C006B
:105520001D1920005840002806D4280058400028A3
:1055300002D56848006800E0280030BDF0B50400DE
:105540000D002000E1172A00EB1700F0D9FA020045
:105550000B0010001900C813C9170600002B0CDC43
:1055600001DB002A09D2F043002802D05948006824
:1055700017E00020521E834104E0002E02D055485F
:1055800000680EE010001900000C0F0438430914E5
:105590000100100000B2C0130700FF07FF0F3FB269
:1055A000C819F0BD00B501000022002901D120205A
:1055B0000DE0080F0007002802D1121D0901F8E7CD
:1055C000002902D4521C4900FAE71000C0B200BD05
:1055D000F3B583B00498002802D13F48006877E013
:1055E0000398002801D4039C01E0039844420498E6
:1055F000002801D4049E01E0049846420020029055
:105600001125300D0005002819D0770C7F1C2000D3
:105610003900FBF72EFC0290200000210090019140
:10562000029800213200002300F06AFA400CCA03FD
:105630001043490C009A019B121A8B411400300749
:10564000000F002804D1042D02DB36092D1FF6E7D8
:10565000002C29D0002D27D42000FFF7A3FF0090B5
:105660000098854200DA00950098844000982D1A31
:1056700020003100FBF7FDFB070020003100FBF7A5
:10568000F8FB0C0002993800A8400818029000208E
:10569000C043E840C1433940002902D00D480068AA
:1056A00016E064006D1ED3E70298401C0290029839
:1056B00041080398049A4240002A08D50648006829
:1056C000814202D10348006802E04842010008001C
:1056D00005B0F0BD306C00082C6C0008F1B584B04A
:1056E0000C000498C017029004980299401802997F
:1056F00041400091002C1ED4009821180098201AD7
:10570000FFF766FF070039003800FFF717FF390081
:10571000FFF714FF01900199C9208001FFF70EFFE8
:10572000050039001C48FFF709FF281A1B490968C2
:10573000401806001DE00098011B00982018FFF794
:1057400047FF070039003800FFF7F8FE3900FFF780
:10575000F5FE01900199C9208001FFF7EFFE0500D9
:1057600039000D48FFF7EAFE281A0D49096840186C
:1057700006000498002801D570420600300005B0EC
:10578000F0BD10B50400034801682000FFF7A6FF34
:1057900010BD00003C6C000850FB0000346C000899
:1057A000386C00089D21020008D5F446524200F0F2
:1057B00005F80122D2071043604700000AD002D446
:1057C000491E9218FCD5C905100A1206524100D391
:1057D000012A4841704730B405004D400122D207EC
:1057E00015404B180418240E2ED01B0E32D0FF2C5F
:1057F00034D0FF2B3AD0E4180002090210431143C1
:10580000000A090A9446C2B24A43000AC3B24B4393
:10581000000A4843110A5B181A43D2B2190A091840
:1058200001D44918641E080A7F3C23DBFE2C08DAE9
:10583000E40509061143634699416041284330BCA1
:105840007047FF20C005F9E728001B0EFF2BF6D19B
:10585000D043F4E72800FF2CF1D1F9E74002F7D15B
:10586000FF2B01D14902F3D1E005E7E7D805490252
:10587000E4D0EDE743020020641CDFD15B129B1CE7
:10588000DCD9D805DAE718000122D2070118090E81
:105890007F3910D449421F310FD4001805D2C001FE
:1058A0001043C84000D5D0437047C0011043C840E2
:1058B00005D440427047002070470042F3D51000E5
:1058C00070470122D20703004B402ED4431A01D265
:1058D000C01AC91830B44B180418240E1B0E22D05D
:1058E000FF2C20D0E31A182B1DDC09021143C40D34
:1058F000641E0002104394461925ED1A0A00AA40BE
:10590000D940451801D36D08A41CE405D209280A22
:105910002D062A436546AA41604103181B0EFF2B42
:1059200001D3C00DC00530BC7047514006E0514066
:10593000CCE70122D20703004B40F8D4431A03D22C
:10594000C01AC9185040514030B44B1809021143D5
:105950000418240E1B0E40D0FF2C3AD025009D4188
:105960000BD31ED8C50D4002401A0BD3ED05010024
:10597000400AC90591416841D5E7C50D4002491863
:10598000401AD0D001214008491C0018FCD58C4297
:1059900004D36D1A000AED054019C4E7E80510406C
:1059A000C1E7182DBFDCAC1C0D00E140E5414D40C6
:1059B000012D4941C40D00021043451A01D46D194F
:1059C0009543641EE405280A2D069541604130BCCC
:1059D0007047FF2BA7D1D843A5E72442A3D10020CD
:1059E000A1E730B405004D400122D20715404B1805
:1059F0000418240E28D01B0E2FD0FF2C34D0FF2BE0
:105A000037D0E41A00020902104311434308480842
:105A1000D10D1B1A02D2641EDB181B18DB1883423F
:105A200000D31B1A4941F9D37F3426DDFE2C08DA56
:105A3000E4054808C907194391416041284330BC37
:105A40007047FF20C005F9E728001B0E03D0FF2B8D
:105A5000F5D14902F3D0D043F1E7FF2C01D1400248
:105A6000F9D1FF20C005E9E74002F4D1FF2BF8D1BE
:105A7000F1E728004902E2D0EDE70B0200202442C2
:105A8000DCD15B129B1CD9D9D805D7E70CB4012215
:105A900012060318DA4207D84B18DA4204D802007B
:105AA0000A43921802D288420CBC7047FCD0814253
:105AB000FAE719000CB4012212060318DA4207D8DB
:105AC0004B18DA4204D802000A43921802D28142EB
:105AD0000CBC7047FCD088420CBC70474100090EDA
