:020000040800F2
:1000000018040020D56C00088B4C00080F4F000826
:1000100000000000000000000000000000000000E0
:100020000000000000000000000000000750000871
:10003000000000000000000053510008756C00082B
:10004000875100081F5F0008976100089B63000844
:100050009F630008C36C0008FB700008077100086C
:10006000A5720008A7720008816C0008A972000838
:10007000AB720008AD720008AF720008FD440008C2
:10008000B17200080000000000000000B372000818
:1000900000000000B5720008B7720008916C0008FB
:1000A00000000000B9720008BB720008BD720008B1
:1000B000BF72000800000000C1720008C16C000897
:1000C00010B50400002C01D101205EE04120205C2D
:1000D000002805D1002040216054200001F08BF958
:1000E0002420412160542068006801218843216850
:1000F0000860606887490140206801612068806865
:100100008549014020688160E068012806D1A06827
:100110008021090201432068816005E0A0688421F4
:100120000902014320688160E068022803D1802031
:1001300000012168486020684068784901432068D0
:1001400041602068C068744901402068C16020692E
:1001500061690143A069000208432168C860E06941
:10016000216A014320680160206800680121014381
:10017000206801600020606420204121605400203C
:100180002063002042216054002010BDFEB5040011
:100190000E00089F00254120205C202800D0B5E0FB
:1001A0004020205C012801D10220B0E00120402144
:1001B000605401F0A7F90500009519230122802160
:1001C0000902200000F03EFF002801D003209EE03D
:1001D000212041216054102042216054002060649D
:1001E0000198606268460089608500206063608DC8
:1001F000FF280ED9FF2020858020800100908023D9
:100200005B04228DD2B2310089B2200001F01CF8CB
:100210000DE0608D208580208001009080239B046C
:10022000228DD2B2310089B2200001F00DF8608D2C
:10023000002849D02A003900200000F02CFF0028B7
:1002400006D0606C042801D1012060E003205EE04C
:10025000606A411C6162007821688862608D401E7E
:100260006085208D401E2085208D0028DFD1608D87
:100270000028DCD000953B0000228021200000F007
:10028000E1FE002801D0032041E0608DFF280DD958
:10029000FF2020850020009080235B04228DD2B2B5
:1002A000310089B2200000F0CFFFC0E7608D2085CB
:1002B0000020009080239B04228DD2B2310089B2AD
:1002C000200000F0C1FFB2E72A003900200000F052
:1002D0000FFF002806D0606C042801D1012016E031
:1002E000032014E020202168C861206840686D491F
:1002F00001402068416020204121605400204221BB
:100300006054002040216054002000E00220FEBD27
:1003100000000000FFFFFFF0FF7FFFFF00800002F2
:10032000FEB504000E00089F00254120205C202817
:1003300000D0B5E04020205C012801D10220B0E0CF
:1003400001204021605401F0DDF8050000951923DB
:10035000012280210902200000F074FE002801D053
:1003600003209EE02220412160541020422160544D
:100370000020606401986062684600896085002002
:100380006063608DFF280ED9FF20208590208001BA
:10039000009080235B04228DD2B2310089B220000C
:1003A00000F052FF0DE0608D2085902080010090CC
:1003B00080239B04228DD2B2310089B2200000F04C
:1003C00043FF608D002849D02A003900200000F04A
:1003D000B8FE002806D0606C042801D1012060E03E
:1003E00003205EE0606A411C61622168496A017015
:1003F000208D401E2085608D401E6085208D002848
:10040000DFD1608D0028DCD000953B0000228021E8
:10041000200000F017FE002801D0032041E0608D8D
:10042000FF280DD9FF2020850020009080235B0449
:10043000228DD2B2310089B2200000F005FFC0E762
:10044000608D20850020009080239B04228DD2B2F5
:10045000310089B2200000F0F7FEB2E72A0039002F
:10046000200000F045FE002806D0606C042801D171
:10047000012016E0032014E020202168C8612068D4
:1004800040680849014020684160202041216054B3
:10049000002042216054002040216054002000E0F0
:1004A0000220FEBD00E800FEF8B582B004000F0097
:1004B000160000254120205C202878D12068806922
:1004C000000401D5022073E04020205C012801D106
:1004D00002206DE001204021605421204121605420
:1004E00010204221605400206064666268460089E2
:1004F00060853048E06231486063608DFF2805D92F
:10050000FF20208580204004050004E0608D2085C8
:10051000802080040500208D002831D02848A16B60
:1005200088622848A16B08630020A16BC862002084
:10053000A16B4863238D2068020028323100A06B34
:1005400001F01EF88020800100902B00228DD2B295
:10055000390089B2200000F077FE608D218D401AAD
:1005600060850020402160541121200000F083FEAE
:10057000206800688021C90101432068016014E0FF
:100580000D48606380208001009080239B04228DB1
:10059000D2B2390089B2200000F056FE002040217E
:1005A00060540121200000F066FE002000E00220DF
:1005B000FEBD00000000FFFF55060008F50800081A
:1005C000830F0008E90F000870B5040020688669F1
:1005D00020680568606B002804D02A0031002000E4
:1005E000636B984770BD70B5040020688669206809
:1005F0000568F00509D5280607D5606C012101437F
:100600006164802040002168C861700509D5280612
:1006100007D5606C0821014361648020C000216817
:10062000C861B00509D5280607D5606C02210143D1
:100630006164802080002168C861606C0B210140EA
:10064000002903D0616C200000F008FC70BD41213E
:10065000405C7047F8B504000D00160000274020EC
:10066000205C012801D10220A8E001204021605433
:10067000E8060CD5F0060AD510202168C861606C28
:10068000042101436164200000F068FC8AE06807EF
:100690000ED570070CD5606A411C61622168496AF9
:1006A0000170208D401E2085608D401E608579E0A0
:1006B000A8070ED5B0070CD5606A411C61620078AE
:1006C00021688862208D401E2085608D401E6085D7
:1006D00068E0280647D5700645D5208D002835D11D
:1006E000608D002832D0206840688005800D0700AA
:1006F000608DFF280DD9FF202085002000908023E9
:100700005B04228DD2B2390089B2200000F09CFD3A
:1007100048E0608D2085E06A754988420AD0002053
:100720000090E36A228DD2B2390089B2200000F035
:100730008BFD37E00020009080239B04228DD2B2F5
:10074000390089B2200000F07FFD2BE0206840686E
:10075000800103D4200000F0F9F923E040212000BB
:1007600000F07CFB1EE068061CD570061AD5608D73
:10077000002813D120684068800113D4E06A5C49E6
:10078000884207D1206840688021C9010143206860
:10079000416007E0200000F0D9F903E0402120008B
:1007A00000F05CFBA80605D5B00603D529002000A3
:1007B00000F026FA0020402160540020F2BD70B500
:1007C00004000D0016004020205C012801D1022009
:1007D0008CE0012040216054E80635D5F00633D581
:1007E000608D002828D1E06A80218904884204D0E5
:1007F000E06A80218904884208D14120205C2828B1
:1008000004D12900200000F0F3FA63E0E06A3849DF
:1008100088420DD04120205C292809D11020216870
:10082000C861200000F09AFB200000F0BCF951E004
:1008300010202168C8614DE010202168C861606CFB
:1008400004210143616445E068071BD5700719D591
:10085000608D00280BD0606A411C61622168496A82
:100860000170208D401E2085608D401E6085608D4A
:1008700000282FD1E06A1E4988422BD0200000F0CA
:1008800092F927E0280706D5300704D52900200073
:1008900000F0E9F81EE0A8071CD5B0071AD5608D56
:1008A00000280CD0606A411C61620078216888626F
:1008B000608D401E6085208D401E20850AE0E06A24
:1008C00080214904884202D0E06A002802D1200039
:1008D00000F069F9A80605D5B00603D52900200067
:1008E00000F0FAF9002040216054002070BD0000A3
:1008F0000000FFFFF0B583B004000E0017000020D9
:100900006946888000254020205C012801D1022012
:1009100069E0012040216054F00610D5F8060ED59C
:1009200010202168C861606C0421014361641221B8
:10093000200000F0A0FC200000F010FB4FE030068B
:1009400045D5780643D52068006840218843216852
:100950000860608D002835D068462168496889059F
:10096000890D8180608DFF2805D9FF20208580209A
:100970004004050004E0608D20858020800405008F
:10098000002000902B00228DD2B268468188200082
:1009900000F05AFC608D218D401A60854120205C5A
:1009A000222807D1206800688021090201432068BD
:1009B000016014E0206800688021C90101432068BB
:1009C00001600CE04021200000F048FA07E0B0068A
:1009D00005D5B80603D53100200000F011F900203C
:1009E000402160540020FEBD70B504000D001600CB
:1009F0004020205C012801D1022033E00120402169
:100A00006054E8061AD5F00618D54120205C21284C
:100A100003D1A06B0068406802E0E06B00684068AA
:100A2000002803D110202168C86117E01020216838
:100A3000C861606C0421014361640FE0280705D59B
:100A4000300703D508202168C86107E0A80605D54E
:100A5000B00603D52900200000F03EF90020402117
:100A60006054002070BDF2B582B00400002600255D
:100A700000270020694608804120205C2821014091
:100A800028295CD120688069000C0100C907C90FC2
:100A90000E0020688069000CFE2101400D002068D6
:100AA00080688005800D070068462168C968FE22BD
:100AB0000A400280E068022832D1ADB20620284008
:100AC000390089B2C90906220A40904216D13D0078
:100AD000A06C401CA064A06C022836D10020A06449
:100AE00008202168C8610020402160542A0092B289
:100AF0003100C9B2200000F049FE26E068460088B7
:100B000005000421200000F009FC00204021605471
:100B10002A0092B23100C9B2200000F037FE14E082
:100B20000421200000F0FAFB0020402160542A003C
:100B300092B23100C9B2200000F028FE05E0082082
:100B40002168C861002040216054F7BD10B5040041
:100B50000020422160544120205C212811D1202016
:100B60004121605411202063002060630121200096
:100B700000F0D4FB002040216054200000F007FE6C
:100B800010E0202041216054122020630020606387
:100B90000221200000F0C2FB002040216054200010
:100BA00000F0F6FD10BD10B5040000204221605495
:100BB0004120205C29280FD1282041216054212088
:100BC00020630121200000F0A9FB00204021605497
:100BD000200000F0DEFD12E04120205C2A280ED12A
:100BE000282041216054222020630221200000F0AF
:100BF00095FB002040216054200000F0CBFD10BD8B
:100C000038B504000D0020202168C86120684068C4
:100C1000914901402068416000202063002060630A
:100C2000CD48E062E80606D510202168C861606CF6
:100C3000042101436164200000F090F903212000A9
:100C400000F06CFB606C002803D14120205C602820
:100C500004D1616C200000F001F93CE04120205CEF
:100C600021281AD12020412160544220205C4028B4
:100C700009D100204221605400204021605420000E
:100C800000F089FD27E0002042216054002040212F
:100C90006054200000F07BFD1DE04120205C2228F4
:100CA00019D12020412160544220205C402809D1E4
:100CB000002042216054002040216054200000F0B8
:100CC0006BFD08E000204221605400204021605468
:100CD000200000F05DFD31BD38B504000D0020207E
:100CE0002168C86108202168C8610721200000F040
:100CF00015FB20684068802109020143206841609B
:100D0000206840685449014020684160200000F09C
:100D100025F920680068400403D4206800680004B6
:100D20000BD54120205C212803D1A06B00684068CE
:100D300002E0E06B006840686085608D002803D0A9
:100D4000606C042101436164680712D5606A411C2C
:100D500061622168496A0170208D002809D0208DC8
:100D6000401E2085608D401E6085606C042101431B
:100D700061640020206300204221605400206063F1
:100D8000606C00280CD0616C200000F067F84120F6
:100D9000205C28282BD12900200000F029F826E02B
:100DA000E06A8D4988420BD08B48E06220204121C7
:100DB0006054002040216054200000F0EEFC16E05A
:100DC0004120205C222809D12020412160540020AC
:100DD00040216054200000F0DDFC08E0202041218B
:100DE0006054002040216054200000F0D2FC31BD4E
:100DF00038B504000D007848E06200202063202010
:100E00004121605400204221605400206063680743
:100E100012D5606A411C61622168496A0170208DA7
:100E2000002809D0208D401E2085608D401E6085E1
:100E3000606C0421014361640721200000F06EFA18
:100E400010202168C861002040216054200000F07B
:100E5000A4FC31BD0000000000E800FE38B504002D
:100E60000D000020422160543B48E0620020608574
:100E7000606C284360644120205C282807D0412012
:100E8000205C292803D04120205C2A280BD1032193
:100E9000200000F043FA2820412160540020206304
:100EA0004E4860630EE00721200000F037FA412031
:100EB000205C602802D02020412160540020206363
:100EC0000020606320680068400415D52068006831
:100ED00043490140206801604248A16B48630020FB
:100EE00040216054A06B00F093FB002832D0A06B2F
:100EF000A16B496B88472DE020680068000415D578
:100F000020680068AF490140206801603548E16B06
:100F10004863002040216054E06B00F079FB00281A
:100F200018D0E06BE16B496B884713E04120205CEF
:100F3000602809D1202041216054002040216054C4
:100F4000200000F02BFC05E0002040216054200030
:100F500000F025FC31BD00000000FFFF00B5016876
:100F60008969890702D5002102689162016889694F
:100F7000C90705D40168896901220A4301688A61A9
:100F800000BD38B505006C6A20680068144901404E
:100F900020680160608D002804D11221200000F03B
:100FA0006AF917E0606A218D40186062608DFF2841
:100FB00002D9FF20208501E0608D2085238D2068E7
:100FC00002002832616AA06B00F0DAFA12212000D8
:100FD00000F051F931BD00000000FFFFBF0700081D
:100FE000FFBFFFFF0710000838B50400656A2868D6
:100FF00040688021090201432868416010212800CF
:10100000FFF72CFF31BD38B50400656A28684068D9
:10101000802109020143286841600020A96B4863D0
:101020000020E96B48634120285C602806D120201D
:1010300041216854280000F0B1FB02E0280000F0D4
:10104000AEFB31BDF4B504000F001D00069E206804
:1010500080693840B84201D1012000E00020694693
:101060000978884215D10020C0438542EFD0002D79
:1010700004D000F047FA801B8542E8D220204121AD
:10108000605400204221605400204021605403201D
:1010900000E00020F2BD70B504000D0016002068CD
:1010A0008069800722D432002900200000F08CF8EB
:1010B000002801D001201AE00020C0438542EED074
:1010C000002D04D000F01EFA801B8542E7D2606C30
:1010D00020210143616420204121605400204221ED
:1010E0006054002040216054032000E0002070BDC7
:1010F00070B504000D0016002068806980061ED4BB
:1011000032002900200000F05FF8002801D0012003
:1011100016E0002D04D000F0F5F9801B8542EBD2DB
:10112000606C202101436164202041216054002033
:1011300042216054002040216054032000E0002040
:1011400070BD70B504000D0016002068806940076E
:1011500035D432002900200000F036F8002801D0F4
:1011600001202DE020688069800615D520202168A7
:10117000C8612068406865490140206841600020DE
:1011800060642020412160540020422160540020EE
:1011900040216054012013E0002D04D000F0B2F98A
:1011A000801B8542D1D2606C2021014361642020E4
:1011B00041216054002040216054032000E00020C1
:1011C00070BD0000FF7FFFFF70B504000D0016002A
:1011D00020688069C00635D520688069800615D4EE
:1011E0000020C0438542F7D0002D04D000F08AF9DA
:1011F000801B8542F0D220204121605400204221F2
:10120000605400204021605403201CE0102021681D
:10121000C86120202168C8612000FFF79FFE206878
:1012200040683A4901402068416004206064202001
:10123000412160540020422160540020402160542C
:10124000012000E0002070BDF0B4049C0025066879
:10125000766835002E002E4D35402F0089B28E0560
:10126000B60DD2B2150435431D4325433D430668F0
:101270007560F0BC704710B502000023506B254C20
:10128000A04203D0506B244CA0421ED189B2480723
:1012900002D51800B823034389B211200840112851
:1012A00002D118009023034389B21220084012286B
:1012B00002D118002023034389B2122008401228CB
:1012C0001DD118004023034319E089B2480702D515
:1012D0001800B823034389B2C80702D51800F223C7
:1012E000034389B2880702D51800F423034389B267
:1012F00012200840122802D118002023034310684E
:101300000068184314682060002010BD00E800FE4B
:10131000009800FCF5080008E909000810B5020073
:10132000002389B2C8070BD518004223034341208C
:10133000105C28240440282C02D01800B02303435A
:1013400089B288070BD51800442303434120105C61
:1013500028240440282C02D01800B023034389B26B
:10136000480702D51800B823034389B2112008406A
:10137000112802D118009023034389B2122008409B
:10138000122802D118002023034389B212200840FA
:10139000122802D1180040230343106800689843C4
:1013A00014682060002010BD80B54D480068012100
:1013B00001434B4801604A4800680100C907C90F52
:1013C00000910098002200210420C04300F04AFA56
:1013D000002200210120C04300F044FA0022002135
:1013E0000020C04300F03EFA3E480068102101434F
:1013F0003C48016001BD10B586B0040020683A4940
:1014000088426BD1032001901220029001200390AA
:10141000032004900120059001A9344800F060FAEF
:101420003348006880218903014331480160304816
:101430000068802189030840009000982D482E49BB
:10144000086000202C49486000202B4988608020DB
:101450002949C860002028490861002026494861C0
:10146000002025498861802080012349C8612248E5
:1014700000F04EF8002801D000F072FB1E48E06337
:101480001D4844621D481E49086010201C494860E0
:1014900000201B49886080201949C8600020184935
:1014A00008610020164948610020154988618020A4
:1014B00040011349C861124800F02AF8002801D001
:1014C00000F04EFB0E48A0630D484462002200214C
:1014D000172000F0C7F9172000F0CEF906B010BDB4
:1014E0001810024000000140005400400014004861
:1014F0001C100240300002407C0900201C00024009
:10150000C009002001480068704700BF940A00200D
:1015100038B504000025002C01D101202DE0022067
:10152000212160542068006805002800134D054003
:1015300028006168A2680A43E168114322690A43EE
:1015400061691143A2690A43E569154305432068AF
:101550000560200000F007F90020A0620020E06292
:1015600000202063002060630020A063012021216F
:101570006054002020216054002032BD0FC0FFFFC6
:10158000F2B5040017001E0000252020205C012871
:1015900001D102203BE00120202160542120205C69
:1015A00001282DD10220212160540020A063206851
:1015B0000068012188432168086033003A000099DF
:1015C000200000F0BBF8E06A002806D02068006820
:1015D0000E210143206801600BE0206800680A21A9
:1015E0000143206801602068006804218843216865
:1015F000086020680068012101432068016004E060
:10160000002020216054022005002800C0B2F2BD55
:1016100038B5040000252120205C022804D00420D5
:10162000A063012005001CE0206800680E218843AB
:1016300021680860206800680121884321680860EB
:101640000120216C8840E16B486001202121605419
:10165000002020216054606B002802D02000616BC4
:1016600088472800C0B232BD70B50400E06B056841
:10167000206806680420216C88402840002817D084
:10168000700715D520680068800605D420680068BA
:1016900004218843216808600420216C8840E16BA4
:1016A0004860E06A002848D02000E16A884744E0AA
:1016B0000220216C8840284000281DD0B0071BD58F
:1016C00020680068800608D4206800680A218843E2
:1016D000216808600120212160540220216C88408B
:1016E000E16B4860002020216054A06A002824D0CB
:1016F0002000A16A884720E00820216C884028400B
:1017000000281AD0300718D5206800680E218843B9
:10171000216808600120216C8840E16B486001204D
:10172000A063012021216054002020216054206BFF
:10173000002802D02000216B884770BD30B50124FD
:10174000056CAC40C56B6C60046863604468102C29
:1017500004D10468A2600468E16003E00468A16049
:101760000468E26030BD10B50400206805494018E7
:10177000142100F010FA800020640348E06310BDDB
:1017800000000000F8FFFDBF0000024070477047F6
:101790007047704770477047704770477047704791
:1017A0000121C206D20E9140424A11607047F0B545
:1017B00040B2002821D5404C40B20207120F083A2F
:1017C0009508042255433C4A40B203071B0F083BCF
:1017D0009B0804267343D258FF238607B60F0827B9
:1017E0007E43B3409A438B01DBB28607B60F0827CE
:1017F0007E43B340134363511AE0304A40B283083A
:1018000004246343D258FF238407A40F08256C43A4
:10181000A3409A438B01DBB28407A40F08256C43D5
:10182000A3401343254A40B2840804256C43135156
:10183000F0BD10B50400601E80214904884201D328
:1018400001200EE0601E1E49086003210020C043F5
:10185000FFF7ADFF00201B49086007201A49086008
:10186000002010BD70B504000D00160029002000F6
:1018700040B2FFF79CFF70BD10B50400200040B2DD
:10188000FFF78EFF10BD10B504002000FFF7D1FF59
:1018900010BD00B5042806D10B49096804220A438B
:1018A00009490A6005E00849096804229143064A8B
:1018B000116000BD00E100E01CED00E000E400E08C
:1018C00014E000E018E000E010E000E080B500F077
:1018D00001F801BD70470268531C03601170704726
:1018E000F8B502000023002400250868D84000282D
:1018F00000D1DAE0086801269E4006403400002C42
:1019000000D1D0E04868022802D0486812281BD1D4
:10191000D808042670431018006A05000F201E0026
:101920007607760F04277E43B040854308691E0082
:101930007607760F04277E43B04028430500D80879
:1019400004267043101805621068050003201E006D
:1019500002277E43B040854308798007800F1E0030
:1019600002277E43B04028430500156048680128DF
:1019700008D04868022805D04868112802D0486875
:1019800012281CD19068050003201E0002277E4308
:10199000B0408543C8681E0002277E43B0402843FC
:1019A000050095605068050001209840854348680F
:1019B0000600F606F60F9E402E4335005560D068AF
:1019C000050003201E0002277E43B040854388683F
:1019D0001E0002277E43B04028430500D5604868BA
:1019E000C00060D531480068012606432F480660D4
:1019F0002E4800680600F607F60F009600982C485F
:101A00009E0804277E43805905000F201E00B6075C
:101A1000B60F04277E43B04085439020C005824224
:101A200001D100200AE02348824201D1012005E0D3
:101A30002148824201D1022000E005201E00B607A5
:101A4000B60F04277E43B0402843050018489E087F
:101A500004277E438551194800680500A54348685E
:101A6000C00300D5254315480560154800680500EA
:101A7000A5434868800300D52543114805601148F7
:101A800000680500A5434868C00200D525430D48FD
:101A900005600D4800680500A5434868800200D530
:101AA0002543094805605B1C1FE7F1BD1810024083
:101AB00008000140000400480008004800040140FC
:101AC00004040140080401400C04014000B597B033
:101AD00032200A9001200D900120129001200F90D9
:101AE00010200E9010201090002013900AA800F0F3
:101AF000A9F8002801D000F033F807200090032057
:101B0000019000200290002003900121684600F01F
:101B100057FB002801D000F023F810480490002063
:101B200007900020099004A800F094FC002801D040
:101B300000F016F800F074FCFA21890000F02BF890
:101B4000FFF7A1FE0420FFF7A4FE002200210020E1
:101B5000C043FFF787FE17B000BD00002000020061
:101B600000B5FEE7F446002804D4494200F013F81B
:101B7000404260474042002905D45FD000F00BF896
:101B8000404249426047494200F005F849426047F7
:101B900003460B43E6D40022030A8B420BD203090F
:101BA0008B4219D243088B422ED2411A00D20146F1
:101BB000524110467047FF2209023FD012068B4265
:101BC00005D3121209028B4201D312120902030932
:101BD0008B4219D300E0090AC3098B4201D3CB0120
:101BE000C01A524183098B4201D38B01C01A524162
:101BF00043098B4201D34B01C01A524103098B4266
:101C000001D30B01C01A5241C3088B4201D3CB0050
:101C1000C01A524183088B4201D38B00C01A524133
:101C200043088B4201D34B00C01A5241884200D373
:101C3000401A5241CFD201461046704708B500F015
:101C4000C1FC08BD70B582B0040000252078C00733
:101C500075D5B04800680C21014004290ED0AD486C
:101C600000680C210140082911D1AA480068C02150
:101C70004902014080204002814208D1BD480068ED
:101C800080035CD56068002859D101208CE260682F
:101C9000012807D1B7480068802149020143B548AF
:101CA00001602DE0606800280CD1B2480068B2499C
:101CB0000140B0480160AF480068B0490140AD48FC
:101CC00001601DE0606805280ED1AA4800688021E7
:101CD000C9020143A7480160A64800688021490263
:101CE0000143A44801600BE0A2480068A2490140FA
:101CF000A04801609F480068A04901409D480160DC
:101D0000606800280DD0FFF7FDFB050099480068CA
:101D1000800314D4FFF7F6FB401B6528F6D303209D
:101D200042E2FFF7EFFB050092480068800306D50A
:101D3000FFF7E8FB401B6528F6D3032034E2207848
:101D400080075CD5734800680C21014000290ED043
:101D5000704800680C21014008291BD16D480068BB
:101D6000C0214902014080200002814212D18148F5
:101D70000068800704D5E068012801D0012013E243
:101D80007C480068F82188432169C90001437948EB
:101D9000016034E0E06800281DD076480068012129
:101DA000014374480160FFF7ADFB0500714800680E
:101DB000800706D4FFF7A6FB401B0328F6D30320B9
:101DC000F2E16C480068F82188432169C9000143A9
:101DD0006848016013E0674800680121884365494D
:101DE0000860FFF78FFB050062480068800706D592
:101DF000FFF788FB401B0328F6D30320D4E12078AB
:101E000000072AD5E069002813D0B54800680121F1
:101E10000143B3480160FFF775FB0500B048006857
:101E200080071AD4FFF76EFB401B0328F6D303206C
:101E3000BAE1AB48006801218843A9490860FFF76F
:101E400061FB0500A6480068800706D5FFF75AFB2E
:101E5000401B0328F6D30320A6E12078400700D4D6
:101E600097E000269F480068C0000FD49D48006896
:101E70008021490501439B4801609A480068802100
:101E80004905084000900098012006009648006827
:101E9000C00514D494480068802149000143924849
:101EA0000160FFF72FFB05008F480068C00506D4CE
:101EB000FFF728FB401B6528F6D3032074E1A068D8
:101EC000012806D1B948006801210143B7480160E3
:101ED0002EE0A06800280CD1B44800680121884396
:101EE000B2490860B148006804218843AF490860DE
:101EF0001EE0A06805280FD1AC480068042101430A
:101F0000AA480160A948006801210143A74801606F
:101F10000EE000BF04100240A4480068012188437D
:101F2000A2490860A1480068042188439F490860CD
:101F3000A06800280ED0FFF7E5FA05009B4800686E
:101F400080071DD4FFF7DEFA401B99498842F5D37C
:101F5000032029E1FFF7D6FA0500944800688007BE
:101F60000ED5FFF7CFFA401B91498842F5D30320E5
:101F70001AE100BF00100240FFFFFEFFFFFFFBFF62
:101F8000F6B2012E05D1574800688A4901405548EC
:101F900001602078C00655D56069012823D18648A4
:101FA00000680421014384480160834800680121DE
:101FB000014381480160FFF7A5FA05007E480068EB
:101FC000800706D4FFF79EFA401B0328F6D30320B0
:101FD000EAE079480068F8218843A169C900014313
:101FE000754801602EE060690421C94388420FD121
:101FF00071480068042188436F4908606E48006892
:10200000F8218843A169C90001436B48016019E0C8
:102010006948006804210143674801606648006818
:102020000121884364490860FFF76CFA05006248A3
:102030000068800706D5FFF765FA401B0328F6D332
:102040000320B1E02078800650D55C4800680C2160
:1020500001400C290ED0594800680C210140082984
:1020600011D156480068C02149020140C0204002F9
:10207000814208D150480068C00337D5206A012842
:1020800034D0012090E0206A002814D04A4800682B
:1020900080214902014348480160FFF733FA0500F7
:1020A00045480068C00321D4FFF72CFA401B0328E1
:1020B000F6D3032078E040480068A64901403E4836
:1020C0000160FFF71FFA05003B480068C0030DD50B
:1020D000FFF718FA401B0328F6D3032064E000BF83
:1020E000241002401C10024000700040606A00286A
:1020F00059D0324800680C210140082951D0606A4B
:1021000002283AD1954800689349014093480160FC
:10211000FFF7F8F9050091480068800106D5FFF740
:10212000F1F9401B0328F6D303203DE08C480068FA
:102130000F218843216B0143894801601F480068D3
:1021400088490140E06A0843A16A01431B480160D5
:102150008248006880214904014380480160FFF7FC
:10216000D1F905007D48006880011CD4FFF7CAF949
:10217000401B0328F6D3032016E078480068764910
:10218000014076480160FFF7BDF90500734800681B
:10219000800108D5FFF7B6F9401B0328F6D30320CA
:1021A00002E0012000E0002076BD00002010024087
:1021B00089130000FFFFFFEF3410024004100240BB
:1021C00070B505000C000026674800680100C907CB
:1021D000C90FA1420FD264480068012188432043FF
:1021E00061490860604800680100C907C90FA14241
:1021F00001D00120ACE02878800707D58A48006824
:10220000F0218843A9680143874801602878C00706
:102210006CD56868012805D150480068800319D43E
:10222000012095E06868022805D14C4800688001CB
:1022300010D401208CE06868032805D17B48006831
:10224000C00307D4012083E044480068800701D41C
:1022500001207DE0744800680321884369680143D8
:1022600071480160FFF74EF90600686801280DD13A
:102270006D4800680C210140042937D0FFF742F96E
:10228000801B6B498842F3D3032061E06868022811
:102290000DD1654800680C210140082926D0FFF7C0
:1022A00031F9801B62498842F3D3032050E068680B
:1022B00003280DD15C4800680C2101400C2915D081
:1022C000FFF720F9801B5A498842F3D303203FE0EF
:1022D000554800680C210140002907D0FFF712F98A
:1022E000801B53498842F3D3032031E01E48006825
:1022F0000100C907C90F8C420FD21B480068012199
:102300008843204318490860174800680100C9073E
:10231000C90FA14201D001201AE02878400707D553
:102320004148006843490140E86808433E49086065
:1023300000F01CF840493C4A126812091207120FBB
:10234000895CC8403D490860002000F03CF900204D
:1023500070BD0000FFFFFEFFFFFFFFFE0010024008
:102360002C100240FF7FC2FF00200240F0B589B070
:1023700005A83349102200F04DF901A83149102277
:1023800000F048F9002400200090002500260027D6
:102390002548006804000C202040042804D00828A8
:1023A00005D00C2834D036E02748070035E005A8D2
:1023B000A10C0907090F405C060001A82349096820
:1023C0000907090F405C0090C02040022040802196
:1023D0004902884206D11C480099FFF7DCFB704394
:1023E000050013E0C02040022040C021490288427D
:1023F00006D117480099FFF7CEFB7043050005E0B2
:1024000011480099FFF7C7FB704305002F0004E057
:102410000F48070001E00C480700380009B0F0BD84
:102420000648006870470000041002403410024063
:1024300089130000FFF8FFFFF4710008100000206E
:10244000D4710008E471000800127A002C100240D8
:10245000006CDC02F8B50400002500262068C003EB
:1024600071D500274F480068C0000FD44D48006860
:102470008021490501434B4801604A48006880219A
:102480004905084000900098012007004648006870
:10249000C00514D4444800688021490001434248E3
:1024A0000160FFF72FF805003F480068C00506D41B
:1024B000FFF728F8401B6528F6D3032070E03B485F
:1024C0000068C021890001400E00002E2AD06068FB
:1024D000C021890001408E4224D03448006834492C
:1024E00001400E00314800688021490201432F4815
:1024F00001602E4800682F4901402C4801602B489C
:102500000660F0070ED5FEF7FDFF050027480068BE
:10251000800707D4FEF7F6FF401B27498842F5D312
:1025200003203DE0214800682149014060680843DC
:102530001E490860FFB2012F05D11A4800681F49E3
:102540000140184801602078C00707D51C48006882
:1025500003218843A168014319480160207880065F
:1025600007D51748006810218843E16801431448E3
:1025700001602068800307D51148006880218843E6
:10258000616901430E4801602068400507D50C4889
:102590000068402188432169014309480160002007
:1025A000F2BD00001C1002400070004020100240EC
:1025B000FFFCFFFFFFFFFEFF89130000FFFFFFEF9F
:1025C00030100240704710B50400FFF729FFFA21D0
:1025D0008900FFF7E0FAFFF756F9002221000020FA
:1025E000C043FFF73FF9002010BD1A00124207D088
:1025F0008B0706D00B78491C0370401C521EF7D87D
:102600007047830706D00B78491C0370401C521E8C
:10261000F9D1704770B4103A03D378C9103A78C032
:10262000FBD2530701D318C918C001D508C908C087
:10263000D20704D30B880380891C801C002A01D593
:102640000B78037070BC7047F0B58FB000F052FF8C
:10265000FFF73CFA00F05EFF01F098F801F06AF82D
:1026600001F020FD01F0C6FD01F0B1FE05208D490D
:1026700088855A208B49C88501208A49C871FF2066
:10268000143088498883884800784006400E86497F
:102690000870854800789F21014083480170824876
:1026A0000078EF2101408048017001207F490880B7
:1026B00001207E4948800F207C49888002207B4988
:1026C000C880002079490883794878494861794869
:1026D00002F075F8784802F0F1F800F071FB02287A
:1026E00009D000D2A5E0042845D024D3062800D183
:1026F0007FE063D39DE071480078012815D17048D0
:102700000021405E6F490022895E884207DB6E49E6
:102710006E4802F003F91E206D4908700AE069480E
:102720000088401E6749088004E002F045F84068D0
:1027300002F045F880E061480078012815D1614831
:102740000021405EC9490022895E884207DBC849F2
:102750005E4802F0E3F81E205D4908700AE059481F
:102760000088401C5749088004E002F025F8006802
:1027700002F025F860E05148007801280AD1BD49EF
:10278000524802F0CBF81E20514908700120BA4986
:10279000087012E002F010F8C068B849884204D00E
:1027A00002F00AF8C068002802D102F067F804E0DD
:1027B00002F002F8C06802F002F83DE03F480078FD
:1027C000012810D138480078EF21014036480170C7
:1027D000D7493E4802F0A2F81E203D490870022069
:1027E000A549087004E001F0E7FF806801F0E7FF09
:1027F00022E001F0E1FF2F49884212D12A480078F7
:10280000C0B2C009C0B200280BD02648C079254903
:102810008871C8492D4802F081F81E202C490870A3
:1028200006E026480078002802D1224801F0C7FFC0
:1028300002E000209049087001F0BEFFBE49086028
:1028400000F0F0FB1748C07902280ADB1548C07970
:10285000144988711448007880210143124801709E
:1028600005E0114800784006400E0F490870B34853
:102870008078022800D016E1B048807CAF49497CBE
:1028800009020143AD48007C00040843AB49C97B01
:10289000090601430691034880690699884219D1C7
:1028A000012018E0040A0020900A0020340A0020C9
:1028B000CDCCCC3D14700008A86100002A0900208E
:1028C000280900202409002004720008F8080020CC
:1028D000230900200020C0B2C8490978C9B20909FB
:1028E0000A00D207D20F0243002A00D1D8E0C34821
:1028F0000078C0B200090100C907C90F00290FD034
:10290000BE480078EF210140BC4801700698BC49E0
:102910008861BC49BC4802F001F81E20BB49087020
:10292000B748808BBA4941430E008448C078010201
:102930008248007908437D2148436421FFF728F944
:1029400001003000FFF727F905907C48407900022C
:102950007A4989790843AA4988827848C07901026E
:102960007648007A08437D2148436421FFF710F937
:1029700001003000FFF70FF904907048407A01021F
:102980006E48807A08437D2148436421FFF700F9AF
:1029900001003000FFF7FFF803906848C07A010299
:1029A0006648007B08437D2148436421FFF7F0F827
:1029B00001003000FFF7EFF802906048407B010211
:1029C0005E48807B08437D2148436421FFF7E0F89F
:1029D00001003000FFF7DFF8019005988849488131
:1029E00005988C49884202D38A48854948810498D1
:1029F0008349888104988749884202D38548804961
:102A0000888103987E49C88103988249884202D30D
:102A100080487B49C88102987949088202987D499B
:102A2000884202D37B4876490882019874494882DB
:102A300001987849884202D37648714948826F48A4
:102A40000078C0B2C009C0B2002829D06C48807993
:102A5000002815D16A48C0796949887135496A48A2
:102A600001F05CFF1E206949087014E0260900206F
:102A700084710008587200082C0900203471000885
:102A80005F488079012806D1A0495F4801F046FFE0
:102A90001E205E4908705A488079401E5849887146
:102AA0000020264988708025ED000024984F2200E0
:102AB0002900380001F03AFF5148007801F060F930
:102AC0001D4800689349884202D100F091FB01E063
:102AD00000F00EFBA848007801284ED11648006887
:102AE000010018310AA801F019FF0AA800F06EFED3
:102AF000A2480078002823D0A1480021405E9F49C9
:102B00000978FFF745F8694648806C469C480021E3
:102B1000405E69464988FFF73BF8A1836846838B8E
:102B200068464288974908A801F028FF0FE000BFD7
:102B300010720008947100088C0A0020680A0020B6
:102B40008F480021425E90A108A801F017FF08A855
:102B500001F030FF6946087040246846007806217D
:102B600048430221FFF714F8201A6946487008AA62
:102B70001C216846407801F01DFA2448007800289E
:102B800038D022480078401E204908701B48007841
:102B9000C0B200090100C907C90F002910D01B48A5
:102BA000007800280CD115480078EF210140134827
:102BB00001707649144801F0B1FE1E2013490870D7
:102BC000114801F0F7FE694608706846007800F089
:102BD0005DFE402468460078062148430221FEF746
:102BE000D7FF201A69464870074A1C21684640787A
:102BF00001F0E0F901F0DCFA6CE50000900A002039
:102C0000040A002060720008F80800202309002050
:102C1000A0860100FFFF000080B55D4800685D49A7
:102C200088420DD163205C49088001205B490880FF
:102C3000CD48C07900B200F03FF8CB49C8713AE006
:102C400053480068564988420DD15A20524908809D
:102C5000012052490880C448808D00B200F02CF851
:102C6000C149888527E04A4800684E4988420DD10D
:102C70004D494E4801F052FEC8204D4908704D485C
:102C80000078102101434B48017014E0404800686F
:102C9000494988420FD149483F49088064203F494B
:102CA00008800A2035490870AF48808B00B200F0D8
:102CB00003F8AD49888301BD00B5010008002E4A24
:102CC0001278012A1BD1A94A1278012A0BD12C4A69
:102CD0000023D25E10000022274B1A700022274BDF
:102CE0001A7000B211E0A14A1278022A0CD1002217
:102CF000214B1A700022214B1A7000B205E0204AC5
:102D0000118001221C4B1A7000B200BDA471000892
:102D1000190400201470000880B51D480068AC49F3
:102D2000884206D1234800789F2101402148017044
:102D30001AE017480068A749884208D11D48007862
:102D40009F210140202008431A4908700CE01048D8
:102D50000068B049884207D1164800789F21014099
:102D60004020084313490870ABA1104801F0D6FD7C
:102D70001E200F49087001BD2A0900202D090020DE
:102D80002409002068720008257500007072000890
:102D90008C0A00207C6D00082609002028090020EC
:102DA000A86D0008B47000081C720008F808002024
:102DB00023090020900A0020A06E0008E70300000D
:102DC00000B501210800954909680969944A1288EB
:102DD0001140002908D1BF490978652904DABD49A5
:102DE0000978491CBB4A1170BB49896F0969BB4A04
:102DF00012881140002908D1B6494978652904DABA
:102E0000B4494978491CB34A5170B5490968096900
:102E1000B44A12881140002908D1AE498978652941
:102E200004DAAC498978491CAA4A9170AE4909680C
:102E30000969AE4A12881140002908D1A549C9780C
:102E4000652904DAA349C978491CA24AD17073499B
:102E500009680969724A12881140002912D09D49F7
:102E6000097802290EDB022108000021994A11701D
:102E70000021984A51700021964A91700021954A8C
:102E8000D1706EE09449896F0969944A12881140A3
:102E9000002912D08F49497802290EDB032108004E
:102EA00000218C4A117000218A4A51700021894A00
:102EB00091700021874AD17053E0894909680969F6
:102EC000884A12881140002916D08249897802293F
:102ED00012DB8049C9780A290EDA04210800002192
:102EE0007C4A117000217B4A51700021794A91700F
:102EF0000021784AD17034E07B49096809697B4A2E
:102F000012881140002912D07249C97802290EDBBB
:102F10000521080000216F4A117000216D4A51708F
:102F200000216C4A917000216A4AD17019E06E4903
:102F3000096809696D4A12881140002911D1654953
:102F4000C9780A290DDB062108000021614A1170A9
:102F50000021604A517000215E4A917000215D4A53
:102F6000D170C0B200BD0000040A00202C0900206E
:102F7000F0B585B006000D0014002800290001F00E
:102F800021FD02902000210001F01CFD019002991A
:102F9000019801F06FFD07003800002101F0F6FDF7
:102FA00001D1874807003000390001F0FFFD009093
:102FB000009801F051FE01F069FE89A20CCA01F0EF
:102FC000B3FE01F073FF0390039805B0F0BD00005D
:102FD00054700008606F000838B5040024B2002C5B
:102FE0000BD424B2200001F093FF0022754B01F0B6
:102FF000A9FF01F05BFF05000AE024B2200001F008
:1030000087FF0022784B01F09DFF01F04FFF050084
:10301000280032BD286E00084F4B0000A46B00084A
:10302000A86B0008F0B583B00125002066494881EF
:1030300000206549888100206349C88187212020BC
:1030400001F0F9F82C00E4B2002C09D0272001F09F
:103050000BF90600B007F6D001F02EF9641EF2E776
:103060000021202001F0E7F857480A21405E01F0D6
:10307000CBFF5549888054480C21405E01F0DBFFAE
:103080005149C88050480E21405E01F0EBFF4E4987
:1030900008814D480421405EFFF79EFF01904A4899
:1030A0000621405EFFF798FF009047480821405EE8
:1030B000FFF792FF07003A0001990098FFF758FFC9
:1030C0004A494862009A01993800FFF751FF474981
:1030D0008862F7BD880A0020206B00089C6B0008FE
:1030E000D46B0008D86B0008C86B0008CC6B0008D4
:1030F00070B582B0684635490A88028000F018FE33
:1031000033480078062801DB00F01AFD31480078CA
:103110000500EDB230480078401F854208DA2E489D
:103120000078062804DB2C480078401F05000DE0DD
:1031300029480078401FEDB2A84207DAEDB22648D0
:103140000078281A401D052800DB6D1E21480570F7
:1031500021480078401B0600204A01210E2000F083
:1031600029FF6A46F6B20A207043801C0100C9B2EA
:10317000002000F01FFF00200400E4B2052C13DA49
:103180001648EDB2E4B22919142251434018020046
:103190001432E4B20A2060430C300100C9B20820A6
:1031A00000F008FF641CE8E7C6480078012803D057
:1031B000C5480078002801D0FFF72EFD73BD000040
:1031C0007D1D902680FFCF40500A0020EA25000890
:1031D0002109002022090020200900201C080020CD
:1031E000000000C0DCA54C400000D040040A0020D4
:1031F00030B59DB0F8200290B448806A01F02CFDF3
:103200004900490800900191E822B1490BA801F05A
:10321000B5FBB0480078C0B240098007800F002895
:1032200008D0AC480078C0B240098007800F012860
:1032300000D004E1A54840896421FEF7A9FC040000
:10324000A2484089A4B22100FEF7A2FC0D002F2065
:103250000090ADB22B00A4B222009F4915A801F046
:103260008DFB9A4880896421FEF792FC02009BA1A5
:1032700008A801F083FB9548C0896421FEF788FC0B
:10328000020096A107A801F079FB9048008A64210A
:10329000FEF77EFC020091A106A801F06FFB8D48AD
:1032A0000078C0B2C009C0B200280DD08748C379E9
:1032B000864882798A4913A801F060FB13AA2D2160
:1032C0005C2000F077FE0EE08048408A6421FEF723
:1032D0005FFC020081A105A801F050FB05AA2D2189
:1032E000622000F067FE7F487849898804224A43BB
:1032F00082580021002000F05DFE15AA1821002050
:1033000000F016FE08AA0F21622000F053FE07AA63
:103310001921622000F04EFE06AA2321622000F04F
:1033200049FE6C480078C0B240098007800F002831
:1033300027D1F82002906548406A01F08DFC4900D1
:10334000490800900191E222614909A801F016FBA9
:1033500009AA2821002000F02DFE0BAA28212A20EE
:1033600000F028FE082338225848818D5748406ACB
:1033700000F0D1FA5548C18D5448806A00F037FCFE
:103380009EE05248028955A104A801F0F7FA4F487F
:10339000008C6421FEF7FCFB04004C48008CA4B2B6
:1033A0002100FEF7F5FB0D00ADB20095A4B223009D
:1033B000E6224D490FA801F0E1FA4448408C64210F
:1033C000FEF7E6FB04004148408CA4B22100FEF762
:1033D000DFFB0D00ADB20095A4B22300E522424907
:1033E0000DA801F0CBFA3948C08B6421FEF7D0FB61
:1033F00004003648C08BA4B22100FEF7C9FB0D00C3
:103400003A200090ADB22B00A4B22200324911A89C
:1034100001F0B4FA04AA3721622000F0CBFD0FAA14
:103420002421002000F0C6FD0DAA2421302000F048
:10343000C1FD11AA3821002000F07AFD40E02548A6
:103440000078C0B240098007800F02282FD13D20AC
:1034500002901E48406A01F0FFFB490049080090B5
:1034600001913B221A4909A801F088FAF82000903E
:103470001648838DF1221D4903A801F07FFA09AA9D
:103480000821002000F054FD0BAA00214C2000F080
:1034900091FD03AA09214C2000F08CFD2E2312225D
:1034A0000A48818D0948406A00F035FA08E0104961
:1034B00017A801F063FA17AA0021082000F07AFD8E
:1034C0001DB030BD2A0900202C090020040A00206C
:1034D00028720008900A0020347200082575000048
:1034E0007872000804000020407200088072000812
:1034F0001C71000880B5064800681021014304488B
:1035000001600020FFF75FF8FDF74EFF002002BDCD
:103510000020024038B581480400814800680C2131
:10352000484320180500AC4210D2207AC0B24008AF
:103530000007000F0090207A0300DB07DB0FA27961
:10354000E179206800F003F80C34ECE731BDF4B504
:1035500083B004000D001E00099F9020C005844226
:1035600006D1704800688021890201436D480160DE
:103570006D48844206D16B4800688021C90201432E
:10358000684801606948844206D166480068802125
:1035900009030143634801606548844206D16148DC
:1035A00000688021C90301435E480160F6B2002E25
:1035B00003D00120A840A06102E00120A840A06241
:1035C0002068032102226A4391408843206060689A
:1035D0000121A94088436060E068032102226A4318
:1035E00091408843E060EDB228000821FEF7D0FA50
:1035F0000421484320180290EDB228000821FEF76C
:10360000C7FA042148432018016A01910F20009055
:10361000EDB228000821FEF7BBFA042041430098D0
:10362000884001998143029801626846007B002826
:103630000BD0022812D010D304281FD016D306288E
:1036400033D025D307283AD045E020680321022251
:103650006A439140014321603DE03CE0E068012184
:1036600002226A4391400143E16034E0E0680221B4
:1036700002226A4391400143E1602CE0206801216D
:1036800002226A439140014321606068606022E049
:103690002068012102226A43914001432160606851
:1036A0000121A9400143616015E020680221022246
:1036B0006A43914001432160606860600BE02068CC
:1036C000022102226A439140014321606068012186
:1036D000A94001436160EDB228000821FEF758FAC5
:1036E0000421484321180191EDB228000821FEF77A
:1036F0004FFA042148432018016A0091FFB2EDB24D
:1037000028000821FEF744FA04204143380088408D
:103710000099084301990862FFBD0000206B000872
:103720000000002014100240000400480008004877
:103730000014004880B521482149086021482049EB
:10374000486000201E49886001201D49C860002093
:103750001B49086100201A49486100201849886106
:1037600000201749C8610020154908621448FCF779
:10377000A7FC002801D0FEF7F3F90021104801F062
:1037800095FC002801D0FEF7EBF901BD80B50E488D
:103790000068012101430C4801600B4800680100EA
:1037A000C907C90F00910098002200210A20FEF7E6
:1037B00059F80A20FEF760F801BD000000540040EF
:1037C000300900200B02000014100240F1B586B051
:1037D00000A8801C2B490A88028068462A490A886A
:1037E0000280082007000820060000200500EDB236
:1037F000702D23DA00200400E4B2302C1CDAE4B28D
:10380000002C08D0E4B22F2C05D0EDB2002D02D050
:10381000EDB26F2D07D101223119C9B27819C0B2AA
:1038200000F0DAFB06E000223119C9B27819C0B203
:1038300000F0D2FB641CDFE76D1CD8E7069A0A2172
:103840000A2000F0B7FB6A462E212E2000F0B2FBC2
:1038500000AA921C2E214C2000F0ACFBB64901A816
:1038600001F05CF801AA2E210A2000F0A3FBB34965
:1038700001A801F053F801AA2E215E2000F09AFB66
:1038800007B0F0BD8A4B0008564C0008F1B582B075
:1038900068466946097A0622514308310171402180
:1038A0000091684600790221FEF772F90099081A22
:1038B000070017200600002005006846007929004F
:1038C000C9B2884226D300200400E4B2112C1FDACA
:1038D000E4B2002C0BD0E4B2102C08D0EDB2002DD5
:1038E00005D0280069460979C0B2884207D1012273
:1038F0003119C9B27819C0B200F06EFB06E000229F
:103900003119C9B27819C0B200F066FB641CDCE75B
:103910006D1CD2E7F7BDF7B588B01F0001206946DE
:10392000087268466946097A791A491E0173684621
:103930000AA909786A46127A8918491C41726846B0
:103940006946097B6A46127A891A491EC1730020AA
:103950000500EDB2802D58DA2E00EDB2402D02DBCD
:10396000280040380600F6B230000721FEF710F9B3
:10397000002902D0F6B2002E45D10020040020001C
:103980003900C0B2C9B288423DD2FFB2380003212B
:10399000FEF7FEF8401E69468873FFB202207843A6
:1039A0000321FEF7F5F8401C69464873EDB23F2D40
:1039B00002D0EDB2402D07D16846007A694688737F
:1039C0006846007B69464873E4B2002C10D0684614
:1039D000807B2100C9B2884205D220006946497B1C
:1039E000C0B2884204D3E4B2FFB2781E844208D148
:1039F00001220AA800780119C9B22800C0B200F05B
:103A0000EBFA641CBBE76D1CA3E780200600089955
:103A1000C64800F0D7FF01F07FFB69460882684680
:103A20006946898C64225143C182002069464881DD
:103A3000049800B202990914884200DAB61E68465A
:103A400005990914029A1214891A8182059800B204
:103A500000286ED00298001401F07CFB0100089849
:103A600001F092FB07D86846049909B2029A121431
:103A7000891A418206E0684602990914049A12B232
:103A8000891A4182059800B204990914884203DA20
:103A9000059800B269464882049909148020484379
:103AA0000221FEF775F8059909B2FEF771F869462B
:103AB0000883002005002800C0B2069909B200B2B0
:103AC000884236DA0020040020006946C97BC0B273
:103AD00088422CD2049800B202990914884212DB61
:103AE00001226846407A2118C9B200910192F6B2CB
:103AF00030000221FEF74CF84019019A0099C0B23B
:103B000000F06AFA11E001226846407A2118C9B231
:103B100000910192F6B230000221FEF739F8401B05
:103B2000019A0099C0B200F057FA641CCCE76D1CF2
:103B3000C1E70BB0F0BD0000887200089072000869
:103B4000F8B53420694608707D2007000A20060079
:103B500000200500280069460978C0B288420FD2CB
:103B600000200400E4B2022C08DA01227119C9B263
:103B70003819C0B200F030FA641CF3E76D1CE9E7B5
:103B80007C200700AA480078401E6946097848430F
:103B9000A8490978FDF7FCFF6946487068464078F7
:103BA0000A30060000200500EDB2042D1ED20020D0
:103BB0000400E4B2082C17DA9F48EDB2405D012101
:103BC000A140084207D001223119C9B27819C0B208
:103BD00000F002FA06E000223119C9B27819C0B229
:103BE00000F0FAF9641CE4E76D1CDDE7F1BDF3B504
:103BF00085B04020060005994C4800F0E3FE01F036
:103C00008BFA6946888068466946098B642251436D
:103C10004181002007003800019909B200B28842B2
:103C200000DAB61E684602990914C91B0181029880
:103C300000B2002878D03FB2380001F08BFA0100C2
:103C4000059801F0A1FA05D86846019909B2C91B87
:103C5000C18004E06846019909B2791AC1800298CE
:103C600000B201990914884203DA029800B2694649
:103C7000C880019909142C2048430221FDF788FFD0
:103C8000029909B2FDF784FF69468881002005008A
:103C90002800C0B2039909B200B288422DDA002090
:103CA0000400E4B2042C26DA019800B2390009B20B
:103CB00088420FDB01220092F6B230000221FDF7AC
:103CC00067FF411B009AC9B220007C30C0B200F0EF
:103CD00083F90EE001220092F6B230000221FDF7D6
:103CE00057FF4119009AC9B220007C30C0B200F0E1
:103CF00073F9641CD5E76D1CCAE700200500EDB21E
:103D0000022D11DA00200400E4B2042C0ADA0122A8
:103D10002020411BC9B220007C30C0B200F05CF909
:103D2000641CF1E76D1CEAE707B0F0BD0000C84273
:103D3000F8B50027002600200500EDB20D2D1ED29B
:103D400000200400E4B2082C17DA9948EDB2405D77
:103D50000121A140084207D001223119C9B27819C6
:103D6000C0B200F039F906E000223119C9B2781961
:103D7000C0B200F031F9641CE4E76D1CDDE7F1BD71
:103D8000F1B582B0712007000020060069463800B6
:103D9000801C487069463000801C08706846007AB4
:103DA000652802DB64206946087200200500EDB238
:103DB0000F2D1EDA00200400E4B2082C17DAB848F0
:103DC000EDB2405D0121A140084207D00122311926
:103DD000C9B27819C0B200F0FFF806E0002231192C
:103DE000C9B27819C0B200F0F7F8641CE4E76D1CA2
:103DF000DDE7002005006846007A0A21FDF7C8FECD
:103E0000EDB2854213DA00200400E4B2042C0CDA8F
:103E10000122684600780119C9B268464078401905
:103E2000C0B200F0D9F8641CEFE76D1CE3E7F7BD02
:103E30002009002021090020A0720008F7B5070022
:103E40000E0000200500EDB2182D70DA00200400ED
:103E5000E4B2082C69DAEDB228000221FDF798FEE1
:103E600000292FD1D1486946097A182251434018B8
:103E7000EDB24019D649405C0121A140084210D062
:103E800001223119C9B200910192EDB2280002213C
:103E9000FDF77EFE3818019A0099C0B200F09CF838
:103EA00041E000223119C9B200910192EDB228001F
:103EB0000221FDF76DFE3818019A0099C0B200F09A
:103EC0008BF830E0B9486946097A18225143401806
:103ED000EDB24019BE49405C0121A140084211D019
:103EE000012231190839C9B200910192EDB22800BE
:103EF0000221FDF74DFE3818019A0099C0B200F07A
:103F00006BF810E0002231190839C9B20091019212
:103F1000EDB228000221FDF73BFE3818019A009906
:103F2000C0B200F059F8641C92E76D1C8BE7F7BD36
:103F300070B505000E0014002078002809D0227802
:103F40003100C9B22800C0B2FFF778FF641C0C35FD
:103F5000F2E770BDF4B507000E0000200500EDB2D9
:103F6000062D23DA00200400E4B2082C1CDA99485C
:103F700069460978062251434018EDB2405D01219F
:103F8000A140084207D001223119C9B27819C0B244
:103F900000F022F806E000223119C9B27819C0B247
:103FA00000F01AF8641CDFE76D1CD8E7F1BD0000D3
:103FB000B471000870B505000E00140020780028C8
:103FC00009D022783100C9B22800C0B2FFF7C2FF81
:103FD000641CAD1DF2E770BDF0B504000D001600C5
:103FE000F6B2002E20D0022E3CD058D2E4B2EDB270
:103FF00028000821FDF7CCFD802148432018764990
:104000000F18E4B2EDB228000821FDF7C1FD8021B0
:104010004843201870490818407801216A07520F58
:104020009140014379703AE0E4B2EDB228000821F2
:10403000FDF7AEFD80214843201867490F18E4B210
:10404000EDB228000821FDF7A3FD80214843201888
:1040500061490818407801216A07520F914088434E
:1040600078701CE0E4B2EDB228000821FDF790FD65
:1040700080214843201858490F18E4B2EDB22800B7
:104080000821FDF785FD8021484320185249081872
:10409000407801216A07520F914041407970F0BD8C
:1040A000C471000870B54D4800884D49C96B8862DD
:1040B0004C4800F003FC494800884949C96B8861B5
:1040C000AE2000F057F8002000F054F8102000F067
:1040D00051F8402000F04EF8812000F04BF880208D
:1040E00000F048F8C82000F045F8A12000F042F8A0
:1040F000202000F03FF8002000F03CF8A62000F05F
:1041000039F8A82000F036F83F2000F033F8D3202B
:1041100000F030F8002000F02DF8D52000F02AF84B
:10412000F02000F027F8D92000F024F8F12000F06A
:1041300021F8DA2000F01EF8122000F01BF8DB2036
:1041400000F018F8402000F015F88D2000F012F86B
:10415000142000F00FF8AF2000F00CF88025ED00DF
:104160000024214E22002900300000F0DFFB00F087
:104170001FF870BD30B583B00500782401A8002178
:10418000018001A845701948FCF761FA2028FAD18E
:10419000FA2080000090022301AAE4B20121214309
:1041A00089B21248FBF7F2FF37BD0000A069000892
:1041B00010B578244020084908700D4B064AE4B237
:1041C0000121214389B20948FCF76EF910BD0000B6
:1041D000B0FBFFFFA063000818040020606B00081C
:1041E000206B00081027000019040020300900206F
:1041F0000104000080B50121232000F01CF84B4889
:1042000000F05CFB0021232000F015F800212420A1
:1042100000F011F81021252000F00DF800211020E9
:1042200000F009F80021112000F005F8002112200B
:1042300000F001F801BD7CB506000D003A24684687
:10424000067101A845703A48FCF701FA2028FAD116
:10425000FA2080000090022301AAE4B2210089B272
:104260003348FBF793FF73BD11B583B03A24304850
:10427000FCF7EDF92028FAD1FA2080000090012304
:1042800003AAE4B2210089B22948FBF77FFF28483E
:10429000FCF7DDF92028FAD1FA20800000900123F4
:1042A00001AAE4B20121214389B22148FCF738F880
:1042B0006846007904B010BD1CB53A242820694630
:1042C00008711B48FCF7C3F92028FAD1FA208000B6
:1042D0000090012301AAE4B2210089B21448FBF73F
:1042E00055FFFA20800000900623124AE4B2012113
:1042F000214389B20E48FCF713F80F48007C0E49A1
:10430000497C090201430C4841810B48807C0A49E1
:10431000C97C09020143084881810748007D06499C
:10432000497D090201430448C18113BD10270000E3
:1043300030090020600A0020500A00200121C20636
:10434000D20E91405C4A11607047F0B540B200282F
:1043500021D55A4C40B20207120F083A95080422A0
:104360005543564A40B203071B0F083B9B080426DF
:104370007343D258FF238607B60F08277E43B34006
:104380009A438B01DBB28607B60F08277E43B34002
:10439000134363511AE04A4A40B28308042463433A
:1043A000D258FF238407A40F08256C43A3409A43E7
:1043B0008B01DBB28407A40F08256C43A340134391
:1043C0003F4A40B2840804256C431351F0BD80B5C8
:1043D0003C480068012101433A4801603A480068BE
:1043E00001210143384801603748006801218843B2
:1043F000354908603120354908603548354908603D
:10440000354800883549C96E886135480068012102
:10441000014333480160324800683021014330488D
:104420000160304800680A2101432E4801602C4891
:1044300000682B4908602B48006801210143294886
:10444000016029480068022101432748016026488D
:104450000068012101432448016024480068244980
:1044600001402248016021480068022188431F4919
:1044700008601E480068012188431C49086000202C
:104480001C49087000201B49487000201949887099
:104490000F20FFF753FF01210F20FFF756FF1648AB
:1044A000006801210143144801601348006802219B
:1044B00001431148016001BD00E100E01CED00E096
:1044C00000E400E01C1002401010024028000040F0
:1044D000E09304002C000040906B0008206B000863
:1044E00018000040200000400C0000401000004078
:1044F000FFFDFFFF680A00201400004000B5A2483D
:104500000068800522D5A0480068A04901409E4867
:1045100001609D480068022188439B490860802013
:10452000C0050068012188438021C90508609848BA
:104530008078022800D125E10020954908700020EC
:10454000934948700020924988701BE18E480068AA
:10455000800700D4F7E08C480068022188438A492C
:1045600008608B488078022808D18020C005006848
:10457000012188438021C905086003E1854800685E
:1045800080062AD5844800688449884221D282481E
:104590000068834988421CD38020C005006801213F
:1045A00088438021C905086000207949087078484F
:1045B0004078102807D176488078032803D002205D
:1045C0007349887005E000207149487000207049E7
:1045D0008870002070490860D4E08020C005006821
:1045E000C00700D4A3E08020C005006801218843F3
:1045F0008021C9050860684800686A49884212D26B
:1046000065480068684988420DD361488078002871
:1046100009D100205E49087000205D4948700120E2
:104620005B49887083E05C4800686049884233D207
:10463000594800685E4988422ED355488078012841
:104640002AD15348524949784018C0780121504A2C
:104650001278914088434E494D4A52788918C87063
:104660004B480078401C4A4908704948007808289F
:104670005DDB00204649087045484078401C4449AD
:10468000487043484078112851DB03204049887026
:1046900000203F4948704AE03F4800683F4988424F
:1046A00033D23D4800683E4988422ED3384880784E
:1046B00001282AD13648364949784018C078012166
:1046C000334A1278914001433148314A5278801878
:1046D000C1702F480078401C2D4908702C48007884
:1046E000082824DB00202A49087029484078401C0B
:1046F0002749487026484078112818DB03202449B0
:10470000887000202249487011E08020C0050068B0
:10471000012188438021C905086000201C490870D8
:1047200000201B4948700020194988702AE00020A9
:10473000204908608020C0050068012101438020D5
:10474000C00501601EE010480068C0071AD50E4879
:104750000068012188430C4908608020C00500687A
:10476000012188438021C905086009488078022812
:1047700008D0002006490870002005494870002034
:104780000349887000BD000010000040FFFDFFFFDE
:10479000680A00201000004834000040BB040000FC
:1047A000DE030000891D0000B01300007509000041
:1047B000BC070000240000403A4800687047F1B58B
:1047C00082B002983849884202D00298002800D16D
:1047D00053E0FFF7F1FF0299C068814205D0FFF76F
:1047E000EBFF02998068814202D100202F490870B6
:1047F00002982C4908602B4800680500002004003E
:10480000A8680090641C2A48047068682649884299
:1048100002D10020040001E06D68F1E7E4B20A2C47
:1048200010DA1420019000262248E4B214216143DA
:1048300040180700143732000199380000F076F86C
:10484000641CEBE70098010018311A4800F066F884
:1048500000200400290018311648E4B214226243F3
:104860008018143000F05AF8641C1348047028684B
:104870000D49884201D02D68ECE7F7BD10B5094815
:1048800000680949884203D006480068002800D122
:1048900006E00448006844692000002800D0A047D2
:1048A00010BD00000C000020347100082209002017
:1048B000200900201C0800202109002000B5124911
:1048C000096802220A4310490A6031210F4A116027
:1048D00080B20F4908600F49096801220A430D4957
:1048E0000A600D49096808220A430B490A600A490F
:1048F000096801220A4308490A6007490968C9078B
:1049000001D500BFF9E700BD1C100240280400409B
:104910002C0400401404004000040040002300E088
:104920005B1CCA5C002AC254FAD170471206130AF3
:104930001A43130C1A4300BF094205D0830705D060
:104940000270401C491EF9D170470000130030B4BA
:1049500014001500103902D310393CC0FCD24907AD
:1049600000D30CC000D504C0890002D30280801C93
:10497000002900D5027030BC704700000CB41CB593
:10498000040004A80190009401AB0A00694608489D
:1049900078441C3000F00CFC0021009A11700028B3
:1049A00001D40098001B02B0019910BC03B0084765
:1049B00027CFFFFF010000E0491C0A78002AFBD145
:1049C000081A704730B405004D400122D207154047
:1049D0004B180418240E2ED01B0E32D0FF2C34D0CE
:1049E000FF2B3AD0E4180002090210431143000AD9
:1049F000090A9446C2B24A43000AC3B24B43000AB2
:104A00004843110A5B181A43D2B2190A091801D493
:104A10004918641E080A7F3C23DBFE2C08DAE405F3
:104A200009061143634699416041284330BC7047F1
:104A3000FF20C005F9E728001B0EFF2BF6D1D0435D
:104A4000F4E72800FF2CF1D1F9E74002F7D1FF2B62
:104A500001D14902F3D1E005E7E7D8054902E4D0E6
:104A6000EDE743020020641CDFD15B129B1CDCD904
:104A7000D805DAE70122D20703004B402ED4431AAF
:104A800001D2C01AC91830B44B180418240E1B0EDA
:104A900022D0FF2C20D0E31A182B1DDC0902114371
:104AA000C40D641E0002104394461925ED1A0A0035
:104AB000AA40D940451801D36D08A41CE405D209C9
:104AC000280A2D062A436546AA41604103181B0E99
:104AD000FF2B01D3C00DC00530BC7047514001E031
:104AE0005140CCE7431A03D2C01AC9185040514074
:104AF00030B44B18090211430418240E1B0E40D089
:104B0000FF2C3AD025009D410BD31ED8C50D400285
:104B1000401A0BD3ED050100400AC90591416841D7
:104B2000DAE7C50D40024918401AD5D001214008E6
:104B3000491C0018FCD58C4204D36D1A000AED05FF
:104B40004019C9E7E8051040C6E7182DC4DCAC1CC5
:104B50000D00E140E5414D40012D4941C40D0002E9
:104B60001043451A01D46D199543641EE405280AC3
:104B70002D069541604130BC7047FF2BACD1D84326
:104B8000AAE72442A8D10020A6E718009446020014
:104B90000A43921808D0884206D101221206001852
:104BA000D042084600D880426246704730B40500C3
:104BB0004D400122D20715404B180418240E28D06E
:104BC0001B0E2FD0FF2C34D0FF2B37D0E41A00025D
:104BD00009021043114343084808D10D1B1A02D2A1
:104BE000641EDB181B18DB18834200D31B1A4941D3
:104BF000F9D37F3426DDFE2C08DAE4054808C9071E
:104C0000194391416041284330BC7047FF20C005E3
:104C1000F9E728001B0E03D0FF2BF5D14902F3D092
:104C2000D043F1E7FF2C01D14002F9D1FF20C005AC
:104C3000E9E74002F4D1FF2BF8D1F1E7280049025F
:104C4000E2D0EDE70B0200202442DCD15B129B1C7A
:104C5000D9D9D805D7E71900012212060118CA428E
:104C60000AD28A420DD83822120609098918C20FC1
:104C7000D20711434007704700D049080909014392
:104C800001E0C10FC90700207047FEE713B54800D7
:104C9000400D204A904211D000281AD0684603C81F
:104CA0000022002301F009F919D2684603C88022C6
:104CB000120651406A4603C2082411E00A03120B8F
:104CC000684603C8104304D1002905D412A003C8C4
:104CD0001CBD684603C81CBD11A003C81CBD002430
:104CE000684603C801220A4B01F000F90AD80020E7
:104CF00019466A460CCA00F025F96A4603C220002C
:104D0000022444402200684603C801F009F91CBD92
:104D10000000F03FFF070000182D4454FB21F93F2D
:104D2000182D4454FB21F9BFF0B50E005E4001255B
:104D3000ED072E40B446AE0ADF184C18F44208D2F4
:104D4000F7420ED2640D01D07F0D12D100206146D2
:104D5000F0BD05D1F74201D87F0D05D10020C14338
:104D6000F0BDFBD1640DF9D00020C14349054908CD
:104D70008FE0E419C902DB0229432B43DB0A460D0D
:104D8000C00231438E4630B487B295B27D432E0CBB
:104D9000ADB2140C7C43A419260C240425439CB208
:104DA0007C43A419190C7943270CC919A4B20F0428
:104DB0003C43090C000C97B247432E0CBE193543F7
:104DC000ADB2170C4743360CBF19A6B2BF193E044B
:104DD0003543240C3E0C36199FB24743BF19BCB271
:104DE0003E0C89191F0C47437F183E043443390C8D
:104DF000704680B297B247432E0CBE193543ADB210
:104E0000170C4743360CBF19A6B2BF193E043543F1
:104E1000240C3E0C36199FB24743BF19BCB23E0C5E
:104E200089191F0C47437F183E043443390C7746D9
:104E30003F0C90B278432E0C80190604ADB22E437D
:104E4000050CA0B22D18120C7A435019020C80B236
:104E5000240CA4189AB27A43121914042043120C99
:104E600089181B0C7B43C91830BCEF0A394203D1A7
:104E7000B61940414941641E6F12BF0DE41B0BDBA4
:104E8000FF19BC4211DA240500274208AE417841DF
:104E9000614166463143F0BD641C05D1401C61414F
:104EA000CF0201D34908F4E750E75DE7012252053C
:104EB0004B18DA4201D9581570475B0D0722D20111
:104EC0009B1A10D9FF2B1DD2DB050122D2070A4005
:104ED00013430903020D1143490AC200524100D98C
:104EE000491CC81870470AD1800A0A0302435212AB
:104EF000921C04D9D3070B40D00518437047C80F44
:104F0000C0077047C80F0002FF30C0057047FEE7BA
:104F1000010009D5F446404200F006F80122D2070C
:104F200011436047010000BF42221201D21E00421D
:104F300007D002D4521E0018FCD5C10A4005120544
:104F400089187047F0B40E005E400125ED072E4031
:104F5000B446AE0ADF184C18F4423BD2F74241D2B5
:104F6000640D43D07F0D38D0E41BC902DB02294316
:104F70002B43CF0ADB0A0600B61A9F4104D2641EF7
:104F8000B6197F41B6185F416812800D24180018C9
:104F9000844222DAE80C0021B6197F41B61A9F41FB
:104FA00002D2B6185F413F1C40414941F4D3241C52
:104FB00021DD2405B6197F41B61A9F4105D3374339
:104FC000C60737430026012F7041614166463143D1
:104FD000F0BC7047FCD1F74205D20020C14349051F
:104FE0004908F3E704D00020C143F1E77F0DFAD070
:104FF00000206146ECE72442FAD1401C61410F03D6
:10500000F6D30020E2E7FEE710B50400214800686F
:1050100024B2001920490022895E401A1D49086007
:105020001C4800680421FCF7B3FD1B4908801A489E
:105030000021405E10BD10B504001848006824B27D
:10504000001917490022895E401A14490860134864
:1050500000680421FCF79CFD1149088010480021DC
:10506000405E10BD10B504000E48006824B200195F
:105070000D490022895E401A0A4908600948006803
:105080000421FCF785FD0849088007480021405E9F
:1050900010BD00007C0A0020980A0020800A002031
:1050A0009A0A0020840A00209C0A002000B5020011
:1050B0004120105C20282AD14020105C012801D119
:1050C000022025E001204023D05424204123D05445
:1050D000106800680123984313681860106800681E
:1050E0000C4B0340106803601068006808431368A5
:1050F00018601068006801230343106803602020D3
:105100004123D05400204023D054002000E002204E
:1051100000BD0000FFEFFFFF0122D2070118090EBA
:105120007F3910D449421F310FD4001805D2C00175
:105130001043C84000D5D0437047C0011043C84059
:1051400005D440427047002070470042F3D510005C
:105150007047FEE79D21020008D5F446524200F058
:1051600005F80122D2071043604700000AD002D49C
:10517000491E9218FCD5C905100A1206524100D3E7
:10518000012A48417047FEE70CB4012212060318B9
:10519000DA4207D84B18DA4204D802000A439218C0
:1051A00002D281420CBC7047FCD088420CBC7047D4
:1051B000F1B5A4B014001F0014ADA9600020E8628E
:1051C0000AE0A868249A9047A860002800D1CBE2A2
:1051D000E86A401CE862641C2178080001D1E86A92
:1051E000C4E22529EDD100206861A861E861286248
:1051F0006862A86202E0010001200843641C217873
:105200002029F8D023290ED02B2904D02D2907D00E
:1052100030290BD00DE001000220084380B2EDE7F9
:1052200001000420F9E701000820F6E70100102042
:10523000F3E72A290FD1396839600A68091D3960F6
:105240006A63002A05D551426963010004200843BE
:1052500080B2641C12E0002169630AE06A6B774B3C
:105260009A4205D093009A18520051183039696358
:10527000641C21780A00303A0A2AEFD321782E29BB
:1052800003D00021C94329631EE0641C21782A2928
:1052900007D1396839600A68091D39602A63641CBE
:1052A00012E0002129630AE02A6B644B9A4205D080
:1052B00093009A185200511830392963641C2178E0
:1052C0000A00303A0A2AEFD32887267831005A4854
:1052D0007844FF30653000F013FF002801D0641CD3
:1052E00000E000263A202E54285C682804D121785A
:1052F000682901D1622005E06C2806D120786C284D
:1053000003D171203A216854641C05A828612678CD
:10531000641C3000253824D02038022800D8D4E07E
:10532000133800D1F6E00B3800D15DE1401E00D10A
:1053300037E1401E022800D8C7E0001F00D130E14D
:10534000401F00D193E0401E00D1E3E0401E27D073
:10535000C01E0BD0801E00D1DCE0C01E00D1D9E001
:105360004CE1252069460875012051E13868386014
:105370000168001D3860E9602E6B002E03D50846D9
:10538000FFF718FB0AE032000021E86800F0C2FED7
:10539000002802D0E968401A00E03000A86138E136
:1053A000386838600268001D38600020C043002162
:1053B000104014AA03C205A8E860286900903C22A6
:1053C00014A803C802AB03C302A803C8002904D170
:1053D000002802D1286B00281DD0521E02A803C845
:1053E0000007000F3030C0B23A2800DB27300099A8
:1053F000885402A803C800090B071843090902AB27
:1054000003C302A803C801D1002804D0E8680099AA
:1054100089188842E1D33C20801AA8610099891834
:10542000E960296B88420DDA081A2862288F04493E
:1054300001402987EDE000BF601E0000FFFFFF7FF5
:10544000EFFF0000002900D4E3E03821695C14225A
:105450000A40102A00D0DCE0696B6A69891A2A6A5E
:10546000891A0A1A012A00DAD3E02A62D1E03A2026
:10547000285C622819D0682806D06A280CD06C28CD
:105480001BD0712808D018E0386838600168001D0A
:105490003860E86A0880BCE0386838600268001D3F
:1054A0003860E86AC11703C2B3E038683860016841
:1054B000001D3860E86A0870ABE038683860016841
:1054C000001D3860E86A0860A3E03A68D21D072032
:1054D00082433A6003CA3A6014AA03C2002902D583
:1054E00068692D2109E0288F810702D568692B2181
:1054F00003E0C00705D56869202105AA1154401CA6
:10550000686105A869694018E860310014A800F0D6
:10551000F9F97EE03A20285C6C280BD0712801D084
:105520006A2807D13A68D21D072082433A6003CA2D
:105530003A6005E0396839600868091D3960002162
:1055400014AA03C23A20285C682803D114A803C80F
:1055500080B20BE0622803D114A803C8C0B205E0F2
:10556000742801D07A2804D114A803C8002114AAF1
:1055700003C23820285C00072DD514A803C80029D1
:1055800001D1002827D020203043782823D1686912
:10559000302105AA1154401C411C696105A90E5413
:1055A00019E039003A20285C00F0E2F814AA03C29E
:1055B000002902DA68692D2109E0288F810702D5C8
:1055C00068692B2103E0C00705D56869202105AA79
:1055D0001154401C686105A869694018E8603100F1
:1055E00014A800F0F9F814E0012068613868386008
:1055F0000168001D3860684601750AE0252069468B
:10560000087501206861300003D005A846700220AB
:105610006861686B6969401A296A401AA969401A69
:10562000696A401AE969401AA96A401A0490382048
:10563000285C400711D4202069460871049801288D
:105640000BDB049E012301AA14A9249800F01BFC83
:10565000002800D088E0761EF4D1686905AE0028E5
:105660000FD000903178A868249A9047A86000284D
:105670007AD0E86A401CE862761C0098401E0090D0
:10568000F0D13020694608712E6A012E09DB012312
:1056900001AA14A9249800F0F6FB002864D1761E14
:1056A000F5D1EE68A86900280FD000903178A8687D
:1056B000249A9047A860002856D0E86A401CE86207
:1056C000761C0098401E0090F0D130206946087189
:1056D0006E6A012E09DB012301AA14A9249800F0A7
:1056E000D2FB002840D1761EF5D1E868A96946189A
:1056F000E86900280FD000903178A868249A904774
:10570000A860002830D0E86A401CE862761C009847
:10571000401E0090F0D1302069460871AE6A012E1B
:1057200009DB012301AA14A9249800F0ACFB00288E
:105730001AD1761EF5D13820285C400700D44BE5FD
:105740002020694608710498012800DA44E5049E87
:10575000012301AA14A9249800F095FB002803D185
:10576000761E00D138E5F3E70020C04325B0F0BD38
:105770000A00622822D0682819D06A2808D06C282C
:1057800023D0712804D074281FD07A2808D01CE0B8
:105790001368DB1D07208343136003CB136070473E
:1057A000116811600868091D1160002170471168B7
:1057B00011600868091D116000B20BE011681160EA
:1057C0000868091D116040B204E0116811600868A2
:1057D000091D1160C1177047F3B583B000690090CF
:1057E0006846027C6F2A01D1082406E0202111437B
:1057F000782901D00A2400E010243C25039803C82E
:1058000006000F00642A01D0692A07D1002905DAB1
:1058100000200021801BB94106000F00002F10D18D
:10582000002E0ED10398006B00280AD1082C3AD123
:1058300003983821405C000735D53B25302000997E
:1058400030E06D1E0195300039002200E31700F0B2
:105850006DFC3032D2B23A2A03DB6846007C513804
:10586000121800984255300039002200E31700F06A
:105870005DFC06000F0001D1002E05D00398C06822
:10588000009949198842DCD3082C0CD1039838219F
:10589000405C000707D50098405D302803D06D1E9E
:1058A0003020009948553C20401B0399886100999D
:1058B0004919039AD1600399096B884209DA081AD9
:1058C000039908620398008FBA4901400398018741
:1058D00015E0002913D503993822895C14220A4067
:1058E000102A0CD10399496B039A5269891A039AB9
:1058F000126A891A0D1A012D01DB0398056205B0A1
:10590000F0BD0000F3B591B006AA03C802AB03C313
:105910001198006B002801D5062007E008D112A8D5
:10592000007820210143672902D1012011990863E1
:10593000119840684100490D9F4B994223D10003C3
:105940000FD11198006800280BD1032011998861AC
:1059500012A8007861381A2864D300BF9FA0009075
:105960000AE003201199886112A8007861381A288A
:1059700056D300BF9AA00090032200991198C068E6
:10598000FCF734FE14E1012947DB8C4A02408C48C5
:105990001043119A50608B48091A09B28A4848434B
:1059A0008A49FCF7F5F8040002A803C80022002386
:1059B00000F083FA06D202A803C8802212065140E2
:1059C00002AA03C2684684800720019909B2421ADC
:1059D00000207F49012A27DB009202AA30CA002654
:1059E0000F000098C00707D532003B0020002900B7
:1059F000FFF79AF904000D00009840100090300065
:105A0000390032003B00FFF78FF906000F000098C5
:105A10000028E6D102A830C027E000200023BCE027
:105A200070A0A8E770A09AE754420026694F10E0E2
:105A3000E00707D504A803C832003B00FFF774F95C
:105A400006000F00641004A803C804AA0CCAFFF7DC
:105A50006BF904AA03C2002CEAD102A803C83200E1
:105A60003B00FFF76FFA02AA03C212A800782021B8
:105A700001430491662903D1019800B20A3000E085
:105A800006201199096B08180090142801DB1320D7
:105A9000009030206946087606A8441C009801282A
:105AA00039DB02A803C800F077FB059006460834EE
:105AB000042530000A21FCF76EF80F0030000A219F
:105AC000FCF769F806003037601E077030000A21C5
:105AD000FCF761F80F0030000A21FCF75CF80600C3
