:020000040800F2
:10000000080400200D5A0008534900087F4B0008DF
:1000100000000000000000000000000000000000E0
:10002000000000000000000000000000634F000816
:1000300000000000000000004F510008F75D0008BC
:10004000035E000851600008536000085560000816
:1000500057600008596000085B6000089D150008A3
:100060005D6000085F600008616000086360000870
:10007000151800086560000867600008213F000847
:100080006960000800000000000000006B600008CC
:10009000000000006D6000086F600008D547000890
:1000A00000000000716000087360000875600008BF
:1000B0007760000800000000796000087B6000089D
:1000C000F0B59DB0C248C3498880C348C149C880C3
:1000D000C248C0490881C248BE494881C148BD499B
:1000E0008881C148BB49C881C048BA490882C04814
:1000F000B8494882BF48B7498882BF48B549C882D5
:10010000BE48B4490883BE49BE4801F065F90120E4
:100110000400E4B2102C0BDAE4B22200BA49B94868
:10012000E4B212236343C01801F05EF9641CF0E7E7
:100130000520B64908805A20DC4908800120A549DD
:10014000C877C820A3490886FC208005D8494861A3
:10015000D848D749C861FC208005D5498861FC2072
:100160008005D3490863D348D1498863FC208005C2
:10017000CF494863FC208005CD49C864CD48CC49AF
:100180004865FC208005CA4908650120C849888067
:100190000220C74948800F20C54908800520C6496C
:1001A0008880C64801F03FF901F086FA01F0F4FAC0
:1001B00001F05CFA01F0B7FB01F03AFC01F030F914
:1001C000BF490860BC4800780128F3D101F028F944
:1001D000BB4908607F48C07F022806DBB948007829
:1001E00080210143B748017005E0B6480078400619
:1001F000400EB4490870B4488078022800D0CBE2A1
:10020000B148817CB048407C00020843AE49097C7B
:1002100009040143AC48C07B000608430990A94883
:100220000078C0B240098007800F022800D1B0E2F8
:100230006848C06A0999884209D0A2480078C0B2CB
:1002400000090100C907C90F002900D1A1E200205F
:10025000994948809B480078C0B200090100C9074D
:10026000C90F00290CD097480078EF21014095482C
:10027000017009985749C8621E21C24801F018FD53
:10028000C1480068401CC04908605248008EBF4900
:10029000414302918C48C07801028B4800790843A1
:1002A0007D214843642102F073FA0100029802F0B4
:1002B00072FA08908448407900028349897908439A
:1002C000444948858048C07901027F48007A084344
:1002D0007D214843642102F05BFA0100029802F09C
:1002E0005AFA07907848407A01027748807A0843A2
:1002F0007D214843642102F04BFA0100029802F08C
:100300004AFA06907048C07A01026F48007B0843A1
:100310007D214843642102F03BFA0100029802F07B
:100320003AFA05906848407B01026748807B0843A1
:100330007D214843642102F02BFA0100029802F06B
:100340002AFA04900898234908840898C5498842E5
:1003500002D3C4481F49088407981E494884079857
:10036000C049884202D3BF481A49488406981949AF
:1003700088840698BB49884202D3BA4815498884C4
:1003800005981449C8840598B649884202D3B548EF
:100390001049C88404980F4908850498B1498842D7
:1003A00002D3B0480B49088546480078C0B2C0095E
:1003B000C0B2002839D00748807F002828D10548DE
:1003C000C07F044988771E21D54801F071FC27E0E1
:1003D000361000000C080020D20F0000820F000031
:1003E000410F0000190F0000C90E0000B50E0000FB
:1003F000A60E00009D0E0000790E00000B0E0000FE
:100400005C5E00086C0A0020705E0008680A00202C
:10041000C448807F012803D11E21C34801F048FC55
:10042000C048807F401EBF498877C04800780028B8
:1004300000D005E1BB48418D0091BA48408D0A21AA
:1004400002F0A6F90099081A0700B648418D0091FC
:10045000B448408D0A2102F09BF9009908180390D6
:10046000D548B049898B02224A438018A02149000F
:10047000405AB8422AD30399CF48AA4A928B022302
:100480005343C018A0225200805A81421ED3CB4849
:10049000007800281AD00020C94908600020C94906
:1004A00008700020C8490870CAE000BF6A0A00202E
:1004B000000D0020CDCCCC3DD40D0020505D0008B7
:1004C000E40D0020E80D0020A40D0020BB480078BA
:1004D00000285FD0BA4800689249498D4018B84951
:1004E0000860B8480078401CB6490870B6480078E3
:1004F000401CB5490870B3480078052800DA9FE031
:10050000AF480068AF49097802F045F9C149088051
:100510000020AA490870BF4801880091BD480088A2
:100520000A2102F035F90099081A1090B94801889B
:100530000091B84800880A2102F02AF900990818A9
:100540000F9001200400E4B2102C79DA9A48E4B24A
:10055000022161434018A0214900405A1099884265
:1005600016D30F989449E4B2022262438918A0225C
:100570005200895A88420BD39048047001206B497D
:1005800008705DE0CC5F00084C0A0020A0860100E6
:10059000641CD8E78C480078401C8B4908709D4843
:1005A0000088B84211D303989A49098888420CD32D
:1005B00084480078401C8349087081480068594984
:1005C000498D40187E4908600AE05648408D91499F
:1005D000088001207B4908705248408D78490860A6
:1005E000784800780A2817DB75480068754909784B
:1005F00002F0D1F88749088002204C490870012098
:100600006E49087000207049087000206D4908701C
:1006100000206B49086013E06B4800780F280FD367
:100620001E21CD4801F044FB002040490870002005
:10063000654908700020634908700020604908601F
:10064000C6480078C0B240098007800F012800D05A
:100650009FE0D6480088FF2806DB1E21D44801F021
:1006600027FB96E0FFFF00002E48018C2D48CF4A63
:10067000128802235343C0184186CE480168294896
:10068000CA4A128802235343C018408E0818C94929
:100690000860C6480088401CC4490880C3480088D8
:1006A00002284DDBC3480068C049098802F073F88E
:1006B000D04908800020D0490860002004002000B4
:1006C000C0B2BA49098880B2884231D2C94800888C
:1006D0001449E4B2022262438918498E88420ED33B
:1006E000C5480068C34909880E4AE4B2022363433F
:1006F000D218528E891A4018BF4908600DE0BE48D2
:1007000000680849E4B2022262438918498EB94A56
:100710001288891A4018B8490860641CCFE700BFE6
:10072000245F00080C080020345F0008D60B00206E
:10073000B14800689D49098802F02DF8AF4908804A
:10074000AF48808B002824D01B48AD49898B0222FA
:100750004A43801890214900405A002819D0A848DF
:10076000008CA749098C4843A64902F011F81249A8
:10077000A34A928B02235343C91890225200895AEC
:100780004843A04902F004F8022102F001F89E4912
:1007900008800020D649887000F0FEFA9848417819
:1007A0009748007801F079FDD2480068D249884224
:1007B0000CD100F037FC0BE06C0A0020CC0B0020C1
:1007C000D00B0020D40B0020D50B002000F0AAFB9A
:1007D000CA480078002803D1C948807C002801D08D
:1007E00000F0A8F9C7480078012800D00EE1C448FD
:1007F000807C002800D1B3E0C148C07C05280BD024
:1008000046D307281CD011D309282DD022D30A287B
:1008100034D03DE0CE0B0020BB490AA800F0DCFD3F
:100820001922BAA101A800F0DFFD31E0B8490AA8F9
:1008300000F0D2FD1822B5A101A800F0D5FD27E0F7
:10084000B4490AA800F0C8FD1B22B0A101A800F01D
:10085000CBFD1DE0B0490AA800F0BEFD1A22ABA1F5
:1008600001A800F0C1FD13E0AC490AA800F0B4FDF6
:100870009E22A6A101A800F0B7FD09E0A8490AA898
:1008800000F0AAFD0422A1A101A800F0ADFDFFE740
:100890009B480021425EA34919A800F0A5FD984895
:1008A0000221425EA04916A800F09EFD9448042152
:1008B000425E9E4913A800F097FD00210AA801F0AE
:1008C00097F919A801F0BEFF050040210091EDB293
:1008D00006206843022101F05BFF0099081A060018
:1008E00019AA16213000C0B201F01AFE16A801F0B4
:1008F000A9FF050040210091EDB2062068430221C6
:1009000001F046FF0099081A060016AA20213000BF
:10091000C0B201F005FE13A801F094FF05004021CC
:100920000091EDB206206843022101F031FF0099E9
:10093000081A060013AA2A213000C0B201F0F0FD07
:1009400001AA1C21142001F0EBFD01AA1C21652045
:1009500001F0E6FD88E000BF445F0008E80D0020DC
:1009600064480068010018310AA800F035FD012133
:100970000AA801F03DF9C148007800281CD06C4855
:100980000021405EBD49097801F002FF0700684878
:100990000021405E390001F0FEFE0391039B3A0006
:1009A000A24911A800F020FD0DE000BF440A00207C
:1009B000545F00083C0A00205D480021425E9CA173
:1009C00011A800F011FD11A801F03CFF0500402125
:1009D0000091EDB206206843022101F0D9FE009992
:1009E000081A060011AA1C213000C0B201F098FDBF
:1009F0003AE000BF480A0020400A00204A0A0020CE
:100A00000C08002010270000460A00209C480078AF
:100A1000012803D09A480078022825D199490AA8CC
:100A200000F0DAFC01210AA801F0E2F896489749A3
:100A300009781222514341180AA800F0D5FC0AA8EF
:100A400001F000FF050040210091EDB2062068434F
:100A5000022101F09DFE0099081A06000AAA1C2135
:100A60003000C0B201F05CFD0021002001F020F94F
:100A7000A2480078002837D0A0480078401E9F493F
:100A800008709F480078C0B200090100C907C90F6B
:100A9000002910D09948007800280CD19848007897
:100AA000EF210140964801709649AB4800F094FC54
:100AB0001E2092490870A84801F0C4FE05002800D5
:100AC000C0B201F07BF940210091EDB206206843ED
:100AD000022101F05DFE0099081A06009E4A1C21C1
:100AE0003000C0B201F01CFD01F01EFEFFF762FBFA
:100AF000A40D0020E40D0020505D0008FC0C002037
:100B0000B80D0020FA0C0020845E00082563000068
:100B1000985E0008AC5E0008C05E0008D45E000865
:100B2000E85E0008D45F0008DC5F0008E45F0008AE
:100B3000F40C002080B500205049087087480068F8
:100B40007149884211D16320854908800120854977
:100B500008808048C07F00B200F06CF87D49C877FB
:100B60007C48C07F7B4988775EE07C4800687E498E
:100B700088420DD15A207A4908800120794908809D
:100B80007A48008800B200F055F8784908804BE0B8
:100B900072480068764988420DD176496E4800F067
:100BA0001BFC64205549087055480078102101430A
:100BB0005348017038E0694800686F49884210D195
:100BC0006E48674908806420664908806148008E45
:100BD00000B200F02FF85F4908860A202749087004
:100BE00022E05E480068664988421DD05B48006884
:100BF0006449884202D101F0A0FE15E05748006820
:100C00006149884210D11E2055490880012055496C
:100C10000880BD48808800B200F00CF8BA4988808E
:100C20000020B9494880FFE701BD0000EC5F0008E3
:100C30002575000000B501000800B44A1278012AA9
:100C400015D1524A1278012A08D1514A0023D25EA6
:100C500010000022AD4B1A7000B20EE04B4A127821
:100C6000022A09D10022A94B1A7000B205E0484AB5
:100C700011800122A54B1A7000B200BDFD0C0020AE
:100C8000D60B0020FC5E00086C0A0020CC0B002074
:100C900080B5324800683F49884206D1184800783C
:100CA0009F210140164801701AE02C4800689849BD
:100CB000884208D1124800789F2101402020084333
:100CC0000F4908700CE0254800689249884207D116
:100CD0000B4800789F2101404020084308490870D4
:100CE0001E218DA000F0E4FF1C48006880688B493D
:100CF000884202D18A4800F096FB01BDF30C002027
:100D0000E80D0020F45F0008885B0008F0B585B0AE
:100D100005000C0017002100200001F0C5FE029024
:100D20003900380001F0C0FE01900199029801F0ED
:100D3000A9FE0600002E01D1012006003100280086
:100D400001F0FCFE0090009801F0D1FF03900398A1
:100D500005B0F0BD0C080020B40C0020E40D00200C
:100D6000F60C0020F80C0020B45A0008680A002095
:100D7000B05D0008905F0008285C0008E7030000F1
:100D8000E05A00080C5B0008D85B0008FC0C00204F
:100D9000F40C0020905D0008F0B585B00A2490485E
:100DA00000780100C9B2102001F072FD8C48407833
:100DB0000100C9B2112001F06BFD89488078010063
:100DC000C9B2122001F064FD8721202001F060FDEE
:100DD000E4B2002C33D0272001F070FD0700B807E3
:100DE000F6D001F08AFD7E48007C7D49497C0902ED
:100DF000014309B27B4801F08BFF794948817A4968
:100E000008807748807C7649C97C0902014309B291
:100E1000764801F07DFF72498881734948807048A7
:100E2000007D6F49497D0902014309B2704801F014
:100E30006FFF6B49C8816C498880641EC8E7002138
:100E4000202001F025FD66480A21415E694801F035
:100E500071FF6349488162480C21415E664801F098
:100E600069FF5F4988815E480E21415E634801F059
:100E700061FF5B49C8815A480A21415E60480068A9
:100E8000484357490422895E01F082FC039054488C
:100E90000C21415E5A480068484351490622895E48
:100EA00001F076FC02904E480E21415E54480068E5
:100EB00048434B490822895E01F06AFC0190514881
:100EC0000090019A03990298FFF720FF0600310075
:100ED000009801F0E9FD06006420704300144A49BF
:100EE0000880029A03990198FFF710FF0500290076
:100EF000009801F0D9FD05006420684300144749BB
:100F0000088005B0F0BD0000D40D0020FA0C0020D0
:100F1000E45C0008605B00084F4B0000785C000850
:100F2000505D000870B582B0684638490A88028072
:100F300001F08BF936480078062801DB01F096F8BD
:100F4000344800780500EDB233480078401F8542F0
:100F500008DA31480078062804DB2F480078401F63
:100F600005000DE02C480078401FEDB2A84207DADA
:100F7000EDB229480078281A401D052800DB6D1EB7
:100F80002448057024480078401B0600244A0121AB
:100F90000E2001F0C5FA6A46F6B20A207043801CA2
:100FA0000100C9B2002001F0BBFA00200400E4B245
:100FB000052C13DA1A48EDB2E4B229191422514370
:100FC000401802001432E4B20A2060430C300100E1
:100FD000C9B2082001F0A4FA641CE8E773BD000060
:100FE000740D00205C0D0020B80D0020640D002061
:100FF0006C0D0020080D0020240D0020400D002065
:1010000048600008BA4B3900640A0020D64700083F
:10101000F10C0020F20C0020F00C0020660A0020E9
:10102000D80B0020F0B59DB0D9480021405E01F0FA
:1010300069FF0A2101F0ACFB0400A4B220000A21E0
:1010400001F0A6FB694608816846A4B26946098991
:101050000A224A43A11A418168460089002801D129
:1010600068464481CB480021405E01F04BFF0A21D5
:1010700001F08EFB0400A4B220000A2101F088FBDD
:101080000600A4B2B6B20A207043201A0700B6B216
:10109000002E00D12700F82001906846408900907A
:1010A00068460389E822BC490BA800F09DF9BB48BB
:1010B0000078C0B240098007800F002808D0B748E8
:1010C0000078C0B240098007800F012800D01CE1E1
:1010D000B348008C642101F05BFB0400B048008C35
:1010E000A4B264216143401A0500A4B2002C02D1CD
:1010F000AB48008C05002F200090ADB22B00A4B2AD
:101100002200A84915A800F06FF9A548408C642179
:1011100001F03EFB0200A4A108A800F065F9A04878
:10112000808C642101F034FB02009FA107A800F02D
:101130005BF99B48C08C642101F02AFB02009AA154
:1011400006A800F051F995480078C0B2C009C0B2B5
:1011500000280DD09248C37F9148827F934913A8FD
:1011600000F042F913AA2D215C2001F0D9F90EE01C
:101170008B48008D642101F00BFB02008AA105A8B9
:1011800000F032F905AA2D21622001F0C9F9884842
:101190008349898B12224A4382180021002001F0E2
:1011A000BFF915AA1821002001F078F908AA0F212B
:1011B000622001F0B5F907AA1921622001F0B0F907
:1011C00006AA2321622001F0ABF974480078C0B26E
:1011D00040098007800F002827D1F8200190BFB276
:1011E0000097B6B23300E2226B4909A800F0FCF880
:1011F00009AA2821002001F093F90BAA28212A200E
:1012000001F08EF9082338226A4801888C4661482B
:101210000021405E614600F016FE674801885C4888
:101220000022805E00F079FFAFE0644802885EA192
:1012300004A800F0D9F862480088642101F0A8FAF7
:1012400004005F480088A4B264216143401A05008D
:10125000A4B2002C02D15A4800880500ADB2009516
:10126000A4B22300E62257490FA800F0BDF8564863
:101270000088642101F08CFA040053480088A4B26D
:1012800064216143401A0500A4B2002C02D14E48EB
:1012900000880500ADB20095A4B22300E5224949BB
:1012A0000DA800F0A1F849480088642101F070FA07
:1012B000040046480088A4B264216143401A050036
:1012C000A4B2002C02D14148008805003A200090C9
:1012D000ADB22B00A4B22200324911A800F084F86C
:1012E00004AA3721622001F01BF90FAA2421002053
:1012F00001F016F90DAA2421312001F011F911AAEB
:101300003821002001F0CAF83FE024480078C0B23C
:1013100040098007800F02282ED13D200190BFB2E6
:101320000097B6B233003B221B4909A800F05CF8D5
:10133000F82000901F480388F122254903A800F0F7
:1013400053F809AA0821002001F0A8F80BAA0021EF
:101350004C2001F0E5F803AA09214C2001F0E0F847
:101360002E231222134801888C460A480021405E31
:10137000614600F068FD08E0164917A800F034F84F
:1013800017AA0021082001F0CBF81DB0F0BD00BF66
:10139000660A0020640A00209C5F0008E80D002017
:1013A0000C080020A85F000825750000FC5F0008FD
:1013B0006C0A0020680A00206A0A0020440A002003
:1013C000480A0020B45F00084A0A0020460A0020AC
:1013D00004600008185E0008002300E05B1CCA5C83
:1013E000002AC254FAD170470CB41CB5040004A8FA
:1013F0000190009401AB0A006946084878441C300B
:1014000001F084FD0021009A1170002801D4009899
:10141000001B02B0019910BC03B00847FB27000075
:10142000304800687047F1B582B002982E49884272
:1014300002D00298002800D153E0FFF7F1FF029993
:10144000C068814205D0FFF7EBFF029980688142B6
:1014500002D10020254908700298224908602148DD
:101460000068050000200400A8680090641C204863
:10147000047068681C49884202D10020040001E021
:101480006D68F1E7E4B20A2C10DA1420019000260E
:101490001848E4B2142161434018070014373200A1
:1014A0000199380002F0BCFB641CEBE700980100D6
:1014B00018311048FFF790FF002004002900183170
:1014C0000C48E4B21422624380181430FFF784FF02
:1014D000641C0948047028680349884201D02D68BB
:1014E000ECE7F7BD04000020305E0008F20C00209D
:1014F000F00C0020D80B0020F10C00200121C206C6
:10150000D20E91405E4A116070470121C206D20E90
:1015100091405C4A11607047F0B540B2002821D577
:10152000594C40B20207120F083A9508042255435D
:10153000554A40B203071B0F083B9B080426734320
:10154000D258FF238607B60F08277E43B3409A433D
:101550008B01DBB28607B60F08277E43B3401343E7
:1015600063511AE0494A40B2830804246343D258C5
:10157000FF238407A40F08256C43A3409A438B01E3
:10158000DBB28407A40F08256C43A34013433F4AF2
:1015900040B2840804256C431351F0BD80B53C482B
:1015A000006800060AD53A4800688021014338489F
:1015B000016002F05DFB0720FFF7A7FF01BD80B5CA
:1015C00034480068802149050143324801603248AF
:1015D000006804210143304801603048006802215E
:1015E00088432E4908602D480068012101432B489B
:1015F00001602B4800682A4908602A480068802159
:10160000014328480160284800688021014326489A
:1016100001602648006880218843244908601C48EE
:101620000068802101431A4801600720FFF766FF28
:101630000F210720FFF770FF01BD80B500201C4976
:10164000087000201A49488000201A49887100203B
:101650001849C87100F0DEFF02F019FC00F08AF8AA
:10166000FFF7ADFF30BF00F097F801BD80B5012056
:101670000F49087000F0D9FF02F094FB01BD000093
:1016800000E100E080E100E01CED00E000E400E0AB
:10169000140401401C10024010ED00E000700040F6
:1016A0000C000140000401400C040140080401400A
:1016B000D40D0020CC0D002080B502F0D9FA02F044
:1016C0008DFD02F09BFE00F0BBFF01F0C3F800F0BF
:1016D000FDF801BD0121C206D20E91406E4A116093
:1016E00070470121C206D20E91406C4A11607047CA
:1016F000F0B540B2002821D5694C40B20207120F64
:10170000083A950804225543654A40B203071B0F67
:10171000083B9B0804267343D258FF238607B60F65
:1017200008277E43B3409A438B01DBB28607B60F8E
:1017300008277E43B340134363511AE0594A40B22D
:10174000830804246343D258FF238407A40F082589
:101750006C43A3409A438B01DBB28407A40F082596
:101760006C43A34013434F4A40B2840804256C43A2
:101770001351F0BD80B54C480068802189000143B9
:1017800049480160494800684949014047480160AB
:101790000C20FFF7A6FF01BD80B5444800688021FA
:1017A00089000143414801603F4800688021890069
:1017B00001433D4801603C4800683D4901403A48CA
:1017C00001603C48006880210906014339480160F6
:1017D00038480068002801D500BFF9E7354800689F
:1017E00001210143334801603348006833480068F1
:1017F000102101433148016031480068182101433C
:101800002F4801600C20FFF765FF0E210C20FFF729
:101810006FFF01BD00B52748006840071FD4264868
:10182000006800070DD524480068082101432248BC
:1018300001602448006824490880012022498870FA
:1018400028E01D480068C00624D51B480068102108
:1018500001431948016000201B4988701AE01548AF
:101860000068102101431348016012480068C00657
:1018700001D500BFF9E710480068082101430E4870
:1018800001600D480068102101430B4801600020F1
:101890000D49887000BD000000E100E080E100E03B
:1018A0001CED00E000E400E00C10024018100240C3
:1018B000FFFDFFFF082401400024014028240140CF
:1018C0000424014040240140DC0D00204848006809
:1018D0008021090101434648016044480068802195
:1018E0000901014341480160404800684149014005
:1018F0003E48016031204049086040484049086046
:1019000040480068012101433E4801603E480068AC
:10191000082101433C4801603B4800680121014324
:1019200039480160704770B537480068C00705D571
:1019300035480068C00706D500BFF9E7334800689E
:10194000401C3249086032484088401C3049488079
:1019500030480068401C2F4908602D4881882E4877
:101960004843264900F014FF050029484088281AFA
:101970000400A4B2642C14DAA4B2002C11D0A4B2D6
:101980001E486043254900F003FF401C0600F6B2E4
:10199000320023492348FFF727FD0220224908701F
:1019A00016E028001A49498880B2884206D21848B1
:1019B0000078012802D1FFF740FE09E01448408872
:1019C000332805DB12480078002801D1FFF735FEE7
:1019D0000D480068012101430B480160134800686D
:1019E000042101431148016070BD00000C10024049
:1019F00018100240FFF7FFFF282C014050C30000E1
:101A00002C2C0140142C0140002C0140600A0020C5
:101A1000D40D00205C0A00200087930340420F0091
:101A2000105F0008B40C0020F30C002008240140D3
:101A3000F8B567488078012800D0C7E000206449E5
:101A40008870644800680069624989880840000A13
:101A5000002801D1012000E000205F4948705C4867
:101A600001885E484843FA21890000F091FE00B2E7
:101A700001F023FA05005848458028005649898816
:101A800080B2884202D36420060060E05248008B96
:101A9000290089B2884217D3002006004E48408BA7
:101AA000002854D1ADB24E48854204DA3C214D485D
:101AB00000F0FEF803E03C214B4800F0F9F89620D6
:101AC000C0004549488342E00020434948830A203A
:101AD0000400E4B2002C13D028003F49E4B20222F3
:101AE00062438918898880B2884207D36420E4B2AF
:101AF0000A216143401A060068460470641EE8E744
:101B000035486946097802225143401840883249D5
:101B10006A46127802235A4389188988401A0700B6
:101B20002D486946097802225143401880882D1AB1
:101B3000ADB20A206843FFB2390000F029FE070069
:101B4000FFB2002F03D0FFB20A2F00DAF6192248A5
:101B500000783100C9B288420FD21F480078C01CFB
:101B6000F6B2B04203DB2148007801281AD10120E7
:101B70001E4908701848067014E0300016490978AC
:101B8000C0B288420ED2F6B213480078C01E864218
:101B900003DB16480078022804D10220134908709C
:101BA0000D4806700C48408B002804D00A48408B32
:101BB000401E094948830848408B002806D1064842
:101BC00040880749884201DAFFF737FDF1BD00BFC1
:101BD000DC0D0020D05800080C0800204C06000046
:101BE000490D0000485E0008845F0008EE0D0020EB
:101BF000F3B587B000A8801C6A490A88028068464D
:101C000069490A8802800820070008200600002091
:101C10000500EDB2702D23DA00200400E4B2302C70
:101C20001CDAE4B2002C08D0E4B22F2C05D0EDB2BF
:101C3000002D02D0EDB26F2D07D101223119C9B2AA
:101C40007819C0B200F07EFC06E000223119C9B25A
:101C50007819C0B200F076FC641CDFE76D1CD8E791
:101C6000079A0A210A2000F05BFC08A800780128E6
:101C70000AD100AA921C2E212E2000F051FC6A46A7
:101C80002E214C2000F04CFC484901A8FFF7A4FB92
:101C900001AA2E210A2000F043FC454901A8FFF7C4
:101CA0009BFB01AA2E215E2000F03AFC09B0F0BD9A
:101CB000F1B582B00E00F6B2002E03D03000401C09
:101CC0003C4908703B48007800286AD039480078C1
:101CD000401E384908700298002803D002993648FF
:101CE000FFF77AFB344800F0ADFD6946487168465D
:101CF000694649790622514308310171402100911A
:101D000068460079022100F043FD0099081A6946EF
:101D10008871172007000020050068460079290017
:101D2000C9B288422AD300200400E4B2112C23DA7D
:101D3000E4B2002C0BD0E4B2102C08D0EDB2002D90
:101D400005D0280069460979C0B2884209D101222C
:101D50003919C9B2684680794019C0B200F0F2FB67
:101D600008E000223919C9B2684680794019C0B22A
:101D700000F0E8FB641CD8E76D1CCEE74021009121
:101D80006846407906214843022100F001FD009990
:101D9000081A6946C871084A1C216846C07900F0D3
:101DA000BFFBF7BD3A4800086E4800081460000801
:101DB0001C600008EF0D00208C0D0020F1B582B0F2
:101DC00068466946097A062251430831017140216B
:101DD000009168460079022100F0DAFC0099081AA7
:101DE000070017200600002005006846007929003A
:101DF000C9B2884226D300200400E4B2112C1FDAB5
:101E0000E4B2002C0BD0E4B2102C08D0EDB2002DBF
:101E100005D0280069460979C0B2884207D101225D
:101E20003119C9B27819C0B200F08CFB06E000226B
:101E30003119C9B27819C0B200F084FB641CDCE728
:101E40006D1CD2E7F7BDF7B588B01F0001206946C9
:101E5000087268466946097A791A491E017368460C
:101E60000AA909786A46127A8918491C417268469B
:101E70006946097B6A46127A891A491EC173002095
:101E80000500EDB2802D62DA2E00EDB2402D02DBAE
:101E90002800403806000020040020003900C0B2AD
:101EA000C9B2884251D2FFB23800032100F070FC61
:101EB000401E69468873FFB202207843032100F078
:101EC00067FC401C69464873EDB23F2D02D0EDB26D
:101ED000402D07D16846007A694688736846007BC2
:101EE00069464873F6B23000072100F051FC002922
:101EF00002D0F6B2002E1DD1E4B2002C10D06846FC
:101F0000807B2100C9B2884205D220006946497B06
:101F1000C0B2884204D3E4B2FFB2781E844212D128
:101F200001220AA800780119C9B22800C0B200F045
:101F300009FB08E000220AA800780119C9B22800AC
:101F4000C0B200F0FFFA641CA7E76D1C99E780207F
:101F50000600089800B26946088268466946898C7E
:101F600064225143C182002069464881049800B22E
:101F700002990914884200DAB61E684605990914C8
:101F8000029A1214891A8182059800B200286BD037
:101F9000089800B202990914884207DB6846049940
:101FA00009B2029A1214891A418206E0684602991F
:101FB0000914049A12B2891A4182059800B2049950
:101FC0000914884203DA059800B2694648820499E8
:101FD000091480204843022100F0DAFB059909B278
:101FE00000F0D6FB69460883002005002800C0B237
:101FF000069909B200B2884236DA002004002000B7
:102000006946C97BC0B288422CD2049800B20299BA
:102010000914884212DB01226846407A2118C9B2AD
:1020200000910192F6B23000022100F0B1FB40199C
:10203000019A0099C0B200F085FA11E001226846C9
:10204000407A2118C9B200910192F6B23000022103
:1020500000F09EFB401B019A0099C0B200F072FA9A
:10206000641CCCE76D1CC1E70BB0F0BDF8B53420A3
:10207000694608707D2007000A2006000020050040
:10208000280069460978C0B288420FD200200400B7
:10209000E4B2022C08DA01227119C9B23819C0B2AF
:1020A00000F050FA641CF3E76D1CE9E77C200700A0
:1020B000BA480078401E694609784843B84909780B
:1020C00000F066FB69464870684640780A300600B2
:1020D00000200500EDB2042D1ED200200400E4B261
:1020E000082C17DAAF48EDB2405D0121A14008424B
:1020F00007D001223119C9B27819C0B200F022FA12
:1021000006E000223119C9B27819C0B200F01AFAFB
:10211000641CE4E76D1CDDE7F1BDF3B585B040203C
:102120000600059800B26946888068466946098BB2
:10213000642251434181002007003800019909B20F
:1021400000B2884200DAB61E684602990914C91B1B
:102150000181029800B2002875D0059800B23900BC
:1021600009B2884205DB6846019909B2C91BC180E2
:1021700004E06846019909B2791AC180029800B258
:1021800001990914884203DA029800B26946C880AE
:10219000019909142C204843022100F0F9FA029910
:1021A00009B200F0F5FA6946888100200500280090
:1021B000C0B2039909B200B288422DDA00200400AF
:1021C000E4B2042C26DA019800B2390009B2884240
:1021D0000FDB01220092F6B23000022100F0D8FAA3
:1021E000411B009AC9B220007C30C0B200F0AAF9AD
:1021F0000EE001220092F6B23000022100F0C8FA8F
:102200004119009AC9B220007C30C0B200F09AF99E
:10221000641CD5E76D1CCAE700200500EDB2022D55
:1022200011DA00200400E4B2042C0ADA0122202092
:10223000411BC9B220007C30C0B200F083F9641C9D
:10224000F1E76D1CEAE707B0F0BDF8B500270026FE
:1022500000200500EDB20D2D1ED200200400E4B2D6
:10226000082C17DAAD48EDB2405D0121A1400842CB
:1022700007D001223119C9B27819C0B200F062F951
:1022800006E000223119C9B27819C0B200F05AF93B
:10229000641CE4E76D1CDDE7F1BDF3B581B071208E
:1022A00007000020060069463800801C4870694617
:1022B0003000801C087068460079652802DB6420C5
:1022C0006946087100200500EDB20F2D1ED20020D6
:1022D0000400E4B2082C17DACC48EDB2405D0121CD
:1022E000A140084207D001223119C9B27819C0B201
:1022F00000F028F906E000223119C9B27819C0B2FD
:1023000000F020F9641CE4E76D1CDDE70020050007
:10231000684600790A2100F03BFAEDB2854213DAF3
:1023200000200400E4B2042C0CDA01226846007894
:102330000119C9B2684640784019C0B200F002F9EC
:10234000641CEFE76D1CE3E76846007A002823D0A1
:1023500000200500EDB2062D1ED200200400E4B2DC
:10236000082C17DAAA48EDB2405D0121A1400842CD
:1023700007D001223119C9B27819C0B200F0E2F8D1
:1023800006E000223119C9B27819C0B200F0DAF8BB
:10239000641CE4E76D1CDDE7F7BD0000F00C0020D5
:1023A000F10C00204C600008F7B507000E0000207B
:1023B0000500EDB2182D70DA00200400E4B2082CFC
:1023C00069DAEDB22800022100F0E2F900292FD1EC
:1023D000D3486946097A182251434018EDB2401992
:1023E000D049405C0121A140084210D0012231199E
:1023F000C9B200910192EDB22800022100F0C8F9A3
:102400003818019A0099C0B200F09CF841E000220F
:102410003119C9B200910192EDB22800022100F0F9
:10242000B7F93818019A0099C0B200F08BF830E083
:10243000BB486946097A182251434018EDB2401949
:10244000B849405C0121A140084211D00122311954
:102450000839C9B200910192EDB22800022100F0C2
:1024600097F93818019A0099C0B200F06BF810E0A3
:10247000002231190839C9B200910192EDB2280049
:10248000022100F085F93818019A0099C0B200F0D5
:1024900059F8641C92E76D1C8BE7F7BD70B5050019
:1024A0000E0014002078002809D022783100C9B22B
:1024B0002800C0B2FFF778FF641C0C35F2E770BD4E
:1024C000F4B507000E0000200500EDB2062D23DA5A
:1024D00000200400E4B2082C1CDA9B486946097805
:1024E000062251434018EDB2405D0121A14008424F
:1024F00007D001223119C9B27819C0B200F022F810
:1025000006E000223119C9B27819C0B200F01AF8F9
:10251000641CDFE76D1CD8E7F1BD0000645F0008B4
:1025200070B505000E0014002078002809D022782C
:102530003100C9B22800C0B2FFF7C2FF641CAD1D54
:10254000F2E770BDF0B504000D001600F6B2002EE3
:1025500020D0022E3CD058D2E4B2EDB2280008219F
:1025600000F016F980214843201878490F18E4B28A
:10257000EDB22800082100F00BF980214843201813
:1025800072490818407801216A07520F91400143AF
:1025900079703AE0E4B2EDB22800082100F0F8F8D2
:1025A00080214843201869490F18E4B2EDB2280091
:1025B000082100F0EDF880214843201863490818ED
:1025C000407801216A07520F9140884378701CE0DF
:1025D000E4B2EDB22800082100F0DAF88021484387
:1025E00020185A490F18E4B2EDB22800082100F073
:1025F000CFF8802148432018544908184078012119
:102600006A07520F914041407970F0BD745F000835
:102610000C60000880B5AE2000F06BF88D2000F053
:1026200068F8102000F065F801BD80B58D2000F03D
:1026300060F8142000F05DF8AF2000F05AF801BDFA
:1026400080B5434800884349C96B8862424802F01C
:10265000C3F83F4800883F49C96B8861AE2000F04D
:1026600048F8002000F045F8102000F042F8402023
:1026700000F03FF8812000F03CF8802000F039F8AD
:10268000C82000F036F8A12000F033F8202000F038
:1026900030F8002000F02DF8A62000F02AF8A8203D
:1026A00000F027F83F2000F024F8D32000F021F8B4
:1026B000002000F01EF8D52000F01BF8F02000F0FC
:1026C00018F8D92000F015F8F12000F012F8DA20FF
:1026D00000F00FF8122000F00CF8DB2000F009F8F1
:1026E000402000F006F840201849087000F01CF85F
:1026F00001BD38B505007824684600210180684690
:10270000457016480068000401D500BFF9E70222B1
:10271000694601202043C0B201F0D6FF31BD000060
:1027200050570008B0FBFFFF10B578240B48006835
:10273000000401D500BFF9E7094A044901202043FC
:10274000C0B201F0C1FF10BD5051000808040020C4
:1027500010590008D05800081027000018540040F5
:1027600001040000F446002804D4494200F013F8A4
:10277000404260474042002905D45FD000F00BF88A
:10278000404249426047494200F005F849426047EB
:1027900003460B43E6D40022030A8B420BD2030903
:1027A0008B4219D243088B422ED2411A00D20146E5
:1027B000524110467047FF2209023FD012068B4259
:1027C00005D3121209028B4201D312120902030926
:1027D0008B4219D300E0090AC3098B4201D3CB0114
:1027E000C01A524183098B4201D38B01C01A524156
:1027F00043098B4201D34B01C01A524103098B425A
:1028000001D30B01C01A5241C3088B4201D3CB0044
:10281000C01A524183088B4201D38B00C01A524127
:1028200043088B4201D34B00C01A5241884200D367
:10283000401A5241CFD201461046704708B501F008
:10284000FBFF08BD010000E0491C0A78002AFBD10B
:10285000081A704780B50121232000F019F882483A
:1028600001F0BAFF0021232000F012F800212420FB
:1028700000F00EF81021252000F00AF87B487C4972
:1028800088807A487A49C88078487949088101BDAA
:1028900070B582B006000D003A246846067068469E
:1028A000457074480068000401D500BFF9E70222B2
:1028B00069462000C0B201F007FF73BD11B581B0B9
:1028C0003A246C480068000401D500BFF9E70122F2
:1028D00001A92000C0B201F0F7FE664800680004BC
:1028E00001D500BFF9E70122694601202043C0B2AB
:1028F00001F018FE6846007816BD10B582B03A2483
:102900002820694608705B480068000401D500BFB4
:10291000F9E7012269462000C0B201F0D5FE554812
:102920000068000401D500BFF9E7062252490120E2
:102930002043C0B201F0F6FD13BD00B54F48807CC6
:10294000002806D0022800D186E00CD3032858D0F6
:1029500089E001204A49087004204849887405200C
:102960004649C8747FE04548C07C052809D047D354
:1029700007281CD010D309282FD023D30A2837D0FA
:102980003EE03E4800883D49C88004203B498874A9
:1029900006203A49C87433E038480088374908812E
:1029A00004203649887407203449C87428E0334825
:1029B00040883249488104203049887408202F49D2
:1029C000C8741DE02D4840882C49888104202B497B
:1029D000887409202949C87412E02848808827494A
:1029E000C8810420254988740A202449C87407E056
:1029F0002248808821490882032020498874FFE703
:102A000031E01E480821405E1C490622895E401ABA
:102A10000221FFF7BDFE1649888018480C21405E50
:102A200016490A22895E401A0221FFF7B1FE1049B9
:102A3000C88012481021405E10490E22895E401A5B
:102A40000221FFF7A5FE0A49088100200C49087001
:102A500000200A49887406E0002009490870002017
:102A600006498874FFE700BD10270000FF3F000003
:102A7000740D002018540040840D0020B80D002073
:102A8000FA0C002030B5020013000C001D192000C4
:102A90005840002806D428005840002802D568482D
:102AA000006800E0280030BDF0B504000D002000F3
:102AB000E1172A00EB1701F0C1FE02000B00100025
:102AC0001900C813C9170600002B0CDC01DB002A13
:102AD00009D2F043002802D05948006817E00020CE
:102AE000521E834104E0002E02D0554800680EE0DB
:102AF00010001900000C0F043843091401001000E5
:102B000000B2C0130700FF07FF0F3FB2C819F0BDA6
:102B100000B501000022002901D120200DE0080F9E
:102B20000007002802D1121D0901F8E7002902D48C
:102B3000521C4900FAE71000C0B200BDF3B583B0E3
:102B40000498002802D13F48006877E003980028E5
:102B500001D4039C01E0039844420498002801D466
:102B6000049E01E004984642002002901125300D99
:102B70000005002819D0770C7F1C20003900FFF7D2
:102B80000AFE02902000002100900191029800218D
:102B90003200002301F052FE400CCA031043490CDE
:102BA000009A019B121A8B4114003007000F002875
:102BB00004D1042D02DB36092D1FF6E7002C29D0A5
:102BC000002D27D42000FFF7A3FF00900098854236
:102BD00000DA00950098844000982D1A20003100FA
:102BE000FFF7D9FD070020003100FFF7D4FD0C00EE
:102BF00002993800A840081802900020C043E8401D
:102C0000C1433940002902D00D48006816E0640035
:102C10006D1ED3E70298401C029002984108039869
:102C2000049A4240002A08D506480068814202D131
:102C30000348006802E048420100080005B0F0BD0A
:102C40003860000834600008F1B584B00C000498C6
:102C5000C0170290049802994018029941400091CF
:102C6000002C1ED4009821180098201AFFF766FF48
:102C7000070039003800FFF717FF3900FFF714FF8E
:102C800001900199C9208001FFF70EFF050039006E
:102C90001C48FFF709FF281A1B490968401806005D
:102CA0001DE00098011B00982018FFF747FF070060
:102CB00039003800FFF7F8FE3900FFF7F5FE019004
:102CC0000199C9208001FFF7EFFE050039000D488A
:102CD000FFF7EAFE281A0D49096840180600049813
:102CE000002801D570420600300005B0F0BD10B5D7
:102CF0000400034801682000FFF7A6FF10BD000094
:102D00004460000850FB00003C6000084060000880
:102D100030B504000D0020682DB240190421615E19
:102D2000401A206020683021FFF732FDA080042087
:102D3000205E30BDF0B58DB005000E00E86804904F
:102D40006A480421405E01F093FD07000020040062
:102D5000022C09DA02206043285E09A9042262439A
:102D600089184860641CF3E70A9801F081FD0100AE
:102D7000049801F096FD01F0EDFD00B20690069872
:102D8000E8800499686901F08CFD0100049801F065
:102D900088FD0100009155480221405E01F068FD68
:102DA000009901F0F4FD02900298A86102983900A0
:102DB00001F077FD01900298390001F072FD3900B1
:102DC00001F06FFD0100009148480021405E01F0D4
:102DD0004FFD009901F0DBFD0100019801F067FE55
:102DE000039003982861069801F042FD01000191CB
:102DF00036B2300001F03CFD0090069801F038FD3D
:102E0000390001F04EFD0100009801F0F8FD039932
:102E100001F047FD019901F0BAFD01F09BFD00B200
:102E2000099000200400032C08DA09A8042161435A
:102E30004058022161436852641CF4E7039839004A
:102E400001F02FFD0100FE20800501F0D8FD0100FA
:102E5000029801F026FD686109980A9902225143FF
:102E6000401A0B99401808900820285E08994018CD
:102E7000079007982881079801F0FAFC1C4901F097
:102E800016FE059005981B4901F066FE0AD20598CA
:102E9000194901F075FE05D80599FE20800501F05D
:102EA00076FDE860686901F07FFE022801D100200C
:102EB0006861099800B20DB0F0BD10B504000F486C
:102EC000006824B200190E490022895E401A0B499D
:102ED00008600A4800686421FFF75AFC0849088026
:102EE00007480021405E10BD00000000000D0020DA
:102EF00000FC7F460100803F000080BFE00D002005
:102F0000EC0D0020002800D540427047F1B5A4B078
:102F100014001F0014ADA9600020E8620AE0A86850
:102F2000249A9047A860002800D1CBE2E86A401CB0
:102F3000E862641C2178080001D1E86AC4E225290E
:102F4000EDD100206861A861E86128626862A8622A
:102F500002E0010001200843641C21782029F8D0F8
:102F600023290ED02B2904D02D2907D030290BD0AE
:102F70000DE001000220084380B2EDE701000420CB
:102F8000F9E701000820F6E701001020F3E72A29FD
:102F90000FD1396839600A68091D39606A63002AEF
:102FA00005D55142696301000420084380B2641CC6
:102FB00012E0002169630AE06A6B774B9A4205D000
:102FC00093009A185200511830396963641C2178B3
:102FD0000A00303A0A2AEFD321782E2903D00021A3
:102FE000C94329631EE0641C21782A2907D1396866
:102FF00039600A68091D39602A63641C12E00021E7
:1030000029630AE02A6B644B9A4205D093009A1810
:103010005200511830392963641C21780A00303A73
:103020000A2AEFD32887267831005A487844FF309F
:10303000653001F0CAFD002801D0641C00E00026C4
:103040003A202E54285C682804D12178682901D1BF
:10305000622005E06C2806D120786C2803D171200D
:103060003A216854641C05A828612678641C300045
:10307000253824D02038022800D8D4E0133800D1D5
:10308000F6E00B3800D15DE1401E00D137E1401E73
:10309000022800D8C7E0001F00D130E1401F00D156
:1030A00093E0401E00D1E3E0401E27D0C01E0BD0AD
:1030B000801E00D1DCE0C01E00D1D9E04CE125200B
:1030C00069460875012051E1386838600168001DC3
:1030D0003860E9602E6B002E03D50846FFF7B2FB7F
:1030E0000AE032000021E86801F079FD002802D0F2
:1030F000E968401A00E03000A86138E138683860BB
:103100000268001D38600020C0430021104014AA4E
:1031100003C205A8E860286900903C2214A803C8EF
:1031200002AB03C302A803C8002904D1002802D1BE
:10313000286B00281DD0521E02A803C80007000FEC
:103140003030C0B23A2800DB27300099885402A8FA
:1031500003C800090B071843090902AB03C302A8FF
:1031600003C801D1002804D0E86800998918884272
:10317000E1D33C20801AA86100998918E960296B85
:1031800088420DDA081A2862288F044901402987ED
:10319000EDE000BF902E0000FFFFFF7FEFFF00007B
:1031A000002900D4E3E03821695C14220A40102A87
:1031B00000D0DCE0696B6A69891A2A6A891A0A1ADE
:1031C000012A00DAD3E02A62D1E03A20285C6228A2
:1031D00019D0682806D06A280CD06C281BD071281A
:1031E00008D018E0386838600168001D3860E86A67
:1031F0000880BCE0386838600268001D3860E86A02
:10320000C11703C2B3E0386838600168001D386038
:10321000E86A0870ABE0386838600168001D386003
:10322000E86A0860A3E03A68D21D072082433A604A
:1032300003CA3A6014AA03C2002902D568692D2185
:1032400009E0288F810702D568692B2103E0C007B8
:1032500005D56869202105AA1154401C686105A89C
:1032600069694018E860310014A800F0F9F97EE0BF
:103270003A20285C6C280BD0712801D06A2807D12D
:103280003A68D21D072082433A6003CA3A6005E0DB
:10329000396839600868091D3960002114AA03C221
:1032A0003A20285C682803D114A803C880B20BE038
:1032B000622803D114A803C8C0B205E0742801D065
:1032C0007A2804D114A803C8002114AA03C2382004
:1032D000285C00072DD514A803C8002901D10028B7
:1032E00027D020203043782823D16869302105AACF
:1032F0001154401C411C696105A90E5419E03900A4
:103300003A20285C00F0E2F814AA03C2002902DA8D
:1033100068692D2109E0288F810702D568692B2172
:1033200003E0C00705D56869202105AA1154401C97
:10333000686105A869694018E860310014A800F0C8
:10334000F9F814E001206861386838600168001DF0
:103350003860684601750AE0252069460875012035
:103360006861300003D005A8467002206861686B70
:103370006969401A296A401AA969401A696A401A9B
:10338000E969401AA96A401A04903820285C40076D
:1033900011D4202069460871049801280BDB049E93
:1033A000012301AA14A9249800F01BFC002800D0D6
:1033B00088E0761EF4D1686905AE00280FD0009031
:1033C0003178A868249A9047A86000287AD0E86AE3
:1033D000401CE862761C0098401E0090F0D130201E
:1033E000694608712E6A012E09DB012301AA14A97E
:1033F000249800F0F6FB002864D1761EF5D1EE6823
:10340000A86900280FD000903178A868249A9047C6
:10341000A860002856D0E86A401CE862761C009834
:10342000401E0090F0D13020694608716E6A012E6E
:1034300009DB012301AA14A9249800F0D2FB00287B
:1034400040D1761EF5D1E868A9694618E8690028D8
:103450000FD000903178A868249A9047A86000287F
:1034600030D0E86A401CE862761C0098401E00904C
:10347000F0D1302069460871AE6A012E09DB0123C4
:1034800001AA14A9249800F0ACFB00281AD1761EDA
:10349000F5D13820285C400700D44BE52020694650
:1034A00008710498012800DA44E5049E012301AA6A
:1034B00014A9249800F095FB002803D1761E00D1B2
:1034C00038E5F3E70020C04325B0F0BD0A006228CC
:1034D00022D0682819D06A2808D06C2823D07128F7
:1034E00004D074281FD07A2808D01CE01368DB1D94
:1034F00007208343136003CB13607047116811608A
:103500000868091D11600021704711681160086882
:10351000091D116000B20BE0116811600868091DF7
:10352000116040B204E0116811600868091D116063
:10353000C1177047F3B583B0006900906846027CFC
:103540006F2A01D1082406E020211143782901D0F7
:103550000A2400E010243C25039803C806000F004D
:10356000642A01D0692A07D1002905DA0020002148
:10357000801BB94106000F00002F10D1002E0ED184
:103580000398006B00280AD1082C3AD103983821FF
:10359000405C000735D53B253020009930E06D1E9A
:1035A0000195300039002200E31701F024FB30328E
:1035B000D2B23A2A03DB6846007C513812180098D0
:1035C0004255300039002200E31701F014FB0600D9
:1035D0000F0001D1002E05D00398C0680099491949
:1035E0008842DCD3082C0CD103983821405C0007BA
:1035F00007D50098405D302803D06D1E302000991B
:1036000048553C20401B0399886100994919039A49
:10361000D1600399096B884209DA081A0399086294
:103620000398008FBA4901400398018715E00029EB
:1036300013D503993822895C14220A40102A0CD130
:103640000399496B039A5269891A039A126A891A73
:103650000D1A012D01DB0398056205B0F0BD0000D5
:10366000F3B591B006AA03C802AB03C31198006B6F
:10367000002801D5062007E008D112A800782021F3
:103680000143672902D1012011990863119840680C
:103690004100490D9F4B994223D100030FD111984E
:1036A000006800280BD103201199886112A80078C6
:1036B00061381A2864D300BF9FA000900AE003205D
:1036C0001199886112A8007861381A2856D300BF72
:1036D0009AA00090032200991198C06801F0C0FAE6
:1036E00014E1012947DB8C4A02408C481043119AAF
:1036F00050608B48091A09B28A4848438A49FFF743
:1037000047F8040002A803C80022002301F0D6FAFB
:1037100006D202A803C880221206514002AA03C2A0
:10372000684684800720019909B2421A00207F4927
:10373000012A27DB009202AA30CA00260F00009857
:10374000C00707D532003B002000290001F0CFFA66
:1037500004000D0000984010009030003900320045
:103760003B0001F0C4FA06000F0000980028E6D1E3
:1037700002A830C027E000200023BCE070A0A8E72A
:1037800070A09AE754420026694F10E0E00707D581
:1037900004A803C832003B0001F0A9FA06000F009C
:1037A000641004A803C804AA0CCA01F0A0FA04AA71
:1037B00003C2002CEAD102A803C832003B0001F08A
:1037C00058FB02AA03C212A80078202101430491E9
:1037D000662903D1019800B20A3000E00620119951
:1037E000096B08180090142801DB1320009030208A
:1037F0006946087606A8441C0098012839DB02A80F
:1038000003C801F097FB05900646083404253000F4
:103810000A21FEF7C0FF0F0030000A21FEF7BBFFB0
:1038200006003037601E077030000A21FEF7B3FF34
:103830000F0030000A21FEF7AEFF0600A41E30374D
:1038400027706D1EE3D108340098083800900128D5
:10385000D2DB059801F086FB02000B0002A803C82A
:1038600001F0EDFB0022334B01F041FA02AA03C242
:10387000C5E706A8401C201A06A94A1C6B4605E0AD
:10388000401E019909B2491E9980521C11783029B5
:10389000F6D00499662903D1019909B2491C04E0C4
:1038A000652901D1012100E00021119B1B6B5B18F0
:1038B0001BB2984200DA03001BB219001DD48142EA
:1038C00004DA505C352801DB392000E03020541840
:1038D00000E05B1E641E491E25788542F9D0392818
:1038E00002D1505C401C5054002906D5521E5B1C6E
:1038F000019800B2401C69468880019800B200908F
:103900001BB212A80178119800F01EF813B0F0BD98
:10391000EFFF0000FF070000FFFF0F800000E03F07
:10392000FE03000097750000A086010000002440FF
:103930000000F03F84D79741494E46004E414E006B
:103940006E616E00696E6600F3B585B014001D00EF
:10395000066B012D01DA0125AEA4202008430C9F3F
:10396000662801D17F1C17E0672800D0AAE0032158
:10397000C9438F4200DA91E0B74200DB8EE07F1C42
:1039800005983821405C000702D4B54200DA2E00C9
:103990003FB2F61B00D5002605988169C068401823
:1039A0003FB2012F2CDA491C30220270012E04DABA
:1039B00005983822805C000704D52E20059AD2682D
:1039C0005054491C059881617842864200DA77425A
:1039D0003FB2784205994862F619AE4200DA3500E6
:1039E0002DB20598C5612A0021000598C068059B85
:1039F0009B69C01801F034F9701B05998862D2E008
:103A00003A0095421EDA2A00210001F029F90599B1
:103A100089694919059A9161781B059A5062012EAE
:103A200004DA05983822805C000708D52E20059A14
:103A3000D26850540598C069401C0599C861059822
:103A40008662B0E0210001F00BF905988069C01989
:103A5000ED1B012E04DA05993822895C090704D58B
:103A60002E21059AD2681154401C059988612DB207
:103A7000AE4200DA35002DB22A00E1190598C0687F
:103A8000059B9B69C01801F0EBF805988069401907
:103A900005998861701B0599486284E0B54205DA92
:103AA00005993822895C090700D42E00761E00D5BE
:103AB00000266846007E672801D1652000E0452089
:103AC0006946087605988169481C059A90612278B4
:103AD000059BDB685A54611C012E04DA059A3823D1
:103AE000D25C12071DD50200401C059B98612E2355
:103AF000059CE468A354012E13DB6D1E2DB2AE426B
:103B000000DA35002DB22A00059BDB68181801F099
:103B1000A7F805988069401905998861701B059977
:103B200048620598C0680599896941186846007E11
:103B30000870380003D42B2048708C1C03E02D2221
:103B40004A708C1C4742002502AE08E00A226846F3
:103B500001F0ECFA01983070009F6D1C761C39B2B0
:103B60000129F3DA022D08DA6846007E202101439C
:103B7000652902D130202070641C002D09D130202D
:103B80002070641C07E06D1E02A8405D303020707C
:103B9000641C012DF7DA0598C068059989694018F9
:103BA000201A0599C86105983821405C142101400C
:103BB000102914D10598406905998969401805991B
:103BC000496A40180599C96940180599896A4018D9
:103BD0000599496B884202DA081A0599086207B00C
:103BE000F0BDF1B50E0014000027002B0FD01D0012
:103BF0002178B068009A9047B060002806D0F06A3B
:103C0000401CF062641C6D1E01D0F1E7FF433800D8
:103C1000F2BD000030000268531C03601170704751
:103C20001206130A1A43130C1A4300BF094205D0A7
:103C3000830705D00270401C491EF9D1704700006F
:103C4000130030B414001500103902D310393CC0F1
:103C5000FCD2490700D30CC000D504C0890002D3B0
:103C60000280801C002900D5027030BC7047000023
:103C700000B520480068012101431E4801601D482D
:103C80000068800701D400BFF9E71A480068802166
:103C9000490201431748016016480068800301D4B7
:103CA00000BFF9E71448006803210143124801608E
:103CB000114800688007800F032801D000BFF7E794
:103CC0000E480068102101430C4801600B48006851
:103CD000800601D400BFF9E70848006801210143CC
:103CE000064801600648006890218843044908603E
:103CF00000BD00BF3410024004100240002002400A
:103D0000301002400121C206D20E9140724A116069
:103D100070470121C206D20E9140704A116070476F
:103D2000F0B540B2002821D56D4C40B20207120F09
:103D3000083A950804225543694A40B203071B0F0D
:103D4000083B9B0804267343D258FF238607B60F0F
:103D500008277E43B3409A438B01DBB28607B60F38
:103D600008277E43B340134363511AE05D4A40B2D3
:103D7000830804246343D258FF238407A40F082533
:103D80006C43A3409A438B01DBB28407A40F082540
:103D90006C43A3401343534A40B2840804256C4348
:103DA0001351F0BD80B550480068012101434E48D1
:103DB00001604E480068012101434C4801604B48B6
:103DC000006801218843494908603120484908605A
:103DD000484849490860494800884949C96E88618E
:103DE0004848006801210143464801604548006891
:103DF0003021014343480160434800680A210143E0
:103E0000414801603F4800683E4908603E480068FC
:103E1000012101433C4801603C4800680221014304
:103E20003A48016039480068012101433748016080
:103E30003748006837490140354801603448006818
:103E400002218843324908603148006801218843D3
:103E50002F49086000203049087000202E49487022
:103E600000202D4988700F20FFF74CFF0F210F20F5
:103E7000FFF756FF294800680121014327480160E8
:103E800026480068022101432448016001BD80B535
:103E900015480068012188431349086017480088C5
:103EA0001749C96E8862184800680121884316497D
:103EB00008601648006802218843144908601348C6
:103EC0000068012188431149086001201249887067
:103ED0000F20FFF71EFF01BD00E100E080E100E0E0
:103EE0001CED00E000E400E01C1002401010024055
:103EF00028000040E09304002C00004040590008D6
:103F0000D058000818000040200000400C0000407D
:103F100010000040FFFDFFFFA40D00201400004032
:103F200000B5A2480068800522D5A0480068A049D5
:103F300001409E4801609D480068022188439B49DA
:103F400008608020C0050068012188438021C905E0
:103F5000086098488078022800D125E10020954922
:103F600008700020934948700020924988701BE136
:103F70008E480068800700D4F7E08C480068022172
:103F800088438A4908608B488078022808D18020BD
:103F9000C0050068012188438021C905086003E14C
:103FA0008548006880062AD584480068844988428C
:103FB00021D282480068834988421CD38020C005F2
:103FC0000068012188438021C905086000207949E3
:103FD000087078484078102807D176488078032800
:103FE00003D002207349887005E0002071494870B1
:103FF000002070498870002070490860D4E080205B
:10400000C0050068C00700D4A3E08020C005006898
:10401000012188438021C9050860684800686A4911
:10402000884212D265480068684988420DD36148C9
:104030008078002809D100205E49087000205D4981
:10404000487001205B49887083E05C4800686049E3
:10405000884233D2594800685E4988422ED3554879
:10406000807801282AD15348524949784018C078AD
:104070000121504A1278914088434E494D4A527866
:104080008918C8704B480078401C4A490870494854
:10409000007808285DDB00204649087045484078D4
:1040A000401C4449487043484078112851DB0320A4
:1040B0004049887000203F4948704AE03F48006806
:1040C0003F49884233D23D4800683E4988422ED35A
:1040D0003848807801282AD136483649497840182E
:1040E000C0780121334A1278914001433148314A66
:1040F00052788018C1702F480078401C2D490870F4
:104100002C480078082824DB00202A490870294818
:104110004078401C2749487026484078112818DB11
:1041200003202449887000202249487011E0802033
:10413000C0050068012188438021C905086000206E
:104140001C49087000201B494870002019498870DC
:104150002AE00020204908608020C0050068012175
:1041600001438020C00501601EE010480068C007C0
:104170001AD50E480068012188430C490860802048
:10418000C0050068012188438021C90508600948ED
:104190008078022808D000200649087000200549D0
:1041A000487000200349887000BD000010000040E6
:1041B000FFFDFFFFA40D0020100000483400004068
:1041C000BB040000DE030000131B000026160000E5
:1041D00075090000BC0700002400004038B5814884
:1041E0000400814800680C21484320180500AC42B7
:1041F00010D2207AC0B240080007000F0090207A49
:104200000300DB07DB0FA279E179206800F003F8F7
:104210000C34ECE731BDF4B583B004000D001E0092
:10422000099F9020C005844206D170480068802113
:10423000890201436D4801606D48844206D16B4894
:1042400000688021C90201436848016069488442CE
:1042500006D1664800688021090301436348016074
:104260006548844206D1614800688021C903014342
:104270005E480160F6B2002E03D00120A840A06184
:1042800002E00120A840A0622068032102226A43C4
:1042900091408843206060680121A94088436060A4
:1042A000E068032102226A4391408843E060EDB256
:1042B00028000821FEF76CFA0421484320180290D8
:1042C000EDB228000821FEF763FA042148432018C4
:1042D000016A01910F200090EDB228000821FEF73D
:1042E00057FA04204143009888400199814302987D
:1042F00001626846007B00280BD0022812D010D340
:1043000004281FD016D3062833D025D307283AD047
:1043100045E02068032102226A4391400143216065
:104320003DE03CE0E068012102226A439140014304
:10433000E16034E0E068022102226A4391400143D7
:10434000E1602CE02068012102226A439140014390
:1043500021606068606022E02068012102226A43D7
:1043600091400143216060680121A94001436160DF
:1043700015E02068022102226A4391400143216036
:10438000606860600BE02068022102226A4391406D
:104390000143216060680121A94001436160EDB2E1
:1043A00028000821FEF7F4F904214843211801915F
:1043B000EDB228000821FEF7EBF90421484320184C
:1043C000016A0091FFB2EDB228000821FEF7E0F982
:1043D000042041433800884000990843019908624D
:1043E000FFBD0000D058000800000020141002405B
:1043F000000400480008004800140048AD48006868
:1044000003210143AB480160AA4800680C21014325
:10441000A8480160A848006801210143A64801603E
:10442000A548006804210143A34801609F48006833
:104430008021890301439D4801609B4800688021D9
:1044400089030143984801609748006898490140F2
:104450009548016099480068092101439748016027
:1044600096480068C0218900014394480160934840
:104470000068C02189020143904801608F480068AC
:10448000C021890301438D480160704700B58C4A03
:10449000126801239A438A4B1A60894A12680123E1
:1044A0001343874A1360C34A1268864B1340C14ABC
:1044B000136089B2FF290EDDBE4A1268FF231B0478
:1044C0001343BC4A1360BB4A126880235B04134346
:1044D000B84A13600BE0B74A12680B041343B54A9D
:1044E0001360B44A1268B44B1340B24A1360B14A25
:1044F0001268FF239A43AF4B1A60AE4A1268C0B2EB
:104500000243AC4B1A60AB4A12688023DB001343B2
:10451000A84A1360A74A126880239B011343A54A47
:10452000136000BDF8B505000C001600A348006834
:10453000000468D4310089B22800C0B2FFF7A6FF9A
:10454000B6B2FF2E00DDFF3E9C480068400704D550
:104550009B4800682070641CF6E798480068400695
:1045600009D5944800688021C90101439148016040
:1045700002200700E8E791480068000625D58D482D
:104580000068504901408B480160B6B2FF2E0FDD34
:1045900088480068FF210904014386480160854876
:1045A000006880214904014382480160FF3ECBE757
:1045B00080480068310401437E4801607D480068FE
:1045C0007D4901407B480160BEE77C480068C00629
:1045D0000ED57C480068102101437A480160794873
:1045E00000682021014377480160032007000CE0A8
:1045F000724800688006A7D57248006820210143F0
:104600007048016001E0012007003800C0B2F2BD2F
:1046100000B52B4A126801239A43294B1A60284A95
:10462000126801231343264A1360624A1268254B1D
:104630001340604A136089B2FF290EDD5D4A12689B
:10464000FF231B0413435B4A13605A4A12688023FA
:104650005B041343574A13600BE0564A12680B047D
:104660001343544A1360534A1268534B1340514A40
:104670001360504A1268FF239A434E4B1A604D4A0A
:104680001268C0B202434B4B1A604A4A12684E4B42
:104690001340484A1360474A126880239B01134322
:1046A000444A136000BD0000101002401C1002407C
:1046B000FFFFDFFF081400480C14004810540040AE
:1046C00000540040FFFF00FFF8B505000C00160085
:1046D0003A480068000468D4310089B22800C0B2AA
:1046E000FFF796FFB6B2FF2E00DDFF3E33480068AD
:1046F000800704D5207835490860641CF6E72F4808
:104700000068400609D52B4800688021C901014393
:104710002848016002200700E8E7284800680006F2
:1047200025D5244800682A49014022480160B6B2D4
:10473000FF2E0FDD1F480068FF21090401431D48BB
:1047400001601C4800688021490401431948016048
:10475000FF3ECBE71748006831040143154801606C
:10476000144800681449014012480160BEE713482C
:104770000068C0060ED51348006810210143114897
:10478000016010480068202101430E4801600320A9
:1047900007000CE0094800688006A7D509480068B2
:1047A000202101430748016001E001200700380093
:1047B000C0B2F2BD04540040FFFFFFFE1854004099
:1047C000245400401C540040FFFBFFFF28540040CD
:1047D000FFFF00FF70471A0000B512490968022266
:1047E0000A4310490A6031210F4A116080B20F4913
:1047F00008600F49096801220A430D490A600D4902
:10480000096808220A430B490A600A49096801221B
:104810000A4308490A6007490968C90701D500BF6A
:10482000F9E700BD1C100240280400402C040040A1
:1048300014040040000400407047180030B44343A3
:1048400051435D18010C0C00130C5C432D1980B210
:10485000434392B251430024C918644124040B0419
:10486000090C09195043C018694130BC7047190040
:104870009D21020008D5F446524200F005F80122BD
:10488000D2071043604700000AD002D4491E921894
:10489000FCD5C905100A1206524100D3012A48412D
:1048A000704730B405004D400122D20715404B1827
:1048B0000418240E2ED01B0E32D0FF2C34D0FF2B28
:1048C0003AD0E4180002090210431143000A090A11
:1048D0009446C2B24A43000AC3B24B43000A48435B
:1048E000110A5B181A43D2B2190A091801D44918DF
:1048F000641E080A7F3C23DBFE2C08DAE405090667
:104900001143634699416041284330BC7047FF2002
:10491000C005F9E728001B0EFF2BF6D1D043F4E7C2
:104920002800FF2CF1D1F9E74002F7D1FF2B01D18C
:104930004902F3D1E005E7E7D8054902E4D0EDE705
:1049400043020020641CDFD15B129B1CDCD9D8051C
:10495000DAE7FEE70122D2070118090E7F3910D4E9
:1049600049421F310FD4001805D2C0011043C8407E
:1049700000D5D0437047C0011043C84005D4404221
:104980007047002070470042F3D5100070470122A5
:10499000D20703004B402ED4431A01D2C01AC918C3
:1049A00030B44B180418240E1B0E22D0FF2C20D03C
:1049B000E31A182B1DDC09021143C40D641E00020A
:1049C000104394461925ED1A0A00AA40D94045180B
:1049D00001D36D08A41CE405D209280A2D062A4338
:1049E0006546AA41604103181B0EFF2B01D3C00D81
:1049F000C00530BC7047514006E05140CCE7012271
:104A0000D20703004B40F8D4431A03D2C01AC91886
:104A10005040514030B44B18090211430418240E81
:104A20001B0E40D0FF2C3AD025009D410BD31ED841
:104A3000C50D4002401A0BD3ED050100400AC9051F
:104A400091416841D5E7C50D40024918401AD0D0C0
:104A500001214008491C0018FCD58C4204D36D1A72
:104A6000000AED054019C4E7E8051040C1E7182D1C
:104A7000BFDCAC1C0D00E140E5414D40012D49413A
:104A8000C40D00021043451A01D46D199543641EEC
:104A9000E405280A2D069541604130BC7047FF2B84
:104AA000A7D1D843A5E72442A3D10020A1E730B481
:104AB00005004D400122D20715404B180418240E62
:104AC00028D01B0E2FD0FF2C34D0FF2B37D0E41A68
:104AD000000209021043114343084808D10D1B1A74
:104AE00002D2641EDB181B18DB18834200D31B1A8A
:104AF0004941F9D37F3426DDFE2C08DAE405480865
:104B0000C907194391416041284330BC7047FF20D9
:104B1000C005F9E728001B0E03D0FF2BF5D1490291
:104B2000F3D0D043F1E7FF2C01D14002F9D1FF20AF
:104B3000C005E9E74002F4D1FF2BF8D1F1E72800E6
:104B40004902E2D0EDE70B0200202442DCD15B12E7
:104B50009B1CD9D9D805D7E70CB40122120603183B
:104B6000DA4207D84B18DA4204D802000A439218F6
:104B700002D288420CBC7047FCD08142FAE7FEE7C3
:104B80000CB4012212060318DA4207D84B18DA4295
:104B900004D802000A43921802D281420CBC70472A
:104BA000FCD088420CBC70474100090EFF2906D09A
:104BB000002902D00020C043704700207047400207
:104BC00001D00220704701207047C9B200E0401CAC
:104BD00002788A4202D0002AF9D100207047C9B277
:104BE00001E0401C521E002A03D003788B42F8D10A
:104BF000704700207047124224D0994228D970B5DE
:104C000000251B4202D00C00002109E000240126EF
:104C100049186441944200D3A41A7641F8D3310074
:104C2000012601E0764109D2001864416D41A41AC1
:104C30009D41F7D2A4185D41B619F5D3300022008A
:104C40002B0070BD1B42D8D108B500F07FFA08BD1B
:104C500001D19042D3D202000B0000210020704706
:104C6000124207D08B0706D00B78491C0370401CFA
:104C7000521EF7D87047830706D00B78491C037083
:104C8000401C521EF9D1704770B4103A03D378C952
:104C9000103A78C0FBD2530701D318C918C001D508
:104CA00008C908C0D20704D30B880380891C801C64
:104CB000002A01D50B78037070BC704730B4012412
:104CC00064054D00EC420BD85D00EC4208D80C00A6
:104CD0001C4364000443144304D2994200D190421F
:104CE00030BC7047FCD08B42FAD18242F8E7F0B575
:104CF0000E005E400125ED072E40B446AE0ADF18D7
:104D00004C18F44208D2F7420ED2640D01D07F0D48
:104D100012D100206146F0BD05D1F74201D87F0DC8
:104D200005D10020C143F0BDFBD1640DF9D00020B6
:104D3000C143490549088FE0E419C902DB02294350
:104D40002B43DB0A460DC00231438E4630B487B296
:104D500095B27D432E0CADB2140C7C43A419260CE5
:104D6000240425439CB27C43A419190C7943270CD5
:104D7000C919A4B20F043C43090C000C97B2474375
:104D80002E0CBE193543ADB2170C4743360CBF1974
:104D9000A6B2BF193E043543240C3E0C36199FB20F
:104DA0004743BF19BCB23E0C89191F0C47437F18FB
:104DB0003E043443390C704680B297B247432E0C00
:104DC000BE193543ADB2170C4743360CBF19A6B216
:104DD000BF193E043543240C3E0C36199FB247439D
:104DE000BF19BCB23E0C89191F0C47437F183E0403
:104DF0003443390C77463F0C90B278432E0C80191F
:104E00000604ADB22E43050CA0B22D18120C7A4345
:104E10005019020C80B2240CA4189AB27A431219C9
:104E200014042043120C89181B0C7B43C91830BC96
:104E3000EF0A394203D1B61940414941641E6F124D
:104E4000BF0DE41B0BDBFF19BC4211DA2405002760
:104E50004208AE417841614166463143F0BD641C71
:104E600005D1401C6141CF0201D34908F4E750E766
:104E70005DE7F0B40E005E400125ED072E40B4461C
:104E8000AE0ADF184C18F4423BD2F74241D2640D0F
:104E900043D07F0D38D0E41BC902DB0229432B43EA
:104EA000CF0ADB0A0600B61A9F4104D2641EB61967
:104EB0007F41B6185F416812800D241800188442A3
:104EC00022DAE80C0021B6197F41B61A9F4102D2BE
:104ED000B6185F413F1C40414941F4D3241C21DDF9
:104EE0002405B6197F41B61A9F4105D33743C6073B
:104EF00037430026012F7041614166463143F0BCC3
:104F00007047FCD1F74205D20020C143490549084A
:104F1000F3E704D00020C143F1E77F0DFAD0002071
:104F20006146ECE72442FAD1401C61410F03F6D3FD
:104F30000020E2E74A1812D2400DC90208430121BD
:104F4000C9070843520D40210901521A521C06D4C8
:104F500052421F3201D4D0407047C0177047002022
:104F60007047FEE7010000BF42221201D21E00423C
:104F700007D002D4521E0018FCD5C10A4005120504
:104F8000891870478B4200D1824205D984461000AF
:104F900062468C4619006346DF184C18640D7F0D7D
:104FA0003AD0661C760537D0E61B352E34DCDB02A2
:104FB0002B43DB0A0C0DC9022943C912202E0DDB3D
:104FC0001700203E06D01F00F741F3405F40002647
:104FD000012A7741C01871410DD217E01700F7413F
:104FE000F2405740F3415A40B340F3405A40002644
:104FF000801859410AD3A21C52050FD0C207012FB5
:10500000724117004008CB0718434908641C240567
:105010004208AF4170416141F0BC7047641C2105FA
:105020000020F9E76B4010E06B40ABE7F742F3D1AB
:10503000E943F1E72442EFD100200021ECE7F0B48E
:105040000125ED070F005F40EED40C00871A9C414C
:1050500005D2C01BA141D219634169406B40AE0A21
:10506000DF184C18F442E1D2640D7F0DE2D0E61B4C
:10507000362ED1DCDB022B43DB0AA4460C0DC90221
:105080002943C90A012E28DC04D1D6075208DF07BC
:105090003A435B08EF0A76429041994114D0394275
:1050A0003BD1B61940414941761C394204D1761CA6
:1050B000001849413942FAD0B9436746B74208D986
:1050C000A41B24052143A7E70042EAD13642E8D1D8
:1050D000A2E7E40AE10700209EE7202E0BDD203E38
:1050E0001F00F340F7415F40012A002257417E42F2
:1050F000984191410BE01700F741F2405740F341CE
:105100005A40B340F3405A407E42904199410A03CD
:1051100003D2641EB619404149410027641E24058C
:105120004208AE4178416141F0BC70477CB5040053
:105130000E00150030002900FDF72AFB00904543C2
:10514000701B0190684603C803C473BD7047FEE737
:10515000000000000000003E4551453E003E6B6FE0
:105160006B3E001C3E7C3E1C00183C7E3C18003010
:10517000367F363000185C7E5C18000000000000AE
:10518000000000000000000000000000000000001F
:1051900000000030484A360E000629792906000032
:1051A0000000000000607E0A353F002A1C361C2AE1
:1051B00000007F3E1C0800081C3E7F000014367F64
:1051C000361400005F005F000006097F017F0022A7
:1051D0004D5559220060606060000014B6FFB6149F
:1051E0000004067F06040010307F30100008083EDF
:1051F0001C0800081C3E0808007840404040000899
:105200003E083E0800303C3F3C3000030F3F0F0398
:105210000000000000000000065F06000007030019
:10522000070300247E247E2400242B6A12000063DE
:10523000130864630036495620500000070300003D
:1052400000003E4100000000413E000000083E1CFE
:105250003E080008083E08080000E0600000000862
:105260000808080800006060000000201008040220
:10527000003E5149453E0000427F400000625149D6
:105280004946002249494936001814127F10002F60
:1052900049494931003C4A49493000017109050337
:1052A00000364949493600064949291E00006C6C00
:1052B00000000000EC6C00000008142241000024F3
:1052C0002424242400004122140800020159090664
:1052D000003E415D551E007E1111117E007F49493F
:1052E0004936003E41414122007F4141413E007F1D
:1052F00049494941007F09090901003E4149497A6C
:10530000007F0808087F0000417F410000304040D6
:10531000403F007F08142241007F40404040007F12
:105320000204027F007F0204087F003E4141413EAB
:10533000007F09090906003E4151215E007F0909ED
:1053400019660026494949320001017F0101003FE9
:105350004040403F001F2040201F003F403C403F56
:1053600000631408146300070870080700714945BA
:10537000430000007F4141000002040810200000AB
:1053800041417F000004020102048080808080800F
:10539000000003070000002054545478007F444468
:1053A000443800384444442800384444447F00389A
:1053B0005454540800087E0909000018A4A4A47CD1
:1053C000007F040478000000007D400000408084DD
:1053D0007D00007F102844000000007F4000007C1A
:1053E00004180478007C04047800003844444438ED
:1053F00000FC444444380038444444FC00447844AD
:10540000040800085454542000043E442400003C86
:1054100040207C00001C2040201C003C6030603C90
:10542000006C10106C00009CA0603C0000645454A0
:105430004C0000083E4141000000007700000000E1
:1054400041413E08000201020100003C2623263CA7
:10545000001EA1E12112003D40207D00003854547F
:105460005509002055555578002055545578002091
:1054700055555478002057555778001CA2E2221445
:1054800000385555550800385554550800385555BD
:1054900054080000017C41000000017D4100000033
:1054A000017C400000702924297000782F252F7876
:1054B000007C545455450034547C5458007E097F78
:1054C000494900384545390000384544390000391C
:1054D00045443800003C41217D00003D41207C00D6
:1054E000009CA1603D00003D42423D00003C414027
:1054F0003D0080706858380400483E494962007E8B
:10550000615D433F0022140814220040887E090296
:105510000020545555780000007D41000038444576
:105520003900003C40217D00007A090A7100007AB0
:105530001122790000085555555E004E51514E001C
:105540000030484D40203E415D4B553E040404046C
:10555000041C0017084C6A50001708342A78000011
:10556000307D3000000814000814001408001408EE
:10557000441144114411AA55AA55AA55BBEEBBEEDD
:10558000BBEE000000FF0000080808FF00000070EC
:105590002825297000702925297000702925287078
:1055A0003E415D55413E0AFB00FF000000FF00FF49
:1055B00000000AFA02FE00000A0B080F00000018A3
:1055C0002466240000292A7C2A29080808F80000FB
:1055D0000000000F08080808080F0808080808F865
:1055E0000808000000FF080808080808080808085C
:1055F00008FF080800205655567900702A252A71A0
:10560000000F080B0A0A00FE02FA0A0A0A0B080B2E
:105610000A0A0AFA02FA0A0A00FF00FB0A0A0A0A40
:105620000A0A0A0A0AFB00FB0A0A005D2222225D1E
:1056300000225559300000087F49413E007C5555F5
:105640005544007C55545544007C55555444000045
:10565000000700000000447D45000000457D450036
:105660000000457C45000808080F0000000000F815
:105670000808FFFFFFFFFFFFF0F0F0F0F0F0000080
:10568000007700000000457D44000F0F0F0F0F0F43
:10569000003C42433D0000FE4A4A34000001314ACA
:1056A0003C02003D43423C000032494A31001C228A
:1056B00022261A02FF2020103F2000FEAA281000F8
:1056C000000C12FF120C003C40413D00003C4141E7
:1056D0003D00003D41403C00009CA0613D000004B5
:1056E0000871090400000202020000000703000024
:1056F0000000080808000000242E240000242424B0
:10570000242405170A342A780006097F017F002225
:105710004D5559220008082A0808000008181800EA
:105720000006090906000000080008000000080043
:10573000000000020F00000000090F050000000932
:105740000D0A0000003C3C3C3C0000000000000052
:1057500000000000000000003800380038000000A1
:1057600000000000000000000000081F0401020605
:105770000101009E04402A202A102A08100400007B
:10578000000007F81FFE1E063303318330C3306369
:105790003033181E1FFE07F8000000000000300C18
:1057A000300C300E3FFF3FFF300030003000000073
:1057B0000000301C381E3C073E033703338331C3DF
:1057C00030E33077303E301C00000C0C1C0E3807E4
:1057D00030C330C330C330C330C339E71F7E0E3C03
:1057E000000003C003E003700338031C030E03072B
:1057F0003FFF3FFF0300030000000C3F1C7F3863A6
:105800003063306330633063306338E31FC30F832A
:1058100000000FC01FF039F830DC30CE30C730C385
:1058200030C339C31F800F000000000300030003D2
:1058300030033C030F0303C300F3003F000F0003DA
:1058400000000F001FBC39FE30E730C330C330C347
:1058500030E739FE1FBC0F000000003C007E30E73F
:1058600030C330C338C31CC30EC307E703FE00FCBC
:1058700000000E001E003800300030003000300004
:1058800038001FFF07FF0000000200030007001F91
:1058900038FF3FFC1FC000E0007C001F0007000134
:1058A00000000008003E006700C31CC03FFE1CC390
:1058B00000C30067003E0008000000000000001E5A
:1058C000003F00330033003F001E000000000000D6
:1058D0000004004800010208000000000014004815
:1058E0000100070003000000001400480200070147
:1058F0000300000000000048010004000000000058
:105900000000004802000101000000000000004803
:105910000400040200000000000000480800020328
:10592000000000000000004810000004000000001B
:1059300000000048200006050400000000000048A8
:10594000400004060000000000000048800002073C
:1059500001000000000400480200020101000000F4
:10596000000000480008010B000000000000004893
:105970000010010C000000001948006801210143DB
:105980001748016017480068174901401548016031
:10599000134800681549014011480160104800682B
:1059A000134901400E4801600E480068114901404A
:1059B0000C480160104800680F2188430E490860B8
:1059C0000E4800680E4901400C4801600D4800680F
:1059D000012188430B49086000200B49086070478B
:1059E00000100240041002400CB8FF08FFFFF6FE52
:1059F000FFFFFBFFFFFFC0FF2C10024030100240F2
:105A00002CFEFFFF3410024008100240094880F3CA
:105A1000088804200168090E1F22914205D106481A
:105A200001210160054800210160054880470548C3
:105A30000047000008040020181002400000014048
:105A400079590008C15F000870B40121002213E0F9
:105A50000468001D0C4202D04D466D1E6419226080
:105A6000241D1B1F042BFAD225009E0701D522807E
:105A7000AD1C0B4000D02A700368001D002BE7D13D
:105A800070BC704730B401210268001D002A0FD09D
:105A90000368C318446808300C4202D04D466D1E9E
:105AA00064191D6825601B1D241D121FECD0F8E72A
:105AB00030BC7047E05A0008305E0008B05B000858
:105AC000305E000800000000350B0008526F6C6C5F
:105AD00020677261706820626F72646572000000F6
