:020000040800F2
:1000000018040020DD650008535700081F58000839
:1000100000000000000000000000000000000000E0
:10002000000000000000000000000000535800081D
:100030000000000000000000535900087D65000822
:10004000FB5900082F5A0008C75A0008CB65000862
:10005000F76A0008036B0008556C0008576C00082D
:10006000596C00085B6C0008896500085D6C00082D
:100070005F6C0008616C0008636C0008656C000828
:10008000676C00080000000000000000696C0008B8
:10009000000000006B6C00086D6C0008996500089A
:1000A000000000006F6C0008716C0008736C0008A1
:1000B000756C000800000000776C0008C965000836
:1000C00010B50400002C01D101205BE04120205C30
:1000D000002805D1002040216054200001F087F95C
:1000E0002420412160542068006801218843216850
:1000F0000860606885490140206801612068806867
:100100008349014020688160A06800280FD0E06822
:10011000012806D1A068802109020143206881607E
:1001200005E0A06884210902014320688160E0683D
:10013000022803D1802000012168486020684068BF
:100140007449014320684160206961690143A069E5
:10015000000208432168C860E069216A0143206801
:1001600001602068006801210143206801600020CF
:10017000606420204121605400202063002042213F
:100180006054002010BDFEB504000E00089F00253D
:100190004120205C202800D0B5E04020205C0128D0
:1001A00001D10220B0E001204021605401F0A6F905
:1001B000050000951923012280210902200000F08A
:1001C0003DFF002801D003209EE021204121605402
:1001D00010204221605400206064019860626846EB
:1001E0000089608500206063608DFF280ED9FF20A4
:1001F000208580208001009080235B04228DD2B274
:10020000310089B2200001F01BF80DE0608D2085DF
:1002100080208001009080239B04228DD2B2310087
:1002200089B2200001F00CF8608D002849D02A0026
:100230003900200000F02BFF002806D0606C042855
:1002400001D1012060E003205EE0606A411C616230
:10025000007821688862608D401E6085208D401E78
:100260002085208D0028DFD1608D0028DCD000950E
:100270003B0000228021200000F0E0FE002801D099
:10028000032041E0608DFF280DD9FF20208500204C
:10029000009080235B04228DD2B2310089B220000D
:1002A00000F0CEFFC0E7608D208500200090802305
:1002B0009B04228DD2B2310089B2200000F0C0FF31
:1002C000B2E72A003900200000F00EFF002806D017
:1002D000606C042801D1012016E0032014E02020E6
:1002E0002168C861206840686C490140206841600D
:1002F00020204121605400204221605400204021F0
:100300006054002000E00220FEBD0000FFFFFFF06F
:10031000FF7FFFFF00800002FEB504000E00089F73
:1003200000254120205C202800D0B5E04020205C42
:10033000012801D10220B0E001204021605401F0E9
:10034000DDF8050000951923012280210902200013
:1003500000F074FE002801D003209EE022204121FD
:100360006054102042216054002060640198606253
:1003700068460089608500206063608DFF280ED983
:10038000FF20208590208001009080235B04228D37
:10039000D2B2310089B2200000F052FF0DE0608D32
:1003A000208590208001009080239B04228DD2B272
:1003B000310089B2200000F043FF608D002849D051
:1003C0002A003900200000F0B8FE002806D0606C3A
:1003D000042801D1012060E003205EE0606A411C36
:1003E00061622168496A0170208D401E2085608D00
:1003F000401E6085208D0028DFD1608D0028DCD074
:1004000000953B0000228021200000F017FE00280C
:1004100001D0032041E0608DFF280DD9FF20208509
:100420000020009080235B04228DD2B2310089B27B
:10043000200000F005FFC0E7608D208500200090BF
:1004400080239B04228DD2B2310089B2200000F0BB
:10045000F7FEB2E72A003900200000F045FE002830
:1004600006D0606C042801D1012016E0032014E0BE
:1004700020202168C8612068406808490140206840
:10048000416020204121605400204221605400201E
:1004900040216054002000E00220FEBD00E800FE84
:1004A000F8B582B004000F00160000254120205C42
:1004B000202878D120688069000401D5022073E0EB
:1004C0004020205C012801D102206DE00120402164
:1004D00060542120412160541020422160540020AA
:1004E000606466626846008960853048E062314831
:1004F0006063608DFF2805D9FF202085802040049F
:10050000050004E0608D2085802080040500208D9A
:10051000002831D02848A16B88622848A16B086365
:100520000020A16BC8620020A16B4863238D206866
:10053000020028323100A06B01F015F88020800104
:1005400000902B00228DD2B2390089B2200000F039
:1005500077FE608D218D401A608500204021605417
:100560001121200000F083FE206800688021C9016D
:1005700001432068016014E00D4860638020800121
:10058000009080239B04228DD2B2390089B22000D2
:1005900000F056FE0020402160540121200000F0B0
:1005A00066FE002000E00220FEBD00000000FFFF0C
:1005B0004D060008ED0800087B0F0008E10F000859
:1005C00070B504002068866920680568606B0028A3
:1005D00004D02A0031002000636B984770BD70B5CD
:1005E00004002068866920680568F00509D528069A
:1005F00007D5606C012101436164802040002168BF
:10060000C861700509D5280607D5606C082101432B
:1006100061648020C0002168C861B00509D5280642
:1006200007D5606C0221014361648020800021684D
:10063000C861606C0B210140002903D0616C20006F
:1006400000F008FC70BD4121405C7047F8B5040023
:100650000D00160000274020205C012801D1022057
:10066000A8E0012040216054E8060CD5F0060AD528
:1006700010202168C861606C04210143616420007E
:1006800000F068FC8AE068070ED570070CD5606A38
:10069000411C61622168496A0170208D401E2085DD
:1006A000608D401E608579E0A8070ED5B0070CD597
:1006B000606A411C6162007821688862208D401E5A
:1006C0002085608D401E608568E0280647D570064D
:1006D00045D5208D002835D1608D002832D0206886
:1006E00040688005800D0700608DFF280DD9FF2030
:1006F00020850020009080235B04228DD2B2390037
:1007000089B2200000F09CFD48E0608D2085E06A01
:10071000754988420AD000200090E36A228DD2B247
:10072000390089B2200000F08BFD37E000200090F6
:1007300080239B04228DD2B2390089B2200000F0C0
:100740007FFD2BE020684068800103D4200000F08A
:10075000F9F923E04021200000F07CFB1EE0680650
:100760001CD570061AD5608D002813D1206840680A
:10077000800113D4E06A5C49884207D12068406850
:100780008021C90101432068416007E0200000F09A
:10079000D9F903E04021200000F05CFBA80605D554
:1007A000B00603D52900200000F026FA00204021E1
:1007B00060540020F2BD70B504000D00160040200A
:1007C000205C012801D102208CE0012040216054EE
:1007D000E80635D5F00633D5608D002828D1E06ACB
:1007E00080218904884204D0E06A802189048842FB
:1007F00008D14120205C282804D12900200000F0E5
:10080000F3FA63E0E06A384988420DD04120205C69
:10081000292809D110202168C861200000F09AFB26
:10082000200000F0BCF951E010202168C8614DE0C3
:1008300010202168C861606C04210143616445E0B7
:1008400068071BD5700719D5608D00280BD0606A2A
:10085000411C61622168496A0170208D401E20851B
:10086000608D401E6085608D00282FD1E06A1E4992
:1008700088422BD0200000F092F927E0280706D507
:10088000300704D52900200000F0E9F81EE0A80791
:100890001CD5B0071AD5608D00280CD0606A411CA9
:1008A0006162007821688862608D401E6085208DBD
:1008B000401E20850AE0E06A80214904884202D077
:1008C000E06A002802D1200000F069F9A80605D5E9
:1008D000B00603D52900200000F0FAF900204021DD
:1008E0006054002070BD00000000FFFFF0B583B031
:1008F00004000E0017000020694688800025402073
:10090000205C012801D1022069E0012040216054CF
:10091000F00610D5F8060ED510202168C861606C6D
:100920000421014361641221200000F0A0FC20009A
:1009300000F010FB4FE0300645D5780643D520681F
:1009400000684021884321680860608D002835D008
:100950006846216849688905890D8180608DFF2876
:1009600005D9FF20208580204004050004E0608D2B
:100970002085802080040500002000902B00228D1F
:10098000D2B268468188200000F05AFC608D218D2B
:10099000401A60854120205C222807D12068006829
:1009A0008021090201432068016014E0206800688A
:1009B0008021C9010143206801600CE04021200032
:1009C00000F048FA07E0B00605D5B80603D53100B7
:1009D000200000F011F90020402160540020FEBDED
:1009E00070B504000D0016004020205C012801D1E4
:1009F000022033E0012040216054E8061AD5F006B9
:100A000018D54120205C212803D1A06B00684068E4
:100A100002E0E06B00684068002803D110202168E4
:100A2000C86117E010202168C861606C042101438F
:100A300061640FE0280705D5300703D50820216839
:100A4000C86107E0A80605D5B00603D52900200037
:100A500000F03EF9002040216054002070BDF2B546
:100A600082B0040000260025002700206946088087
:100A70004120205C2821014028295CD12068806920
:100A8000000C0100C907C90F0E0020688069000C26
:100A9000FE2101400D00206880688005800D070060
:100AA00068462168C968FE220A400280E068022880
:100AB00032D1ADB206202840390089B2C9090622D8
:100AC0000A40904216D13D00A06C401CA064A06C6E
:100AD000022836D10020A06408202168C8610020C7
:100AE000402160542A0092B23100C9B2200000F0C7
:100AF000EDFE26E06846008805000421200000F095
:100B000009FC0020402160542A0092B23100C9B291
:100B1000200000F0DBFE14E00421200000F0FAFBCE
:100B20000020402160542A0092B23100C9B2200056
:100B300000F0CCFE05E008202168C86100204021BB
:100B40006054F7BD10B504000020422160544120DC
:100B5000205C212811D120204121605411202063E4
:100B6000002060630121200000F0D4FB0020402120
:100B70006054200000F0ABFE10E0202041216054C2
:100B800012202063002060630221200000F0C2FBDD
:100B9000002040216054200000F09AFE10BD10B5E6
:100BA00004000020422160544120205C29280FD1FC
:100BB000282041216054212020630121200000F0E1
:100BC000A9FB002040216054200000F082FE12E0CA
:100BD0004120205C2A280ED1282041216054222067
:100BE00020630221200000F095FB0020402160548A
:100BF000200000F06FFE10BD38B504000D0020206D
:100C00002168C861206840689149014020684160BE
:100C10000020206300206063CD48E062E80606D52E
:100C200010202168C861606C0421014361642000C8
:100C300000F090F90321200000F06CFB606C0028AC
:100C400003D14120205C602804D1616C200000F0B9
:100C500001F93CE04120205C21281AD120204121CB
:100C600060544220205C402809D100204221605479
:100C7000002040216054200000F02DFE27E00020DD
:100C800042216054002040216054200000F01FFEEB
:100C90001DE04120205C222819D1202041216054F0
:100CA0004220205C402809D10020422160540020CD
:100CB00040216054200000F00FFE08E00020422197
:100CC0006054002040216054200000F001FE31BD3E
:100CD00038B504000D0020202168C8610820216873
:100CE000C8610721200000F015FB206840688021C2
:100CF000090201432068416020684068544901406E
:100D000020684160200000F025F920680068400458
:100D100003D42068006800040BD54120205C212802
:100D200003D1A06B0068406802E0E06B0068406897
:100D30006085608D002803D0606C042101436164EC
:100D4000680712D5606A411C61622168496A0170B6
:100D5000208D002809D0208D401E2085608D401EEA
:100D60006085606C042101436164002020630020E1
:100D70004221605400206063606C00280CD0616CDC
:100D8000200000F067F84120205C28282BD12900A2
:100D9000200000F029F826E0E06A8D4988420BD057
:100DA0008B48E062202041216054002040216054A3
:100DB000200000F092FD16E04120205C222809D19D
:100DC000202041216054002040216054200000F088
:100DD00081FD08E020204121605400204021605422
:100DE000200000F076FD31BD38B504000D007848D4
:100DF000E062002020632020412160540020422135
:100E0000605400206063680712D5606A411C61620B
:100E10002168496A0170208D002809D0208D401E6C
:100E20002085608D401E6085606C042101436164F3
:100E30000721200000F06EFA10202168C861002010
:100E400040216054200000F048FD31BD000000004A
:100E500000E800FE38B504000D0000204221605477
:100E60003B48E06200206085606C2843606441205C
:100E7000205C282807D04120205C292803D041206D
:100E8000205C2A280BD10321200000F043FA2820FF
:100E900041216054002020634E4860630EE007212A
:100EA000200000F037FA4120205C602802D020208A
:100EB00041216054002020630020606320680068A6
:100EC000400415D52068006843490140206801604E
:100ED0004248A16B4863002040216054A06B00F0A1
:100EE00079FB002832D0A06BA16B496B88472DE0BD
:100EF00020680068000415D520680068AF490140EB
:100F0000206801603548E16B48630020402160544F
:100F1000E06B00F05FFB002818D0E06BE16B496BE1
:100F2000884713E04120205C602809D1202041211E
:100F30006054002040216054200000F0CFFC05E008
:100F4000002040216054200000F0C9FC31BD0000A9
:100F50000000FFFF00B501688969890702D50021FB
:100F60000268916201688969C90705D401688969C5
:100F700001220A4301688A6100BD38B505006C6A28
:100F8000206800681449014020680160608D0028D5
:100F900004D11221200000F06AF917E0606A218D67
:100FA00040186062608DFF2802D9FF20208501E093
:100FB000608D2085238D206802002832616AA06B35
:100FC00000F0D1FA1221200000F051F931BD0000EB
:100FD0000000FFFFB7070008FFBFFFFFFF0F00087B
:100FE00038B50400656A2868406880210902014319
:100FF0002868416010212800FFF72CFF31BD38B56B
:101000000400656A28684068802109020143286855
:1010100041600020A96B48630020E96B48634120D0
:10102000285C602806D1202041216854280000F067
:1010300055FC02E0280000F052FC31BDF4B504007C
:101040000F001D00069E206880693840B84201D11B
:10105000012000E0002069460978884215D100206F
:10106000C0438542EFD0002D04D000F047FA801B2A
:101070008542E8D220204121605400204221605462
:10108000002040216054032000E00020F2BD70B534
:1010900004000D00160020688069800722D4320009
:1010A0002900200000F08CF8002801D001201AE06F
:1010B0000020C0438542EED0002D04D000F01EFA7F
:1010C000801B8542E7D2606C2021014361642020AF
:1010D000412160540020422160540020402160548E
:1010E000032000E0002070BD70B504000D00160064
:1010F0002068806980061ED432002900200000F09C
:101100005FF8002801D0012016E0002D04D000F087
:10111000F5F9801B8542EBD2606C202101436164AC
:1011200020204121605400204221605400204021B1
:101130006054032000E0002070BD70B504000D0075
:10114000160020688069400735D43200290020004D
:1011500000F036F8002801D001202DE020688069D9
:10116000800615D520202168C8612068406865493F
:1011700001402068416000206064202041216054CB
:10118000002042216054002040216054012013E0DF
:10119000002D04D000F0B2F9801B8542D1D2606CE2
:1011A000202101436164202041216054002040211E
:1011B0006054032000E0002070BD0000FF7FFFFFAF
:1011C00070B504000D00160020688069C00635D592
:1011D00020688069800615D40020C0438542F7D07E
:1011E000002D04D000F08AF9801B8542F0D2202027
:1011F000412160540020422160540020402160546D
:1012000003201CE010202168C86120202168C861EB
:101210002000FFF79FFE206840683A49014020689F
:10122000416004206064202041216054002042215C
:101230006054002040216054012000E0002070BD77
:10124000F0B4049C00250668766835002E002E4D0B
:1012500035402F0089B28E05B60DD2B21504354344
:101260001D4325433D4306687560F0BC704710B5CB
:1012700002000023506B254CA04203D0506B244C3D
:10128000A0421ED189B2480702D51800B8230343F3
:1012900089B211200840112802D11800902303437D
:1012A00089B212200840122802D1180020230343DB
:1012B00089B21220084012281DD118004023034390
:1012C00019E089B2480702D51800B823034389B250
:1012D000C80702D51800F223034389B2880702D554
:1012E0001800F423034389B212200840122802D1C7
:1012F0001800202303431068006818431468206016
:10130000002010BD00E800FE009800FCED08000879
:10131000E109000810B50200002389B2C8070BD507
:101320001800422303434120105C28240440282C49
:1013300002D01800B023034389B288070BD51800E8
:10134000442303434120105C28240440282C02D06D
:101350001800B023034389B2480702D51800B82308
:10136000034389B211200840112802D118009023AC
:10137000034389B212200840122802D1180020230A
:10138000034389B212200840122802D118004023DA
:10139000034310680068984314682060002010BD63
:1013A00080B54D480068012101434B4801604A481F
:1013B00000680100C907C90F0091009800220021B0
:1013C0000420C04300F0EEFA002200210120C043B7
:1013D00000F0E8FA002200210020C04300F0E2FA09
:1013E0003E480068102101433C48016001BD10B532
:1013F00086B0040020683A4988426BD103200190EE
:1014000012200290012003900320049001200590F7
:1014100001A9344800F004FB3348006880218903A7
:101420000143314801603048006880218903084049
:10143000009000982D482E49086000202C494860F3
:1014400000202B49886080202949C8600020284955
:1014500008610020264948610020254988618020D4
:1014600080012349C861224800F04EF8002801D0CD
:1014700000F016FC1E48E0631D4844621D481E49EA
:10148000086010201C49486000201B4988608020AB
:101490001949C860002018490861002016494861B0
:1014A000002015498861802040011349C861124815
:1014B00000F02AF8002801D000F0F2FB0E48A063EB
:1014C0000D48446200220021172000F06BFA17201B
:1014D00000F072FA06B010BD181002400000014082
:1014E00000540040001400481C100240300002402C
:1014F0007C0900201C000240B80900200148006857
:10150000704700BF700A002000B5010000220029CA
:1015100001D1012026E02120085C002802D1002012
:101520002023C85402202123C85408680068020000
:1015300010004B4A024010004A688B681343CA6887
:101540001A430B6913434A691A438B691343CA69E7
:101550001A430243086802600020886301202123A7
:10156000C854002000BDF8B504000F0016001D008F
:101570002020205C012801D102202AE00120202126
:1015800060540220212160542068006801218843B2
:10159000216808602B0032003900200000F086F935
:1015A000206800680221014320680160206800680B
:1015B000042101432068016020680068082101437C
:1015C00020680160206800680121014320680160F3
:1015D0000020F2BD38B5040000252120205C02283F
:1015E00004D00420A0630120050035E020680068D5
:1015F0000E21884321680860206800680121884323
:101600002168086020681749884201D1012015E04F
:1016100020681549884201D110200FE02068134945
:10162000884202D18020400008E0206810498842AA
:1016300002D18020400101E0802040020D49086075
:10164000012021216054002020216054606B00287B
:1016500002D02000616B88472800C0B232BD000074
:101660000FC0FFFF080002401C0002403000024093
:10167000440002400400024010B5040085480068A0
:101680002168854A914201D1082115E02168834AE9
:10169000914201D180210FE02168814A914202D11B
:1016A0008021090108E021687E4A914202D180210F
:1016B000090201E0802109030140002937D0206898
:1016C0000068000733D52068006808218843216836
:1016D000086020687049884201D1082015E0206820
:1016E0006E49884201D180200FE020686C49884211
:1016F00002D18020000108E020686A49884202D1B6
:101700008020000201E08020000367490860A06B90
:1017100001210143A16304202121605400202021E4
:101720006054206B002802D02000216B8847594864
:1017300000682168584A914201D1042115E02168CE
:10174000564A914201D140210FE02168544A91420A
:1017500002D18021C90008E02168524A914202D199
:101760008021C90101E08021C9020140002934D053
:1017700020680068400730D520680068800605D4DE
:101780002068006804218843216808602068424975
:10179000884201D1042015E020684049884201D1E7
:1017A00040200FE020683E49884202D18020C000DE
:1017B00008E020683B49884202D18020C00101E056
:1017C0008020C00238490860112021216054E06A5D
:1017D000002802D02000E16A88472E48006821686E
:1017E0002D4A914201D1022115E021682B4A9142F4
:1017F00001D120210FE02168294A914202D18021A4
:10180000890008E02168274A914202D1802189019C
:1018100001E0802189020140002939D02068006858
:10182000800735D520680068800605D420680068E8
:10183000022188432168086020681749884201D145
:10184000022015E020681549884201D120200FE0D0
:1018500020681349884202D18020800008E0206877
:101860001049884202D18020800101E0802080025E
:101870000D490860A06BA063012021216054002065
:1018800020216054A06A002802D02000A16A884765
:1018900010BD000000000240080002401C00024091
:1018A00030000240440002400400024010B50468C9
:1018B00063604468102C04D10468A2600468E1608D
:1018C00003E00468A1600468E26010BD70477047DF
:1018D0007047704770477047704770477047704750
:1018E0000121C206D20E9140424A11607047F0B504
:1018F00040B2002821D5404C40B20207120F083AEE
:101900009508042255433C4A40B203071B0F083B8D
:101910009B0804267343D258FF238607B60F082777
:101920007E43B3409A438B01DBB28607B60F08278C
:101930007E43B340134363511AE0304A40B28308F8
:1019400004246343D258FF238407A40F08256C4363
:10195000A3409A438B01DBB28407A40F08256C4394
:10196000A3401343254A40B2840804256C43135115
:10197000F0BD10B50400601E80214904884201D3E7
:1019800001200EE0601E1E49086003210020C043B4
:10199000FFF7ADFF00201B49086007201A490860C7
:1019A000002010BD70B504000D00160029002000B5
:1019B00040B2FFF79CFF70BD10B50400200040B29C
:1019C000FFF78EFF10BD10B504002000FFF7D1FF18
:1019D00010BD00B5042806D10B49096804220A434A
:1019E00009490A6005E00849096804229143064A4A
:1019F000116000BD00E100E01CED00E000E400E04B
:101A000014E000E018E000E010E000E080B500F035
:101A100001F801BD70470268531C036011707047E4
:101A2000F8B502000023002400250868D8400028EB
:101A300000D1DAE0086801269E4006403400002C00
:101A400000D1D0E04868022802D0486812281BD193
:101A5000D808042670431018006A05000F201E00E5
:101A60007607760F04277E43B040854308691E0041
:101A70007607760F04277E43B04028430500D80838
:101A800004267043101805621068050003201E002C
:101A900002277E43B040854308798007800F1E00EF
:101AA00002277E43B040284305001560486801289E
:101AB00008D04868022805D04868112802D0486834
:101AC00012281CD19068050003201E0002277E43C7
:101AD000B0408543C8681E0002277E43B0402843BB
:101AE00005009560506805000120984085434868CE
:101AF0000600F606F60F9E402E4335005560D0686E
:101B0000050003201E0002277E43B04085438868FD
:101B10001E0002277E43B04028430500D560486878
:101B2000C00060D531480068012606432F48066092
:101B30002E4800680600F607F60F009600982C481D
:101B40009E0804277E43805905000F201E00B6071B
:101B5000B60F04277E43B04085439020C0058242E3
:101B600001D100200AE02348824201D1012005E092
:101B70002148824201D1022000E005201E00B60764
:101B8000B60F04277E43B0402843050018489E083E
:101B900004277E438551194800680500A54348681D
:101BA000C00300D5254315480560154800680500A9
:101BB000A5434868800300D52543114805601148B6
:101BC00000680500A5434868C00200D525430D48BC
:101BD00005600D4800680500A5434868800200D5EF
:101BE0002543094805605B1C1FE7F1BD1810024042
:101BF00008000140000400480008004800040140BB
:101C000004040140080401400C04014000B597B0F1
:101C100032200A9001200D900120129001200F9097
:101C200010200E9010201090002013900AA800F0B1
:101C300039F8002801D000F033F807200090032085
:101C4000019000200290002003900121684600F0DE
:101C5000E7FA002801D000F023F810480490002093
:101C600007900020099004A800F024FC002801D06F
:101C700000F016F800F004FCFA21890000F0EBFCFB
:101C8000FFF7A1FE0420FFF7A4FE002200210020A0
:101C9000C043FFF787FE17B000BD00002000020020
:101CA00000B5FEE770B582B0040000252078C007BB
:101CB00075D5B04800680C21014004290ED0AD480C
:101CC00000680C210140082911D1AA480068C021F0
:101CD0004902014080204002814208D1BD4800688D
:101CE00080035CD56068002859D101208CE26068CF
:101CF000012807D1B7480068802149020143B5484F
:101D000001602DE0606800280CD1B2480068B2493B
:101D10000140B0480160AF480068B0490140AD489B
:101D200001601DE0606805280ED1AA480068802186
:101D3000C9020143A7480160A64800688021490202
:101D40000143A44801600BE0A2480068A249014099
:101D5000A04801609F480068A04901409D4801607B
:101D6000606800280DD0FFF7C9FB0500994800689E
:101D7000800314D4FFF7C2FB401B6528F6D3032071
:101D800042E2FFF7BBFB050092480068800306D5DE
:101D9000FFF7B4FB401B6528F6D3032034E220781C
:101DA00080075CD5734800680C21014000290ED0E3
:101DB000704800680C21014008291BD16D4800685B
:101DC000C0214902014080200002814212D1814895
:101DD0000068800704D5E068012801D0012013E2E3
:101DE0007C480068F82188432169C900014379488B
:101DF000016034E0E06800281DD0764800680121C9
:101E0000014374480160FFF779FB050071480068E1
:101E1000800706D4FFF772FB401B0328F6D303208C
:101E2000F2E16C480068F82188432169C900014348
:101E30006848016013E067480068012188436549EC
:101E40000860FFF75BFB050062480068800706D565
:101E5000FFF754FB401B0328F6D30320D4E120787E
:101E600000072AD5E069002813D0B5480068012191
:101E70000143B3480160FFF741FB0500B04800682B
:101E800080071AD4FFF73AFB401B0328F6D3032040
:101E9000BAE1AB48006801218843A9490860FFF70F
:101EA0002DFB0500A6480068800706D5FFF726FB36
:101EB000401B0328F6D30320A6E12078400700D476
:101EC00097E000269F480068C0000FD49D48006836
:101ED0008021490501439B4801609A4800688021A0
:101EE00049050840009000980120060096480068C7
:101EF000C00514D4944800688021490001439248E9
:101F00000160FFF7FBFA05008F480068C00506D4A2
:101F1000FFF7F4FA401B6528F6D3032074E1A068AC
:101F2000012806D1B948006801210143B748016082
:101F30002EE0A06800280CD1B44800680121884335
:101F4000B2490860B148006804218843AF4908607D
:101F50001EE0A06805280FD1AC48006804210143A9
:101F6000AA480160A948006801210143A74801600F
:101F70000EE000BF04100240A4480068012188431D
:101F8000A2490860A1480068042188439F4908606D
:101F9000A06800280ED0FFF7B1FA05009B48006842
:101FA00080071DD4FFF7AAFA401B99498842F5D350
:101FB000032029E1FFF7A2FA050094480068800792
:101FC0000ED5FFF79BFA401B91498842F5D30320B9
:101FD0001AE100BF00100240FFFFFEFFFFFFFBFF02
:101FE000F6B2012E05D1574800688A49014055488C
:101FF00001602078C00655D56069012823D1864844
:10200000006804210143844801608348006801217D
:10201000014381480160FFF771FA05007E480068BE
:10202000800706D4FFF76AFA401B0328F6D3032083
:10203000EAE079480068F8218843A169C9000143B2
:10204000754801602EE060690421C94388420FD1C0
:1020500071480068042188436F4908606E48006831
:10206000F8218843A169C90001436B48016019E068
:1020700069480068042101436748016066480068B8
:102080000121884364490860FFF738FA0500624877
:102090000068800706D5FFF731FA401B0328F6D306
:1020A0000320B1E02078800650D55C4800680C2100
:1020B00001400C290ED0594800680C210140082924
:1020C00011D156480068C02149020140C020400299
:1020D000814208D150480068C00337D5206A0128E2
:1020E00034D0012090E0206A002814D04A480068CB
:1020F00080214902014348480160FFF7FFF90500CC
:1021000045480068C00321D4FFF7F8F9401B0328B5
:10211000F6D3032078E040480068A64901403E48D5
:102120000160FFF7EBF905003B480068C0030DD5DF
:10213000FFF7E4F9401B0328F6D3032064E000BF57
:10214000241002401C10024000700040606A002809
:1021500059D0324800680C210140082951D0606AEA
:1021600002283AD19548006893490140934801609C
:10217000FFF7C4F9050091480068800106D5FFF714
:10218000BDF9401B0328F6D303203DE08C480068CE
:102190000F218843216B0143894801601F48006873
:1021A00088490140E06A0843A16A01431B48016075
:1021B0008248006880214904014380480160FFF79C
:1021C0009DF905007D48006880011CD4FFF796F951
:1021D000401B0328F6D3032016E0784800687649B0
:1021E000014076480160FFF789F9050073480068EF
:1021F000800108D5FFF782F9401B0328F6D303209E
:1022000002E0012000E0002076BD00002010024026
:1022100089130000FFFFFFEF34100240041002405A
:1022200070B505000C000026674800680100C9076A
:10223000C90FA1420FD2644800680121884320439E
:1022400061490860604800680100C907C90FA142E0
:1022500001D00120ACE02878800707D58A480068C3
:10226000F0218843A9680143874801602878C007A6
:102270006CD56868012805D150480068800319D4DE
:10228000012095E06868022805D14C48006880016B
:1022900010D401208CE06868032805D17B480068D1
:1022A000C00307D4012083E044480068800701D4BC
:1022B00001207DE074480068032188436968014378
:1022C00071480160FFF71AF90600686801280DD10E
:1022D0006D4800680C210140042937D0FFF70EF942
:1022E000801B6B498842F3D3032061E068680228B1
:1022F0000DD1654800680C210140082926D0FFF760
:10230000FDF8801B62498842F3D3032050E06868DF
:1023100003280DD15C4800680C2101400C2915D020
:10232000FFF7ECF8801B5A498842F3D303203FE0C3
:10233000554800680C210140002907D0FFF7DEF85E
:10234000801B53498842F3D3032031E01E480068C4
:102350000100C907C90F8C420FD21B480068012138
:102360008843204318490860174800680100C907DE
:10237000C90FA14201D001201AE02878400707D5F3
:102380004148006843490140E86808433E49086005
:1023900000F01CF840493C4A126812091207120F5B
:1023A000895CC8403D490860002000F0ABF900207E
:1023B00070BD0000FFFFFEFFFFFFFFFE00100240A8
:1023C0002C100240FF7FC2FF00200240F0B589B010
:1023D00005A83349102200F0BBF901A831491022A9
:1023E00000F0B6F900240020009000250026002708
:1023F0002548006804000C202040042804D0082848
:1024000005D00C2834D036E02748070035E005A871
:10241000A10C0907090F405C060001A823490968BF
:102420000907090F405C0090C02040022040802135
:102430004902884206D11C48009900F00CF970430B
:10244000050013E0C02040022040C021490288421C
:1024500006D11748009900F0FEF87043050005E02A
:102460001148009900F0F7F8704305002F0004E0D0
:102470000F48070001E00C480700380009B0F0BD24
:102480000648006870470000041002403410024003
:1024900089130000FFF8FFFFD06B00081000002038
:1024A000B06B0008C06B000800127A002C100240CC
:1024B000006CDC02F8B50400002500262068C0038B
:1024C00071D500274F480068C0000FD44D48006800
:1024D0008021490501434B4801604A48006880213A
:1024E0004905084000900098012007004648006810
:1024F000C00514D444480068802149000143424883
:102500000160FEF7FBFF05003F480068C00506D4E8
:10251000FEF7F4FF401B6528F6D3032070E03B482C
:102520000068C021890001400E00002E2AD060689A
:10253000C021890001408E4224D0344800683449CB
:1025400001400E00314800688021490201432F48B4
:1025500001602E4800682F4901402C4801602B483B
:102560000660F0070ED5FEF7C9FF05002748006892
:10257000800707D4FEF7C2FF401B27498842F5D3E6
:1025800003203DE02148006821490140606808437C
:102590001E490860FFB2012F05D11A4800681F4983
:1025A0000140184801602078C00707D51C48006822
:1025B00003218843A16801431948016020788006FF
:1025C00007D51748006810218843E1680143144883
:1025D00001602068800307D5114800688021884386
:1025E000616901430E4801602068400507D50C4829
:1025F00000684021884321690143094801600020A7
:10260000F2BD00001C10024000700040201002408B
:10261000FFFCFFFFFFFFFEFF89130000FFFFFFEF3E
:1026200030100240F446002804D4494200F013F868
:10263000404260474042002905D45FD000F00BF8CB
:10264000404249426047494200F005F8494260472C
:1026500003460B43E6D40022030A8B420BD2030944
:102660008B4219D243088B422ED2411A00D2014626
:10267000524110467047FF2209023FD012068B429A
:1026800005D3121209028B4201D312120902030967
:102690008B4219D300E0090AC3098B4201D3CB0155
:1026A000C01A524183098B4201D38B01C01A524197
:1026B00043098B4201D34B01C01A524103098B429B
:1026C00001D30B01C01A5241C3088B4201D3CB0086
:1026D000C01A524183088B4201D38B00C01A524169
:1026E00043088B4201D34B00C01A5241884200D3A9
:1026F000401A5241CFD201461046704708B500F04B
:1027000041F808BD10B50400FFF7BAFEFA218900B0
:10271000FFF7A1FFFFF757F9002221000020C04377
:10272000FFF740F9002010BD124207D08B0706D0FA
:102730000B78491C0370401C521EF7D87047830762
:1027400006D00B78491C0370401C521EF9D170470B
:1027500070B4103A03D378C9103A78C0FBD253074B
:1027600001D318C918C001D508C908C0D20704D3BD
:102770000B880380891C801C002A01D50B7803700C
:1027800070BC704770471A00F1B5A4B014001F0068
:1027900014ADA9600020E8620AE0A868249A904776
:1027A000A860002800D1CBE2E86A401CE862641C03
:1027B0002178080001D1E86AC4E22529EDD1002082
:1027C0006861A861E86128626862A86202E00100AD
:1027D00001200843641C21782029F8D023290ED039
:1027E0002B2904D02D2907D030290BD00DE0010072
:1027F0000220084380B2EDE701000420F9E7010060
:102800000820F6E701001020F3E72A290FD13968E4
:1028100039600A68091D39606A63002A05D551428A
:10282000696301000420084380B2641C12E00021A7
:1028300069630AE06A6B774B9A4205D093009A1855
:102840005200511830396963641C21780A00303A0B
:102850000A2AEFD321782E2903D00021C943296306
:102860001EE0641C21782A2907D1396839600A687A
:10287000091D39602A63641C12E0002129630AE003
:102880002A6B644B9A4205D093009A185200511853
:1028900030392963641C21780A00303A0A2AEFD3C0
:1028A0002887267831005A487844FF30653000F098
:1028B000F0FD002801D0641C00E000263A202E54D0
:1028C000285C682804D12178682901D1622005E0BC
:1028D0006C2806D120786C2803D171203A216854E5
:1028E000641C05A828612678641C3000253824D093
:1028F0002038022800D8D4E0133800D1F6E00B3895
:1029000000D15DE1401E00D137E1401E022800D811
:10291000C7E0001F00D130E1401F00D193E0401E0E
:1029200000D1E3E0401E27D0C01E0BD0801E00D196
:10293000DCE0C01E00D1D9E04CE1252069460875D5
:10294000012051E1386838600168001D3860E96095
:102950002E6B002E03D5084600F0A5FD0AE03200DC
:102960000021E86800F0A7FD002802D0E968401ABD
:1029700000E03000A86138E1386838600268001D66
:1029800038600020C0430021104014AA03C205A8EB
:10299000E860286900903C2214A803C802AB03C376
:1029A00002A803C8002904D1002802D1286B0028FE
:1029B0001DD0521E02A803C80007000F3030C0B25D
:1029C0003A2800DB27300099885402A803C8000980
:1029D0000B071843090902AB03C302A803C801D1BE
:1029E000002804D0E868009989188842E1D33C2087
:1029F000801AA86100998918E960296B88420DDA6C
:102A0000081A2862288F044901402987EDE000BF99
:102A100038420000FFFFFF7FEFFF0000002900D4D5
:102A2000E3E03821695C14220A40102A00D0DCE07F
:102A3000696B6A69891A2A6A891A0A1A012A00DAEC
:102A4000D3E02A62D1E03A20285C622819D06828B5
:102A500006D06A280CD06C281BD0712808D018E04A
:102A6000386838600168001D3860E86A0880BCE09A
:102A7000386838600268001D3860E86AC11703C210
:102A8000B3E0386838600168001D3860E86A087093
:102A9000ABE0386838600168001D3860E86A08609B
:102AA000A3E03A68D21D072082433A6003CA3A6025
:102AB00014AA03C2002902D568692D2109E0288FD4
:102AC000810702D568692B2103E0C00705D5686935
:102AD000202105AA1154401C686105A869694018A5
:102AE000E860310014A800F0F9F97EE03A20285C93
:102AF0006C280BD0712801D06A2807D13A68D21D02
:102B0000072082433A6003CA3A6005E039683960B9
:102B10000868091D3960002114AA03C23A20285C04
:102B2000682803D114A803C880B20BE0622803D13F
:102B300014A803C8C0B205E0742801D07A2804D1D3
:102B400014A803C8002114AA03C23820285C000777
:102B50002DD514A803C8002901D1002827D0202092
:102B60003043782823D16869302105AA1154401CCC
:102B7000411C696105A90E5419E039003A20285C0E
:102B800000F0E2F814AA03C2002902DA68692D21D4
:102B900009E0288F810702D568692B2103E0C0076F
:102BA00005D56869202105AA1154401C686105A853
:102BB00069694018E860310014A800F0F9F814E0E1
:102BC00001206861386838600168001D3860684617
:102BD00001750AE02520694608750120686130000A
:102BE00003D005A8467002206861686B6969401AC5
:102BF000296A401AA969401A696A401AE969401AA3
:102C0000A96A401A04903820285C400711D420207B
:102C100069460871049801280BDB049E012301AA70
:102C200014A9249800F01BFC002800D088E0761E30
:102C3000F4D1686905AE00280FD000903178A868FB
:102C4000249A9047A86000287AD0E86A401CE8627D
:102C5000761C0098401E0090F0D130206946087123
:102C60002E6A012E09DB012301AA14A9249800F081
:102C7000F6FB002864D1761EF5D1EE68A86900281D
:102C80000FD000903178A868249A9047A860002857
:102C900056D0E86A401CE862761C0098401E0090FE
:102CA000F0D13020694608716E6A012E09DB0123DC
:102CB00001AA14A9249800F0D2FB002840D1761E66
:102CC000F5D1E868A9694618E86900280FD0009096
:102CD0003178A868249A9047A860002830D0E86A24
:102CE000401CE862761C0098401E0090F0D1302015
:102CF00069460871AE6A012E09DB012301AA14A9F5
:102D0000249800F0ACFB00281AD1761EF5D13820AB
:102D1000285C400700D44BE52020694608710498E0
:102D2000012800DA44E5049E012301AA14A924988D
:102D300000F095FB002803D1761E00D138E5F3E7BB
:102D40000020C04325B0F0BD0A00622822D06828C8
:102D500019D06A2808D06C2823D0712804D0742890
:102D60001FD07A2808D01CE01368DB1D072083439E
:102D7000136003CB13607047116811600868091D68
:102D8000116000217047116811600868091D116009
:102D900000B20BE0116811600868091D116040B2B3
:102DA00004E0116811600868091D1160C1177047BF
:102DB000F3B583B0006900906846027C6F2A01D1A8
:102DC000082406E020211143782901D00A2400E0DC
:102DD00010243C25039803C806000F00642A01D084
:102DE000692A07D1002905DA00200021801BB9419A
:102DF00006000F00002F10D1002E0ED10398006B9B
:102E000000280AD1082C3AD103983821405C0007E9
:102E100035D53B253020009930E06D1E01953000FE
:102E200039002200E31700F052FB3032D2B23A2AC6
:102E300003DB6846007C5138121800984255300078
:102E400039002200E31700F042FB06000F0001D119
:102E5000002E05D00398C068009949198842DCD338
:102E6000082C0CD103983821405C000707D5009846
:102E7000405D302803D06D1E3020009948553C201D
:102E8000401B0399886100994919039AD1600399FD
:102E9000096B884209DA081A039908620398008FBF
:102EA000BA4901400398018715E0002913D5039919
:102EB0003822895C14220A40102A0CD10399496BEC
:102EC000039A5269891A039A126A891A0D1A012DF6
:102ED00001DB0398056205B0F0BD0000F3B591B0C9
:102EE00006AA03C802AB03C31198006B002801D5E2
:102EF000062007E008D112A80078202101436729A5
:102F000002D1012011990863119840684100490DD0
:102F10009F4B994223D100030FD1119800680028DC
:102F20000BD103201199886112A8007861381A2802
:102F300064D300BF9FA000900AE00320119988612C
:102F400012A8007861381A2856D300BF9AA00090C2
:102F5000032200991198C068FFF7E6FB14E10129EC
:102F600047DB8C4A02408C481043119A50608B48D2
:102F7000091A09B28A4848438A49FFF769FB0400E5
:102F800002A803C80022002300F0D6FA06D202A845
:102F900003C880221206514002AA03C268468480F8
:102FA0000720019909B2421A00207F49012A27DB34
:102FB000009202AA30CA00260F000098C00707D569
:102FC00032003B002000290000F0CFFA04000D0081
:102FD0000098401000903000390032003B0000F0B3
:102FE000C4FA06000F0000980028E6D102A830C0FD
:102FF00027E000200023BCE070A0A8E770A09AE7BB
:1030000054420026694F10E0E00707D504A803C822
:1030100032003B0000F0A9FA06000F00641004A87B
:1030200003C804AA0CCA00F0A0FA04AA03C2002C28
:10303000EAD102A803C832003B0000F058FB02AA04
:1030400003C212A80078202101430491662903D10C
:10305000019800B20A3000E006201199096B0818A7
:103060000090142801DB1320009030206946087678
:1030700006A8441C0098012839DB02A803C800F008
:1030800097FB059006460834042530000A21FFF717
:10309000E2FA0F0030000A21FFF7DDFA06003037B0
:1030A000601E077030000A21FFF7D5FA0F003000CC
:1030B0000A21FFF7D0FA0600A41E303727706D1ED4
:1030C000E3D108340098083800900128D2DB059835
:1030D00000F090FB02000B0002A803C800F0FDFB0B
:1030E0000022334B00F041FA02AA03C2C5E706A84A
:1030F000401C201A06A94A1C6B4605E0401E019997
:1031000009B2491E9980521C11783029F6D00499D1
:10311000662903D1019909B2491C04E0652901D14E
:10312000012100E00021119B1B6B5B181BB2984230
:1031300000DA03001BB219001DD4814204DA505C8E
:10314000352801DB392000E03020541800E05B1EF8
:10315000641E491E25788542F9D0392802D1505C79
:10316000401C5054002906D5521E5B1C019800B229
:10317000401C69468880019800B200901BB212A8DA
:103180000178119800F01EF813B0F0BDEFFF0000B9
:10319000FF070000FFFF0F800000E03FFE0300007C
:1031A00097750000A0860100000024400000F03F59
:1031B00084D79741494E46004E414E006E616E00E5
:1031C000696E6600F3B585B014001D00066B012D15
:1031D00001DA0125AEA4202008430C9F662801D106
:1031E0007F1C17E0672800D0AAE00321C9438F4263
:1031F00000DA91E0B74200DB8EE07F1C05983821B1
:10320000405C000702D4B54200DA2E003FB2F61B44
:1032100000D5002605988169C06840183FB2012F8B
:103220002CDA491C30220270012E04DA059838226B
:10323000805C000704D52E20059AD2685054491CA2
:10324000059881617842864200DA77423FB278423F
:1032500005994862F619AE4200DA35002DB205989C
:10326000C5612A0021000598C068059B9B69C018AC
:10327000FFF75AFA701B05998862D2E03A0095422E
:103280001EDA2A002100FFF74FFA059989694919CA
:10329000059A9161781B059A5062012E04DA05980F
:1032A0003822805C000708D52E20059AD268505439
:1032B0000598C069401C0599C86105988662B0E010
:1032C0002100FFF731FA05988069C019ED1B012E26
:1032D00004DA05993822895C090704D52E21059A5C
:1032E000D2681154401C059988612DB2AE4200DAB3
:1032F00035002DB22A00E1190598C068059B9B692D
:10330000C018FFF711FA059880694019059988617E
:10331000701B0599486284E0B54205DA05993822A8
:10332000895C090700D42E00761E00D50026684669
:10333000007E672801D1652000E0452069460876B7
:1033400005988169481C059A90612278059BDB6885
:103350005A54611C012E04DA059A3823D25C1207F4
:103360001DD50200401C059B98612E23059CE46836
:10337000A354012E13DB6D1E2DB2AE4200DA3500D0
:103380002DB22A00059BDB681818FFF7CDF90598C8
:103390008069401905998861701B059948620598F4
:1033A000C0680599896941186846007E0870380030
:1033B00003D42B2048708C1C03E02D224A708C1CF7
:1033C0004742002502AE08E00A22684600F0FCFAF7
:1033D00001983070009F6D1C761C39B20129F3DA18
:1033E000022D08DA6846007E20210143652902D1BA
:1033F00030202070641C002D09D130202070641C06
:1034000007E06D1E02A8405D30302070641C012D65
:10341000F7DA0598C068059989694018201A059956
:10342000C86105983821405C14210140102914D14D
:10343000059840690599896940180599496A4018B5
:103440000599C96940180599896A40180599496B19
:10345000884202DA081A0599086207B0F0BDF1B592
:103460000E0014000027002B0FD01D002178B0683B
:10347000009A9047B060002806D0F06A401CF062C5
:10348000641C6D1E01D0F1E7FF433800F2BD00005F
:103490003000C9B200E0401C02788A4202D0002A03
:1034A000F9D100207047010000E0491C0A78002A89
:1034B000FBD1081A7047C9B201E0401C521E002A15
:1034C00003D003788B42F8D1704700207047124236
:1034D00024D0994228D970B500251B4202D00C0097
:1034E000002109E00024012649186441944200D3D8
:1034F000A41A7641F8D33100012601E0764109D2C1
:10350000001864416D41A41A9D41F7D2A4185D4191
:10351000B619F5D3300022002B0070BD1B42D8D164
:1035200008B500F061FA08BD01D19042D3D2020083
:103530000B0000210020704730B4012464054D00C9
:10354000EC420BD85D00EC4208D80C001C43640030
:103550000443144304D2994200D1904230BC7047D6
:10356000FCD08B42FAD18242F8E7F0B50E005E4003
:103570000125ED072E40B446AE0ADF184C18F44280
:1035800008D2F7420ED2640D01D07F0D12D1002077
:103590006146F0BD05D1F74201D87F0D05D100206D
:1035A000C143F0BDFBD1640DF9D00020C1434905F2
:1035B00049088FE0E419C902DB0229432B43DB0AE7
:1035C000460DC00231438E4630B487B295B27D437A
:1035D0002E0CADB2140C7C43A419260C24042543F4
:1035E0009CB27C43A419190C7943270CC919A4B2C5
:1035F0000F043C43090C000C97B247432E0CBE1934
:103600003543ADB2170C4743360CBF19A6B2BF19EC
:103610003E043543240C3E0C36199FB24743BF1974
:10362000BCB23E0C89191F0C47437F183E0434433B
:10363000390C704680B297B247432E0CBE19354301
:10364000ADB2170C4743360CBF19A6B2BF193E04E2
:103650003543240C3E0C36199FB24743BF19BCB208
:103660003E0C89191F0C47437F183E043443390C24
:1036700077463F0C90B278432E0C80190604ADB209
:103680002E43050CA0B22D18120C7A435019020CCF
:1036900080B2240CA4189AB27A431219140420435D
:1036A000120C89181B0C7B43C91830BCEF0A394235
:1036B00003D1B61940414941641E6F12BF0DE41B8E
:1036C0000BDBFF19BC4211DA240500274208AE418A
:1036D0007841614166463143F0BD641C05D1401C10
:1036E0006141CF0201D34908F4E750E75DE7F0B448
:1036F0000E005E400125ED072E40B446AE0ADF18ED
:103700004C18F4423BD2F74241D2640D43D07F0DB6
:1037100038D0E41BC902DB0229432B43CF0ADB0A62
:103720000600B61A9F4104D2641EB6197F41B6182E
:103730005F416812800D24180018844222DAE80CD8
:103740000021B6197F41B61A9F4102D2B6185F41D7
:103750003F1C40414941F4D3241C21DD2405B61906
:103760007F41B61A9F4105D33743C607374300262A
:10377000012F7041614166463143F0BC7047FCD176
:10378000F74205D20020C14349054908F3E704D0B8
:103790000020C143F1E77F0DFAD000206146ECE73D
:1037A0002442FAD1401C61410F03F6D30020E2E726
:1037B0004A1812D2400DC90208430121C907084323
:1037C000520D40210901521A521C06D452421F3296
:1037D00001D4D0407047C0177047002070471800D0
:1037E000010009D5F446404200F006F80122D20754
:1037F00011436047010000BF42221201D21E004265
:1038000007D002D4521E0018FCD5C10A400512058B
:1038100089187047F0B40125ED070F005F404FD4C1
:103820008B4200D1824205D98446100062468C4604
:1038300019006346DF184C18640D7F0D3AD0661CE2
:10384000760537D0E61B352E34DCDB022B43DB0A52
:103850000C0DC9022943C912202E0DDB1700203E92
:1038600006D01F00F741F3405F400026012A774150
:10387000C01871410DD217E01700F741F2405740D0
:10388000F3415A40B340F3405A4000268018594152
:103890000AD3A21C52050FD0C207012F7241170094
:1038A0004008CB0718434908641C24054208AF416F
:1038B00070416141F0BC7047641C21050020F9E7AC
:1038C0006B4010E06B40ABE7F742F3D1E943F1E71F
:1038D0002442EFD100200021ECE7F0B40125ED07F0
:1038E0000F005F40EED40C00871A9C4105D2C01B2C
:1038F000A141D219634169406B40AE0ADF184C18F0
:10390000F442E1D2640D7F0DE2D0E61B362ED1DC0D
:10391000DB022B43DB0AA4460C0DC9022943C90A6A
:10392000012E28DC04D1D6075208DF073A435B0892
:10393000EF0A76429041994114D039423BD1B619F1
:1039400040414941761C394204D1761C0018494156
:103950003942FAD0B9436746B74208D9A41B2405B7
:103960002143A7E70042EAD13642E8D1A2E7E40AC0
:10397000E10700209EE7202E0BDD203E1F00F340D4
:10398000F7415F40012A002257417E429841914110
:103990000BE01700F741F2405740F3415A40B34063
:1039A000F3405A407E42904199410A0303D2641E7B
:1039B000B619404149410027641E24054208AE4122
:1039C00078416141F0BC70477CB504000E001500E1
:1039D00030002900FEF73CFE00904543701B01902B
:1039E000684603C803C473BD70471900F0B589B0B9
:1039F00000F0AAFDFEF70AF900F0B6FD00F0F0FEB7
:103A000000F0C2FE01F078FB01F01EFC0520BC496D
:103A100088855A20BA49C8850220B949C870A24889
:103A20000078DF210140A04801709F480078E7211D
:103A300001409D48017001209C49088001209B495C
:103A400048800F209949888002209849C88000202A
:103A500096490883964895494861AA4801F09BFC1D
:103A6000944801F017FD00F0B9F9022808D000D2FF
:103A700086E0042844D023D3062879D063D37FE09E
:103A8000A1480078012815D1A0480021405EA04936
:103A90000022895E884207DB9E49C94801F02AFD61
:103AA00014209D4908700AE099480088401E9849F2
:103AB000088004E001F06CFC406801F06CFC62E0FE
:103AC00091480078012815D191480021405E934922
:103AD0000022895E884207DB9149B94801F00AFD5E
:103AE00014208D4908700AE089480088401C8849E4
:103AF000088004E001F04CFC006801F04CFC42E05E
:103B00008148007801280AD18649AD4801F0F2FCCD
:103B100014208149087001208349087012E001F0E7
:103B200037FCC0688149884204D001F031FCC0688C
:103B3000002802D101F08EFC04E001F029FCC068ED
:103B400001F029FC1FE07048007801280AD19D4946
:103B50009B4801F0CFFC14206F4908700220724985
:103B6000087004E001F014FC806801F014FC0AE025
:103B700065480078002802D1624801F00CFC02E0A0
:103B800000206949087001F003FC8F49086000F0CB
:103B900067FA8025ED0000248C4F220029003800B0
:103BA00001F0B0FC5648807901F014F901F0F0FB07
:103BB0005449884202D100F027FB01E000F0A8FA46
:103BC00051480078012824D17F480068010018314D
:103BD00003A801F08FFC03A800F022FE4C4800214E
:103BE000425E7BA101A801F0B5FC01A8FFF75BFCD8
:103BF00006004024F6B2062070430221FEF728FD9D
:103C0000201A6946087001AA1C216846007801F054
:103C1000FBF94148007800281CD03F480078401E3E
:103C20003D4908706648FFF73EFC06003000C0B210
:103C300000F056FE4024F6B2062070430221FEF743
:103C400007FD201A694608705D4A1C216846007805
:103C500001F0DAF901F0D6FA02E780B55A480068B7
:103C60005C4988420DD163202C49088002202749F5
:103C700008802348C07800B200F01EF82049C870C0
:103C800011E051480068544988420CD15A20234918
:103C9000088001201D4908801948808D00B200F07D
:103CA0000BF81749888501BD600A0020240A00200E
:103CB000CDCCCC3DA861000000B501000800124A3F
:103CC0001278012A15D1184A1278012A08D1104A0F
:103CD0000023D25E100000220B4B1A7000B20EE0DF
:103CE000114A1278022A09D10022074B1A7000B239
:103CF00005E0074A11800122034B1A7000B200BD93
:103D0000F4090020D06900082A09002028090020B1
:103D100024090020E06B0008230900202609002068
:103D2000806B0008106C00082C090020306B000824
:103D300080B5254800689349884206D1AA48007892
:103D4000E7210140A848017032E01F480068A749F8
:103D5000884208D1A4480078E721014008200843A0
:103D6000A149087024E018480068A149884208D198
:103D70009D480078E7210140102008439A490870C7
:103D800016E011480068AA49884206D19648007892
:103D900020210143944801700AE00B480068A549BE
:103DA000884205D190480078DF2101408E4801709B
:103DB000A1A1034801F09EFB1420A049087001BD99
:103DC000F8080020EC6B00085C0A002019040020B1
:103DD000256400008C6800084866000800B50121D1
:103DE0000800974909680969964A12881140002914
:103DF00008D195490978652904DA93490978491C5D
:103E0000914A11709149896F0969914A128811404C
:103E1000002908D18C494978652904DA8A4949780A
:103E2000491C894A51708949896C0969894A1288F3
:103E30001140002908D184498978652904DA82492A
:103E40008978491C804A9170834909680969834AC5
:103E500012881140002908D17B49C978652904DA04
:103E60007949C978491C784AD17075490968096946
:103E7000744A12881140002912D073490978022926
:103E80000EDB0221080000216F4A117000216E4AEA
:103E9000517000216C4A917000216B4AD1706EE024
:103EA0006A49896F09696A4A12881140002912D04B
:103EB0006549497802290EDB032108000021624A86
:103EC00011700021604A517000215F4A91700021F9
:103ED0005D4AD17053E05D49896C09695D4A128879
:103EE0001140002916D058498978022912DB564919
:103EF000C9780A290EDA042108000021524A1170FB
:103F00000021514A517000214F4A917000214E4AC0
:103F1000D17034E0504909680969504A128811404B
:103F2000002912D04849C97802290EDB0521080072
:103F30000021454A11700021434A51700021424A34
:103F400091700021404AD17019E04349096809691C
:103F5000424A12881140002911D13B49C9780A29E7
:103F60000DDB062108000021374A11700021364A76
:103F700051700021344A91700021334AD170C0B28F
:103F800000BD0000106A0008F0B585B006000D0005
:103F900014002800290001F0F9FA02902000210005
:103FA00001F0F4FA01900299019801F047FB070033
:103FB0003800002101F0CEFB01D189480700300014
:103FC000390001F0D7FB0090009801F029FC01F0C6
:103FD00041FC8AA20CCAFFF7C8FA01F089FC0390E1
:103FE000039805B0F0BD0000600A0020FC670008DF
:103FF0009C66000838B5040024B2002C0BD424B20F
:104000002000FFF7EDFB0022764BFFF770FB01F07D
:104010006FFC05000AE024B22000FFF7E1FB00225C
:10402000784BFFF764FB01F063FC0500280032BD0C
:10403000506A0008706A00084F4B000023090020F6
:10404000AC640008B0640008580A00202864000826
:10405000A464000874640008D0640008D4640008F4
:10406000F0B583B0012500205F49488100205E49FA
:10407000888100205C49C8818721202001F005F952
:104080002C00E4B2002C09D0272001F017F906001B
:10409000B007F6D001F03AF9641EF2E700212020C3
:1040A00001F0F3F850480A21405E00F0DFF94E4974
:1040B00088804D480C21405E00F0F2F94A49C880E2
:1040C00049480E21405E00F005FA474908814648FC
:1040D0000421405EFFF78EFF019043480621405EB9
:1040E000FFF788FF009040480821405EFFF782FFFD
:1040F00007003A0001990098FFF746FFDA49486245
:10410000009A01993800FFF73FFFD7498862F7BD51
:1041100070B582B0684635490A88028000F032FEE8
:1041200033480078062801DB00F034FD3148007880
:104130000500EDB230480078401F854208DA2E486D
:104140000078062804DB2C480078401F05000DE0AD
:1041500029480078401FEDB2A84207DAEDB22648A0
:104160000078281A401D052800DB6D1E21480570C7
:1041700021480078401B0600C84A01210E2000F0AB
:1041800043FF6A46F6B20A207043801C0100C9B2A0
:10419000002000F039FF00200400E4B2052C13DAFF
:1041A000BE48EDB2E4B2291914225143401802006E
:1041B0001432E4B20A2060430C300100C9B2082076
:1041C00000F022FF641CE8E7C1480078012803D012
:1041D000CC480078002801D0FFF73FFD73BD0000F8
:1041E0007D1D902680FFCF40400A002086270008D2
:1041F000210900202209002020090020000000C021
:10420000DCA54C400000D04000B59DB0F8200290E5
:104210009548806A01F004FB49004908009001912B
:10422000E822B9490BA801F095F9B8480078C0B266
:10423000C0088007800F002808D0B4480078C0B2BA
:10424000C0088007800F012800D0CAE02F2000900E
:104250008548C06801F0E4FA02000B00AC4915A8DB
:1042600001F078F98048028AAAA108A801F072F941
:104270007D48428AA7A107A801F06CF97A48828A92
:10428000A4A106A801F066F9A0480078C0B24009D0
:104290000100C907C90F00290DD07348C3787248BF
:1042A00082789D4913A801F055F913AA2D215C20AD
:1042B00000F0AAFE0AE06C48C28A96A105A801F0A7
:1042C00049F905AA2D21622000F09EFE9348664917
:1042D000098804224A4382580021002000F094FEFD
:1042E00015AA1821002000F04DFE08AA0F21622017
:1042F00000F08AFE07AA1921622000F085FE06AAB6
:104300002321622000F080FE80480078C0B2C008FF
:104310008007800F002827D1F82002905248406A79
:1043200001F07EFA4900490800900191E2227649A5
:1043300009A801F00FF909AA2821002000F064FE65
:104340000BAA28212A2000F05FFE082338224648C5
:10435000818D4548406A00F008FB4348C18D4248C2
:10436000806A00F06EFC7DE03F4882886CA104A862
:1043700001F0F0F83C48C06901F052FA0090019158
:10438000E62268490FA801F0E5F83748006A01F015
:1043900047FA00900191E52262490DA801F0DAF890
:1043A0003A2000903048806901F03AFA02000B0090
:1043B000574911A801F0CEF804AA3721622000F075
:1043C00023FE0FAA2421002000F01EFE0DAA2421A6
:1043D000302000F019FE11AA3821002000F0D2FD93
:1043E00040E04A480078C0B2C0088007800F022829
:1043F0002FD13D2002901C48406A01F011FA49007B
:104400004908009001913B223F4909A801F0A2F818
:10441000F82000901448838DF122434903A801F04D
:1044200099F809AA0821002000F0ACFD0BAA002190
:104430004C2000F0E9FD03AA09214C2000F0E4FD26
:104440002E2312220848818D0748406A00F08DFA19
:1044500008E0364917A801F07DF817AA00210820C6
:1044600000F0D2FD1DB000BDF409002010B504001D
:104470002F48006824B200192E490022895E401A94
:104480002B4908602A4800680421FEF7E1F8294911
:10449000088028480021405E10BD00001C08002054
:1044A00010B504002448006824B2001923490022F2
:1044B000895E401A204908601F4800680421FEF701
:1044C000C7F81E4908801D480021405E10BD00004D
:1044D0002A09002010B504001948006824B2001908
:1044E00018490022895E401A15490860144800687E
:1044F0000421FEF7ADF81349088012480021405E00
:1045000010BD00002C090020F86B0008600A002094
:10451000186C000825750000206C000804000020BD
:1045200025640000286C0008306C0008186B000837
:10453000640A0020740A0020680A0020760A00201D
:104540006C0A0020780A002080B506480068102117
:104550000143044801600020FEF7D4F8FCF720FF77
:10456000002002BD0020024038B581480400814887
:1045700000680C21484320180500AC4210D2207A74
:10458000C0B240080007000F0090207A0300DB074C
:10459000DB0FA279E179206800F003F80C34ECE736
:1045A00031BDF4B583B004000D001E00099F9020BA
:1045B000C005844206D17048006880218902014309
:1045C0006D4801606D48844206D16B4800688021C7
:1045D000C9020143684801606948844206D16648BF
:1045E00000688021090301436348016065488442F3
:1045F00006D1614800688021C90301435E4801601B
:10460000F6B2002E03D00120A840A06102E00120F4
:10461000A840A0622068032102226A439140884397
:10462000206060680121A94088436060E068012142
:1046300002226A4391408843E060EDB228000821DD
:10464000FEF706F80421484320180290EDB2280036
:104650000821FDF7FDFF042148432018016A01915C
:104660000F200090EDB228000821FDF7F1FF042093
:10467000414300988840019981430298016268464D
:10468000007B00280BD0022812D010D304281FD0A2
:1046900016D3062833D025D307283AD045E0206822
:1046A000032102226A439140014321603DE03CE046
:1046B000E068012102226A4391400143E16034E055
:1046C000E068022102226A4391400143E1602CE04C
:1046D0002068012102226A43914001432160606801
:1046E000606022E02068012102226A439140014378
:1046F000216060680121A9400143616015E02068E4
:10470000022102226A439140014321606068606097
:104710000BE02068022102226A439140014321609C
:1047200060680121A94001436160EDB228000821C1
:10473000FDF78EFF0421484321180191EDB22800B6
:104740000821FDF785FF042148432018016A0091E4
:10475000FFB2EDB228000821FDF77AFF04204143A3
:10476000380088400099084301990862FFBD0000A5
:1047700028640008000000201410024000040048D3
:10478000000800480014004880B52148214908600D
:1047900021482049486000201E49886001201D49A9
:1047A000C86000201B49086100201A4948610020A8
:1047B0001849886100201749C8610020154908621E
:1047C0001448FBF77DFC002801D0FDF769FA0021B1
:1047D000104801F0BFF8002801D0FDF761FA01BDD3
:1047E00080B50E480068012101430C4801600B4868
:1047F00000680100C907C90F00910098002200213C
:104800000A20FDF7CFF80A20FDF7D6F801BD000019
:1048100000540040300900200B0200001410024038
:10482000F1B586B000A8801C2B490A880280684632
:104830002A490A8802800820070008200600002074
:104840000500EDB2702D23DA00200400E4B2302C14
:104850001CDAE4B2002C08D0E4B22F2C05D0EDB263
:10486000002D02D0EDB26F2D07D101223119C9B24E
:104870007819C0B200F0DAFB06E000223119C9B2A3
:104880007819C0B200F0D2FB641CDFE76D1CD8E7DA
:10489000069A0A210A2000F0B7FB6A462E212E2034
:1048A00000F0B2FB00AA921C2E214C2000F0ACFBC1
:1048B000B64901A800F01EFE01AA2E210A2000F030
:1048C000A3FBB34901A800F015FE01AA2E215E202A
:1048D00000F09AFB07B0F0BDDE370008EA390008A7
:1048E000F1B582B068466946097A0622514308311B
:1048F000017140210091684600790221FDF7A8FE70
:104900000099081A070017200600002005006846D5
:1049100000792900C9B2884226D300200400E4B2FD
:10492000112C1FDAE4B2002C0BD0E4B2102C08D00A
:10493000EDB2002D05D0280069460979C0B2884241
:1049400007D101223119C9B27819C0B200F06EFB4B
:1049500006E000223119C9B27819C0B200F066FB36
:10496000641CDCE76D1CD2E7F7BDF7B588B01F000B
:1049700001206946087268466946097A791A491E13
:10498000017368460AA909786A46127A8918491C8F
:10499000417268466946097B6A46127A891A491E3D
:1049A000C17300200500EDB2802D58DA2E00EDB263
:1049B000402D02DB280040380600F6B23000072107
:1049C000FDF746FE002902D0F6B2002E45D10020A8
:1049D000040020003900C0B2C9B288423DD2FFB203
:1049E00038000321FDF734FE401E69468873FFB28C
:1049F000022078430321FDF72BFE401C69464873D3
:104A0000EDB23F2D02D0EDB2402D07D16846007ABD
:104A1000694688736846007B69464873E4B2002C97
:104A200010D06846807B2100C9B2884205D22000A0
:104A30006946497BC0B2884204D3E4B2FFB2781E13
:104A4000844208D101220AA800780119C9B22800BD
:104A5000C0B200F0EBFA641CBBE76D1CA3E780203A
:104A600006000899C64800F091FD00F0A9FF6946CC
:104A7000088268466946898C64225143C1820020BD
:104A800069464881049800B202990914884200DA04
:104A9000B61E684605990914029A1214891A818271
:104AA000059800B200286ED00298001400F0A6FF0E
:104AB0000100089800F0BCFF07D86846049909B2C5
:104AC000029A1214891A418206E068460299091472
:104AD000049A12B2891A4182059800B20499091405
:104AE000884203DA059800B269464882049909149D
:104AF000802048430221FDF7ABFD059909B2FDF77F
:104B0000A7FD69460883002005002800C0B2069969
:104B100009B200B2884236DA00200400200069465B
:104B2000C97BC0B288422CD2049800B20299091401
:104B3000884212DB01226846407A2118C9B20091EE
:104B40000192F6B230000221FDF782FD4019019A70
:104B50000099C0B200F06AFA11E001226846407A7A
:104B60002118C9B200910192F6B230000221FDF77E
:104B70006FFD401B019A0099C0B200F057FA641C07
:104B8000CCE76D1CC1E70BB0F0BD0000386C00082D
:104B9000406C0008F8B53420694608707D20070095
:104BA0000A20060000200500280069460978C0B2E6
:104BB00088420FD200200400E4B2022C08DA01225D
:104BC0007119C9B23819C0B200F030FA641CF3E7A9
:104BD0006D1CE9E77C200700AA480078401E694662
:104BE00009784843A8490978FDF732FD69464870BD
:104BF000684640780A30060000200500EDB2042D1A
:104C00001ED200200400E4B2082C17DA9F48EDB24F
:104C1000405D0121A140084207D001223119C9B2EB
:104C20007819C0B200F002FA06E000223119C9B2C8
:104C30007819C0B200F0FAF9641CE4E76D1CDDE7F6
:104C4000F1BDF3B585B04020060005994C4800F051
:104C50009DFC00F0B5FE6946888068466946098B70
:104C6000642251434181002007003800019909B2B4
:104C700000B2884200DAB61E684602990914C91BC0
:104C80000181029800B2002878D03FB2380000F0CD
:104C9000B5FE0100059800F0CBFE05D868460199E5
:104CA00009B2C91BC18004E06846019909B2791AAA
:104CB000C180029800B201990914884203DA02986F
:104CC00000B26946C880019909142C20484302218A
:104CD000FDF7BEFC029909B2FDF7BAFC694688816E
:104CE000002005002800C0B2039909B200B2884232
:104CF0002DDA00200400E4B2042C26DA019800B278
:104D0000390009B288420FDB01220092F6B230006E
:104D10000221FDF79DFC411B009AC9B220007C30A6
:104D2000C0B200F083F90EE001220092F6B230002A
:104D30000221FDF78DFC4119009AC9B220007C3098
:104D4000C0B200F073F9641CD5E76D1CCAE70020FF
:104D50000500EDB2022D11DA00200400E4B2042CAB
:104D60000ADA01222020411BC9B220007C30C0B2E7
:104D700000F05CF9641CF1E76D1CEAE707B0F0BDD8
:104D80000000C842F8B50027002600200500EDB25B
:104D90000D2D1ED200200400E4B2082C17DA994829
:104DA000EDB2405D0121A140084207D00122311936
:104DB000C9B27819C0B200F039F906E00022311901
:104DC000C9B27819C0B200F031F9641CE4E76D1C77
:104DD000DDE7F1BDF1B582B07120070000200600CB
:104DE00069463800801C487069463000801C087095
:104DF0006846007A652802DB642069460872002054
:104E00000500EDB20F2D1EDA00200400E4B2082CDC
:104E100017DAB848EDB2405D0121A140084207D041
:104E200001223119C9B27819C0B200F0FFF806E0CA
:104E300000223119C9B27819C0B200F0F7F8641C29
:104E4000E4E76D1CDDE7002005006846007A0A21D2
:104E5000FDF7FEFBEDB2854213DA00200400E4B258
:104E6000042C0CDA0122684600780119C9B26846A0
:104E700040784019C0B200F0D9F8641CEFE76D1C0F
:104E8000E3E7F7BD2009002021090020506C00084D
:104E9000F7B507000E0000200500EDB2182D70DAFE
:104EA00000200400E4B2082C69DAEDB228000221E7
:104EB000FDF7CEFB00292FD1D1486946097A182287
:104EC00051434018EDB24019D649405C0121A14040
:104ED000084210D001223119C9B200910192EDB2FD
:104EE00028000221FDF7B4FB3818019A0099C0B2DE
:104EF00000F09CF841E000223119C9B20091019202
:104F0000EDB228000221FDF7A3FB3818019A0099A1
:104F1000C0B200F08BF830E0B9486946097A18222F
:104F200051434018EDB24019BE49405C0121A140F7
:104F3000084211D0012231190839C9B200910192F9
:104F4000EDB228000221FDF783FB3818019A009981
:104F5000C0B200F06BF810E0002231190839C9B274
:104F600000910192EDB228000221FDF771FB381883
:104F7000019A0099C0B200F059F8641C92E76D1CC8
:104F80008BE7F7BD70B505000E00140020780028EF
:104F900009D022783100C9B22800C0B2FFF778FFEB
:104FA000641C0C35F2E770BDF4B507000E0000205C
:104FB0000500EDB2062D23DA00200400E4B2082C2F
:104FC0001CDA994869460978062251434018EDB227
:104FD000405D0121A140084207D001223119C9B228
:104FE0007819C0B200F022F806E000223119C9B2E7
:104FF0007819C0B200F01AF8641CDFE76D1CD8E71E
:10500000F1BD0000906B000870B505000E001400A3
:105010002078002809D022783100C9B22800C0B217
:10502000FFF7C2FF641CAD1DF2E770BDF0B50400D0
:105030000D001600F6B2002E20D0022E3CD058D221
:10504000E4B2EDB228000821FDF702FB80214843BD
:10505000201876490F18E4B2EDB228000821FDF7B8
:10506000F7FA802148432018704908184078012138
:105070006A07520F9140014379703AE0E4B2EDB211
:1050800028000821FDF7E4FA8021484320186749E9
:105090000F18E4B2EDB228000821FDF7D9FA8021FB
:1050A0004843201861490818407801216A07520FC7
:1050B0009140884378701CE0E4B2EDB228000821EA
:1050C000FDF7C6FA80214843201858490F18E4B26A
:1050D000EDB228000821FDF7BBFA802148432018D3
:1050E00052490818407801216A07520F9140414007
:1050F0007970F0BDA06B000870B54D4800884D492F
:10510000C96B88624C4800F0C5F949480088494994
:10511000C96B8861AE2000F057F8002000F054F809
:10512000102000F051F8402000F04EF8812000F0EF
:105130004BF8802000F048F8C82000F045F8A12086
:1051400000F042F8202000F03FF8002000F03CF88A
:10515000A62000F039F8A82000F036F83F2000F033
:1051600033F8D32000F030F8002000F02DF8D520DF
:1051700000F02AF8F02000F027F8D92000F024F8F9
:10518000F12000F021F8DA2000F01EF8122000F0E3
:105190001BF8DB2000F018F8402000F015F88D20F7
:1051A00000F012F8142000F00FF8AF2000F00CF817
:1051B0008025ED000024214E22002900300000F05F
:1051C000A1F900F01FF870BD30B583B00500782458
:1051D00001A80021018001A845701948FBF733FAA6
:1051E0002028FAD1FA2080000090022301AAE4B21C
:1051F0000121214389B21248FAF7C5FF37BD0000EB
:10520000A862000810B578244020084908700D4BAA
:10521000064AE4B20121214389B20948FBF740F96B
:1052200010BD0000B0FBFFFFA85C000818040020C0
:105230006864000828640008102700001904002092
:10524000300900200104000080B50121232000F076
:105250001CF84B4800F01EF90021232000F015F83F
:105260000021242000F011F81021252000F00DF875
:105270000021102000F009F80021112000F005F8AD
:105280000021122000F001F801BD7CB506000D00E0
:105290003A246846067101A845703A48FBF7D3F9ED
:1052A0002028FAD1FA2080000090022301AAE4B25B
:1052B000210089B23348FAF766FF73BD11B583B098
:1052C0003A243048FBF7BFF92028FAD1FA208000B1
:1052D0000090012303AAE4B2210089B22948FAF719
:1052E00052FF2848FBF7AFF92028FAD1FA208000B6
:1052F0000090012301AAE4B20121214389B221488F
:10530000FBF70AF86846007904B010BD1CB53A24D2
:105310002820694608711B48FBF795F92028FAD127
:10532000FA2080000090012301AAE4B2210089B292
:105330001448FAF728FFFA20800000900623124A4A
:10534000E4B20121214389B20E48FAF7E5FF0F4884
:10535000007C0E49497C090201430C4841810B48FD
:10536000807C0A49C97C09020143084881810748B9
:10537000007D0649497D090201430448C18113BDEE
:105380001027000030090020500A0020400A0020A9
:105390003A4800687047F1B582B0029838498842AF
:1053A00002D00298002800D153E0FFF7F1FF0299E4
:1053B000C068814205D0FFF7EBFF02998068814207
:1053C00002D100202F49087002982C4908602B4810
:1053D0000068050000200400A8680090641C2A48AA
:1053E000047068682649884202D10020040001E068
:1053F0006D68F1E7E4B20A2C10DA1420019000265F
:105400002248E4B2142161434018070014373200E7
:105410000199380000F076F8641CEBE70098010071
:1054200018311A4800F066F80020040029001831ED
:105430001648E4B2142262438018143000F05AF87F
:10544000641C1348047028680D49884201D02D68F7
:10545000ECE7F7BD10B5094800680949884203D058
:1054600006480068002800D106E004480068446946
:105470002000002800D0A04710BD00000C00002034
:10548000306B000822090020200900201C080020A1
:105490002109002000B51249096802220A43104977
:1054A0000A6031210F4A116080B20F4908600F492C
:1054B000096801220A430D490A600D49096808225A
:1054C0000A430B490A600A49096801220A4308494C
:1054D0000A6007490968C90701D500BFF9E700BD9F
:1054E0001C100240280400402C040040140400401A
:1054F00000040040002300E05B1CCA5C002AC25488
:10550000FAD170471206130A1A43130C1A4300BF4C
:10551000094205D0830705D00270401C491EF9D10D
:1055200070470000130030B414001500103902D386
:1055300010393CC0FCD2490700D30CC000D504C0D0
:10554000890002D30280801C002900D5027030BC83
:10555000704700000CB41CB5040004A8019000942E
:1055600001AB0A006946084878441C30FDF70CF985
:105570000021009A1170002801D40098001B02B08D
:10558000019910BC03B008478FC4FFFF30B4050079
:105590004D400122D20715404B180418240E2ED07E
:1055A0001B0E32D0FF2C34D0FF2B3AD0E41800026F
:1055B000090210431143000A090A9446C2B24A4341
:1055C000000AC3B24B43000A4843110A5B181A434E
:1055D000D2B2190A091801D44918641E080A7F3C7E
:1055E00023DBFE2C08DAE4050906114363469941E2
:1055F0006041284330BC7047FF20C005F9E7280010
:105600001B0EFF2BF6D1D043F4E72800FF2CF1D17D
:10561000F9E74002F7D1FF2B01D14902F3D1E005B0
:10562000E7E7D8054902E4D0EDE743020020641C17
:10563000DFD15B129B1CDCD9D805DAE70122D20747
:1056400003004B402ED4431A01D2C01AC91830B4FB
:105650004B180418240E1B0E22D0FF2C20D0E31A66
:10566000182B1DDC09021143C40D641E00021043F7
:1056700094461925ED1A0A00AA40D940451801D3CD
:105680006D08A41CE405D209280A2D062A436546A4
:10569000AA41604103181B0EFF2B01D3C00DC005AA
:1056A00030BC7047514001E05140CCE7431A03D26F
:1056B000C01AC9185040514030B44B180902114368
:1056C0000418240E1B0E40D0FF2C3AD025009D411B
:1056D0000BD31ED8C50D4002401A0BD3ED050100B7
:1056E000400AC90591416841DAE7C50D40024918F1
:1056F000401AD5D001214008491C0018FCD58C4225
:1057000004D36D1A000AED054019C9E7E8051040F9
:10571000C6E7182DC4DCAC1C0D00E140E5414D404E
:10572000012D4941C40D00021043451A01D46D19E1
:105730009543641EE405280A2D069541604130BC5E
:105740007047FF2BACD1D843AAE72442A8D1002050
:10575000A6E7FEE7944602000A43921808D0884262
:1057600006D1012212060018D042084600D8804215
:105770006246704730B405004D400122D207154003
:105780004B180418240E28D01B0E2FD0FF2C34D019
:10579000FF2B37D0E41A00020902104311434308DB
:1057A0004808D10D1B1A02D2641EDB181B18DB1827
:1057B000834200D31B1A4941F9D37F3426DDFE2CE6
:1057C00008DAE4054808C9071943914160412843B4
:1057D00030BC7047FF20C005F9E728001B0E03D03E
:1057E000FF2BF5D14902F3D0D043F1E7FF2C01D1D3
:1057F0004002F9D1FF20C005E9E74002F4D1FF2BB8
:10580000F8D1F1E728004902E2D0EDE70B020020D1
:105810002442DCD15B129B1CD9D9D805D7E7FEE71F
:10582000012212060118CA420AD28A420DD8382231
:10583000120609098918C20FD207114340077047A1
:1058400000D049080909014301E0C10FC907002040
:105850007047FEE713B54800400D204A904211D032
:1058600000281AD0684603C800220023FDF764FE12
:1058700019D2684603C88022120651406A4603C204
:10588000082411E00A03120B684603C8104304D130
:10589000002905D412A003C81CBD684603C81CBD5E
:1058A00011A003C81CBD0024684603C801220A4B8E
:1058B00000F0D2F80AD8002019466A460CCAFDF753
:1058C00016FF6A4603C220000224444022006846B4
:1058D00003C800F0F9F81CBD0000F03FFF0700000E
:1058E000182D4454FB21F93F182D4454FB21F9BFD6
:1058F000012252054B18DA4201D9581570475B0D49
:105900000722D2019B1A10D9FF2B1DD2DB050122E1
:10591000D2070A4013430903020D1143490AC2008A
:10592000524100D9491CC81870470AD1800A0A039D
:1059300002435212921C04D9D3070B40D0051843DE
:105940007047C80FC0077047C80F0002FF30C0057E
:105950007047FEE700B502004120105C20282AD1E4
:105960004020105C012801D1022025E001204023C5
:10597000D05424204123D054106800680123984358
:1059800013681860106800680C4B034010680360CF
:1059900010680068084313681860106800680123E5
:1059A00003431068036020204123D054002040238B
:1059B000D054002000E0022000BD0000FFEFFFFFF8
:1059C0000122D2070118090E7F3910D449421F3134
:1059D0000FD4001805D2C0011043C84000D5D043F1
:1059E0007047C0011043C84005D4404270470020B2
:1059F00070470042F3D510007047FEE79D2102007A
:105A000008D5F446524200F005F80122D2071043AF
:105A1000604700000AD002D4491E9218FCD5C9057F
:105A2000100A1206524100D3012A48417047FEE78E
:105A30000CB4012212060318DA4207D84B18DA42D6
:105A400004D802000A43921802D281420CBC70476B
:105A5000FCD088420CBC704730B4012464054D0072
:105A6000EC420BD85D00EC4208D80C001C436400EB
:105A70000443144304D28B4200D1824230BC7047AD
:105A8000FCD09942FAD19042F8E770B4012100228B
:105A900013E00468001D0C4202D04D466D1E6419CF
:105AA0002260241D1B1F042BFAD225009E0701D55E
:105AB0002280AD1C0B4000D02A700368001D002B13
:105AC000E7D170BC7047FEE7F7B504000D0050A2A7
:105AD0000CCAFFF7C1FF1DD850A003C822002B003D
