:020000040800F2
:1000000008040020915400087B370008733800086A
:1000100000000000000000000000000000000000E0
:10002000000000000000000000000000AF380008E1
:100030000000000000000000E338000877460008D8
:10004000DF46000857490008B74B0008BB4B0008C3
:10005000B3580008BF5800085D5A00085F5A0008EE
:10006000615A0008635A0008655A0008675A000878
:10007000BB2E0008695A00086B5A0008352A000890
:100080006D5A000800000000000000006F5A0008D0
:1000900000000000715A0008735A00082D1D000866
:1000A00000000000755A0008775A0008795A0008C5
:1000B0007B5A0008000000007D5A00087F5A0008A3
:1000C000F0B59BB0A74869460885A7480AA94880AB
:1000D000A6480AA98880A6480AA9C880A5480AA9EE
:1000E0000881A5480AA94881A4480AA98881A4488A
:1000F0000AA9C881A3480AA90882A3480AA9488274
:10010000A2480AA9888201F0CBFA01F013FB01F0A2
:1001100021FC02F07DFA02F017FB02F0F4FB02F082
:10012000E7FD02F08CFE9A499A4802F01FFF012079
:100130000400E4B2102C0BDAE4B22200BC4995486A
:10014000E4B212236343C01802F018FF641CF0E706
:100150000520B84908805A20B74908800120B749CE
:10016000C871FF201430B54908830120B4490880C4
:100170000120B34948800F20B14988800220B0494E
:10018000C8800020AE490883B748AD494861B748E8
:1001900002F013FF02F0D9FD02F00CFFB449086031
:1001A00000F0C8FE02280AD000D24BE104286CD02F
:1001B00038D3062800D1F5E000D2A8E042E1AD48EE
:1001C0000078012812D1AC480021405EAB490022E2
:1001D000895E884204DBAA480088A849088020E09C
:1001E000A6480088401EA54908801AE0A548007866
:1001F000012803D0A348007802280DD1A248007836
:10020000022803DA0F20A04908700AE09E4800780F
:10021000401E9D49087004E002F0CCFE006802F028
:10022000CCFE12E193480078012812D193480021B6
:10023000405E93490022895E884204DB8E48008834
:100240008E49088020E08D480088401C8B4908803A
:100250001AE08C480078012803D08A4800780228E8
:100260000DD1894800780F2803DB012086490870EA
:100270000AE085480078401C8349087004E002F0D9
:1002800099FE406802F099FEDFE07A480078012884
:1002900007D07C480078012803D07A4800780228EB
:1002A00021D17A497A4802F061FE1E20794908700E
:1002B00070480078012803D101207749087025E0B3
:1002C000344871490978022251434018A02149005D
:1002D000724A128842526C4800785849888000203F
:1002E0006849087012E002F065FEC0686C498842F7
:1002F00004D002F05FFEC068002802D102F0BCFE0C
:1003000004E002F057FEC06802F057FE9DE0594835
:100310000078012807D05B480078012803D05948AD
:100320000078022838D15F488078EF2101405D488D
:100330008170D849564802F019FE1E2055490870B0
:100340004C480078012803D102205349087028E066
:1003500000203A49888000204B4908700020494914
:1003600008701EE036100000D20F0000820F00005F
:10037000410F0000190F0000C90E0000B50E00006B
:10038000A60E00009D0E0000790E00000B0E00006E
:1003900004590008540A002002F00CFE806802F0A4
:1003A0000CFE52E0324800683049884238D13D485E
:1003B0008078C0B2C009C0B2002811D01F4880792F
:1003C0001E49C97988420BD01C48C0791B498871E5
:1003D000B1492F4802F0CAFD1E202E49087026E0C0
:1003E000D5480088002822D02E488078C0B2400925
:1003F0008007800F01281AD10020CF4908800020F3
:10040000CE4908600020CE4908800020CD490880F0
:10041000CD491F4802F0AAFD1E201E49087006E0C3
:1004200014480078002802D1104802F0C6FD0CE004
:1004300018590008500A0020520A00200C08002019
:10044000D40C002000201449087002F0B3FD0849C4
:100450000860BE48C079022826DB124880788021D7
:1004600001431048817025E0CDCCCC3DCC5700082D
:10047000280D0020CE0C0020CC0C0020C80C002041
:10048000CA0C0020BE0B0020B40B0020085A000844
:100490009C0C0020C70C0020D00C0020B60B0020C4
:1004A000EC5800082C0D0020D64880784006400EFD
:1004B000D4498870D4488078022800D0BCE2D24861
:1004C000807CD149497C09020143CF48007C00046B
:1004D0000843CD49C97B090601430991C948807881
:1004E000C0B240098007800F022800D1A1E29748DE
:1004F00040690999884209D0C2488078C0B2000991
:100500000100C907C90F002900D192E2BD488078D7
:10051000C0B200090100C907C90F00290FD0B948AE
:100520008078EF210140B748817009988749486178
:10053000D949DA4802F01AFD1E20D9490870D94875
:100540000068401CD74908608048008BD649414369
:100550000291AD48C0780102AB48007908437D2183
:100560004843642102F0BEFD0100029802F0BDFD87
:100570000890A54840790002A34989790843734946
:100580004882A148C07901029F48007A08437D2132
:100590004843642102F0A6FD0100029802F0A5FD87
:1005A00007909948407A01029748807A08437D2154
:1005B0004843642102F096FD0100029802F095FD87
:1005C00006909148C07A01028F48007B08437D2144
:1005D0004843642102F086FD0100029802F085FD87
:1005E00005908948407B01028748807B08437D2134
:1005F0004843642102F076FD0100029802F075FD87
:1006000004900898514908810898BB49884202D350
:10061000B9484E49088107984C4948810798B6491E
:10062000884202D3B448494948810698474988819D
:100630000698B149884202D3AF4844498881059859
:100640004249C8810598AC49884202D3AA483F492B
:10065000C88104983D4908820498A749884202D37A
:10066000A5483A49088267488078C0B2C009C0B23C
:10067000002823D03548807900280FD13348C0792D
:10068000324988710449854802F070FC1E20844973
:1006900008700EE0B4590008545900082B488079BE
:1006A000012806D1C3497D4802F060FC1E207C4928
:1006B000087026488079401E24498871BE48007819
:1006C000002800D002E12148478A2048408A0A21B8
:1006D00002F008FD381A01901C48478A1B48408ADE
:1006E0000A2102F0FFFC38180390B44817498988A2
:1006F00002224A438018A0214900405A01998842A9
:1007000026D30398AD49114A928802235343C9184E
:10071000A0225200895A88421AD3A948007800289A
:1007200016D00020A74908600020A74908700020C3
:10073000A6490870CAE000BF2C0A0020240A002045
:10074000320A0020300A0020645900080C080020FA
:100750009B48007800285BD09A480068D449498AB1
:1007600040189849086098480078401C96490870DD
:1007700096480078401C95490870934800780528F1
:1007800000DAA3E08F4800688F49097802F0ADFCD9
:10079000C849088000208A490870C6480788C548AB
:1007A00000880A2102F09EFC381A1190C14807887F
:1007B000C04800880A2102F095FC381810900120EA
:1007C0000400E4B2102C00DB80E07C48E4B202219B
:1007D00061434018A0214900405A1199884215D31D
:1007E00010987649E4B2022262438918A02252008E
:1007F000895A88420AD37248047001206E490870F1
:1008000064E000BF2C0D0020080D0020641CD8E718
:100810006E480078401C6D490870A6480088019910
:10082000884211D30398A349098888420CD36648AB
:100830000078401C64490870624800689C49498AF5
:100840004018604908600AE09948408A9949088040
:1008500001205D4908709648408A5A4908605A4804
:1008600000780A2822DB574800685749097802F0C7
:100870003CFC9049088002204F49087001205049F3
:10088000087000205149087000204F49087000206E
:100890004C4908601AE000BF105A00089C0C002068
:1008A000C70C0020340A0020A086010047480078C9
:1008B0000F280BD3032040490870002043490870DB
:1008C00000204149087000203E490860D1488078E6
:1008D000C0B240098007800F012800D0A9E0CE48AF
:1008E0000088FF280ADBCD49CD4802F03FFB1E20DF
:1008F000CC4908709DE000BFFFFF00006C480089F4
:100900006B49C54A128802235343C9184883C64815
:1009100000686749C04A128802235343C918498BAB
:100920004018C1490860BC480088401CBA4908808A
:10093000B9480088022853DBBB480068B6490988DB
:1009400002F0D3FBD14908800020D1490860002083
:1009500004002000C0B2B049098880B2884237D272
:10096000CA4800885249E4B2022262438918498B7E
:1009700088420ED3C6480068C44909884C4AE4B28C
:1009800002236343D218528B891A4018C049086069
:100990000DE0BF4800684649E4B20222624389186C
:1009A000498BBA4A1288891A4018B9490860641CF0
:1009B000CFE700BFC0590008BE0B0020540A00203A
:1009C000B40B0020B80B0020BC0B0020BD0B002096
:1009D000AF4800689049098802F087FBD549088034
:1009E00033488088002824D0D3483149898802229E
:1009F0004A43801890214900405A002819D02C48B9
:100A000000892B4909894843CC4902F06BFBCA494C
:100A1000274A928802235343C91890225200895AC8
:100A20004843C64902F05EFB022102F05BFBC44969
:100A300008800020C349887000F0B0FBC24880786D
:100A4000012800D087E00020BF498870BE48008898
:100A50000500ADB2BD486843FA21890002F042FBAF
:100A600000B202F099FB0500114845802800694654
:100A7000098D80B2884202D36420060060E00AA893
:100A8000808A290089B2884216D300200600614876
:100A90000088002854D1AE49614802F067FA3C2032
:100AA00060490870962000015A49088048E000BF5C
:100AB0000C080020B60B00200A200400E4B2002C31
:100AC00012D028000AA9E4B202226243895A80B2F5
:100AD000884207D36420E4B20A216143401A060029
:100AE0006846C470641EE9E70AA86946C97802220C
:100AF00051434018801E00880AA96A46D278022312
:100B00005A43895A401A694648700AA86946C97802
:100B100002225143405A2D1AADB20A206843694659
:100B2000497802F0DFFA6946487068464078002844
:100B300006D0684640780A2802DA684640783618B7
:100B4000C948067033480088002804D0314800881E
:100B5000401E304908808020C0001590002014906D
:100B60007C4F149A1599380002F032FBBE48007889
:100B700001F0BCFBBD480068A149884202D100F0E9
:100B8000E7FB01E000F060FB9E48007801284DD1B2
:100B9000B64800680100183116A802F0E7F916A857
:100BA00001F0CAF898480078002815D0974800212D
:100BB000405E9549097802F095FA0190934800212A
:100BC000405E019902F091FA0391039B019A9049CA
:100BD00012A802F0D3F906E08C480021425EA4A1DD
:100BE00012A802F0CBF912A802F01AFB69460870AD
:100BF00040276846007806214843022102F072FA35
:100C0000381A6946887012AA1C216846807801F05B
:100C100087FC4DE02C0D00202C0A002074590008A0
:100C20009C0C0020C70C0020240A0020914800786A
:100C3000012803D08F48007802282BD18E4916A8AE
:100C400002F094F916A801F077F83B488B4909782F
:100C500012225143411816A802F090F916A802F08A
:100C6000DFFA694608704027684600780621484345
:100C7000022102F037FA381A6946887016AA1C2138
:100C80006846807801F04CFC12E000BF300A00207A
:100C9000280A002077480078032809D1954996480A
:100CA00002F064F91E20954908700020714908700F
:100CB00092480078002838D090480078401E8F492C
:100CC00008708F488078C0B200090100C907C90FB9
:100CD000002910D08948007800280CD188488078F5
:100CE000EF210140864881708649834802F03EF931
:100CF0001E2082490870804802F092FA6946087006
:100D00006846007801F078F84027684600780621A8
:100D10004843022102F0E6F9381A69468870764A9B
:100D20001C216846807801F0FBFB01F0E9FCFFF72D
:100D300031FA00BF320A0020540A002010270000B8
:100D40002E0A0020080D00201C0D002002040000C7
:100D50002C5900080904002080B5444800686A49FD
:100D6000884211D1632069490880012068490880C0
:100D70003D48C07900B200F04DF83B49C8713A488F
:100D8000C079394988713AE0384800686149884239
:100D90000DD15A205D49088001205D4908805E48D8
:100DA000008800B200F036F85B49088027E02F4841
:100DB00000685A4988420DD159494F4802F0D6F887
:100DC000C8204E4908704E488078102101434C4895
:100DD000817014E025480068524988420FD152487A
:100DE0004A49088064204A4908800A200649087058
:100DF0001D48008B00B200F00DF81B49088301BDAF
:100E0000CC570008CE0C0020D10C0020C80C0020CC
:100E1000185A000800B501000800CA4A1278012AD1
:100E20001BD1424A1278012A0BD1414A0023D25EDB
:100E300010000022C34B1A700022A84B1A7000B297
:100E400011E03A4A1278022A0CD10022BD4B1A70E6
:100E50000022A24B1A7000B205E0354A118001222F
:100E6000B84B1A7000B200BD0C080020280D0020FD
:100E700025750000BE0B002040590008B40B00206F
:100E800080B5B14800689649884206D11C488078F0
:100E90009F2101401A4881701AE0AB480068AB49B5
:100EA000884208D1164880789F21014020200843BD
:100EB000134988700CE0A4480068A549884207D10E
:100EC0000F4880789F210140402008430C498870DA
:100ED000AFA1094802F04AF81E20084908709A4854
:100EE00000688068AB49884202D1AB4802F065F8DF
:100EF00001BD0000845900089C0C0020C70C002094
:100F00002C0D0020205A000808560008CA0C0020AA
:100F1000CC0C002038550008500A00206C580008FE
:100F2000CC59000880560008E7030000D00C0020D0
:100F3000C80C002000B501210800BA49896F096971
:100F4000B94A12881140002908D1B84909786529A1
:100F500004DAB6490978491CB44A1170B4490968E1
:100F60000969B44A12881140002908D1AF4949786B
:100F7000652904DAAD494978491CAC4A5170AE493B
:100F800009680969AD4A12881140002908D1A749AA
:100F90008978652904DAA5498978491CA34A9170A2
:100FA000A74909680969A74A12881140002908D190
:100FB0009E49C978652904DA9C49C978491C9B4A2D
:100FC000D1709849896F0969974A128811400029A0
:100FD00012D09649097802290EDB0221080000216F
:100FE000924A11700021914A517000218F4A9170EC
:100FF00000218E4AD1706EE08D49096809698D4AD9
:1010000012881140002912D08849497802290EDB44
:10101000032108000021854A11700021834A517084
:101020000021824A91700021804AD17053E08249A8
:1010300009680969814A12881140002916D07B4944
:101040008978022912DB7949C9780A290EDA042144
:1010500008000021754A11700021744A5170002166
:10106000724A91700021714AD17034E07449096864
:101070000969744A12881140002912D06B49C97855
:1010800002290EDB052108000021684A11700021A9
:10109000664A51700021654A91700021634AD170FF
:1010A00019E0674909680969664A128811400029F0
:1010B00011D15E49C9780A290DDB062108000021FB
:1010C0005A4A11700021594A51700021574A9170B3
:1010D0000021564AD170C0B200BD0000D10C0020E2
:1010E0000C580008F0B585B006000D00140028006B
:1010F000290002F09DF802902000210002F098F8EB
:1011000001900299019802F0EBF8070038000021E5
:1011100002F072F901D1804807003000390002F076
:101120007BF90090009802F0CDF902F0E5F984A275
:101130000CCA02F02FFA02F0EFFA0390039805B000
:10114000F0BD0000CE0C0020280D0020185700082C
:10115000E055000838B5040024B2002C0BD424B2AA
:10116000200002F00BFB00226C4B02F021FB02F08E
:10117000D3FA05000AE024B2200002F0FFFA0022B0
:10118000714B02F015FB02F0C7FA0500280032BDD2
:101190004F4B000090550008CC570008F0B583B0C5
:1011A000012500205E49488100205D49888100209A
:1011B0005B49C8818721202001F0E7FA2C00E4B2C6
:1011C000002C09D0272001F0F6FA0600B007F6D06F
:1011D00001F010FB641EF2E70021202001F0D5FA97
:1011E0004F480A21405EFFF7B5FF01904C480C21A3
:1011F000405EFFF7AFFF009049480E21405EFFF7C9
:10120000A9FF07003A0001990098FFF76BFF4549D5
:101210000860009A01993800FFF764FF4B490860A5
:10122000F7BD00003C530008B8530008240D00200F
:10123000C0530008C4530008F0530008F4530008DA
:10124000E4530008E853000870B582B06846364998
:101250000A88028001F022F834480078062801DB71
:1012600000F024FF324800780500EDB231480078E4
:10127000401F854208DA2F480078062804DB2D48F5
:101280000078401F05000DE02A480078401FEDB2AD
:10129000A84207DAEDB227480078281A401D052831
:1012A00000DB6D1E2248057022480078401B0600B6
:1012B000214A01210E2001F033F96A46F6B20A20D4
:1012C0007043801C0100C9B2002001F029F9002000
:1012D0000400E4B2052C13DA1748EDB2E4B2291980
:1012E00014225143401802001432E4B20A20604331
:1012F0000C300100C9B2082001F012F9641CE8E7C3
:101300000E480078012803D0D2480078002801D088
:10131000FFF722FD73BD00007D1D902680FFCF40AA
:10132000F00C0020480A0020F6330008C50C00200D
:10133000C60C0020C40C0020C00B0020CE0C0020E6
:10134000000000C0DCA54C400000D0404C0A00204A
:1013500030B59DB0F8200290BF48006802F0B2F8A6
:101360004900490800900191E822BC490BA801F00E
:1013700005FEBB488078C0B240098007800F002876
:1013800008D0B7488078C0B240098007800F012894
:1013900000D01CE1B3480089642101F0A3FE0400E1
:1013A000B0480089A4B264216143401A0500A4B288
:1013B000002C02D1AB48008905002F200090ADB26F
:1013C0002B00A4B22200A84915A801F0D7FDA5481A
:1013D0004089642101F086FE0200A4A108A801F062
:1013E000CDFDA0488089642101F07CFE02009FA110
:1013F00007A801F0C3FD9B48C089642101F072FE7B
:1014000002009AA106A801F0B9FD95488078C0B203
:10141000C009C0B200280DD09248C37991488279A2
:10142000934913A801F0AAFD13AA2D215C2001F015
:1014300077F80EE08B48008A642101F053FE020029
:101440008AA105A801F09AFD05AA2D21622001F0CC
:1014500067F888488349898812224A438218002104
:10146000002001F05DF815AA1821002001F016F8FF
:1014700008AA0F21622001F053F807AA192162205F
:1014800001F04EF806AA2321622001F049F87448C1
:101490008078C0B240098007800F002827D1F8204B
:1014A00002907548006802F00DF849004908009064
:1014B0000191E222694909A801F060FD09AA2821E9
:1014C000002001F02DF80BAA28212A2001F028F88D
:1014D00008233822694801886748006800F0D1FC79
:1014E000674801885C48006800F037FEB0E0654856
:1014F00002885EA104A801F041FD634800886421D0
:1015000001F0F0FD040060480088A4B2642161434A
:10151000401A0500A4B2002C02D15B4800880500E7
:10152000ADB20095A4B22300E62258490FA801F0FD
:1015300025FD57480088642101F0D4FD040054487B
:101540000088A4B264216143401A0500A4B2002CB3
:1015500002D14F4800880500ADB20095A4B2230027
:10156000E5224A490DA801F009FD4A480088642196
:1015700001F0B8FD040047480088A4B2642161432B
:10158000401A0500A4B2002C02D142480088050090
:101590003A200090ADB22B00A4B22200324911A82B
:1015A00001F0ECFC04AA3721622000F0B9FF0FAA79
:1015B0002421002000F0B4FF0DAA2421312000F0E6
:1015C000AFFF11AA3821002000F068FF40E0244856
:1015D0008078C0B240098007800F02282FD13D20BB
:1015E00002902548006801F06DFF4900490800900D
:1015F00001913B22194909A801F0C0FCF820009094
:101600001E480388F122244903A801F0B7FC09AA67
:101610000821002000F042FF0BAA00214C2000F01E
:101620007FFF03AA09214C2000F07AFF2E2312220B
:10163000124801881048006800F023FC08E01749B0
:1016400017A801F09BFC17AA0021082000F068FFF2
:101650001DB030BDD00C00204C0A0020D859000825
:101660002C0D00200C080020E4590008257500000E
:10167000285A0008540A0020480A0020500A002076
:10168000520A00202C0A0020300A0020F0590008DD
:10169000320A00202E0A0020305A0008D4580008D0
:1016A00000B520480068012101431E4801601D4823
:1016B0000068800701D400BFF9E71A48006880215C
:1016C000490201431748016016480068800301D4AD
:1016D00000BFF9E714480068032101431248016084
:1016E000114800688007800F032801D000BFF7E78A
:1016F0000E480068102101430C4801600B48006847
:10170000800601D400BFF9E70848006801210143C1
:101710000648016006480068902188430449086033
:1017200000BD00BF341002400410024000200240FF
:101730003010024038B581480400814800680C210F
:10174000484320180500AC4210D2207AC0B24008AD
:101750000007000F0090207A0300DB07DB0FA2795F
:10176000E179206800F003F80C34ECE731BDF4B502
:1017700083B004000D001E00099F9020C005844224
:1017800006D1704800688021890201436D480160DC
:101790006D48844206D16B4800688021C90201432C
:1017A000684801606948844206D166480068802123
:1017B00009030143634801606548844206D16148DA
:1017C00000688021C90301435E480160F6B2002E23
:1017D00003D00120A840A06102E00120A840A0623F
:1017E0002068032102226A43914088432060606898
:1017F0000121A94088436060E068032102226A4316
:1018000091408843E060EDB22800082101F06AFCB5
:101810000421484320180290EDB22800082101F06D
:1018200061FC042148432018016A01910F200090B7
:10183000EDB22800082101F055FC04204143009836
:10184000884001998143029801626846007B002824
:101850000BD0022812D010D304281FD016D306288C
:1018600033D025D307283AD045E02068032102224F
:101870006A439140014321603DE03CE0E068012182
:1018800002226A4391400143E16034E0E0680221B2
:1018900002226A4391400143E1602CE0206801216B
:1018A00002226A439140014321606068606022E047
:1018B0002068012102226A4391400143216060684F
:1018C0000121A9400143616015E020680221022244
:1018D0006A43914001432160606860600BE02068CA
:1018E000022102226A439140014321606068012184
:1018F000A94001436160EDB22800082101F0F2FB2C
:101900000421484321180191EDB22800082101F07B
:10191000E9FB042148432018016A0091FFB2EDB2AF
:101920002800082101F0DEFB0420414338008840F4
:101930000099084301990862FFBD00003C5300086C
:101940000000002014100240000400480008004875
:1019500000140048AA48006803210143A848016018
:10196000A74800680C210143A5480160A54800680C
:1019700001210143A3480160A248006804210143FA
:10198000A0480160A04800688021890301439E4867
:1019900001609E4800688021890301439B480160E3
:1019A0009A4800689A49014098480160994800683F
:1019B000092101439748016096480068C0218900C9
:1019C00001439448016093480068C02189020143A3
:1019D000904801608F480068C021890301438D4809
:1019E0000160704700B58C4A126801239A438A4B04
:1019F0001A60894A126801231343874A1360C34A55
:101A00001268864B1340C14A136089B2FF290EDD6C
:101A1000BE4A1268FF231B041343BC4A1360BB4A2F
:101A2000126880235B041343B84A13600BE0B74A83
:101A300012680B041343B54A1360B44A1268B44BDE
:101A40001340B24A1360B14A1268FF239A43AF4B66
:101A50001A60AE4A1268C0B20243AC4B1A60AB4A7D
:101A600012688023DB001343A84A1360A74A126858
:101A700080239B011343A54A136000BDF8B5050000
:101A80000C001600A3480068000468D4310089B235
:101A90002800C0B2FFF7A6FFB6B2FF2E00DDFF3E62
:101AA0009C480068400704D59B4800682070641C6F
:101AB000F6E798480068400609D5944800688021F8
:101AC000C90101439148016002200700E8E79148FD
:101AD0000068000625D58D480068504901408B48B4
:101AE0000160B6B2FF2E0FDD88480068FF210904AF
:101AF000014386480160854800688021490401430C
:101B000082480160FF3ECBE7804800683104014312
:101B10007E4801607D4800687D4901407B48016046
:101B2000BEE77C480068C0060ED57C4800681021DE
:101B300001437A48016079480068202101437748D1
:101B40000160032007000CE0724800688006A7D5FA
:101B500072480068202101437048016001E00120C3
:101B600007003800C0B2F2BD00B52B4A126801234D
:101B70009A43294B1A60284A126801231343264AC4
:101B80001360624A1268254B1340604A136089B2A1
:101B9000FF290EDD5D4A1268FF231B0413435B4AD5
:101BA00013605A4A126880235B041343574A136038
:101BB0000BE0564A12680B041343544A1360534A0D
:101BC0001268534B1340514A1360504A1268FF2366
:101BD0009A434E4B1A604D4A1268C0B202434B4BB7
:101BE0001A604A4A12684E4B1340484A1360474AEB
:101BF000126880239B011343444A136000BD000018
:101C0000081400480C1400481C1002401010024038
:101C1000FFFFDFFF1054004000540040FFFF00FFB3
:101C2000F8B505000C0016003A480068000468D4B6
:101C3000310089B22800C0B2FFF796FFB6B2FF2E7E
:101C400000DDFF3E33480068800704D52078354921
:101C50000860641CF6E72F480068400609D52B4849
:101C600000688021C9010143284801600220070063
:101C7000E8E728480068000625D5244800682A4976
:101C8000014022480160B6B2FF2E0FDD1F480068F8
:101C9000FF21090401431D4801601C4800688021A0
:101CA0004904014319480160FF3ECBE7174800682B
:101CB000310401431548016014480068144901408B
:101CC00012480160BEE713480068C0060ED51348ED
:101CD000006810210143114801601048006820216C
:101CE00001430E480160032007000CE0094800682A
:101CF0008006A7D5094800682021014307480160F4
:101D000001E0012007003800C0B2F2BD04540040D9
:101D1000FFFFFFFE18540040245400401C540040B4
:101D2000FFFBFFFF28540040FFFF00FF70470268E1
:101D3000531C036011707047F1B586B000A8801C79
:101D40002B490A88028068462A490A8802800820AE
:101D500007000820060000200500EDB2702D23DAF0
:101D600000200400E4B2302C1CDAE4B2002C08D0CD
:101D7000E4B22F2C05D0EDB2002D02D0EDB26F2DC4
:101D800007D101223119C9B27819C0B200F0DAFBCB
:101D900006E000223119C9B27819C0B200F0D2FBB6
:101DA000641CDFE76D1CD8E7069A0A210A2000F0C0
:101DB000B7FB00AA921C2E212E2000F0B1FB6A4630
:101DC0002E214C2000F0ACFBB64901A801F0CEF862
:101DD00001AA2E210A2000F0A3FBB34901A801F0BB
:101DE000C5F801AA2E215E2000F09AFB07B0F0BDD5
:101DF000C2340008F6340008F1B582B0684669467E
:101E0000097A062251430831017140210091684648
:101E10000079022101F066F90099081A07001720DD
:101E2000060000200500684600792900C9B28842F2
:101E300026D300200400E4B2112C1FDAE4B2002CF7
:101E40000BD0E4B2102C08D0EDB2002D05D0280044
:101E500069460979C0B2884207D101223119C9B255
:101E60007819C0B200F06EFB06E000223119C9B249
:101E70007819C0B200F066FB641CDCE76D1CD2E789
:101E8000F7BDF7B588B01F000120694608726846A3
:101E90006946097A791A491E017368460AA90978C0
:101EA0006A46127A8918491C417268466946097B5C
:101EB0006A46127A891A491EC17300200500EDB2E4
:101EC000802D58DA2E00EDB2402D02DB280040387C
:101ED0000600F6B23000072101F004F9002902D013
:101EE000F6B2002E45D10020040020003900C0B217
:101EF000C9B288423DD2FFB23800032101F0F2F8A6
:101F0000401E69468873FFB202207843032101F026
:101F1000E9F8401C69464873EDB23F2D02D0EDB29E
:101F2000402D07D16846007A694688736846007B71
:101F300069464873E4B2002C10D06846807B2100CB
:101F4000C9B2884205D220006946497BC0B28842A6
:101F500004D3E4B2FFB2781E844208D101220AA859
:101F600000780119C9B22800C0B200F0EBFA641C75
:101F7000BBE76D1CA3E7802006000899C64801F066
:101F800057F901F077FC6946088268466946898CF2
:101F900064225143C182002069464881049800B2FE
:101FA00002990914884200DAB61E68460599091498
:101FB000029A1214891A8182059800B200286ED004
:101FC0000298001401F074FC0100089801F08AFCEA
:101FD00007D86846049909B2029A1214891A4182F4
:101FE00006E0684602990914049A12B2891A4182DD
:101FF000059800B204990914884203DA059800B2E2
:10200000694648820499091480204843022101F05E
:1020100069F8059909B201F065F86946088300205E
:1020200005002800C0B2069909B200B2884236DA2B
:102030000020040020006946C97BC0B288422CD22F
:10204000049800B202990914884212DB0122684602
:10205000407A2118C9B200910192F6B230000221F3
:1020600001F040F84019019A0099C0B200F06AFAF4
:1020700011E001226846407A2118C9B2009101920C
:10208000F6B23000022101F02DF8401B019A0099B0
:10209000C0B200F057FA641CCCE76D1CC1E70BB06E
:1020A000F0BD0000385A0008405A0008F8B5342046
:1020B000694608707D2007000A2006000020050000
:1020C000280069460978C0B288420FD20020040077
:1020D000E4B2022C08DA01227119C9B23819C0B26F
:1020E00000F030FA641CF3E76D1CE9E77C20070080
:1020F000AA480078401E694609784843A8490978EB
:1021000000F0F0FF69464870684640780A300600E3
:1021100000200500EDB2042D1ED200200400E4B220
:10212000082C17DA9F48EDB2405D0121A14008421A
:1021300007D001223119C9B27819C0B200F002FAF1
:1021400006E000223119C9B27819C0B200F0FAF9DC
:10215000641CE4E76D1CDDE7F1BDF3B585B04020FC
:10216000060005994C4801F063F801F083FB6946CD
:10217000888068466946098B64225143418100206A
:1021800007003800019909B200B2884200DAB61E91
:10219000684602990914C91B0181029800B20028FF
:1021A00078D03FB2380001F083FB0100059801F0C0
:1021B00099FB05D86846019909B2C91BC18004E0A2
:1021C0006846019909B2791AC180029800B2019952
:1021D0000914884203DA029800B26946C88001995E
:1021E00009142C204843022100F07CFF029909B217
:1021F00000F078FF69468881002005002800C0B201
:10220000039909B200B288422DDA00200400E4B23A
:10221000042C26DA019800B2390009B288420FDB9B
:1022200001220092F6B23000022100F05BFF411B58
:10223000009AC9B220007C30C0B200F083F90EE0F1
:1022400001220092F6B23000022100F04BFF41194A
:10225000009AC9B220007C30C0B200F073F9641C4F
:10226000D5E76D1CCAE700200500EDB2022D11DA9A
:1022700000200400E4B2042C0ADA01222020411BD1
:10228000C9B220007C30C0B200F05CF9641CF1E7F8
:102290006D1CEAE707B0F0BD0000C842F8B50027A2
:1022A000002600200500EDB20D2D1ED200200400F6
:1022B000E4B2082C17DA9948EDB2405D0121A14043
:1022C000084207D001223119C9B27819C0B200F012
:1022D00039F906E000223119C9B27819C0B200F00C
:1022E00031F9641CE4E76D1CDDE7F1BDF1B582B0A6
:1022F000712007000020060069463800801C4870E5
:1023000069463000801C08706846007A652802DB48
:1023100064206946087200200500EDB20F2D1EDA18
:1023200000200400E4B2082C17DAB848EDB2405D92
:102330000121A140084207D001223119C9B2781900
:10234000C0B200F0FFF806E000223119C9B27819D6
:10235000C0B200F0F7F8641CE4E76D1CDDE7002074
:1023600005006846007A0A2100F0BCFEEDB2854205
:1023700013DA00200400E4B2042C0CDA01226846CF
:1023800000780119C9B2684640784019C0B200F01F
:10239000D9F8641CEFE76D1CE3E7F7BDC40C00201F
:1023A000C50C0020585A0008F7B507000E000020A1
:1023B0000500EDB2182D70DA00200400E4B2082CFC
:1023C00069DAEDB22800022100F08CFE00292FD13D
:1023D000CA486946097A182251434018EDB240199B
:1023E000D149405C0121A140084210D0012231199D
:1023F000C9B200910192EDB22800022100F072FEF4
:102400003818019A0099C0B200F09CF841E000220F
:102410003119C9B200910192EDB22800022100F0F9
:1024200061FE3818019A0099C0B200F08BF830E0D4
:10243000B2486946097A182251434018EDB2401952
:10244000B949405C0121A140084211D00122311953
:102450000839C9B200910192EDB22800022100F0C2
:1024600041FE3818019A0099C0B200F06BF810E0F4
:10247000002231190839C9B200910192EDB2280049
:10248000022100F02FFE3818019A0099C0B200F026
:1024900059F8641C92E76D1C8BE7F7BD70B5050019
:1024A0000E0014002078002809D022783100C9B22B
:1024B0002800C0B2FFF778FF641C0C35F2E770BD4E
:1024C000F4B507000E0000200500EDB2062D23DA5A
:1024D00000200400E4B2082C1CDA9448694609780C
:1024E000062251434018EDB2405D0121A14008424F
:1024F00007D001223119C9B27819C0B200F022F810
:1025000006E000223119C9B27819C0B200F01AF8F9
:10251000641CDFE76D1CD8E7F1BD0000945900088A
:1025200070B505000E0014002078002809D022782C
:102530003100C9B22800C0B2FFF7C2FF641CAD1D54
:10254000F2E770BDF0B504000D001600F6B2002EE3
:1025500020D0022E3CD058D2E4B2EDB2280008219F
:1025600000F0C0FD80214843201871490F18E4B2E3
:10257000EDB22800082100F0B5FD80214843201865
:102580006B490818407801216A07520F91400143B6
:1025900079703AE0E4B2EDB22800082100F0A2FD23
:1025A00080214843201862490F18E4B2EDB2280098
:1025B000082100F097FD8021484320185C49081845
:1025C000407801216A07520F9140884378701CE0DF
:1025D000E4B2EDB22800082100F084FD80214843D8
:1025E000201853490F18E4B2EDB22800082100F07A
:1025F00079FD8021484320184D4908184078012171
:102600006A07520F914041407970F0BDA45900080B
:1026100080B5484800884849C96B8862474801F03E
:1026200075F9444800884449C96B8861AE2000F0C0
:102630004EF8002000F04BF8102000F048F8402041
:1026400000F045F8812000F042F8802000F03FF8CB
:10265000C82000F03CF8A12000F039F8202000F05C
:1026600036F8002000F033F8A62000F030F8A8205B
:1026700000F02DF83F2000F02AF8D32000F027F8D2
:10268000002000F024F8D52000F021F8F02000F020
:102690001EF8D92000F01BF8F12000F018F8DA201D
:1026A00000F015F8122000F012F8DB2000F00FF80F
:1026B000402000F00CF88D2000F009F8142000F004
:1026C00006F8AF2000F003F800F01AF801BD38B5A5
:1026D0000500782468460021018068464570184846
:1026E0000068000401D500BFF9E702226946012015
:1026F0002043C0B2FFF794FA31BD0000BC5100087E
:1027000010B5782440200A4908700D48006800047C
:1027100001D500BFF9E70B4A054901202043C0B2AB
:10272000FFF77EFA10BD0000B0FBFFFFBC4B0008B6
:10273000080400207C5300083C53000810270000C8
:10274000185400400104000080B50121232000F04E
:102750001CF8444801F0DAF80021232000F015F8B5
:102760000021242000F011F81021252000F00DF8A0
:102770000021102000F009F80021112000F005F8D8
:102780000021122000F001F801BD70B582B00600F2
:102790000D003A2468460670684645703248006865
:1027A000000401D500BFF9E7022269462000C0B24B
:1027B000FFF736FA73BD11B581B03A242A48006894
:1027C000000401D500BFF9E7012201A92000C0B231
:1027D000FFF726FA24480068000401D500BFF9E796
:1027E0000122694601202043C0B2FFF747F968463D
:1027F000007816BD10B582B03A24282069460870CA
:1028000019480068000401D500BFF9E701226946B4
:102810002000C0B2FFF704FA13480068000401D595
:1028200000BFF9E70622114901202043C0B2FFF79B
:1028300025F90F48007C0E49497C090201430C48E8
:1028400041810B48807C0A49C97C09020143084840
:1028500081810748007D0649497D090201430448FA
:10286000C18113BD1027000018540040000D002046
:10287000F00C00200121C206D20E91405C4A11608A
:102880007047F0B540B2002821D55A4C40B202073B
:10289000120F083A950804225543564A40B20307DE
:1028A0001B0F083B9B0804267343D258FF2386075F
:1028B000B60F08277E43B3409A438B01DBB28607ED
:1028C000B60F08277E43B340134363511AE04A4AC8
:1028D00040B2830804246343D258FF238407A40F23
:1028E00008256C43A3409A438B01DBB28407A40FF5
:1028F00008256C43A34013433F4A40B28408042593
:102900006C431351F0BD80B53C4800680121014380
:102910003A4801603A4800680121014338480160A3
:10292000374800680121884335490860312035491E
:102930000860354835490860354800883549C96E12
:1029400088613548006801210143334801603248FD
:1029500000683021014330480160304800680A2196
:1029600001432E4801602C4800682B4908602B4821
:1029700000680121014329480160294800680221BB
:10298000014327480160264800680121014324488B
:102990000160244800682449014022480160214820
:1029A0000068022188431F4908601E480068012111
:1029B00088431C49086000201C49087000201B49FE
:1029C00048700020194988700F20FFF753FF0F212E
:1029D0000F20FFF756FF16480068012101431448F5
:1029E000016013480068022101431148016001BDE4
:1029F00000E100E01CED00E000E400E01C100240FB
:102A00001010024028000040E09304002C00004019
:102A1000AC5300083C530008180000402000004060
:102A20000C00004010000040FFFDFFFF080D0020DB
:102A30001400004000B5A2480068800522D5A048D7
:102A40000068A04901409E4801609D48006802213D
:102A500088439B4908608020C005006801218843A5
:102A60008021C905086098488078022800D125E1B6
:102A70000020954908700020934948700020924931
:102A800088701BE18E480068800700D4F7E08C480E
:102A90000068022188438A4908608B4880780228B0
:102AA00008D18020C0050068012188438021C90524
:102AB000086003E18548006880062AD584480068DC
:102AC0008449884221D282480068834988421CD3C5
:102AD0008020C0050068012188438021C905086065
:102AE00000207949087078484078102807D1764846
:102AF0008078032803D002207349887005E0002005
:102B00007149487000207049887000207049086041
:102B1000D4E08020C0050068C00700D4A3E0802076
:102B2000C0050068012188438021C9050860684804
:102B300000686A49884212D265480068684988423C
:102B40000DD361488078002809D100205E490870C3
:102B500000205D49487001205B49887083E05C4833
:102B600000686049884233D2594800685E4988420B
:102B70002ED35548807801282AD1534852494978A4
:102B80004018C0780121504A1278914088434E493C
:102B90004D4A52788918C8704B480078401C4A4901
:102BA00008704948007808285DDB00204649087015
:102BB00045484078401C44494870434840781128B3
:102BC00051DB03204049887000203F4948704AE0AB
:102BD0003F4800683F49884233D23D4800683E493B
:102BE00088422ED33848807801282AD13648364981
:102BF00049784018C0780121334A12789140014346
:102C00003148314A52788018C1702F480078401CF2
:102C10002D4908702C480078082824DB00202A4918
:102C2000087029484078401C274948702648407859
:102C3000112818DB0320244988700020224948709D
:102C400011E08020C0050068012188438021C9056A
:102C5000086000201C49087000201B4948700020B3
:102C6000194988702AE00020204908608020C005AA
:102C70000068012101438020C00501601EE010486A
:102C80000068C0071AD50E480068012188430C4926
:102C900008608020C0050068012188438021C905A3
:102CA000086009488078022808D00020064908708A
:102CB00000200549487000200349887000BD0000CD
:102CC00010000040FFFDFFFF080D0020100000482D
:102CD00034000040BB040000DE030000131B0000B2
:102CE0002616000075090000BC0700002400004003
:102CF00025480068802109010143234801602348D9
:102D00000068802109010143204801601F480068D4
:102D10001F4901401D48016031201E4908601E48BE
:102D20001E4908601E480068012101431C480160DB
:102D30001C480068082101431A48016019480068CE
:102D40000121014317480160704700B51549096822
:102D5000C90708D513490968C90701D500BFF9E7B4
:102D60000021080001E0012108000E490968012244
:102D70000A430C490A600C49096804220A430A49BB
:102D80000A60C0B200BD0000181002400C100240E2
:102D9000FFF7FFFF282C0140409C00002C2C014035
:102DA000142C0140002C0140082401400121C206DE
:102DB000D20E9140614A11607047F0B540B20028D0
:102DC00021D55F4C40B20207120F083A9508042241
:102DD00055435B4A40B203071B0F083B9B08042680
:102DE0007343D258FF238607B60F08277E43B340AC
:102DF0009A438B01DBB28607B60F08277E43B340A8
:102E0000134363511AE04F4A40B2830804246343DA
:102E1000D258FF238407A40F08256C43A3409A438C
:102E20008B01DBB28407A40F08256C43A340134336
:102E3000444A40B2840804256C431351F0BD80B568
:102E4000414800688021890001433F4801603F48B4
:102E500000688021890001433C4801603B480068CC
:102E60003B490140394801603A4800688021090621
:102E700001433848016037480068002801D500BF89
:102E8000F9E73448006801210143324801603248C3
:102E90000068324800681021014330480160304822
:102EA0000068182101432E4801600C20FFF77EFFC7
:102EB0000E210C20FFF781FF01BD00B525480068F9
:102EC00040071FD42448006800070DD52248006839
:102ED00008210143204801602248006822490880F7
:102EE00001202149887028E01B480068C00624D5CD
:102EF00019480068102101431748016000201A4951
:102F000088701AE0134800681021014311480160DD
:102F100010480068C00601D500BFF9E70E480068F8
:102F2000082101430C4801600B480068102101434F
:102F30000948016000200C49887000BD00E100E0F4
:102F40001CED00E000E400E0181002400C1002400C
:102F5000FFFDFFFF08240140002401402824014018
:102F600004240140402401401C0D0020002300E007
:102F70005B1CCA5C002AC254FAD170470CB41CB561
:102F8000040004A80190009401AB0A0069460848B7
:102F900078441C3000F0EAFC0021009A11700028EF
:102FA00001D40098001B02B0019910BC03B008477F
:102FB0007FEDFFFF3A4800687047F1B582B0029894
:102FC0003849884202D00298002800D153E0FFF728
:102FD000F1FF0299C068814205D0FFF7EBFF02992B
:102FE0008068814202D100202F49087002982C4944
:102FF00008602B480068050000200400A8680090C5
:10300000641C2A48047068682649884202D100205E
:10301000040001E06D68F1E7E4B20A2C10DA142034
:10302000019000262248E4B21421614340180700B1
:10303000143732000199380000F0CAF8641CEBE73D
:103040000098010018311A48FFF790FF0020040093
:10305000290018311648E4B2142262438018143053
:10306000FFF784FF641C1348047028680D498842E8
:1030700001D02D68ECE7F7BD10B509480068094993
:10308000884203D006480068002800D106E00448C2
:10309000006844692000002800D0A04710BD00004F
:1030A00004000020EC580008C60C0020C40C0020CE
:1030B000C00B0020C50C0020F446002804D449426F
:1030C00000F013F8404260474042002905D45FD029
:1030D00000F00BF8404249426047494200F005F8D1
:1030E0004942604703460B43E6D40022030A8B4261
:1030F0000BD203098B4219D243088B422ED2411ABC
:1031000000D20146524110467047FF2209023FD0CB
:1031100012068B4205D3121209028B4201D31212FE
:10312000090203098B4219D300E0090AC3098B4243
:1031300001D3CB01C01A524183098B4201D38B01C9
:10314000C01A524143098B4201D34B01C01A52416C
:1031500003098B4201D30B01C01A5241C3088B42B1
:1031600001D3CB00C01A524183088B4201D38B009C
:10317000C01A524143088B4201D34B00C01A52413E
:10318000884200D3401A5241CFD2014610467047C0
:1031900008B501F071FA08BD10B504000A480068CE
:1031A00024B2001909490022895E401A06490860C4
:1031B000054800682821FFF795FF04490880034867
:1031C0000021405E10BD0000200D0020300D0020C9
:1031D0001206130A1A43130C1A4300BF094205D002
:1031E000830705D00270401C491EF9D170470000CA
:1031F000130030B414001500103902D310393CC04C
:10320000FCD2490700D30CC000D504C0890002D30A
:103210000280801C002900D5027030BC704700007D
:10322000010000E0491C0A78002AFBD1081A704707
:1032300030B405004D400122D20715404B18041848
:10324000240E2ED01B0E32D0FF2C34D0FF2B3AD0C0
:10325000E4180002090210431143000A090A9446C7
:10326000C2B24A43000AC3B24B43000A4843110AA0
:103270005B181A43D2B2190A091801D44918641EFE
:10328000080A7F3C23DBFE2C08DAE405090611431B
:10329000634699416041284330BC7047FF20C00518
:1032A000F9E728001B0EFF2BF6D1D043F4E72800E6
:1032B000FF2CF1D1F9E74002F7D1FF2B01D14902F0
:1032C000F3D1E005E7E7D8054902E4D0EDE7430292
:1032D0000020641CDFD15B129B1CDCD9D805DAE727
:1032E0000122D20703004B402ED4431A01D2C01A48
:1032F000C91830B44B180418240E1B0E22D0FF2C12
:1033000020D0E31A182B1DDC09021143C40D641EE2
:103310000002104394461925ED1A0A00AA40D9402C
:10332000451801D36D08A41CE405D209280A2D060E
:103330002A436546AA41604103181B0EFF2B01D3A7
:10334000C00DC00530BC7047514001E05140CCE792
:10335000431A03D2C01AC9185040514030B44B1818
:10336000090211430418240E1B0E40D0FF2C3AD042
:1033700025009D410BD31ED8C50D4002401A0BD32A
:10338000ED050100400AC90591416841DAE7C50D24
:1033900040024918401AD5D001214008491C0018A4
:1033A000FCD58C4204D36D1A000AED054019C9E71B
:1033B000E8051040C6E7182DC4DCAC1C0D00E14048
:1033C000E5414D40012D4941C40D00021043451A0D
:1033D00001D46D199543641EE405280A2D06954114
:1033E000604130BC7047FF2BACD1D843AAE72442E0
:1033F000A8D10020A6E71A00944602000A439218BA
:1034000008D0884206D1012212060018D042084690
:1034100000D880426246704730B405004D4001221A
:10342000D20715404B180418240E28D01B0E2FD09D
:10343000FF2C34D0FF2B37D0E41A000209021043CE
:10344000114343084808D10D1B1A02D2641EDB1831
:103450001B18DB18834200D31B1A4941F9D37F3470
:1034600026DDFE2C08DAE4054808C9071943914116
:103470006041284330BC7047FF20C005F9E72800B1
:103480001B0E03D0FF2BF5D14902F3D0D043F1E757
:10349000FF2C01D14002F9D1FF20C005E9E740022D
:1034A000F4D1FF2BF8D1F1E728004902E2D0EDE793
:1034B0000B0200202442DCD15B129B1CD9D9D80519
:1034C000D7E71800012212060118CA420AD28A421E
:1034D0000DD83822120609098918C20FD2071143E4
:1034E0004007704700D049080909014301E0C10FB6
:1034F000C90700207047190013B54800400D204A45
:10350000904211D000281AD0684603C80022002338
:1035100001F0B3F819D2684603C880221206514060
:103520006A4603C2082411E00A03120B684603C866
:10353000104304D1002905D412A003C81CBD68465D
:1035400003C81CBD11A003C81CBD0024684603C8E5
:1035500001220A4B01F0AAF80AD8002019466A464F
:103560000CCA00F025F96A4603C220000224444038
:103570002200684603C801F0B3F81CBD0000F03F0C
:10358000FF070000182D4454FB21F93F182D445427
:10359000FB21F9BFF0B50E005E400125ED072E407E
:1035A000B446AE0ADF184C18F44208D2F7420ED2E5
:1035B000640D01D07F0D12D100206146F0BD05D110
:1035C000F74201D87F0D05D10020C143F0BDFBD1EA
:1035D000640DF9D00020C143490549088FE0E41982
:1035E000C902DB0229432B43DB0A460DC0023143EB
:1035F0008E4630B487B295B27D432E0CADB2140C1A
:103600007C43A419260C240425439CB27C43A419B2
:10361000190C7943270CC919A4B20F043C43090CB7
:10362000000C97B247432E0CBE193543ADB2170CB0
:103630004743360CBF19A6B2BF193E043543240CCC
:103640003E0C36199FB24743BF19BCB23E0C8919D4
:103650001F0C47437F183E043443390C704680B238
:1036600097B247432E0CBE193543ADB2170C4743F2
:10367000360CBF19A6B2BF193E043543240C3E0CCC
:1036800036199FB24743BF19BCB23E0C89191F0CB3
:1036900047437F183E043443390C77463F0C90B2C1
:1036A00078432E0C80190604ADB22E43050CA0B24F
:1036B0002D18120C7A435019020C80B2240CA41855
:1036C0009AB27A43121914042043120C89181B0C65
:1036D0007B43C91830BCEF0A394203D1B6194041C7
:1036E0004941641E6F12BF0DE41B0BDBFF19BC4286
:1036F00011DA240500274208AE417841614166464F
:103700003143F0BD641C05D1401C6141CF0201D39F
:103710004908F4E750E75DE7012252054B18DA4209
:1037200001D9581570475B0D0722D2019B1A10D999
:10373000FF2B1DD2DB050122D2070A4013430903E8
:10374000020D1143490AC200524100D9491CC81850
:1037500070470AD1800A0A0302435212921C04D90C
:10376000D3070B40D00518437047C80FC0077047F8
:10377000C80F0002FF30C0057047FEE7010009D501
:10378000F446404200F006F80122D2071143604798
:10379000010000BF42221201D21E004207D002D413
:1037A000521E0018FCD5C10A400512058918704741
:1037B000F0B40E005E400125ED072E40B446AE0A7F
:1037C000DF184C18F4423BD2F74241D2640D43D08B
:1037D0007F0D38D0E41BC902DB0229432B43CF0AFB
:1037E000DB0A0600B61A9F4104D2641EB6197F4157
:1037F000B6185F416812800D24180018844222DA3E
:10380000E80C0021B6197F41B61A9F4102D2B618C2
:103810005F413F1C40414941F4D3241C21DD240574
:10382000B6197F41B61A9F4105D33743C6073743C0
:103830000026012F7041614166463143F0BC70475C
:10384000FCD1F74205D20020C14349054908F3E7FE
:1038500004D00020C143F1E77F0DFAD0002061467B
:10386000ECE72442FAD1401C61410F03F6D300205B
:10387000E2E7FEE70122D2070118090E7F3910D4D2
:1038800049421F310FD4001805D2C0011043C8406F
:1038900000D5D0437047C0011043C84005D4404212
:1038A0007047002070470042F3D510007047FEE7D4
:1038B0009D21020008D5F446524200F005F801228D
:1038C000D2071043604700000AD002D4491E921864
:1038D000FCD5C905100A1206524100D3012A4841FD
:1038E0007047FEE70CB4012212060318DA4207D82B
:1038F0004B18DA4204D802000A43921802D28142DD
:103900000CBC7047FCD088420CBC704700B5124913
:10391000096802220A4310490A6031210F4A1160E6
:1039200080B20F4908600F49096801220A430D4916
:103930000A600D49096808220A430B490A600A49CE
:10394000096801220A4308490A6007490968C9074A
:1039500001D500BFF9E700BD1C100240280400405B
:103960002C0400401404004000040040F1B5A4B051
:1039700014001F0014ADA9600020E8620AE0A868E6
:10398000249A9047A860002800D1CBE2E86A401C46
:10399000E862641C2178080001D1E86AC4E22529A4
:1039A000EDD100206861A861E86128626862A862C0
:1039B00002E0010001200843641C21782029F8D08E
:1039C00023290ED02B2904D02D2907D030290BD044
:1039D0000DE001000220084380B2EDE70100042061
:1039E000F9E701000820F6E701001020F3E72A2993
:1039F0000FD1396839600A68091D39606A63002A85
:103A000005D55142696301000420084380B2641C5B
:103A100012E0002169630AE06A6B774B9A4205D095
:103A200093009A185200511830396963641C217848
:103A30000A00303A0A2AEFD321782E2903D0002138
:103A4000C94329631EE0641C21782A2907D13968FB
:103A500039600A68091D39602A63641C12E000217C
:103A600029630AE02A6B644B9A4205D093009A18A6
:103A70005200511830392963641C21780A00303A09
:103A80000A2AEFD32887267831005A487844FF3035
:103A9000653000F015FF002801D0641C00E000260E
:103AA0003A202E54285C682804D12178682901D155
:103AB000622005E06C2806D120786C2803D17120A3
:103AC0003A216854641C05A828612678641C3000DB
:103AD000253824D02038022800D8D4E0133800D16B
:103AE000F6E00B3800D15DE1401E00D137E1401E09
:103AF000022800D8C7E0001F00D130E1401F00D1EC
:103B000093E0401E00D1E3E0401E27D0C01E0BD042
:103B1000801E00D1DCE0C01E00D1D9E04CE12520A0
:103B200069460875012051E1386838600168001D58
:103B30003860E9602E6B002E03D50846FFF770FB56
:103B40000AE032000021E86800F0C4FE002802D03C
:103B5000E968401A00E03000A86138E13868386050
:103B60000268001D38600020C0430021104014AAE4
:103B700003C205A8E860286900903C2214A803C885
:103B800002AB03C302A803C8002904D1002802D154
:103B9000286B00281DD0521E02A803C80007000F82
:103BA0003030C0B23A2800DB27300099885402A890
:103BB00003C800090B071843090902AB03C302A895
:103BC00003C801D1002804D0E86800998918884208
:103BD000E1D33C20801AA86100998918E960296B1B
:103BE00088420DDA081A2862288F04490140298783
:103BF000EDE000BF541E0000FFFFFF7FEFFF00005D
:103C0000002900D4E3E03821695C14220A40102A1C
:103C100000D0DCE0696B6A69891A2A6A891A0A1A73
:103C2000012A00DAD3E02A62D1E03A20285C622837
:103C300019D0682806D06A280CD06C281BD07128AF
:103C400008D018E0386838600168001D3860E86AFC
:103C50000880BCE0386838600268001D3860E86A97
:103C6000C11703C2B3E0386838600168001D3860CE
:103C7000E86A0870ABE0386838600168001D386099
:103C8000E86A0860A3E03A68D21D072082433A60E0
:103C900003CA3A6014AA03C2002902D568692D211B
:103CA00009E0288F810702D568692B2103E0C0074E
:103CB00005D56869202105AA1154401C686105A832
:103CC00069694018E860310014A800F0F9F97EE055
:103CD0003A20285C6C280BD0712801D06A2807D1C3
:103CE0003A68D21D072082433A6003CA3A6005E071
:103CF000396839600868091D3960002114AA03C2B7
:103D00003A20285C682803D114A803C880B20BE0CD
:103D1000622803D114A803C8C0B205E0742801D0FA
:103D20007A2804D114A803C8002114AA03C2382099
:103D3000285C00072DD514A803C8002901D100284C
:103D400027D020203043782823D16869302105AA64
:103D50001154401C411C696105A90E5419E0390039
:103D60003A20285C00F0E2F814AA03C2002902DA23
:103D700068692D2109E0288F810702D568692B2108
:103D800003E0C00705D56869202105AA1154401C2D
:103D9000686105A869694018E860310014A800F05E
:103DA000F9F814E001206861386838600168001D86
:103DB0003860684601750AE02520694608750120CB
:103DC0006861300003D005A8467002206861686B06
:103DD0006969401A296A401AA969401A696A401A31
:103DE000E969401AA96A401A04903820285C400703
:103DF00011D4202069460871049801280BDB049E29
:103E0000012301AA14A9249800F01BFC002800D06B
:103E100088E0761EF4D1686905AE00280FD00090C6
:103E20003178A868249A9047A86000287AD0E86A78
:103E3000401CE862761C0098401E0090F0D13020B3
:103E4000694608712E6A012E09DB012301AA14A913
:103E5000249800F0F6FB002864D1761EF5D1EE68B8
:103E6000A86900280FD000903178A868249A90475C
:103E7000A860002856D0E86A401CE862761C0098CA
:103E8000401E0090F0D13020694608716E6A012E04
:103E900009DB012301AA14A9249800F0D2FB002811
:103EA00040D1761EF5D1E868A9694618E86900286E
:103EB0000FD000903178A868249A9047A860002815
:103EC00030D0E86A401CE862761C0098401E0090E2
:103ED000F0D1302069460871AE6A012E09DB01235A
:103EE00001AA14A9249800F0ACFB00281AD1761E70
:103EF000F5D13820285C400700D44BE520206946E6
:103F000008710498012800DA44E5049E012301AAFF
:103F100014A9249800F095FB002803D1761E00D147
:103F200038E5F3E70020C04325B0F0BD0A00622861
:103F300022D0682819D06A2808D06C2823D071288C
:103F400004D074281FD07A2808D01CE01368DB1D29
:103F500007208343136003CB13607047116811601F
:103F60000868091D11600021704711681160086818
:103F7000091D116000B20BE0116811600868091D8D
:103F8000116040B204E0116811600868091D1160F9
:103F9000C1177047F3B583B0006900906846027C92
:103FA0006F2A01D1082406E020211143782901D08D
:103FB0000A2400E010243C25039803C806000F00E3
:103FC000642A01D0692A07D1002905DA00200021DE
:103FD000801BB94106000F00002F10D1002E0ED11A
:103FE0000398006B00280AD1082C3AD10398382195
:103FF000405C000735D53B253020009930E06D1E30
:104000000195300039002200E31700F06FFC3032D8
:10401000D2B23A2A03DB6846007C51381218009865
:104020004255300039002200E31700F05FFC060023
:104030000F0001D1002E05D00398C06800994919DE
:104040008842DCD3082C0CD103983821405C00074F
:1040500007D50098405D302803D06D1E30200099B0
:1040600048553C20401B0399886100994919039ADF
:10407000D1600399096B884209DA081A039908622A
:104080000398008FBA4901400398018715E0002981
:1040900013D503993822895C14220A40102A0CD1C6
:1040A0000399496B039A5269891A039A126A891A09
:1040B0000D1A012D01DB0398056205B0F0BD00006B
:1040C000F3B591B006AA03C802AB03C31198006B05
:1040D000002801D5062007E008D112A80078202189
:1040E0000143672902D101201199086311984068A2
:1040F0004100490D9F4B994223D100030FD11198E4
:10410000006800280BD103201199886112A800785B
:1041100061381A2864D300BF9FA000900AE00320F2
:104120001199886112A8007861381A2856D300BF07
:104130009AA00090032200991198C06800F00CFC2E
:1041400014E1012947DB8C4A02408C481043119A44
:1041500050608B48091A09B28A4848438A49FEF7D9
:10416000C1FF040002A803C80022002300F085FA62
:1041700006D202A803C880221206514002AA03C236
:10418000684684800720019909B2421A00207F49BD
:10419000012A27DB009202AA30CA00260F000098ED
:1041A000C00707D532003B0020002900FFF7F2F9D5
:1041B00004000D00009840100090300039003200DB
:1041C0003B00FFF7E7F906000F0000980028E6D152
:1041D00002A830C027E000200023BCE070A0A8E7C0
:1041E00070A09AE754420026694F10E0E00707D517
:1041F00004A803C832003B00FFF7CCF906000F000B
:10420000641004A803C804AA0CCAFFF7C3F904AADF
:1042100003C2002CEAD102A803C832003B00FFF71A
:10422000C7FA02AA03C212A8007820210143049110
:10423000662903D1019800B20A3000E006201199E6
:10424000096B08180090142801DB1320009030201F
:104250006946087606A8441C0098012839DB02A8A4
:1042600003C800F0A7FB059006460834042530007B
:104270000A21FEF73AFF0F0030000A21FEF735FF52
:1042800006003037601E077030000A21FEF72DFF50
:104290000F0030000A21FEF728FF0600A41E303769
:1042A00027706D1EE3D1083400980838009001286B
:1042B000D2DB0598FFF76CFA02000B0002A803C8D6
:1042C00000F0F2FB0022334BFFF764F902AA03C2AD
:1042D000C5E706A8401C201A06A94A1C6B4605E043
:1042E000401E019909B2491E9980521C117830294B
:1042F000F6D00499662903D1019909B2491C04E05A
:10430000652901D1012100E00021119B1B6B5B1885
:104310001BB2984200DA03001BB219001DD481427F
:1043200004DA505C352801DB392000E030205418D5
:1043300000E05B1E641E491E25788542F9D03928AD
:1043400002D1505C401C5054002906D5521E5B1C03
:10435000019800B2401C69468880019800B2009024
:104360001BB212A80178119800F01EF813B0F0BD2E
:10437000EFFF0000FF070000FFFF0F800000E03F9D
:10438000FE03000097750000A08601000000244095
:104390000000F03F84D79741494E46004E414E0001
:1043A0006E616E00696E6600F3B585B014001D0085
:1043B000066B012D01DA0125AEA4202008430C9FD5
:1043C000662801D17F1C17E0672800D0AAE00321EE
:1043D000C9438F4200DA91E0B74200DB8EE07F1CD8
:1043E00005983821405C000702D4B54200DA2E005F
:1043F0003FB2F61B00D5002605988169C0684018B9
:104400003FB2012F2CDA491C30220270012E04DA4F
:1044100005983822805C000704D52E20059AD268C2
:104420005054491C059881617842864200DA7742EF
:104430003FB2784205994862F619AE4200DA35007B
:104440002DB20598C5612A0021000598C068059B1A
:104450009B69C01800F080FA701B05998862D2E051
:104460003A0095421EDA2A00210000F075FA0599FB
:1044700089694919059A9161781B059A5062012E44
:1044800004DA05983822805C000708D52E20059AAA
:10449000D26850540598C069401C0599C8610598B8
:1044A0008662B0E0210000F057FA05988069C019D3
:1044B000ED1B012E04DA05993822895C090704D521
:1044C0002E21059AD2681154401C059988612DB29D
:1044D000AE4200DA35002DB22A00E1190598C06815
:1044E000059B9B69C01800F037FA05988069401950
:1044F00005998861701B0599486284E0B54205DA28
:1045000005993822895C090700D42E00761E00D553
:1045100000266846007E672801D1652000E045201E
:104520006946087605988169481C059A9061227849
:10453000059BDB685A54611C012E04DA059A382366
:10454000D25C12071DD50200401C059B98612E23EA
:10455000059CE468A354012E13DB6D1E2DB2AE4200
:1045600000DA35002DB22A00059BDB68181800F030
:10457000F3F905988069401905998861701B0599C0
:1045800048620598C0680599896941186846007EA7
:104590000870380003D42B2048708C1C03E02D22B7
:1045A0004A708C1C4742002502AE08E00A22684689
:1045B00000F0F1FA01983070009F6D1C761C39B242
:1045C0000129F3DA022D08DA6846007E2021014332
:1045D000652902D130202070641C002D09D13020C3
:1045E0002070641C07E06D1E02A8405D3030207012
:1045F000641C012DF7DA0598C0680599896940188F
:10460000201A0599C86105983821405C14210140A1
:10461000102914D1059840690599896940180599B0
:10462000496A40180599C96940180599896A40186E
:104630000599496B884202DA081A0599086207B0A1
:10464000F0BDF1B50E0014000027002B0FD01D00A7
:104650002178B068009A9047B060002806D0F06AD0
:10466000401CF062641C6D1E01D0F1E7FF4338006E
:10467000F2BD00003000FEE7704730B4012464054D
:104680004D00EC420BD85D00EC4208D80C001C43F6
:1046900064000443144304D2994200D1904230BCD8
:1046A0007047FCD08B42FAD18242F8E730B4012443
:1046B00064054D00EC420BD85D00EC4208D80C00BC
:1046C0001C4364000443144304D28B4200D1824251
:1046D00030BC7047FCD09942FAD19042F8E7FEE72F
:1046E000F7B504000D0050A20CCAFFF7DFFF1DD87C
:1046F00050A003C822002B00FEF74CFF00224C4BB9
:1047000000F06FF906000F004AA003C822002B003A
:1047100000F067F902000B0030003900FFF748F89D
:1047200004000D000298012101430291200029009C
:104730000022424BFFF7A1FF05D30122F9239B057D
:10474000FFF7B4FF53D822002B00FEF723FF06002B
:104750000F0032003B0020002900FEF71BFF0090F5
:10476000019137A003C832003B00FEF713FF36A2C9
:104770000CCA00F036F932003B00FEF70BFF34A202
:104780000CCA00F02EF9009A019BFEF703FF2200ED
:104790002B0000F026F904000D002FA003C8320002
:1047A0003B00FEF7F7FE2EA20CCA00F01AF9320009
:1047B0003B00FEF7EFFE2CA20CCA00F012F932000B
:1047C0003B00FEF7E7FE2AA20CCA00F00AF932000D
:1047D0003B00FEF7DFFE0022274B00F002F902004B
:1047E0000B0020002900FEF7E3FF04000D000298F3
:1047F000800702D58020000645400298400709D076
:104800001FA1800E081803C822002B0000F0E9F851
:1048100004000D000298000702D5802000064540E4
:104820002000290003B0F0BD57CD9E5E1426D13F75
:104830000000F0BFAA4C58E87AB6FB3F000040BE2B
:10484000845D57134B57B03FB2934C19ED5EE43F74
:10485000BEDE02B90240F83FDE39028FC7C0743FA6
:104860008AAB1283000CC83F24D7E508B6D8F03FC6
:104870000F34580E5895FD3F0000F03F0000000037
:10488000000000000000000066732D3852C1E03FB8
:10489000182D4454FB21F93F66732D3852C1F03F67
:1048A000182D4454FB21F93F66732D3852C1004046
:1048B000182D4454FB2109403FD038C6A6F10440CE
:1048C000C9B200E0401C02788A4202D0002AF9D125
:1048D00000207047C9B201E0401C521E002A03D0DC
:1048E00003788B42F8D1704700207047124224D0E1
:1048F000994228D970B500251B4202D00C00002136
:1049000009E00024012649186441944200D3A41A06
:104910007641F8D33100012601E0764109D2001832
:1049200064416D41A41A9D41F7D2A4185D41B619A6
:10493000F5D3300022002B0070BD1B42D8D108B542
:1049400000F03AF908BD01D19042D3D202000B0029
:10495000002100207047FEE7124207D08B0706D0E7
:104960000B78491C0370401C521EF7D87047830710
:1049700006D00B78491C0370401C521EF9D17047B9
:1049800070B4103A03D378C9103A78C0FBD25307F9
:1049900001D318C918C001D508C908C0D20704D36B
:1049A0000B880380891C801C002A01D50B780370BA
:1049B00070BC70474A1812D2400DC9020843012149
:1049C000C9070843520D40210901521A521C06D44E
:1049D00052421F3201D4D0407047C01770470020A8
:1049E0007047F0B40125ED070F005F404FD48B42B4
:1049F00000D1824205D98446100062468C461900D7
:104A00006346DF184C18640D7F0D3AD0661C76059E
:104A100037D0E61B352E34DCDB022B43DB0A0C0DD2
:104A2000C9022943C912202E0DDB1700203E06D0F3
:104A30001F00F741F3405F400026012A7741C0186C
:104A400071410DD217E01700F741F2405740F34192
:104A50005A40B340F3405A400026801859410AD3C7
:104A6000A21C52050FD0C207012F72411700400847
:104A7000CB0718434908641C24054208AF41704124
:104A80006141F0BC7047641C21050020F9E76B40D0
:104A900010E06B40ABE7F742F3D1E943F1E7244282
:104AA000EFD100200021ECE7F0B40125ED070F0065
:104AB0005F40EED40C00871A9C4105D2C01BA14177
:104AC000D219634169406B40AE0ADF184C18F442BA
:104AD000E1D2640D7F0DE2D0E61B362ED1DCDB0285
:104AE0002B43DB0AA4460C0DC9022943C90A012E37
:104AF00028DC04D1D6075208DF073A435B08EF0AE7
:104B000076429041994114D039423BD1B619404187
:104B10004941761C394204D1761C0018494139427A
:104B2000FAD0B9436746B74208D9A41B24052143EC
:104B3000A7E70042EAD13642E8D1A2E7E40AE1075A
:104B400000209EE7202E0BDD203E1F00F340F741A2
:104B50005F40012A002257417E42984191410BE07B
:104B60001700F741F2405740F3415A40B340F34039
:104B70005A407E42904199410A0303D2641EB619FD
:104B8000404149410027641E24054208AE41784156
:104B90006141F0BC70477CB504000E001500300088
:104BA0002900FEF79FFA00904543701B019068466C
:104BB00003C803C473BDFEE77047FEE700000000B2
:104BC0000000003E4551453E003E6B6F6B3E001CB1
:104BD0003E7C3E1C00183C7E3C180030367F363050
:104BE00000185C7E5C18000000000000000000005F
:104BF0000000000000000000000000000000003085
:104C0000484A360E000629792906000000000000F7
:104C100000607E0A353F002A1C361C2A00007F3EB9
:104C20001C0800081C3E7F000014367F361400006C
:104C30005F005F000006097F017F00224D55592269
:104C40000060606060000014B6FFB6140004067FC8
:104C500006040010307F30100008083E1C080008D1
:104C60001C3E080800784040404000083E083E08CE
:104C700000303C3F3C3000030F3F0F0300000000BA
:104C800000000000065F0600000703000703002481
:104C90007E247E2400242B6A1200006313086463C0
:104CA00000364956205000000703000000003E4136
:104CB00000000000413E000000083E1C3E080008C5
:104CC000083E08080000E060000000080808080826
:104CD000000060600000002010080402003E5149FE
:104CE000453E0000427F4000006251494946002293
:104CF00049494936001814127F10002F494949319B
:104D0000003C4A4949300001710905030036494910
:104D1000493600064949291E00006C6C000000005D
:104D2000EC6C0000000814224100002424242424F8
:104D3000000041221408000201590906003E415DAD
:104D4000551E007E1111117E007F49494936003EF3
:104D500041414122007F4141413E007F4949494153
:104D6000007F09090901003E4149497A007F08088E
:104D7000087F0000417F410000304040403F007FFD
:104D800008142241007F40404040007F0204027F1F
:104D9000007F0204087F003E4141413E007F090937
:104DA0000906003E4151215E007F0909196600266F
:104DB000494949320001017F0101003F4040403F25
:104DC000001F2040201F003F403C403F006314086C
:104DD000146300070870080700714945430000008C
:104DE0007F414100000204081020000041417F0083
:104DF000000402010204808080808080000003079C
:104E00000000002054545478007F44444438003853
:104E10004444442800384444447F003854545408DF
:104E200000087E0909000018A4A4A47C007F0404E3
:104E300078000000007D4000004080847D00007FFD
:104E4000102844000000007F4000007C0418047813
:104E5000007C0404780000384444443800FC444496
:104E600044380038444444FC0044784404080008B2
:104E70005454542000043E442400003C40207C0054
:104E8000001C2040201C003C6030603C006C101076
:104E90006C00009CA0603C00006454544C0000086E
:104EA0003E414100000000770000000041413E0803
:104EB000000201020100003C2623263C001EA1E165
:104EC0002112003D40207D00003854545509002037
:104ED000555555780020555455780020555554782F
:104EE000002057555778001CA2E22214003855556F
:104EF00055080038555455080038555554080000D9
:104F0000017C41000000017D41000000017C400067
:104F100000702924297000782F252F78007C5454A4
:104F200055450034547C5458007E097F4949003867
:104F300045453900003845443900003945443800BA
:104F4000003C41217D00003D41207C00009CA1608F
:104F50003D00003D42423D00003C41403D0080702C
:104F60006858380400483E494962007E615D433F0D
:104F70000022140814220040887E090200205455A3
:104F800055780000007D4100003844453900003C60
:104F900040217D00007A090A7100007A112279000F
:104FA00000085555555E004E51514E000030484D99
:104FB00040203E415D4B553E04040404041C001790
:104FC000084C6A50001708342A780000307D300001
:104FD00000081400081400140800140844114411B7
:104FE0004411AA55AA55AA55BBEEBBEEBBEE000074
:104FF00000FF0000080808FF000000702825297045
:105000000070292529700070292528703E415D55C2
:10501000413E0AFB00FF000000FF00FF00000AFA0B
:1050200002FE00000A0B080F00000018246624008E
:1050300000292A7C2A29080808F800000000000F2F
:1050400008080808080F0808080808F808080000F9
:1050500000FF0808080808080808080808FF0808EA
:1050600000205655567900702A252A71000F080B2A
:105070000A0A00FE02FA0A0A0A0B080B0A0A0AFACE
:1050800002FA0A0A00FF00FB0A0A0A0A0A0A0A0AC6
:105090000AFB00FB0A0A005D2222225D002255590C
:1050A000300000087F49413E007C55555544007C46
:1050B00055545544007C55555444000000070000E9
:1050C0000000447D45000000457D45000000457C12
:1050D00045000808080F0000000000F80808FFFF5E
:1050E000FFFFFFFFF0F0F0F0F0F0000000770000AD
:1050F0000000457D44000F0F0F0F0F0F003C42438F
:105100003D0000FE4A4A34000001314A3C02003DA5
:1051100043423C000032494A31001C2222261A0236
:10512000FF2020103F2000FEAA281000000C12FFD4
:10513000120C003C40413D00003C41413D00003D1F
:1051400041403C00009CA0613D000004087109043E
:10515000000002020200000007030000000008082F
:1051600008000000242E24000024242424240517F1
:105170000A342A780006097F017F00224D55592202
:105180000008082A08080000081818000006090985
:1051900006000000080008000000080000000002EF
:1051A0000F00000000090F05000000090D0A0000B3
:1051B000003C3C3C3C0000000000000000000000FF
:1051C0000000000038003800380000000000000037
:1051D000000000000000081F040102060101009EFB
:1051E00004402A202A102A0810040000000007F8B2
:1051F0001FFE1E063303318330C330633033181E65
:105200001FFE07F8000000000000300C300C300ECC
:105210003FFF3FFF30003000300000000000301C36
:10522000381E3C073E033703338331C330E3307706
:10523000303E301C00000C0C1C0E380730C330C34D
:1052400030C330C330C339E71F7E0E3C000003C0BB
:1052500003E003700338031C030E03073FFF3FFF07
:105260000300030000000C3F1C7F38633063306391
:1052700030633063306338E31FC30F8300000FC017
:105280001FF039F830DC30CE30C730C330C339C3FB
:105290001F800F00000000030003000330033C03E5
:1052A0000F0303C300F3003F000F000300000F00D3
:1052B0001FBC39FE30E730C330C330C330E739FE9E
:1052C0001FBC0F000000003C007E30E730C330C33D
:1052D00038C31CC30EC307E703FE00FC00000E002A
:1052E0001E003800300030003000300038001FFF52
:1052F00007FF0000000200030007001F38FF3FFC0B
:105300001FC000E0007C001F000700010000000833
:10531000003E006700C31CC03FFE1CC300C3006703
:10532000003E0008000000000000001E003F0033A7
:105330000033003F001E0000000000000004004891
:1053400000010108000000000014004801000700EF
:1053500003000000001400480200070103000000E1
:1053600000000048010004000000000000000048A8
:1053700002000101000000000000004804000402D7
:1053800000000000000000480800020300000000C8
:105390000000004810000004000000000000004869
:1053A000200006050400000000000048400004063C
:1053B000000000000000004880000207010000001B
:1053C0000004004802000201010000000000004843
:1053D0000008010B00000000000000480010010C54
:1053E00000000000000000480020020D0100000045
:1053F000000000480040020E01000000194800684B
:10540000012101431748016017480068174901400E
:1054100015480160134800681549014011480160B2
:1054200010480068134901400E4801600E480068AA
:10543000114901400C480160104800680F21884361
:105440000E4908600E4800680E4901400C48016092
:105450000D480068012188430B49086000200B4972
:105460000860704700100240041002400CB8FF08AA
:10547000FFFFF6FEFFFFFBFFFFFFC0FF2C10024007
:10548000301002402CFEFFFF341002400810024092
:10549000094880F3088804200168090E1F22914200
:1054A00005D1064801210160054800210160054839
:1054B00080470548004700000804002018100240FB
:1054C00000000140FD530008FD59000870B401219F
:1054D000002213E00468001D0C4202D04D466D1EF0
:1054E00064192260241D1B1F042BFAD225009E077D
:1054F00001D52280AD1C0B4000D02A700368001D2E
:10550000002BE7D170BC704730B401210268001D48
:10551000002A0FD00368C318446808300C4202D038
:105520004D466D1E64191D6825601B1D241D121F2C
:10553000ECD0F8E730BC704760570008EC58000822
:1055400030560008EC58000800000000590D000813
:10555000526F6C6C206C6576656C20626F7264654E
:1055600072000000EC580008845700082C5800080E
:10557000EC5800080000000000000000506F776544
:1055800072206F66662074696D656F757400000027
:10559000D0560008EC580008CC5700080C580008FA
:1055A0000000000000000000446973706C61792005
:1055B0006D6F646500000000EC580008EC570008AF
:1055C000CC570008EC580008000000000000000064
:1055D0005365727669636520696E666F000000002E
:1055E000EC5800081857000890550008EC580008BF
:1055F00000000000810E0008496E636C696E6F6DDB
:1056000065746572000000003C570008EC58000803
:10561000F4560008EC58000800000000590D00087E
:10562000436C697020636170616369747900000084
:105630002C5800083C570008F4560008385500085C
:105640000000000000000000496E636C696E6F6D21
:105650006574657200000000EC5800084C580008A2
:10566000F4560008EC58000800000000000000009C
:1056700057616B652D757020736F757263650000DF
:105680006C580008EC5800083C570008EC5800081B
:1056900000000000590D000853656E736F7220649E
:1056A000697374616E63650010B5074979441831F8
:1056B000064C7C44163404E0081D0A6889188847A3
:1056C0000100A142F8D110BDE0000000000100007F
:1056D000F456000890550008CC570008EC58000814
:1056E0000000000000000000537461746973746965
:1056F00063730000EC570008D0560008CC57000830
:105700000856000800000000000000005365747493
:10571000696E677300000000E05500080C5800082F
:1057200090550008EC58000800000000810E0008A9
:105730004368726F6E6F6772617068003056000860
:1057400008560008F45600088056000800000000C3
:10575000000000004368726F6E6F677261706800CE
:10576000EC5800083855000830560008EC5800087E
:10577000000000000000000043616C696272617407
:10578000696F6E0064550008EC5800082C5800083A
:10579000EC5800080000000000000000436F6E7429
:1057A000726173740000000025FDFFFF2C090000EA
:1057B000080400200000000051FDFFFF0800000069
:1057C000900200000000002000000000EC580008DB
:1057D000EC580008EC580008905500080000000044
:1057E000000000004D656E7500000000B85500080F
:1057F000F4560008CC570008EC58000800000000E0
:105800000000000041626F75740000001857000826
:10581000EC58000890550008EC5800080000000003
:10582000810E0008436F6D6D6F6E00004C580008CC
:1058300030560008F45600088457000800000000A5
:1058400000000000446973706C61790058560008CC
:105850002C580008F4560008EC580008000000001E
:1058600000000000536C656570000000EC580008F3
:10587000805600083C570008EC5800080000000063
:10588000590D000842696E640000000000F00BF83A
:10589000002801D0FFF708FF002000BF00BFFAF783
:1058A0000FFC00F002F80120704780B500F002F80C
:1058B00001BDFEE70746384600F002F8FBE7FEE7C9
:1058C00080B500BF00BF024A11001820ABBEFBE745
:1058D000260002004572726F7220646973706C61F9
:1058E0007920636F6E6669670000000000000000A9
:1058F00000000000000000000000000000000000A8
:10590000000000003C756E6B6E6F776E2070656CEA
:105910006C65743E0000000044656661756C74201F
:1059200070656C6C657420257500000042617474AC
:10593000657279206465706C6574656400000000B0
:1059400043686F6F73652070656C6C65742E2E2EC6
:1059500000000000436C69702072656C6F616465C3
:1059600064000000537461747320636C6561726538
:105970006400000042756666657220697320667572
:105980006C6C00004572726F722070656C6C65748F
:1059900020494400FFC1A1998A8A8A8A8A8E4828B0
:1059A00018000000FF818181818181818181818155
:1059B00081FF3C0043616E63656C6C6564000000B0
:1059C00052656C6F616420636C6970005761697423
:1059D000696E672E2E2E00002563252E3166256305
:1059E0000000000025752E252E327525630000006D
:1059F000256325752E252E327500000000BF00BFDF
:105A000000BF00BFFFF742FF5361766564000000EE
:105A100042696E646564000025752E2575000000DE
:105A20004661696C6564000025752F2575000000CE
:105A300025632575256300004261636B000000004B
:105A40005361766500000000686A6C747A4C00004F
:105A500010000000EC5800087E81817EFEE7FEE722
:105A6000FEE7FEE7FEE7FEE7FEE7FEE7FEE7FEE70E
:105A7000FEE7FEE7FEE7FEE7FEE7FEE7FEE7FEE7FE
:04000005080059FD99
:00000001FF
