:020000040800F2
:10000000100400203D550008E73600087B46000834
:1000100000000000000000000000000000000000E0
:10002000000000000000000000000000DB5300089A
:100030000000000000000000DF5300081B5400080F
:100040004F5400085F590008135B00084F5C00081C
:10005000635C0008735C0008C3680008251A000888
:10006000CF680008256B0008276B0008296B000883
:10007000294D00082B6B00082D6B00082D49000846
:100080002F6B00080000000000000000316B00082A
:1000900000000000336B0008356B0008D9530008DE
:1000A00000000000376B0008396B00083B6B00084C
:1000B0003D6B0008000000003F6B0008416B00082A
:1000C000F0B59FB0B148B2498880B248B049C88005
:1000D000B148AF490881B148AD494881B048AC4901
:1000E0008881B048AA49C881C248A9490882C24843
:1000F000A7494882C148A6498882C148A449C88204
:10010000C048A3490883C049C04801F095FB0120BD
:100110000400E4B2102C0BDAE4B22200B449BB486C
:10012000E4B212236343C01801F08EFB641CF0E7B5
:100130000520A64908805A20A54908800120944935
:10014000C877C820924908860020A849A14A03C25E
:10015000083AA4A003C8A04A03C2083A0020A34951
:100160009E4A03C2083A0020A0499D4A03C2083AA9
:100170009CA003C8BE4A03C2083A00209B49BD4A5E
:1001800003C2083A00209949BB4A03C2083A95A025
:1001900003C8BA4A03C2083A00209449B84A03C2C5
:1001A000083A0120B74988800220B64948800F20CC
:1001B000B44908800520B9498880B94801F063FB3B
:1001C00001F0BEFC01F07DFC01F0F5FCB548807843
:1001D000012818D10020B349887001F071FD6C48E6
:1001E000408B002804D06A48408B401E68494883F1
:1001F0006748408B002806D165484088AA49884254
:1002000001DA01F05EFC01F03BFBA849086001F057
:1002100021FE02280ED000D2B6E1042800D17FE0F2
:1002200043D3062800D1F9E000D2F8E0072800D136
:1002300056E1A9E19E480078012816D19D48002189
:10024000405E9D490022895E884204DB9B4800880D
:100250009849088028E09A480078002824D19548D9
:100260000088401C934908801EE0964800780128C9
:1002700003D09448007802280DD1934800780F28C5
:1002800003DB0120904908700EE08F480078401C85
:100290008D49087008E081480078012804D101F0F8
:1002A000EFFA406801F0EFFA71E181480078012827
:1002B00016D182480021405E7E490022895E884234
:1002C00004DB7D4800887B49088028E07C48007872
:1002D000002824D177480088401E764908801EE017
:1002E00078480078012803D07648007802280DD19C
:1002F00075480078022803DA0F20734908700EE071
:1003000071480078401E7049087008E06348007822
:10031000012804D101F0B4FA006801F0B4FA36E122
:1003200063480078012807D066480078012803D088
:1003300064480078022837D19F49A04801F07CFA30
:100340001E209F4908705A48007801280BD15C484C
:100350000078002803D00420594908705DE001208E
:100360009849087059E029485749097802225143B1
:100370004018A0214900944A1288425252480078FD
:100380000349888300204F49087046E0361000007A
:1003900014080020D20F0000820F0000410F00005F
:1003A000190F0000C90E00003C480078012834D124
:1003B00001F066FAC0688549884204D001F060FA0D
:1003C000C068002824D101F0BDFA26E0740A00209C
:1003D000760A0020480D0020580D0020500D002006
:1003E000780D00209A9999999999B93F0000E03FBA
:1003F00050690008B50E0000A60E00009D0E00001A
:10040000790E00000B0E00003C690008780A0020FD
:1004100001F036FAC06801F036FAB8E0B7E02448D7
:100420000078012807D027480078012803D0254804
:10043000007802284AD166480078EF2101406448DC
:10044000017064495D4801F0F7F91E205C490870AD
:1004500017480078012817D119480078002803D0E0
:100460000220174908703AE002205649087036E029
:10047000880D0020800D0020A80D0020B80D002060
:10048000B00D0020300D00200020D04988830020CE
:100490000D49087000200B49087020E0180E00205C
:1004A0001C680008200E0020490D0000280E0020C6
:1004B000060D0020000D0020020D0020040D00207C
:1004C0002D0D0020E20B0020D80B0020C048007842
:1004D000012804D101F0D4F9806801F0D4F956E084
:1004E000BC480068BC4988423FD1B948007801281F
:1004F0003BD137480078C0B2C009C0B2002811D043
:10050000B248807FB149C97F88420BD0AF48C07FD5
:10051000AE498877B149294801F08EF91E20284953
:10052000087030E0D548008800281BD028480078A3
:10053000C0B240098007800F012813D10020CF49A5
:1005400008800020CE4908600020CE4908800020A5
:10055000CD490880CD49194801F06EF91E2018498F
:10056000087010E001F0ADFA0DE09948007800281D
:1005700002D101F0BFFA06E0C5480078002802D198
:10058000954801F080F902E000200E49087090487B
:100590000078012800D017E601F072F98D49086053
:1005A0008A48C07F022817DB094800788021014370
:1005B0000748017016E000BFB86A0008C00C0020B0
:1005C000FF0C0020080D0020DA0B0020FC6800085A
:1005D0002C0E0020586A0008AE4800784006400EF5
:1005E000AC490870D9488078022800D0C8E2D748C2
:1005F000807CD649497C09020143D448007C000430
:100600000843D249C97B090601430991A1480078F2
:10061000C0B240098007800F022800D1ADE26B48CC
:10062000C06A0999884209D09A480078C0B2000986
:100630000100C907C90F002900D19EE200206449CA
:10064000488094480078C0B200090100C907C90F6A
:1006500000290FD08F480078EF2101408D480170AC
:1006600009985A49C862BA49BA4801F0E5F81E200B
:10067000B9490870B9480068401CB8490860534837
:10068000008EB74941430291B048C0780102AF489B
:10069000007908437D214843642101F08FFD01006A
:1006A000029801F08EFD0890A84840790002A74901
:1006B0008979084345494885A448C0790102A3487F
:1006C000007A08437D214843642101F077FD010051
:1006D000029801F076FD07909C48407A01029B4801
:1006E000807A08437D214843642101F067FD0100C1
:1006F000029801F066FD06909448C07A0102934882
:10070000007B08437D214843642101F057FD01002F
:10071000029801F056FD05908C48407B01028B4801
:10072000807B08437D214843642101F047FD01009F
:10073000029801F046FD049008982449088408981E
:10074000C149884202D3C0482049088407981F49FC
:1007500048840798BC49884202D3BB481B49488457
:1007600006981A4988840698B749884202D3B64841
:100770001649888405981549C8840598B249884265
:1007800002D3B1481149C8840498104908850498D7
:10079000AD49884202D3AC480C4908853D480078F1
:1007A000C0B2C009C0B200282AD00848807F002803
:1007B00016D10648C07F054988770849654801F089
:1007C0003BF81E206449087015E000BF14080020A3
:1007D000180E0020280E00201C6800088C690008F4
:1007E000C848807F012806D1C7495A4801F024F83B
:1007F0001E20C6490870C348807F401EC1498877C3
:10080000C3480078002800D008E1BE48478DBD48A5
:10081000408D0A2101F0D2FC381A0190B948478D69
:10082000B848408D0A2101F0C9FC38180390B94836
:10083000B449898B02224A438018A0214900405ABA
:100840000199884228D30398B249AE4A928B022379
:100850005343C918A0225200895A88421CD3D64853
:100860000078002818D00020D44908600020D4491E
:1008700008700020D3490870D0E000BF4C0A002067
:10088000440A0020520A0020500A00209C690008F7
:10089000060D00202C0E0020C7480078002863D0E9
:1008A000C64800689749498D4018C4490860C44843
:1008B0000078401CC2490870C2480078401CC149F9
:1008C0000870BF480078052800DAA7E0BB48006838
:1008D000BB49097801F075FCBB4908800020B64986
:1008E0000870B9480788B84800880A2101F066FCFA
:1008F000381A1090B4480788B34800880A2101F0DC
:100900005DFC38180F9001200400E4B2102C00DBCD
:1009100084E08048E4B2022161434018A0214900EC
:10092000405A109988421DD30F987A49E4B20222A6
:1009300062438918A0225200895A884212D39E48E5
:10094000047001207249087068E000BFFC0D0020AF
:10095000C06A0008C00C0020FF0C0020540A0020D0
:10096000A0860100641CD0E796480078401C954999
:100970000870954800880199884211D303989249DC
:10098000098888420CD38E480078401C8C49087036
:100990008A4800685B49498D4018884908600AE028
:1009A0005848408D8849088001208549087055487D
:1009B000408D82490860824800780A2817DB7F480A
:1009C00000687F49097801F0FCFB7F49088002201C
:1009D0004F49087001207849087000207949087053
:1009E00000207749087000207449086016E07548B7
:1009F00000780F2812D3D949D94800F01DFF1E20D6
:100A00004249087000204249087000206D49087072
:100A100000206B490870002068490860D1480078C0
:100A2000C0B240098007800F012800D0A5E0CE4861
:100A30000088FF280ADBCD49C94800F0FDFE1E20D2
:100A40003249087099E000BFFFFF00002D48008C7C
:100A50002C49C54A128802235343C9184886D748EF
:100A600000682849C04A128802235343C918498E96
:100A70004018D2490860BC480088401CBA49088028
:100A8000B948008802284FDBCC480068B64909887D
:100A900001F097FBD84908800020D8490860002061
:100AA00004002000C0B2B049098880B2884233D225
:100AB000D14800881349E4B2022262438918498E62
:100AC00088420ED3CD480068CB4909880D4AE4B26C
:100AD00002236343D218528E891A4018C74908600E
:100AE0000DE0C64800680749E4B202226243891853
:100AF000498EC14A1288891A4018C0490860641C8E
:100B0000CFE700BF14080020646A0008FF0C002033
:100B1000E20B0020780A0020B84800689249098852
:100B200001F04FFBB6490880B648808B002824D0DE
:100B3000B548B449898B02224A4380189021490064
:100B4000405A002819D0AF48008CAE49098C484360
:100B5000AE4901F033FBAC49AA4A928B02235343BE
:100B6000C91890225200895A4843A84901F026FB2F
:100B7000022101F023FBA64908800020DA49887091
:100B800000F04AFB8020C000149000201390D74F43
:100B9000139A1499380001F06BFB9A4841789948F0
:100BA000007801F06BFED2480068D24988420DD12E
:100BB00000F09CFC0CE000BFD80B0020DC0B0020F8
:100BC000E00B0020E10B0020DA0B002000F006FC17
:100BD000C9480078002801D000F0AEF9C748007875
:100BE000002801D002F024F9C5480078012800D07F
:100BF00010E1C2480078002800D1B9E0C148807FE8
:100C0000012809D1C0490AA800F016FE1822BFA188
:100C1000684600F019FE44E0BA48807F032809D1F5
:100C2000BB490AA800F008FE1922B8A1684600F0E6
:100C30000BFE36E0B348C07F012809D1B5490AA8A8
:100C400000F0FAFD1A22B1A1684600F0FDFD28E08F
:100C5000AC48C07F032809D1AF490AA800F0ECFDD9
:100C60001B22AAA1684600F0EFFD1AE0AB4800780D
:100C7000012809D1AA490AA800F0DEFD0422A3A197
:100C8000684600F0E1FD0CE0A4480078032808D194
:100C9000A4490AA800F0D0FD9E229CA1684600F05D
:100CA000D3FD98480021425E9F491BA800F0CCFD6F
:100CB00094480221425E9D4918A800F0C5FD914864
:100CC0000421425E9A4915A800F0BEFD00210AA841
:100CD00001F0F6FA1BA802F0D9F905004027EDB2A1
:100CE00006206843022101F069FA381A06001BAA9F
:100CF00016213000C0B201F003FF18A802F0C6F9B7
:100D000005004027EDB206206843022101F056FAA3
:100D1000381A060018AA20213000C0B201F0F0FEF7
:100D200015A802F0B3F905004027EDB2062068438C
:100D3000022101F043FA381A060015AA2A213000D0
:100D4000C0B201F0DDFE6A461C21142001F0D8FE7D
:100D50006A461C21652001F0D3FE87E0AC690008DB
:100D6000C00C00202C0E00204C0A0020BC6900089A
:100D70005F480068010018310AA800F05DFD0121FC
:100D80000AA801F09DFAAD480078002818D06948FB
:100D90000021405EA949097801F010FA01906548E8
:100DA0000021405E019901F00CFA0391039B019A26
:100DB000A34911A800F048FD09E000BF440A002043
:100DC0005C480021425E9FA111A800F03DFD11A8E2
:100DD00002F05CF905004027EDB2062068430221CD
:100DE00001F0ECF9381A060011AA1C213000C0B23B
:100DF00001F086FE3AE000BF500A0020480A0020B9
:100E0000520A002014080020780A00201027000051
:100E10004E0A00209E480078012803D09C480078A4
:100E2000022823D19B490AA800F006FD01210AA847
:100E300001F046FA9848994909781222514341181D
:100E40000AA800F001FD0AA802F020F905004027D9
:100E5000EDB206206843022101F0B0F9381A06000D
:100E60000AAA1C213000C0B201F04AFE8C4800786A
:100E7000002835D08A480078401E89490870A74864
:100E80000078C0B200090100C907C90F002910D0BD
:100E90008348007800280CD1A0480078EF21014059
:100EA0009E4801707F49C84800F0C6FC1E207C495E
:100EB0000870C54802F0EAF805002800C0B201F049
:100EC00063FA4027EDB206206843022101F076F96B
:100ED000381A0600BC4A1C213000C0B201F010FED6
:100EE00001F012FFFFF770F9FC0D00201104002043
:100EF000280E00201C680008080D00202D0D002081
:100F0000060D00200C0D0020CC69000825630000B0
:100F1000DC690008EC690008FC6900082C0D002061
:100F20000C6A00081C6A0008C86A0008D06A000839
:100F3000D86A0008000D002080B500203F490870E5
:100F4000A24800688E49884211D16320A0490880D8
:100F50000120A04908808B48C07F00B200F074F8DF
:100F60008849C8778748C07F8649887765E0974871
:100F70000068854988420DD15A2095490880012092
:100F8000944908809448008800B200F05DF89249C6
:100F9000088052E08D480068904988420DD1904900
:100FA000894800F049FC64203D4908705B4800789E
:100FB00010210143594801703FE084480068894985
:100FC000884210D18848824908806420814908807D
:100FD0006C48008E00B200F037F86A4908860A2093
:100FE0001649087029E079480068804988420FD185
:100FF00001207F49087001207E49887701207D49C2
:10100000C87701207C49087001207C49087014E0F1
:101010006E4800687A4988420FD11E206C490880CA
:1010200001206C4908807748808800B200F00CF8F5
:101030007449888000207349488001BD090D002053
:10104000E06A00082575000000B501000800684A44
:101050001278012A15D16C4A1278012A08D16B4AFC
:101060000023D25E10000022614B1A7000B20EE025
:10107000654A1278022A09D100225D4B1A7000B22B
:1010800005E0624A11800122594B1A7000B200BD7E
:10109000E20B002064690008780A0020D80B0020C9
:1010A000FF0C0020E86A000880B5484800685849ED
:1010B000884206D1194800789F21014017480170E5
:1010C0001AE0424800685349884208D11348007822
:1010D0009F21014020200843104908700CE03B4844
:1010E0000068B849884207D10C4800789F21014028
:1010F0004020084309490870B3A1334800F09CFB25
:101100001E20B2490870314800688068B0498842A2
:1011100002D1B04800F0B7FB01BD00002C0E00204A
:10112000F0B585B006000D0014002800290001F07C
:10113000B5FF02902000210001F0B0FF019002995C
:10114000019802F003F807003800002102F08EF841
:1011500001D1A14807003000390002F097F8009053
:10116000009802F0E9F802F001F9DBA20CCA02F0E3
:101170004BF902F00BFA0390039805B0F0BD0000A4
:101180003066000814080020B465000838B5040073
:1011900024B2002C0BD424B2200002F029FA002241
:1011A000BD4B02F03FFA02F0F1F905000AE024B26B
:1011B000200002F01DFA0022C94B02F033FA02F0BF
:1011C000E5F90500280032BDC00C0020280E0020E3
:1011D000020D0020040D0020740A00207C68000825
:1011E000706A0008D0660008E7030000D4670008B2
:1011F000060D00200C0D00202C0D00202D0D0020D0
:1012000080660008180E0020080D0020000D002048
:101210005C6800088C670008F8B50A2400209F4924
:10122000088200209D49488200209C4988829B4872
:1012300000780100C9B2102001F0A2FD9748407863
:101240000100C9B2112001F09BFD94488078010093
:10125000C9B2122001F094FD9721202001F090FDE9
:10126000E4B2002C2DD0272001F0A0FD0500A80736
:10127000F6D001F0BAFD8948807D8849C97D090210
:10128000014309B2864802F02FFA84494881834815
:10129000007E8249497E0902014309B2814802F079
:1012A00023FA7E4988817D48807E7C49C97E090277
:1012B000014309B27C4802F017FA7849C881641EDC
:1012C000CEE70021202001F05BFD74481021415E33
:1012D000734802F009FA00B27449414308006F49AB
:1012E0000422895E00F06AFF6C4948816B48122134
:1012F000415E6C4802F0F8F9010009B26B484843BE
:1013000066490622895E00F059FF64498881634876
:101310001421415E644802F0E7F9010009B2634814
:1013200048435E490822895E00F048FF5B49C88156
:101330005A480A21415E5E4802F0E8F9574948815F
:1013400056480C21415E5B4802F0E0F95349888120
:1013500052480E21415E584802F0D8F94F49C881E1
:101360005648007800280BD04C48408954490880E2
:101370004A488089524948804848C08950498880F5
:1013800046480A21405EFFF701FF009043480C21C8
:10139000405EFFF7FBFE070040480E21405EFFF76E
:1013A000F5FE0600320000993800FFF7B9FE454906
:1013B00008603A0000993000FFF7B2FE4949086022
:1013C000F1BD0000086600084F4B0000FF0C002034
:1013D000206700081C6800087D1D902670B582B04B
:1013E000684639490A88028001F020FA37480078B7
:1013F000062801DB01F022F9354800780500EDB23E
:1014000034480078401F854208DA324800780628C0
:1014100004DB30480078401F05000DE02D480078BF
:10142000401FEDB2A84207DAEDB22A480078281A28
:10143000401D052800DB6D1E2548057025480078F5
:10144000401B0600284A01210E2001F059FB6A4684
:10145000F6B20A207043801C0100C9B2002001F0DE
:101460004FFB00200400E4B2052C13DA1E48EDB255
:10147000E4B2291914225143401802001432E4B294
:101480000A2060430C300100C9B2082001F038FB8B
:10149000641CE8E773BD000080FFCF40C80D00204A
:1014A000E40D0020EC0D0020F40D0020FF3F0000B3
:1014B000380D0020680D0020980D00202D0D002013
:1014C0000C0D00206C0A002036330008FD0C0020B3
:1014D000FE0C0020FC0C0020000000C0DCA54C40ED
:1014E0000000D040700A0020E40B002030B59DB011
:1014F000F8200290BE48006801F01EFF490049082C
:1015000000900191E822BB490BA800F09DF9BA4870
:101510000078C0B240098007800F002808D0B64884
:101520000078C0B240098007800F012800D01CE17C
:10153000B248008C642100F041FE0400AF48008CEA
:10154000A4B264216143401A0500A4B2002C02D168
:10155000AA48008C05002F200090ADB22B00A4B249
:101560002200A74915A800F06FF9A448408C642117
:1015700000F024FE0200A3A108A800F065F99F482E
:10158000808C642100F01AFE02009EA107A800F0E2
:101590005BF99A48C08C642100F010FE020099A10A
:1015A00006A800F051F994480078C0B2C009C0B252
:1015B00000280DD09148C37F9048827F924913A89C
:1015C00000F042F913AA2D215C2001F099FA0EE0F7
:1015D0008A48008D642100F0F1FD020089A105A870
:1015E00000F032F905AA2D21622001F089FA87481E
:1015F0008249898B12224A4382180021002001F07F
:101600007FFA15AA1821002001F038FA08AA0F2144
:10161000622001F075FA07AA1921622001F070FA20
:1016200006AA2321622001F06BFA73480078C0B249
:1016300040098007800F002827D1F82002907448C5
:10164000006801F079FE4900490800900191E2220A
:10165000684909A800F0F8F809AA2821002001F03B
:101660004FFA0BAA28212A2001F04AFA082338222F
:10167000684801886648006800F0CBFE664801882B
:101680005B48006801F031F8B0E0644802885DA171
:1016900004A800F0D9F862480088642100F08EFDAB
:1016A00004005F480088A4B264216143401A050029
:1016B000A4B2002C02D15A4800880500ADB20095B2
:1016C000A4B22300E62257490FA800F0BDF85648FF
:1016D0000088642100F072FD040053480088A4B221
:1016E00064216143401A0500A4B2002C02D14E4887
:1016F00000880500ADB20095A4B22300E522494957
:101700000DA800F0A1F849480088642100F056FDBA
:10171000040046480088A4B264216143401A0500D1
:10172000A4B2002C02D14148008805003A20009064
:10173000ADB22B00A4B22200314911A800F084F808
:1017400004AA3721622001F0DBF90FAA242100202E
:1017500001F0D6F90DAA2421312001F0D1F911AA06
:101760003821002001F08AF940E023480078C0B217
:1017700040098007800F02282FD13D200290244885
:10178000006801F0D9FD49004908009001913B2211
:10179000184909A800F058F8F82000901D4803885F
:1017A000F122234903A800F04FF809AA08210020DC
:1017B00001F064F90BAA00214C2001F0A1F903AA61
:1017C00009214C2001F09CF92E2312221148018896
:1017D0000F48006800F01DFE08E0164917A800F049
:1017E00033F817AA0021082001F08AF91DB030BD96
:1017F000700A00207C6A00082C0E002014080020CB
:10180000886A000825750000F06A0008780A002040
:101810006C0A0020740A0020760A00204C0A00207E
:10182000500A0020946A0008520A00204E0A002044
:10183000F86A0008E4680008002300E05B1CCA5C4A
:10184000002AC254FAD170470CB41CB5040004A895
:101850000190009401AB0A006946084878441C30A6
:1018600002F086F80021009A1170002801D4009837
:10187000001B02B0019910BC03B00847E719000033
:101880003A4800687047F1B582B0029838498842FA
:1018900002D00298002800D153E0FFF7F1FF02992F
:1018A000C068814205D0FFF7EBFF02998068814252
:1018B00002D100202F49087002982C4908602B485B
:1018C0000068050000200400A8680090641C2A48F5
:1018D000047068682649884202D10020040001E0B3
:1018E0006D68F1E7E4B20A2C10DA142001900026AA
:1018F0002248E4B214216143401807001437320033
:101900000199380000F0B4FC641CEBE7009801007A
:1019100018311A48FFF790FF002004002900183101
:101920001648E4B21422624380181430FFF784FF93
:10193000641C1348047028680D49884201D02D6842
:10194000ECE7F7BD10B5094800680949884203D0A3
:1019500006480068002800D106E004480068446991
:101960002000002800D0A04710BD00000400002087
:10197000FC680008FE0C0020FC0C0020E40B00209A
:10198000FD0C00200121C206D20E91405E4A11607A
:1019900070470121C206D20E91405C4A1160704727
:1019A000F0B540B2002821D5594C40B20207120FC1
:1019B000083A950804225543554A40B203071B0FC5
:1019C000083B9B0804267343D258FF238607B60FB3
:1019D00008277E43B3409A438B01DBB28607B60FDC
:1019E00008277E43B340134363511AE0494A40B28B
:1019F000830804246343D258FF238407A40F0825D7
:101A00006C43A3409A438B01DBB28407A40F0825E3
:101A10006C43A34013433F4A40B2840804256C43FF
:101A20001351F0BD80B53C48006800060AD53A481D
:101A30000068802101433848016002F01FFE072042
:101A4000FFF7A7FF01BD80B5344800688021490534
:101A500001433248016032480068042101433048A4
:101A6000016030480068022188432E4908602D48F3
:101A70000068012101432B4801602B4800682A4976
:101A800008602A48006880210143284801602848EE
:101A900000688021014326480160264800688021B3
:101AA0008843244908601C480068802101431A4883
:101AB00001600720FFF766FF0F210720FFF770FF87
:101AC00001BD80B500201C49087000201A494880DB
:101AD00000201A49887100201849C87101F08AF85D
:101AE00002F0DBFE03F0D0F8FFF7ADFF30BF03F0EC
:101AF000DDF801BD80B501200F49087001F085F8BF
:101B000002F056FE01BD000000E100E080E100E0CF
:101B10001CED00E000E400E0140401401C10024051
:101B200010ED00E0007000400C0001400004014096
:101B30000C04014008040140180E0020100E002083
:101B400080B502F09BFD03F04BF903F059FA01F068
:101B500067F801F0F7F800F001F801BD48480068A7
:101B60008021090101434648016044480068802102
:101B70000901014341480160404800684149014072
:101B80003E480160312040490860404840490860B3
:101B900040480068012101433E4801603E4800681A
:101BA000082101433C4801603B4800680121014392
:101BB00039480160704770B537480068C00705D5DF
:101BC00035480068C00706D500BFF9E7334800680C
:101BD000401C3249086032484088401C30494880E7
:101BE00030480068401C2F4908602D4881882E48E5
:101BF0004843264900F0E2FA050029484088281A9F
:101C00000400A4B2642C14DAA4B2002C11D0A4B243
:101C10001E486043254900F0D1FA401C0600F6B288
:101C2000320023492348FFF70FFE022022490870A3
:101C300016E028001A49498880B2884206D218481E
:101C40000078012802D1FFF73CFF09E014484088E2
:101C5000332805DB12480078002801D1FFF731FF57
:101C60000D480068012101430B48016013480068DA
:101C7000042101431148016070BD00000C100240B6
:101C800018100240FFF7FFFF282C014050C300004E
:101C90002C2C0140142C0140002C0140680A00202B
:101CA000180E0020640A00200087930340420F00B2
:101CB00078690008C00C0020FF0C002008240140B7
:101CC000F8B55A4800680069584989880840000AF0
:101CD000002801D1012000E00020554948705548F6
:101CE000018855484843FA21890000F067FA00B29C
:101CF00001F016FE05004E48458028004C498988B1
:101D000080B2884202D36420060063E04848008B1A
:101D1000290089B288421AD3002006004448408B2B
:101D2000002857D1ADB24548854204DA44494548B8
:101D3000FFF782FD03E044494248FFF77DFD3C2068
:101D4000424908709620C0003949488342E000208B
:101D5000374948830A200400E4B2002C13D028003D
:101D60003349E4B2022262438918898880B28842EA
:101D700007D36420E4B20A216143401A0600684692
:101D80000470641EE8E72A48694609780222514334
:101D90004018408826496A46127802235A43891817
:101DA0008988401A0700224869460978022251436F
:101DB000401880882D1AADB20A206843FFB239005E
:101DC00000F0FCF90700FFB2002F03D0FFB20A2F8A
:101DD00000DAF619164800783100C9B288420FD2ED
:101DE00013480078C01CF6B2B04203DB18480078F4
:101DF00001281AD10120164908700D48067014E018
:101E000030000B490978C0B288420ED2F6B20848B9
:101E10000078C01E864203DB0D480078022804D1FA
:101E200002200B49087002480670F1BDF4630008F7
:101E300014080020200E00204C060000490D000070
:101E400014690008C00C00204C6A0008FF0C002038
:101E5000320E002080B5A64800680069A5490988AF
:101E60000840002808D1A4480078652804DAA24870
:101E70000078401CA0490870B64800680069B6495F
:101E800009880840002808D19B484078652804DA72
:101E900099484078401C98494870B04800680069EB
:101EA000AF490988084000280CD1934880786528FC
:101EB00008DA91488079002804D18F488078401C46
:101EC0008D498870AE48806F0069AE490988084026
:101ED00000280CD18848C078652808DA8648C0797F
:101EE000002804D18448C078401C8349C8708048C9
:101EF000006800697F490988084000280FD07E48A3
:101F0000007900280BD17C480078002807D07A4857
:101F10000078142803DA00F025F9022019E174484A
:101F20000068006973490988084000280ED172488A
:101F3000007900280AD170480078142806DB00F0E8
:101F400011F901206C490871022002E1684800681B
:101F5000006968490988084000280BD16648007963
:101F6000012807D164480078022803DB00F0FAF862
:101F70000220EEE05E48006800695E49098808407A
:101F8000002807D05C480079012803D100205A4975
:101F90000871DDE06F48006800696F4909880840F2
:101FA00000280FD05448407900280BD1524840787F
:101FB000002807D050484078142803DA00F0D2F8FF
:101FC0000320C6E063480068006963490988084047
:101FD00000280ED14848407900280AD14648407868
:101FE000142806DB00F0BEF80120434948710320A5
:101FF000AFE0584800680069574909880840002840
:102000000BD13D484079012807D13B484078022850
:1020100003DB00F0A7F803209BE04E48006800694E
:102020004D4909880840002807D0334840790128E5
:1020300003D10020304948718AE0484800680069AF
:1020400047490988084000280BD02B488079002890
:1020500007D129488078002803D000F083F80420B5
:1020600077E03E48006800693D490988084000283B
:102070000ED12148807900280AD11F488078142881
:1020800006DB00F06FF801201B498871062060E034
:1020900032480068006932490988084000280BD09E
:1020A00015488079012807D113488078002803D18A
:1020B0000020114988714BE03148806F0069314937
:1020C00009880840002819D00B48C079002815D18C
:1020D0000948C078002811D00748C07814280DDAC4
:1020E00000F040F8002028494880052031E000BF7A
:1020F000786400087C640008100E00202048806F7F
:10210000006920490988084000280ED11F48C0797D
:1021100000280AD11D48C078142806DB00F022F8F8
:1021200001201A49C871072013E01548806F006923
:1021300014490988084000280AD01448C0790128A9
:1021400006D11248C078002802D100200F49C8717A
:10215000012002BDA8640008AC6400089C6400086B
:10216000A064000800200949087000200749487051
:1021700000200649887000200449C870704700009C
:10218000F463000870640008180E0020100E002090
:10219000F446002804D4494200F013F84042604756
:1021A0004042002905D45FD000F00BF8404249427C
:1021B0006047494200F005F84942604703460B4337
:1021C000E6D40022030A8B420BD203098B4219D2B8
:1021D00043088B422ED2411A00D20146524110468A
:1021E0007047FF2209023FD012068B4205D312121C
:1021F00009028B4201D31212090203098B4219D33F
:1022000000E0090AC3098B4201D3CB01C01A524135
:1022100083098B4201D38B01C01A524143098B427F
:1022200001D34B01C01A524103098B4201D30B0168
:10223000C01A5241C3088B4201D3CB00C01A52418D
:1022400083088B4201D38B00C01A524143088B4252
:1022500001D34B00C01A5241884200D3401A524168
:10226000CFD201461046704708B503F0B7F808BD55
:102270001206130A1A43130C1A4300BF094205D071
:10228000830705D00270401C491EF9D17047000039
:10229000130030B414001500103902D310393CC0BB
:1022A000FCD2490700D30CC000D504C0890002D37A
:1022B0000280801C002900D5027030BC70470000ED
:1022C000F3B587B000A8801C2D490A8802806846B3
:1022D0002C490A88028008200700082006000020F8
:1022E0000500EDB2702D23DA00200400E4B2302C9A
:1022F0001CDAE4B2002C08D0E4B22F2C05D0EDB2E9
:10230000002D02D0EDB26F2D07D101223119C9B2D3
:102310007819C0B200F006FC06E000223119C9B2FB
:102320007819C0B200F0FEFB641CDFE76D1CD8E733
:10233000079A0A210A2000F0E3FB08A80078012888
:102340000AD100AA921C2E212E2000F0D9FB6A4649
:102350002E214C2000F0D4FBB64901A8FFF76CFAFF
:1023600001AA2E210A2000F0CBFBB34901A8FFF7F8
:1023700063FA01AA2E215E2000F0C2FB09B0F0BD75
:102380006A330008EE350008F1B582B06846694648
:10239000097A0622514308310171402100916846B3
:1023A00000790221FFF70AFF0099081A0700172099
:1023B000060000200500684600792900C9B288425D
:1023C00026D300200400E4B2112C1FDAE4B2002C62
:1023D0000BD0E4B2102C08D0EDB2002D05D02800AF
:1023E00069460979C0B2884207D101223119C9B2C0
:1023F0007819C0B200F096FB06E000223119C9B28C
:102400007819C0B200F08EFB641CDCE76D1CD2E7CB
:10241000F7BDF7B588B01F0001206946087268460D
:102420006946097A791A491E017368460AA909782A
:102430006A46127A8918491C417268466946097BC6
:102440006A46127A891A491EC17300200500EDB24E
:10245000802D58DA2E00EDB2402D02DB28004038E6
:102460000600F6B230000721FFF7A8FE002902D0CF
:10247000F6B2002E45D10020040020003900C0B281
:10248000C9B288423DD2FFB238000321FFF796FE61
:10249000401E69468873FFB2022078430321FFF78C
:1024A0008DFE401C69464873EDB23F2D02D0EDB25F
:1024B000402D07D16846007A694688736846007BDC
:1024C00069464873E4B2002C10D06846807B210036
:1024D000C9B2884205D220006946497BC0B2884211
:1024E00004D3E4B2FFB2781E844208D101220AA8C4
:1024F00000780119C9B22800C0B200F013FB641CB7
:10250000BBE76D1CA3E7802006000899C64800F0D1
:10251000C5FD02F065FF6946088268466946898CF8
:1025200064225143C182002069464881049800B268
:1025300002990914884200DAB61E68460599091402
:10254000029A1214891A8182059800B200286ED06E
:102550000298001402F062FF0100089802F078FF70
:1025600007D86846049909B2029A1214891A41825E
:1025700006E0684602990914049A12B2891A418247
:10258000059800B204990914884203DA059800B24C
:102590006946488204990914802048430221FFF7C4
:1025A0000DFE059909B2FFF709FE69460883002070
:1025B00005002800C0B2069909B200B2884236DA96
:1025C0000020040020006946C97BC0B288422CD29A
:1025D000049800B202990914884212DB012268466D
:1025E000407A2118C9B200910192F6B2300002215E
:1025F000FFF7E4FD4019019A0099C0B200F092FA89
:1026000011E001226846407A2118C9B20091019276
:10261000F6B230000221FFF7D1FD401B019A00996C
:10262000C0B200F07FFA641CCCE76D1CC1E70BB0B0
:10263000F0BD0000086B0008106B0008F8B53420EE
:10264000694608707D2007000A200600002005006A
:10265000280069460978C0B288420FD200200400E1
:10266000E4B2022C08DA01227119C9B23819C0B2D9
:1026700000F058FA641CF3E76D1CE9E77C200700C2
:10268000BE480078401E694609784843BC4909782D
:10269000FFF794FD69464870684640780A300600A6
:1026A00000200500EDB2042D1ED200200400E4B28B
:1026B000082C17DAB348EDB2405D0121A140084271
:1026C00007D001223119C9B27819C0B200F02AFA34
:1026D00006E000223119C9B27819C0B200F022FA1E
:1026E000641CE4E76D1CDDE7F1BDF3B585B0402067
:1026F000060005994C4800F0D1FC02F071FE6946D5
:10270000888068466946098B6422514341810020D4
:1027100007003800019909B200B2884200DAB61EFB
:10272000684602990914C91B0181029800B2002869
:1027300078D03FB2380002F071FE0100059802F037
:1027400087FE05D86846019909B2C91BC18004E01B
:102750006846019909B2791AC180029800B20199BC
:102760000914884203DA029800B26946C8800199C8
:1027700009142C2048430221FFF720FD029909B2D9
:10278000FFF71CFD69468881002005002800C0B2C3
:10279000039909B200B288422DDA00200400E4B2A5
:1027A000042C26DA019800B2390009B288420FDB06
:1027B00001220092F6B230000221FFF7FFFC411B1C
:1027C000009AC9B220007C30C0B200F0ABF90EE034
:1027D00001220092F6B230000221FFF7EFFC41190E
:1027E000009AC9B220007C30C0B200F09BF9641C92
:1027F000D5E76D1CCAE700200500EDB2022D11DA05
:1028000000200400E4B2042C0ADA01222020411B3B
:10281000C9B220007C30C0B200F084F9641CF1E73A
:102820006D1CEAE707B0F0BD0000C842F8B500270C
:10283000002600200500EDB20D2D1ED20020040060
:10284000E4B2082C17DAAD48EDB2405D0121A14099
:10285000084207D001223119C9B27819C0B200F07C
:1028600061F906E000223119C9B27819C0B200F04E
:1028700059F9641CE4E76D1CDDE7F1BDF3B581B0E7
:10288000712007000020060069463800801C48704F
:1028900069463000801C087068460079652802DBB4
:1028A00064206946087100200500EDB20F2D1ED28C
:1028B00000200400E4B2082C17DACC48EDB2405DE9
:1028C0000121A140084207D001223119C9B278196B
:1028D000C0B200F027F906E000223119C9B2781918
:1028E000C0B200F01FF9641CE4E76D1CDDE70020B6
:1028F0000500684600790A21FFF760FCEDB28542C9
:1029000013DA00200400E4B2042C0CDA0122684639
:1029100000780119C9B2684640784019C0B200F089
:1029200001F9641CEFE76D1CE3E76846007A0028B4
:1029300023D000200500EDB2062D1ED20020040099
:10294000E4B2082C17DAAA48EDB2405D0121A1409B
:10295000084207D001223119C9B27819C0B200F07B
:10296000E1F806E000223119C9B27819C0B200F0CE
:10297000D9F8641CE4E76D1CDDE7F7BDFC0C002012
:10298000FD0C0020206B0008F7B507000E000020AA
:102990000500EDB2182D70DA00200400E4B2082C16
:1029A00069DAEDB228000221FFF708FC00292FD1D7
:1029B000D3486946097A182251434018EDB24019AC
:1029C000D049405C0121A140084210D001223119B8
:1029D000C9B200910192EDB228000221FFF7EEFB8F
:1029E0003818019A0099C0B200F09CF841E000222A
:1029F0003119C9B200910192EDB228000221FFF70E
:102A0000DDFB3818019A0099C0B200F08BF830E075
:102A1000BB486946097A182251434018EDB2401963
:102A2000B849405C0121A140084211D0012231196E
:102A30000839C9B200910192EDB228000221FFF7D6
:102A4000BDFB3818019A0099C0B200F06BF810E095
:102A5000002231190839C9B200910192EDB2280063
:102A60000221FFF7ABFB3818019A0099C0B200F0C1
:102A700059F8641C92E76D1C8BE7F7BD70B5050033
:102A80000E0014002078002809D022783100C9B245
:102A90002800C0B2FFF778FF641C0C35F2E770BD68
:102AA000F4B507000E0000200500EDB2062D23DA74
:102AB00000200400E4B2082C1CDA9B48694609781F
:102AC000062251434018EDB2405D0121A140084269
:102AD00007D001223119C9B27819C0B200F022F82A
:102AE00006E000223119C9B27819C0B200F01AF814
:102AF000641CDFE76D1CD8E7F1BD00002C6A0008FC
:102B000070B505000E0014002078002809D0227846
:102B10003100C9B22800C0B2FFF7C2FF641CAD1D6E
:102B2000F2E770BDF0B504000D001600F6B2002EFD
:102B300020D0022E3CD058D2E4B2EDB228000821B9
:102B4000FFF73CFB80214843201878490F18E4B276
:102B5000EDB228000821FFF731FB802148432018FF
:102B600072490818407801216A07520F91400143C9
:102B700079703AE0E4B2EDB228000821FFF71EFBBD
:102B800080214843201869490F18E4B2EDB22800AB
:102B90000821FFF713FB80214843201863490818D8
:102BA000407801216A07520F9140884378701CE0F9
:102BB000E4B2EDB228000821FFF700FB8021484372
:102BC00020185A490F18E4B2EDB228000821FFF787
:102BD000F5FA80214843201854490818407801210B
:102BE0006A07520F914041407970F0BD3C6A00087D
:102BF000006B000880B5AE2000F06BF88D2000F06F
:102C000068F8102000F065F801BD80B58D2000F057
:102C100060F8142000F05DF8AF2000F05AF801BD14
:102C200080B5434800884349C96B8862424802F036
:102C300023FC3F4800883F49C96B8861AE2000F003
:102C400048F8002000F045F8102000F042F840203D
:102C500000F03FF8812000F03CF8802000F039F8C7
:102C6000C82000F036F8A12000F033F8202000F052
:102C700030F8002000F02DF8A62000F02AF8A82057
:102C800000F027F83F2000F024F8D32000F021F8CE
:102C9000002000F01EF8D52000F01BF8F02000F016
:102CA00018F8D92000F015F8F12000F012F8DA2019
:102CB00000F00FF8122000F00CF8DB2000F009F80B
:102CC000402000F006F840201849087000F01CF879
:102CD00001BD38B5050078246846002101806846AA
:102CE000457016480068000401D500BFF9E70222CC
:102CF000694601202043C0B202F0E8FA31BD00006D
:102D000074620008B0FBFFFF10B578240B48006820
:102D1000000401D500BFF9E7094A04490120204316
:102D2000C0B202F0D3FA10BD745C00081004002099
:102D300034640008F46300081027000018540040B1
:102D40000104000080B50121232000F019F8374864
:102D500002F092FB0021232000F012F80021242031
:102D600000F00EF81021252000F00AF8BC48BD49FB
:102D70008880BB48BB49C880B948BA49088101BDB1
:102D800070B582B006000D003A24684606706846A9
:102D90004570B5480068000401D500BFF9E702227C
:102DA00069462000C0B202F091FA73BD11B581B03E
:102DB0003A24AD480068000401D500BFF9E70122BC
:102DC00001A92000C0B202F081FAA74800680004FF
:102DD00001D500BFF9E70122694601202043C0B2B6
:102DE00002F0A2F96846007816BD10B582B03A2408
:102DF0002820694608709C480068000401D500BF7F
:102E0000F9E7012269462000C0B202F05FFA964855
:102E10000068000401D500BFF9E7062293490120AC
:102E20002043C0B202F080F913BD0000102700005B
:102E300010B58F480078042800D0FCE001208C49B0
:102E400008708C48807F042813D08A48807F03282C
:102E500007D10420874988778648008885494882B9
:102E6000FCE0032083498877824800888149888272
:102E7000F4E08048C07F042813D07E48C07F032838
:102E800007D104207B49C8777A4840887949C882AD
:102E9000E4E003207749C87776484088754908837D
:102EA000DCE075480078042800D1D7E0724800784B
:102EB000032800D0B7E004206F49087000206F4954
:102EC000087000206B49887700206A49C877002085
:102ED000694908700020664908706648808865491D
:102EE000488364481421405E62491222895E401A78
:102EF0000221FFF763F95F49C8805E481821405EF0
:102F00005C491622895E401A0221FFF757F9594998
:102F1000088158481C21405E56491A22895E401A91
:102F20000221FFF74BF95349488152481421405E72
:102F300050491222895E40180221FFF73FF94D499E
:102F400088814C481821405E4A491622895E401803
:102F50000221FFF733F94749C88146481C21405EEA
:102F600044491A22895E40180221FFF727F9414996
:102F7000088240480C21405E4149884220DB3D48A0
:102F80000C21405E80214901884219DA39480E211E
:102F9000405E3B49884213DB36480E21405E80216B
:102FA000490188420CDA33481021405E3449884296
:102FB00006DB30481021405E80214901884204DB55
:102FC00030493148FEF738FC48E02A48C088254996
:102FD0008880284800892349C8802648408921499B
:102FE00008812048047823480C21405E2021FFF707
:102FF000E5F820181B4908701A4844781D480E212E
:10300000405E2021FFF7DAF820181649487015486D
:10301000847818481021405E2021FFF7CFF820184F
:10302000104988701AE003201349087011488088FD
:103030001049888312E00E48007802280ED1002043
:103040000E49087000200B49887700200949C8778D
:1030500000200949087000200549087010BD0000D3
:10306000FF3F0000C80D002018540040DE0D002076
:103070002D0D00200C0D00202C0D0020060D002031
:1030800000F0FFFF28690008C00C0020010000E0EC
:10309000491C0A78002AFBD1081A704730B4050091
:1030A0004D400122D20715404B180418240E2ED093
:1030B0001B0E32D0FF2C34D0FF2B3AD0E418000284
:1030C000090210431143000A090A9446C2B24A4356
:1030D000000AC3B24B43000A4843110A5B181A4363
:1030E000D2B2190A091801D44918641E080A7F3C93
:1030F00023DBFE2C08DAE4050906114363469941F7
:103100006041284330BC7047FF20C005F9E7280024
:103110001B0EFF2BF6D1D043F4E72800FF2CF1D192
:10312000F9E74002F7D1FF2B01D14902F3D1E005C5
:10313000E7E7D8054902E4D0EDE743020020641C2C
:10314000DFD15B129B1CDCD9D805DAE70122D2075C
:1031500003004B402ED4431A01D2C01AC91830B410
:103160004B180418240E1B0E22D0FF2C20D0E31A7B
:10317000182B1DDC09021143C40D641E000210430C
:1031800094461925ED1A0A00AA40D940451801D3E2
:103190006D08A41CE405D209280A2D062A436546B9
:1031A000AA41604103181B0EFF2B01D3C00DC005BF
:1031B00030BC7047514001E05140CCE7431A03D284
:1031C000C01AC9185040514030B44B18090211437D
:1031D0000418240E1B0E40D0FF2C3AD025009D4130
:1031E0000BD31ED8C50D4002401A0BD3ED050100CC
:1031F000400AC90591416841DAE7C50D4002491806
:10320000401AD5D001214008491C0018FCD58C4239
:1032100004D36D1A000AED054019C9E7E80510400E
:10322000C6E7182DC4DCAC1C0D00E140E5414D4063
:10323000012D4941C40D00021043451A01D46D19F6
:103240009543641EE405280A2D069541604130BC73
:103250007047FF2BACD1D843AAE72442A8D1002065
:10326000A6E70268531C0360117070479446020081
:103270000A43921808D0884206D10122120600188B
:10328000D042084600D880426246704730B40500FC
:103290004D400122D20715404B180418240E28D0A7
:1032A0001B0E2FD0FF2C34D0FF2B37D0E41A000296
:1032B00009021043114343084808D10D1B1A02D2DA
:1032C000641EDB181B18DB18834200D31B1A49410C
:1032D000F9D37F3426DDFE2C08DAE4054808C90757
:1032E000194391416041284330BC7047FF20C0051D
:1032F000F9E728001B0E03D0FF2BF5D14902F3D0CC
:10330000D043F1E7FF2C01D14002F9D1FF20C005E5
:10331000E9E74002F4D1FF2BF8D1F1E72800490298
:10332000E2D0EDE70B0200202442DCD15B129B1CB3
:10333000D9D9D805D7E71A00012212060118CA42C6
:103340000AD28A420DD83822120609098918C20FFA
:10335000D20711434007704700D0490809090143CB
:1033600001E0C10FC90700207047180013B54800DD
:10337000400D204A904211D000281AD0684603C858
:103380000022002302F0A8F819D2684603C8802260
:10339000120651406A4603C2082411E00A03120BC8
:1033A000684603C8104304D1002905D412A003C8FD
:1033B0001CBD684603C81CBD11A003C81CBD002469
:1033C000684603C801220A4B02F09FF80AD8002081
:1033D00019466A460CCA00F025F96A4603C2200065
:1033E000022444402200684603C802F0C5F81CBD10
:1033F0000000F03FFF070000182D4454FB21F93F67
:10340000182D4454FB21F9BFF0B50E005E40012594
:10341000ED072E40B446AE0ADF184C18F44208D22D
:10342000F7420ED2640D01D07F0D12D1002061460B
:10343000F0BD05D1F74201D87F0D05D10020C14371
:10344000F0BDFBD1640DF9D00020C1434905490806
:103450008FE0E419C902DB0229432B43DB0A460D46
:10346000C00231438E4630B487B295B27D432E0CF4
:10347000ADB2140C7C43A419260C240425439CB241
:103480007C43A419190C7943270CC919A4B20F0461
:103490003C43090C000C97B247432E0CBE19354330
:1034A000ADB2170C4743360CBF19A6B2BF193E0484
:1034B0003543240C3E0C36199FB24743BF19BCB2AA
:1034C0003E0C89191F0C47437F183E043443390CC6
:1034D000704680B297B247432E0CBE193543ADB249
:1034E000170C4743360CBF19A6B2BF193E0435432B
:1034F000240C3E0C36199FB24743BF19BCB23E0C98
:1035000089191F0C47437F183E043443390C774612
:103510003F0C90B278432E0C80190604ADB22E43B6
:10352000050CA0B22D18120C7A435019020C80B26F
:10353000240CA4189AB27A43121914042043120CD2
:1035400089181B0C7B43C91830BCEF0A394203D1E0
:10355000B61940414941641E6F12BF0DE41B0BDBDD
:10356000FF19BC4211DA240500274208AE41784118
:10357000614166463143F0BD641C05D1401C614188
:10358000CF0201D34908F4E750E75DE70122520575
:103590004B18DA4201D9581570475B0D0722D2014A
:1035A0009B1A10D9FF2B1DD2DB050122D2070A403E
:1035B00013430903020D1143490AC200524100D9C5
:1035C000491CC81870470AD1800A0A0302435212E4
:1035D000921C04D9D3070B40D00518437047C80F7D
:1035E000C0077047C80F0002FF30C00570471900C0
:1035F000010009D5F446404200F006F80122D20746
:1036000011436047010000BF42221201D21E004256
:1036100007D002D4521E0018FCD5C10A400512057D
:1036200089187047F0B40E005E400125ED072E406A
:10363000B446AE0ADF184C18F4423BD2F74241D2EE
:10364000640D43D07F0D38D0E41BC902DB0229434F
:103650002B43CF0ADB0A0600B61A9F4104D2641E30
:10366000B6197F41B6185F416812800D2418001802
:10367000844222DAE80C0021B6197F41B61A9F4134
:1036800002D2B6185F413F1C40414941F4D3241C8B
:1036900021DD2405B6197F41B61A9F4105D3374372
:1036A000C60737430026012F70416141664631430A
:1036B000F0BC7047FCD1F74205D20020C143490558
:1036C0004908F3E704D00020C143F1E77F0DFAD0A9
:1036D00000206146ECE72442FAD1401C61410F030F
:1036E000F6D30020E2E7FEE730B504000D002068C5
:1036F0002DB240190421615E401A206020683021FB
:10370000FEF75CFDA0800420205E30BDF2B592B0D3
:1037100005000EAA2800103003C803C2083A8C48DE
:103720000421405EFFF764FF04AA03C2083A0020A8
:103730000400022C09DA02206043285E09A9042251
:10374000624389184860641CF3E70A98FFF750FF4A
:103750000EAA0CCAFFF758FE01F0FEFF00B202905D
:103760000298E8800EA803C82A0020320CCAFFF78E
:103770004BFE0EAA0CCAFFF747FE06000F00744866
:103780000221405EFFF734FF32003B0002F00DF8EB
:1037900006AA03C2083A06A803C82A00283203C2B0
:1037A000083A04A803C806AA0CCAFFF72DFE009029
:1037B000019104A80CC8083806A803C8FFF724FE26
:1037C00002000B0004A803C8FFF71EFE06000F004E
:1037D0005F480021405EFFF70BFF32003B0001F025
:1037E000E4FF02000B0000980199FFF71BFF0CAAF1
:1037F00003C2083A0CA803C82A00183203C2083AC8
:103800000298FFF7F5FE00900191129800B2FFF7C1
:10381000EFFE06000F000298FFF7EAFE02000B0021
:1038200004A803C8FFF7F0FD02000B0030003900C8
:1038300002F01EF802000B000CA803C8FFF7E4FD1D
:10384000009A019B01F0B1FF01F086FF00B20990E0
:1038500000200400032C08DA09A804216143405821
:10386000022161436852641CF4E70CA803C804AA4F
:103870000CCAFFF7C9FD02000B0000203A4901F015
:10388000F7FF06AA0CCAFFF7BFFD2A00203203C2C9
:10389000083A09980A9902225143401A0B99401894
:1038A00008900820285E0899401803900398288102
:1038B00003982849FEF782FCFFF79AFE10AA03C27C
:1038C000083A10A803C80122274B01F005FE16D2C2
:1038D00010A803C80022204B01F017FE0FD810A833
:1038E00003C802F03DF81DA20CCAFFF79BFE0022A0
:1038F0001D4B01F05AFF2A00103203C2083A28007B
:10390000203003C802F0A2F8022805D100200021CF
:103910002A00203203C2083A099800B213B0F0BD61
:1039200010B504000F48006824B200190F490022A6
:10393000895E401A0B4908600A4800686421FEF756
:103940003DFC0A49088009480021405E10BD000086
:10395000300D0020FF3F00000000F0BFDF6D20555C
:10396000FB21F93F240E00200000F03F300E002024
:10397000F1B5A4B014001F0014ADA9600020E862E6
:103980000AE0A868249A9047A860002800D1CBE2FA
:10399000E86A401CE862641C2178080001D1E86AEA
:1039A000C4E22529EDD100206861A861E8612862A0
:1039B0006862A86202E0010001200843641C2178CB
:1039C0002029F8D023290ED02B2904D02D2907D067
:1039D00030290BD00DE001000220084380B2EDE752
:1039E00001000420F9E701000820F6E7010010209B
:1039F000F3E72A290FD1396839600A68091D39604F
:103A00006A63002A05D55142696301000420084316
:103A100080B2641C12E0002169630AE06A6B774B94
:103A20009A4205D093009A185200511830396963B0
:103A3000641C21780A00303A0A2AEFD321782E2913
:103A400003D00021C94329631EE0641C21782A2980
:103A500007D1396839600A68091D39602A63641C16
:103A600012E0002129630AE02A6B644B9A4205D0D8
:103A700093009A185200511830392963641C217838
:103A80000A00303A0A2AEFD32887267831005A48AC
:103A90007844FF30653001F0F1FF002801D0641C4C
:103AA00000E000263A202E54285C682804D12178B2
:103AB000682901D1622005E06C2806D120786C28A5
:103AC00003D171203A216854641C05A82861267826
:103AD000641C3000253824D02038022800D8D4E0D7
:103AE000133800D1F6E00B3800D15DE1401E00D163
:103AF00037E1401E022800D8C7E0001F00D130E1A6
:103B0000401F00D193E0401E00D1E3E0401E27D0CB
:103B1000C01E0BD0801E00D1DCE0C01E00D1D9E059
:103B20004CE1252069460875012051E1386838606C
:103B30000168001D3860E9602E6B002E03D5084631
:103B4000FFF7A4FA0AE032000021E86801F0A0FFC4
:103B5000002802D0E968401A00E03000A86138E18E
:103B6000386838600268001D38600020C0430021BA
:103B7000104014AA03C205A8E860286900903C22FE
:103B800014A803C802AB03C302A803C8002904D1C8
:103B9000002802D1286B00281DD0521E02A803C89D
:103BA0000007000F3030C0B23A2800DB2730009900
:103BB000885402A803C800090B071843090902AB7F
:103BC00003C302A803C801D1002804D0E868009903
:103BD00089188842E1D33C20801AA861009989188D
:103BE000E960296B88420DDA081A2862288F044997
:103BF00001402987EDE000BF202F0000FFFFFF7F7D
:103C0000EFFF0000002900D4E3E03821695C1422B2
:103C10000A40102A00D0DCE0696B6A69891A2A6AB6
:103C2000891A0A1A012A00DAD3E02A62D1E03A207E
:103C3000285C622819D0682806D06A280CD06C2825
:103C40001BD0712808D018E0386838600168001D62
:103C50003860E86A0880BCE0386838600268001D97
:103C60003860E86AC11703C2B3E038683860016899
:103C7000001D3860E86A0870ABE038683860016899
:103C8000001D3860E86A0860A3E03A68D21D07208A
:103C900082433A6003CA3A6014AA03C2002902D5DB
:103CA00068692D2109E0288F810702D568692B21D9
:103CB00003E0C00705D56869202105AA1154401CFE
:103CC000686105A869694018E860310014A800F02F
:103CD000F9F97EE03A20285C6C280BD0712801D0DD
:103CE0006A2807D13A68D21D072082433A6003CA86
:103CF0003A6005E0396839600868091D39600021BB
:103D000014AA03C23A20285C682803D114A803C867
:103D100080B20BE0622803D114A803C8C0B205E04A
:103D2000742801D07A2804D114A803C8002114AA49
:103D300003C23820285C00072DD514A803C8002929
:103D400001D1002827D020203043782823D168696A
:103D5000302105AA1154401C411C696105A90E546B
:103D600019E039003A20285C00F0E2F814AA03C2F6
:103D7000002902DA68692D2109E0288F810702D520
:103D800068692B2103E0C00705D56869202105AAD1
:103D90001154401C686105A869694018E860310049
:103DA00014A800F0F9F814E0012068613868386060
:103DB0000168001D3860684601750AE025206946E3
:103DC000087501206861300003D005A84670022004
:103DD0006861686B6969401A296A401AA969401AC2
:103DE000696A401AE969401AA96A401A04903820A1
:103DF000285C400711D420206946087104980128E6
:103E00000BDB049E012301AA14A9249800F01BFCDB
:103E1000002800D088E0761EF4D1686905AE00283D
:103E20000FD000903178A868249A9047A8600028A5
:103E30007AD0E86A401CE862761C0098401E009028
:103E4000F0D13020694608712E6A012E09DB01236A
:103E500001AA14A9249800F0F6FB002864D1761E6C
:103E6000F5D1EE68A86900280FD000903178A868D5
:103E7000249A9047A860002856D0E86A401CE8625F
:103E8000761C0098401E0090F0D1302069460871E1
:103E90006E6A012E09DB012301AA14A9249800F0FF
:103EA000D2FB002840D1761EF5D1E868A9694618F2
:103EB000E86900280FD000903178A868249A9047CC
:103EC000A860002830D0E86A401CE862761C0098A0
:103ED000401E0090F0D1302069460871AE6A012E74
:103EE00009DB012301AA14A9249800F0ACFB0028E7
:103EF0001AD1761EF5D13820285C400700D44BE556
:103F00002020694608710498012800DA44E5049EDF
:103F1000012301AA14A9249800F095FB002803D1DD
:103F2000761E00D138E5F3E70020C04325B0F0BD90
:103F30000A00622822D0682819D06A2808D06C2884
:103F400023D0712804D074281FD07A2808D01CE010
:103F50001368DB1D07208343136003CB1360704796
:103F6000116811600868091D11600021704711680F
:103F700011600868091D116000B20BE01168116042
:103F80000868091D116040B204E0116811600868FA
:103F9000091D1160C1177047F3B583B00069009027
:103FA0006846027C6F2A01D1082406E020211143D3
:103FB000782901D00A2400E010243C25039803C886
:103FC00006000F00642A01D0692A07D1002905DA0A
:103FD00000200021801BB94106000F00002F10D1E6
:103FE000002E0ED10398006B00280AD1082C3AD17C
:103FF00003983821405C000735D53B2530200099D7
:1040000030E06D1E0195300039002200E31701F009
:104010004BFD3032D2B23A2A03DB6846007C51387D
:10402000121800984255300039002200E31701F0C1
:104030003BFD06000F0001D1002E05D00398C0689B
:10404000009949198842DCD3082C0CD103983821F7
:10405000405C000707D50098405D302803D06D1EF6
:104060003020009948553C20401B039988610099F5
:104070004919039AD1600399096B884209DA081A31
:10408000039908620398008FBA4901400398018799
:1040900015E0002913D503993822895C14220A40BF
:1040A000102A0CD10399496B039A5269891A039A11
:1040B000126A891A0D1A012D01DB0398056205B0F9
:1040C000F0BD0000F3B591B006AA03C802AB03C36C
:1040D0001198006B002801D5062007E008D112A82E
:1040E000007820210143672902D10120119908633A
:1040F000119840684100490D9F4B994223D100031C
:104100000FD11198006800280BD103201199886104
:1041100012A8007861381A2864D300BF9FA00090CD
:104120000AE003201199886112A8007861381A28E2
:1041300056D300BF9AA00090032200991198C0683E
:1041400001F0E8FC14E1012947DB8C4A02408C486D
:104150001043119A50608B48091A09B28A484843A3
:104160008A49FEF72BF8040002A803C800220023A6
:1041700001F0B2F906D202A803C88022120651400B
:1041800002AA03C2684684800720019909B2421A34
:1041900000207F49012A27DB009202AA30CA0026AC
:1041A0000F000098C00707D532003B00200029000F
:1041B000FFF72AF904000D0000984010009030002D
:1041C000390032003B00FFF71FF906000F0000988E
:1041D0000028E6D102A830C027E000200023BCE080
:1041E00070A0A8E770A09AE754420026694F10E03B
:1041F000E00707D504A803C832003B00FFF704F925
:1042000006000F00641004A803C804AA0CCAFFF734
:10421000FBF804AA03C2002CEAD102A803C83200AA
:104220003B00FFF7FFF902AA03C212A80078202181
:1042300001430491662903D1019800B20A3000E0DD
:1042400006201199096B08180090142801DB13202F
:10425000009030206946087606A8441C0098012882
:1042600039DB02A803C801F089FA05900646083434
:10427000042530000A21FDF7A4FF0F0030000A21B9
:10428000FDF79FFF06003037601E077030000A21DF
:10429000FDF797FF0F0030000A21FDF792FF06009F
:1042A000A41E303727706D1EE3D1083400980838FB
:1042B00000900128D2DB0598FFF7A4F902000B005B
:1042C00002A803C801F0D4FA0022334BFFF79CF890
:1042D00002AA03C2C5E706A8401C201A06A94A1C68
:1042E0006B4605E0401E019909B2491E9980521C97
:1042F00011783029F6D00499662903D1019909B2C1
:10430000491C04E0652901D1012100E00021119B35
:104310001B6B5B181BB2984200DA03001BB219003A
:104320001DD4814204DA505C352801DB392000E0DD
:104330003020541800E05B1E641E491E257885421B
:10434000F9D0392802D1505C401C5054002906D5C0
:10435000521E5B1C019800B2401C6946888001987F
:1043600000B200901BB212A80178119800F01EF85C
:1043700013B0F0BDEFFF0000FF070000FFFF0F804C
:104380000000E03FFE03000097750000A0860100DA
:10439000000024400000F03F84D79741494E46007A
:1043A0004E414E006E616E00696E6600F3B585B0D9
:1043B00014001D00066B012D01DA0125AEA420209A
:1043C00008430C9F662801D17F1C17E0672800D0A6
:1043D000AAE00321C9438F4200DA91E0B74200DB33
:1043E0008EE07F1C05983821405C000702D4B5425E
:1043F00000DA2E003FB2F61B00D500260598816931
:10440000C06840183FB2012F2CDA491C30220270DC
:10441000012E04DA05983822805C000704D52E208E
:10442000059AD2685054491C0598816178428642A9
:1044300000DA77423FB2784205994862F619AE42F7
:1044400000DA35002DB20598C5612A0021000598D3
:10445000C068059B9B69C01801F05CFB701B059947
:104460008862D2E03A0095421EDA2A00210001F06B
:1044700051FB059989694919059A9161781B059A3B
:104480005062012E04DA05983822805C000708D5B6
:104490002E20059AD26850540598C069401C059991
:1044A000C86105988662B0E0210001F033FB0598F1
:1044B0008069C019ED1B012E04DA05993822895C48
:1044C000090704D52E21059AD2681154401C05997C
:1044D00088612DB2AE4200DA35002DB22A00E11912
:1044E0000598C068059B9B69C01801F013FB0598EF
:1044F0008069401905998861701B0599486284E0BC
:10450000B54205DA05993822895C090700D42E00E6
:10451000761E00D500266846007E672801D16520FA
:1045200000E045206946087605988169481C059A8F
:1045300090612278059BDB685A54611C012E04DAD5
:10454000059A3823D25C12071DD50200401C059B3A
:1045500098612E23059CE468A354012E13DB6D1E85
:104560002DB2AE4200DA35002DB22A00059BDB6881
:10457000181801F0CFFA05988069401905998861EB
:10458000701B059948620598C068059989694118AA
:104590006846007E0870380003D42B2048708C1CBD
:1045A00003E02D224A708C1C4742002502AE08E031
:1045B0000A22684601F0DCFA01983070009F6D1CF9
:1045C000761C39B20129F3DA022D08DA6846007E3A
:1045D00020210143652902D130202070641C002D68
:1045E00009D130202070641C07E06D1E02A8405DD8
:1045F00030302070641C012DF7DA0598C0680599E9
:1046000089694018201A0599C86105983821405CCD
:1046100014210140102914D1059840690599896930
:1046200040180599496A40180599C96940180599C3
:10463000896A40180599496B884202DA081A059977
:10464000086207B0F0BDF1B50E0014000027002B82
:104650000FD01D002178B068009A9047B060002804
:1046600006D0F06A401CF062641C6D1E01D0F1E7B8
:10467000FF433800F2BD00003000FEE700B52048DF
:104680000068012101431E4801601D480068800741
:1046900001D400BFF9E71A480068802149020143AC
:1046A0001748016016480068800301D400BFF9E78D
:1046B0001448006803210143124801601148006852
:1046C0008007800F032801D000BFF7E70E4800687D
:1046D000102101430C4801600B480068800601D49A
:1046E00000BFF9E70848006801210143064801605E
:1046F00006480068902188430449086000BD00BF57
:1047000034100240041002400020024030100240E9
:104710000121C206D20E9140724A116070470121F8
:10472000C206D20E9140704A11607047F0B540B297
:10473000002821D56D4C40B20207120F083A9508A7
:1047400004225543694A40B203071B0F083B9B08EC
:1047500004267343D258FF238607B60F08277E43EB
:10476000B3409A438B01DBB28607B60F08277E431E
:10477000B340134363511AE05D4A40B283080424F6
:104780006343D258FF238407A40F08256C43A3403A
:104790009A438B01DBB28407A40F08256C43A34026
:1047A0001343534A40B2840804256C431351F0BDAF
:1047B00080B550480068012101434E4801604E48D1
:1047C0000068012101434C4801604B480068012109
:1047D00088434949086031204849086048484949A8
:1047E0000860494800884949C96E8861484800689E
:1047F00001210143464801604548006830210143DA
:1048000043480160434800680A2101434148016070
:104810003F4800683E4908603E4800680121014366
:104820003C4801603C480068022101433A4801606D
:104830003948006801210143374801603748006862
:1048400037490140354801603448006802218843F7
:104850003249086031480068012188432F490860C7
:1048600000203049087000202E49487000202D4952
:1048700088700F20FFF74CFF0F210F20FFF756FF26
:104880002948006801210143274801602648006843
:10489000022101432448016001BD80B5154800682C
:1048A0000121884313490860174800881749C96ED9
:1048B0008862184800680121884316490860164834
:1048C00000680221884314490860134800680121E8
:1048D0008843114908600120124988700F20FFF7B2
:1048E0001EFF01BD00E100E080E100E01CED00E002
:1048F00000E400E01C1002401010024028000040BC
:10490000E09304002C00004064640008F463000895
:1049100018000040200000400C0000401000004043
:10492000FFFDFFFFFC0D00201400004000B5A24871
:104930000068800522D5A0480068A04901409E4833
:1049400001609D480068022188439B4908608020DF
:10495000C0050068012188438021C9050860984886
:104960008078022800D125E10020954908700020B8
:10497000934948700020924988701BE18E48006876
:10498000800700D4F7E08C480068022188438A49F8
:1049900008608B488078022808D18020C005006814
:1049A000012188438021C905086003E1854800682A
:1049B00080062AD5844800688449884221D28248EA
:1049C0000068834988421CD38020C005006801210B
:1049D00088438021C905086000207949087078481B
:1049E0004078102807D176488078032803D0022029
:1049F0007349887005E000207149487000207049B3
:104A00008870002070490860D4E08020C0050068EC
:104A1000C00700D4A3E08020C005006801218843BE
:104A20008021C9050860684800686A49884212D236
:104A300065480068684988420DD36148807800283D
:104A400009D100205E49087000205D4948700120AE
:104A50005B49887083E05C4800686049884233D2D3
:104A6000594800685E4988422ED35548807801280D
:104A70002AD15348524949784018C0780121504AF8
:104A80001278914088434E494D4A52788918C8702F
:104A90004B480078401C4A4908704948007808286B
:104AA0005DDB00204649087045484078401C444979
:104AB000487043484078112851DB032040498870F2
:104AC00000203F4948704AE03F4800683F4988421B
:104AD00033D23D4800683E4988422ED3384880781A
:104AE00001282AD13648364949784018C078012132
:104AF000334A1278914001433148314A5278801844
:104B0000C1702F480078401C2D4908702C4800784F
:104B1000082824DB00202A49087029484078401CD6
:104B20002749487026484078112818DB032024497B
:104B3000887000202249487011E08020C00500687C
:104B4000012188438021C905086000201C490870A4
:104B500000201B4948700020194988702AE0002075
:104B6000204908608020C0050068012101438020A1
:104B7000C00501601EE010480068C0071AD50E4845
:104B80000068012188430C4908608020C005006846
:104B9000012188438021C9050860094880780228DE
:104BA00008D0002006490870002005494870002000
:104BB0000349887000BD000010000040FFFDFFFFAA
:104BC000FC0D00201000004834000040BB04000031
:104BD000DE030000131B000026160000750900000C
:104BE000BC070000240000400121C206D20E914003
:104BF0006E4A116070470121C206D20E91406C4A84
:104C000011607047F0B540B2002821D5694C40B220
:104C10000207120F083A950804225543654A40B22C
:104C200003071B0F083B9B0804267343D258FF233E
:104C30008607B60F08277E43B3409A438B01DBB249
:104C40008607B60F08277E43B340134363511AE02B
:104C5000594A40B2830804246343D258FF2384078F
:104C6000A40F08256C43A3409A438B01DBB2840751
:104C7000A40F08256C43A34013434F4A40B2840855
:104C800004256C431351F0BD80B54C480068802169
:104C90008900014349480160494800684949014089
:104CA000474801600C20FFF7A6FF01BD80B54448CE
:104CB0000068802189000143414801603F48006845
:104CC0008021890001433D4801603C4800683D491E
:104CD00001403A4801603C480068802109060143D0
:104CE0003948016038480068002801D500BFF9E75D
:104CF00035480068012101433348016033480068AA
:104D00003348006810210143314801603148006890
:104D1000182101432F4801600C20FFF765FF0E2189
:104D20000C20FFF76FFF01BD00B527480068400762
:104D30001FD42648006800070DD5244800680821C4
:104D4000014322480160244800682449088001206A
:104D50002249887028E01D480068C00624D51B48F9
:104D60000068102101431948016000201B49887028
:104D70001AE01548006810210143134801601248E9
:104D80000068C00601D500BFF9E710480068082197
:104D900001430E4801600D480068102101430B4893
:104DA000016000200D49887000BD000000E100E0B6
:104DB00080E100E01CED00E000E400E00C100240A7
:104DC00018100240FFFDFFFF0824014000240140AD
:104DD000282401400424014040240140200E0020EA
:104DE00038B581480400814800680C2148432018E8
:104DF0000500AC4210D2207AC0B240080007000F74
:104E00000090207A0300DB07DB0FA279E1792068AC
:104E100000F003F80C34ECE731BDF4B583B00400C6
:104E20000D001E00099F9020C005844206D17048E5
:104E300000688021890201436D4801606D48844209
:104E400006D16B4800688021C902014368480160AF
:104E50006948844206D166480068802109030143FD
:104E6000634801606548844206D16148006880213A
:104E7000C90301435E480160F6B2002E03D0012051
:104E8000A840A06102E00120A840A06220680321A0
:104E900002226A4391408843206060680121A94052
:104EA00088436060E068032102226A43914088439E
:104EB000E060EDB228000821FDF780F904214843A5
:104EC00020180290EDB228000821FDF777F904219F
:104ED00048432018016A01910F200090EDB228008C
:104EE0000821FDF76BF9042041430098884001999F
:104EF0008143029801626846007B00280BD002289B
:104F000012D010D304281FD016D3062833D025D3AF
:104F100007283AD045E02068032102226A439140E5
:104F2000014321603DE03CE0E068012102226A4348
:104F300091400143E16034E0E068022102226A43CB
:104F400091400143E1602CE02068012102226A4384
:104F50009140014321606068606022E02068012187
:104F600002226A4391400143216060680121A94007
:104F70000143616015E02068022102226A439140EA
:104F800001432160606860600BE02068022102221A
:104F90006A4391400143216060680121A9400143B7
:104FA0006160EDB228000821FDF708F904214843AB
:104FB00021180191EDB228000821FDF7FFF8042126
:104FC00048432018016A0091FFB2EDB22800082181
:104FD000FDF7F4F804204143380088400099084365
:104FE00001990862FFBD0000F46300080000002082
:104FF0001410024000040048000800480014004853
:10500000AD48006803210143AB480160AA4800682D
:105010000C210143A8480160A84800680121014310
:10502000A6480160A548006804210143A348016027
:105030009F4800688021890301439D4801609B4887
:1050400000688021890301439848016097480068FF
:105050009849014095480160994800680921014339
:105060009748016096480068C02189000143944830
:10507000016093480068C0218902014390480160A3
:105080008F480068C021890301438D480160704743
:1050900000B58C4A126801239A438A4B1A60894AE8
:1050A000126801231343874A1360C34A1268864B70
:1050B0001340C14A136089B2FF290EDDBE4A12684F
:1050C000FF231B041343BC4A1360BB4A12688023AE
:1050D0005B041343B84A13600BE0B74A12680B0431
:1050E0001343B54A1360B44A1268B44B1340B24A32
:1050F0001360B14A1268FF239A43AF4B1A60AE4A5D
:105100001268C0B20243AC4B1A60AB4A12688023EB
:10511000DB001343A84A1360A74A126880239B014F
:105120001343A54A136000BDF8B505000C00160036
:10513000A3480068000468D4310089B22800C0B2D6
:10514000FFF7A6FFB6B2FF2E00DDFF3E9C480068C9
:10515000400704D59B4800682070641CF6E7984817
:105160000068400609D5944800688021C9010143C0
:105170009148016002200700E8E7914800680006B6
:1051800025D58D480068504901408B480160B6B272
:10519000FF2E0FDD88480068FF210904014386487F
:1051A000016085480068802149040143824801600C
:1051B000FF3ECBE780480068310401437E48016030
:1051C0007D4800687D4901407B480160BEE77C481E
:1051D0000068C0060ED57C480068102101437A485B
:1051E000016079480068202101437748016003206D
:1051F00007000CE0724800688006A7D57248006876
:10520000202101437048016001E0012007003800BF
:10521000C0B2F2BD00B52B4A126801239A43294B54
:105220001A60284A126801231343264A1360624A0F
:105230001268254B1340604A136089B2FF290EDDC6
:105240005D4A1268FF231B0413435B4A13605A4AEA
:10525000126880235B041343574A13600BE0564ADD
:1052600012680B041343544A1360534A1268534B99
:105270001340514A1360504A1268FF239A434E4B21
:105280001A604D4A1268C0B202434B4B1A604A4A38
:1052900012684E4B1340484A1360474A12688023F5
:1052A0009B011343444A136000BD000010100240EC
:1052B0001C100240FFFFDFFF081400480C140048D8
:1052C0001054004000540040FFFF00FFF8B50500F7
:1052D0000C0016003A480068000468D4310089B216
:1052E0002800C0B2FFF796FFB6B2FF2E00DDFF3EEA
:1052F00033480068800704D5207835490860641C6D
:10530000F6E72F480068400609D52B480068802141
:10531000C90101432848016002200700E8E7284846
:105320000068000625D5244800682A490140224823
:105330000160B6B2FF2E0FDD1F480068FF2109048F
:1053400001431D4801601C48006880214904014355
:1053500019480160FF3ECBE717480068310401435C
:105360001548016014480068144901401248016062
:10537000BEE713480068C0060ED513480068102128
:1053800001431148016010480068202101430E4884
:105390000160032007000CE0094800688006A7D5DB
:1053A00009480068202101430748016001E001200D
:1053B00007003800C0B2F2BD04540040FFFFFFFEFA
:1053C00018540040245400401C540040FFFBFFFFD1
:1053D00028540040FFFF00FF7047FEE77047FEE7DC
:1053E0000122D2070118090E7F3910D449421F311A
:1053F0000FD4001805D2C0011043C84000D5D043D7
:105400007047C0011043C84005D440427047002097
:1054100070470042F3D510007047FEE79D2102005F
:1054200008D5F446524200F005F80122D207104395
:10543000604700000AD002D4491E9218FCD5C90565
:10544000100A1206524100D3012A48417047FEE774
:105450000CB4012212060318DA4207D84B18DA42BC
:1054600004D802000A43921802D281420CBC704751
:10547000FCD088420CBC704700B512490968022272
:105480000A4310490A6031210F4A116080B20F4966
:1054900008600F49096801220A430D490A600D4955
:1054A000096808220A430B490A600A49096801226F
:1054B0000A4308490A6007490968C90701D500BFBE
:1054C000F9E700BD1C100240280400402C040040F5
:1054D000140400400004004030B4012464054D0071
:1054E000EC420BD85D00EC4208D80C001C43640071
:1054F0000443144304D2994200D1904230BC704717
:10550000FCD08B42FAD18242F8E730B40124640522
:105510004D00EC420BD85D00EC4208D80C001C4357
:1055200064000443144304D28B4200D1824230BC55
:105530007047FCD09942FAD19042F8E7094880F3CD
:10554000088804200168090E1F22914205D10648EF
:105550000121016005480021016005488047054898
:105560000047000010040020181002400000014015
:10557000B5640008A16A0008F7B504000D0050A248
:105580000CCAFFF7C2FF1DD850A003C822002B0091
:10559000FDF73AFF00224C4B00F007F906000F0020
:1055A0004AA003C822002B0000F0FFF802000B0005
:1055B00030003900FEF736F804000D000298012192
:1055C00001430291200029000022424BFFF784FF93
:1055D00005D30122F9239B05FFF797FF53D822003B
:1055E0002B00FDF711FF06000F0032003B002000EA
:1055F0002900FDF709FF0090019137A003C8320090
:105600003B00FDF701FF36A20CCA00F0CEF83200D5
:105610003B00FDF7F9FE34A20CCA00F0C6F8009A70
:10562000019BFDF7F1FE22002B0000F0BEF8040004
:105630000D002FA003C832003B00FDF7E5FE2EA2AF
:105640000CCA00F0B2F832003B00FDF7DDFE2CA2E0
:105650000CCA00F0AAF832003B00FDF7D5FE2AA2E2
:105660000CCA00F0A2F832003B00FDF7CDFE00228C
:10567000274B00F09AF802000B0020002900FDF7EC
:10568000D1FF04000D000298800702D5802000069B
:1056900045400298400709D01FA1800E081803C892
:1056A00022002B0000F081F804000D000298000792
:1056B00002D58020000645402000290003B0F0BD3F
:1056C00057CD9E5E1426D13F0000F0BFAA4C58E88B
:1056D0007AB6FB3F000040BE845D57134B57B03F86
:1056E000B2934C19ED5EE43FBEDE02B90240F83FD2
:1056F000DE39028FC7C0743F8AAB1283000CC83FEB
:1057000024D7E508B6D8F03F0F34580E5895FD3F22
:105710000000F03F0000000000000000000000005A
:1057200066732D3852C1E03F182D4454FB21F93FD8
:1057300066732D3852C1F03F182D4454FB21F93FB8
:1057400066732D3852C10040182D4454FB21094086
:105750003FD038C6A6F10440F4464A1805D200F0FE
:105760000FF801D580174008604700F009F80121C3
:10577000C907884200D90800404260474A1812D23F
:10578000400DC90208430121C9070843520D4021B9
:105790000901521A521C06D452421F3201D4D04081
:1057A0007047C017704700207047F0B40125ED071F
:1057B0000F005F404FD48B4200D1824205D984460E
:1057C000100062468C4619006346DF184C18640DC1
:1057D0007F0D3AD0661C760537D0E61B352E34DCBB
:1057E000DB022B43DB0A0C0DC9022943C912202E10
:1057F0000DDB1700203E06D01F00F741F3405F404D
:105800000026012A7741C01871410DD217E0170018
:10581000F741F2405740F3415A40B340F3405A40F9
:105820000026801859410AD3A21C52050FD0C20786
:10583000012F724117004008CB0718434908641C28
:1058400024054208AF4170416141F0BC7047641CBF
:1058500021050020F9E76B4010E06B40ABE7F74211
:10586000F3D1E943F1E72442EFD100200021ECE736
:10587000F0B40125ED070F005F40EED40C00871A4D
:105880009C4105D2C01BA141D219634169406B40C4
:10589000AE0ADF184C18F442E1D2640D7F0DE2D05D
:1058A000E61B362ED1DCDB022B43DB0AA4460C0DB3
:1058B000C9022943C90A012E28DC04D1D60752089F
:1058C000DF073A435B08EF0A76429041994114D0D2
:1058D00039423BD1B61940414941761C394204D185
:1058E000761C001849413942FAD0B9436746B7429D
:1058F00008D9A41B24052143A7E70042EAD1364278
:10590000E8D1A2E7E40AE10700209EE7202E0BDDA4
:10591000203E1F00F340F7415F40012A002257411B
:105920007E42984191410BE01700F741F240574009
:10593000F3415A40B340F3405A407E42904199416E
:105940000A0303D2641EB619404149410027641E70
:1059500024054208AE4178416141F0BC7047FEE742
:10596000DCB506000F007900490D354A91420DD093
:10597000002910D03000390000220023FFF7ACFDD1
:105980000CD2802000064740082408E03803000BB2
:1059900031000143EED030003900DCBD002430007E
:1059A000390028A20CCAFFF797FD1AD2002023491C
:1059B00032003B00FFF75CFF0090019100201F497F
:1059C00032003B00FFF7F1FE009A019BFDF71CFD42
:1059D00000F0DEF86A4603C2300039006A460CCA9D
:1059E0001DE00122154BFFF777FD1ED2002019465E
:1059F00032003B00FFF73CFF0090019100200F496F
:105A000032003B00FFF7D1FE009A019BFDF7FCFC42
:105A100000F0BEF802226240140032003B00FDF7A5
:105A200001FE2200FFF7A8FDDCBD00F011F92121E5
:105A300001600020C0434108DCBD00BF0000F03F12
:105A4000FF070000CE3B7F669EA0E63F10B44B00F0
:105A50005B0D094CA34206D0002B02D00020C043AE
:105A600008E0002006E00A03120B104301D00220D8
:105A700000E0012010BC7047FF070000C9B200E041
:105A8000401C02788A4202D0002AF9D100207047D7
:105A9000C9B201E0401C521E002A03D003788B4299
:105AA000F8D1704700207047124224D0994228D97B
:105AB00070B500251B4202D00C00002109E0002433
:105AC000012649186441944200D3A41A7641F8D3C0
:105AD0003100012601E0764109D2001864416D4190
