:020000040800F2
:1000000008040020DD5200081B4400087B51000852
:1000100000000000000000000000000000000000E0
:100020000000000000000000000000007F510008F8
:100030000000000000000000BB510008EF51000864
:10004000D7550008375800083B580008BF6400081F
:10005000CB640008216700082367000869190008BD
:100060002567000827670008296700082B67000834
:10007000C94A00082D6700082F670008CD46000810
:10008000316700080000000000000000336700082E
:100090000000000035670008376700087951000844
:1000A00000000000396700083B6700083D67000852
:1000B0003F67000800000000416700084367000830
:1000C000F0B59FB0B048B1498880B148AF49C88009
:1000D000B048AE490881B048AC494881AF48AB4907
:1000E0008881AF48A949C881AE48A8490882AE486E
:1000F000A6494882AD48A5498882AD48A349C8822F
:10010000AC48A2490883AC49AC4801F037FB012058
:100110000400E4B2102C0BDAE4B22200C049A74874
:10012000E4B212236343C01801F030FB641CF0E713
:100130000520BC4908805A20BB490880012093490A
:10014000C877C82091490886FC208005BC494861D1
:10015000BC48BB49C861FC208005B9498861FC20C6
:100160008005B7490863B748B5498863FC20800516
:10017000B3494863FC208005B149C864B148B0491F
:100180004865FC208005AE4908650120AC4988809F
:100190000220AB4948800F20A94908800520AA49C0
:1001A0008880AA4801F011FB01F06CFC01F02BFCE7
:1001B00001F0A3FCA6488078012818D10020A449AA
:1001C000887001F01FFD7148408B002804D06F48F3
:1001D000408B401E6D4948836C48408B002806D1F7
:1001E0006A4840889B49884201DA01F00CFC01F022
:1001F000E9FA9949086001F0CFFD02280DD000D23C
:1002000096E1042877D03FD3062800D1DEE000D263
:10021000DDE0072800D12DE18AE19048007801282F
:1002200012D1BE480021405EBD490022895E88424D
:1002300004DBBC480088B949088024E0B74800883E
:10024000401CB64908801EE0B7480078012803D05A
:10025000B548007802280DD1B44800780F2803DB98
:100260000120B24908700EE0B0480078401CAF4948
:10027000087008E074480078012804D101F0A2FA5F
:10028000406801F0A2FA56E174480078012812D1C2
:10029000A4480021405EA1490022895E884204DB17
:1002A0009F4800889D49088024E09C480088401EA3
:1002B0009A4908801EE09C480078012803D09A489B
:1002C000007802280DD199480078022803DA0F201F
:1002D000964908700EE095480078401E93490870D2
:1002E00008E059480078012804D101F06BFA006851
:1002F00001F06BFA1FE159480078012807D08A48BD
:100300000078012803D088480078022829D1944930
:10031000944801F033FA1E20934908704F48007842
:1003200001280BD19148807C042803D101208F49FA
:1003300088744AE001208E49087046E01F487B49D6
:100340000978022251434018A0214900894A1288A5
:100350004252764800780D4988830020724908701F
:1003600033E03948007801282FD101F02BFAC0681A
:100370008149884204D001F025FAC06800281FD1C5
:1003800001F082FA21E000BF361000000C080020C6
:10039000D20F0000820F0000410F0000190F000073
:1003A000C90E0000B50E0000A60E00009D0E000054
:1003B000790E00000B0E000024650008700A002072
:1003C00001F000FAC06801F000FAB4E0B3E023489D
:1003D0000078012807D054480078012803D05248FB
:1003E000007802283CD165480078EF21014063483D
:1003F000017063495B4801F0C1F91E205A49087039
:1004000016480078012811D15848807C042803D16F
:100410000220564988742CE002205549087028E0D3
:10042000386500086C0A00206E0A00200020D249BE
:10043000888300203D49087000203B49087018E07F
:10044000040D0020CDCCCC3DC00D00201864000868
:10045000C80D0020490D0000D00D0020FE0C00202A
:10046000C6480078012804D101F0ACF9806801F099
:10047000ACF960E0C2480068C24988423FD1BF4839
:10048000007801283BD13D480078C0B2C009C0B215
:10049000002811D0B848807FB749C97F88420BD067
:1004A000B548C07FB4498877B7492E4801F066F94E
:1004B0001E202D49087030E0B448008800281BD069
:1004C0002E480078C0B240098007800F012813D160
:1004D0000020AE4908800020D44908600020D4499B
:1004E00008800020D3490880D3491E4801F046F90E
:1004F0001E201D49087010E001F085FA0DE09F48AC
:100500000078002802D101F097FA06E0CB48007885
:10051000002802D19B4801F058F90CE0F80C0020AB
:10052000FA0C0020FC0C0020DA0B0020D00B00207D
:1005300000200F49087091480078012800D037E664
:1005400001F040F98E4908608B48C07F022819DB12
:100550000A480078802101430848017018E000BF74
:10056000AC660008B80C0020F70C0020A40D002099
:10057000000D0020D20B0020F8640008D40D0020EC
:1005800058660008AE4800784006400EAC49087036
:10059000D9488078022800D0D0E2D748807CD6495C
:1005A000497C09020143D448007C00040843D24935
:1005B000C97B090601430991A1480078C0B24009EE
:1005C0008007800F022800D1B5E26B48C06A099904
:1005D000884209D09A480078C0B200090100C907D2
:1005E000C90F002900D1A6E2002064494880944840
:1005F0000078C0B200090100C907C90F00290FD057
:100600008F480078EF2101408D48017009985A49C0
:10061000C862BA49BA4801F0B1F81E20B949087059
:10062000B9480068401CB84908605348008EB74973
:1006300041430291B048C0780102AF4800790843B5
:100640007D214843642101F05BFD0100029801F027
:100650005AFD0890A84840790002A74989790843C3
:1006600045494885A448C0790102A348007A084357
:100670007D214843642101F043FD0100029801F00F
:1006800042FD07909C48407A01029B48807A0843CB
:100690007D214843642101F033FD0100029801F0FF
:1006A00032FD06909448C07A01029348007B0843CB
:1006B0007D214843642101F023FD0100029801F0EF
:1006C00022FD05908C48407B01028B48807B0843CB
:1006D0007D214843642101F013FD0100029801F0DF
:1006E00012FD04900898244908840898C14988425A
:1006F00002D3C0482049088407981F4948840798B6
:10070000BC49884202D3BB481B49488406981A4911
:1007100088840698B749884202D3B6481649888427
:1007200005981549C8840598B249884202D3B14852
:100730001149C8840498104908850498AD49884235
:1007400002D3AC480C4908853D480078C0B2C009C6
:10075000C0B200282CD00848807F002818D1064855
:10076000C07F054988770849654801F007F81E20D1
:100770006449087017E000BF0C080020C00D00207D
:10078000D00D002018640008EC650008440A002021
:10079000C748807F012806D1C649594800F0EEFFBE
:1007A0001E20C5490870C248807F401EC049887716
:1007B000C2480078002800D006E1BD48478DBC48FB
:1007C000408D0A2101F09CFC381A0190B848478DF1
:1007D000B748408D0A2101F093FC38180390B848BF
:1007E000B349898B02224A438018A0214900405A0C
:1007F0000199884226D30398B149AD4A928B0223CE
:100800005343C918A0225200895A88421AD3AD48CE
:100810000078002816D00020AB4908600020AB49C2
:1008200008700020AA490870CEE000BF3C0A0020F2
:100830004A0A0020480A0020FC650008FE0C00203F
:10084000D40D00209F480078002863D09E4800689F
:100850009749498D40189C4908609C480078401C85
:100860009A4908709A480078401C9949087097483E
:100870000078052800DAA7E09348006893490978D2
:1008800001F041FCCD49088000208E490870CB481A
:100890000788CA4800880A2101F032FC381A1090F3
:1008A000C6480788C54800880A2101F029FC381885
:1008B0000F9001200400E4B2102C00DB84E080489B
:1008C000E4B2022161434018A0214900405A109926
:1008D00088421DD30F987A49E4B2022262438918F4
:1008E000A0225200895A884212D37648047001200F
:1008F0007249087068E000BF900D0020B4660008DF
:10090000B80C0020F70C00204C0A0020A086010043
:10091000641CD0E76E480078401C6D490870A748F9
:1009200000880199884211D30398A4490988884214
:100930000CD366480078401C64490870624800681F
:100940005B49498D4018604908600AE05848408D6D
:100950009A49088001205D4908705548408D5A49E0
:1009600008605A4800780A2817DB5748006857493A
:10097000097801F0C8FB9149088002204F490870AE
:1009800001205049087000205149087000204F494B
:10099000087000204C49086016E04D4800780F2888
:1009A00012D3D449D44800F0E9FE1E204249087011
:1009B0000020424908700020454908700020434942
:1009C0000870002040490860CC480078C0B2400957
:1009D0008007800F012800D0ADE0C9480088FF28BB
:1009E0000ADBDB49C44800F0C9FE1E20324908700A
:1009F000A1E000BFFFFF00002D48008C2C49C04A39
:100A0000128802235343C9184886D24800682849EF
:100A1000BB4A128802235343C918498E4018CD4956
:100A20000860B7480088401CB5490880B448008871
:100A3000022857DBC7480068B149098801F063FB09
:100A4000D34908800020D34908600020040020001A
:100A5000C0B2AB49098880B288423BD2CC480088FA
:100A60001349E4B2022262438918498E88420ED3A8
:100A7000C8480068C64909880D4AE4B202236343A6
:100A8000D218528E891A4018C24908600DE0C14838
:100A900000680749E4B2022262438918498EBC4AC1
:100AA0001288891A4018BB490860641CCFE700BF50
:100AB0000C08002064660008F70C0020DA0B002008
:100AC000700A0020D00B0020D40B0020D80B00208F
:100AD000D90B0020AF4800688949098801F013FB51
:100AE000AD490880AD48808B002824D0AC48AB4984
:100AF000898B02224A43801890214900405A0028DD
:100B000019D0A648008CA549098C4843A54901F095
:100B1000F7FAA349A14A928B02235343C9189022A2
:100B20005200895A48439F4901F0EAFA022101F034
:100B3000E7FAD24908800020D149887000F024FBF0
:100B40008020C000149000201390CE4F139A149967
:100B5000380001F02FFB914841789048007801F06F
:100B60002FFEC9480068C949884202D100F060FCE4
:100B700001E000F0D5FBC6480078002803D1C54845
:100B8000807C002801D000F09DF9C348007801283E
:100B900000D009E1BF48807C002800D1B2E0BD4808
:100BA000C07C05280CD047D307281DD012D30928B4
:100BB0002ED023D30A2835D03EE000BFD20B002030
:100BC000B6490AA800F0DAFD1922B5A1684600F07E
:100BD000DDFD31E0B3490AA800F0D0FD1822B0A134
:100BE000684600F0D3FD27E0AF490AA800F0C6FD33
:100BF0001B22ABA1684600F0C9FD1DE0AB490AA865
:100C000000F0BCFD1A22A6A1684600F0BFFD13E06B
:100C1000A7490AA800F0B2FD9E22A1A1684600F0F3
:100C2000B5FD09E0A3490AA800F0A8FD04229CA193
:100C3000684600F0ABFDFFE796480021425E9E4902
:100C40001BA800F0A3FD93480221425E9B4918A80F
:100C500000F09CFD8F480421425E994915A800F0E0
:100C600095FD00210AA801F0CDFA1BA802F00CF8AE
:100C700005004027EDB206206843022101F040FA4A
:100C8000381A06001BAA16213000C0B201F0DAFEA5
:100C900018A801F0F9FF05004027EDB206206843CF
:100CA000022101F02DFA381A060018AA202130007E
:100CB000C0B201F0C7FE15A801F0E6FF050040270D
:100CC000EDB206206843022101F01AFA381A060034
:100CD00015AA2A213000C0B201F0B4FE6A461C21D8
:100CE000142001F0AFFE6A461C21652001F0AAFE27
:100CF00086E000BF0C660008B80C0020D40D002070
:100D0000440A002060480068010018310AA800F079
:100D100035FD01210AA801F075FABD4800780028C8
:100D20001AD0A6480021405EB949097801F0E8F9D7
:100D30000190A2480021405E019901F0E4F903917D
:100D4000039B019A9E4911A800F020FD0BE000BF13
:100D50001C6600083C0A002098480021425E99A1C8
:100D600011A800F013FD11A801F08EFF0500402727
:100D7000EDB206206843022101F0C2F9381A0600DC
:100D800011AA1C213000C0B201F05CFE38E000BFA7
:100D9000480A0020400A00204A0A00200C080020CF
:100DA000700A0020102700009A480078012803D01C
:100DB00098480078022823D197490AA800F0DEFC61
:100DC00001210AA801F01EFA9448954909781222D7
:100DD000514341180AA800F0D9FC0AA801F054FFB9
:100DE00005004027EDB206206843022101F088F992
:100DF000381A06000AAA1C213000C0B201F022FEF7
:100E0000A6480078002835D0A4480078401EA349A1
:100E10000870A3480078C0B200090100C907C90FD3
:100E2000002910D09D48007800280CD19C480078FB
:100E3000EF2101409A4801707A49C34800F09EFCB6
:100E40001E2096490870C04801F01EFF05002800CA
:100E5000C0B201F03BFA4027EDB206206843022100
:100E600001F04EF9381A0600B74A1C213000C0B212
:100E700001F0E8FD01F0EAFEFFF79AF9460A0020CA
:100E8000900D002009040020D00D002018640008F7
:100E9000000D0020A40D0020FE0C00204C65000871
:100EA0002563000060650008746500088865000817
:100EB0009C650008B0650008BC660008C4660008B0
:100EC000CC66000880B50020514908709F48006832
:100ED0008C49884211D163209D49088001209D4999
:100EE00008808948C07F00B200F06EF88649C87754
:100EF0008548C07F844988775EE0944800689649B9
:100F000088420DD15A2092490880012091490880D9
:100F10009248008800B200F057F8904908804BE0F2
:100F20008A4800688E4988420DD18E49864800F073
:100F300025FC642059490870594800781021014364
:100F40005748017038E0814800688749884210D1CD
:100F500086487F49088064207E4908806A48008E60
:100F600000B200F031F8684908860A202849087064
:100F700022E0764800687E4988421DD073480068A8
:100F80007C49884202D101F0FAFE15E06F48006802
:100F90007949884210D11E206D49088001206D4991
:100FA0000880D848808800B200F00EF8D5498880C3
:100FB0000020D4494880FFE701BD0000F80C002064
:100FC000D46600082575000000B501000800CE4A6F
:100FD0001278012A15D1694A1278012A08D1684A83
:100FE0000023D25E10000022C74B1A7000B20EE040
:100FF000624A1278022A09D10022C34B1A7000B249
:1010000005E05F4A11800122BF4B1A7000B200BD9B
:10101000010D0020DA0B0020C4650008700A0020D2
:10102000D00B0020DC66000880B5484800685549B0
:10103000884206D11A4800789F2101401848017063
:101040001AE042480068B149884208D11448007843
:101050009F21014020200843114908700CE03B48C3
:101060000068AB49884207D10D4800789F210140B4
:10107000402008430A490870A6A1334800F07EFBCF
:101080001E2006490870314800688068A2498842DD
:1010900002D1E14800F099FB01BD0000F70C0020EF
:1010A000D40D0020F0B585B006000D001400280016
:1010B000290001F009FF02902000210001F004FF47
:1010C00001900299019801F057FF070038000021B4
:1010D00001F0E2FF01D1914807003000390001F032
:1010E000EBFF0090009802F041F802F059F8CBA213
:1010F0000CCA02F0A3F802F063F90390039805B05C
:10110000F0BD0000506200080C08002038B5040053
:1011100024B2002C0BD424B2200002F083F9002268
:10112000AE4B02F099F902F04BF905000AE024B247
:10113000200002F077F90022BA4B02F08DF902F09C
:101140003FF90500280032BDB80C0020D00D00206A
:10115000FA0C0020FC0C00207C6100086C0A0020C6
:101160007864000870660008F0620008E703000079
:10117000A8610008D4610008A0620008000D0020EA
:10118000F80C002058640008F8B50A249448007848
:101190000100C9B2102001F09DFD91484078010086
:1011A000C9B2112001F096FD8D4880780100C9B2C6
:1011B000122001F08FFD8721202001F08BFDE4B289
:1011C000002C2DD0272001F09BFD0500A807F6D0AC
:1011D00001F0B5FD8248007C8149497C0902014348
:1011E00009B2804802F09AF97D4948817C48807CA8
:1011F0007B49C97C0902014309B27B4802F08EF9A0
:10120000774988817648007D7549497D0902014307
:1012100009B2764802F082F97149C881641ECEE7AE
:101220000021202001F056FD7148807C00280BD061
:101230006B4840896E490880694880896C494880BC
:101240006748C0896A49888065480A21415E6948C3
:10125000484363490422895E00F052FF6049488197
:101260005F480C21415E634848435D490622895E20
:1012700000F046FF5A49888159480E21415E5D4879
:10128000484357490822895E00F03AFF5449C88113
:1012900053480A21415E584802F052F950494881AA
:1012A0004F480C21415E554802F04AF94C4988816B
:1012B0004B480E21415E524802F042F94849C8812C
:1012C00047480A21405EFFF721FF009044480C2167
:1012D000405EFFF71BFF070041480E21405EFFF70D
:1012E00015FF0600320000993800FFF7DBFE454984
:1012F00008603A0000993000FFF7D4FE4A490860C0
:10130000F1BD0000C00D0020FE0C0020AC63000801
:10131000286200084F4B0000406300087D1D9026A6
:1013200070B582B0684638490A88028001F020FA18
:1013300036480078062801DB01F022F934480078AD
:101340000500EDB233480078401F854208DA314885
:101350000078062804DB2F480078401F05000DE0C8
:101360002C480078401FEDB2A84207DAEDB22948B8
:101370000078281A401D052800DB6D1E24480570E2
:1013800024480078401B0600284A01210E2001F065
:1013900059FB6A46F6B20A207043801C0100C9B2AC
:1013A000002001F04FFB00200400E4B2052C13DA0A
:1013B0001E48EDB2E4B2291914225143401802002C
:1013C0001432E4B20A2060430C300100C9B2082094
:1013D00001F038FB641CE8E773BD000080FFCF40DC
:1013E000780D0020600D0020680D0020700D002099
:1013F000A40D0020FF3F00000C0D0020280D002050
:10140000440D0020640A00209E310008F50C0020E5
:10141000F60C0020F40C002018640008000000C046
:10142000DCA54C400000D040680A0020DC0B002006
:1014300030B59DB0F8200290BE48006801F096FEDD
:101440004900490800900191E822BB490BA800F02F
:101450009DF9BA480078C0B240098007800F002883
:1014600008D0B6480078C0B240098007800F012834
:1014700000D01CE1B248008C642100F041FE040061
:10148000AF48008CA4B264216143401A0500A4B2A5
:10149000002C02D1AA48008C05002F200090ADB28C
:1014A0002B00A4B22200A74915A800F06FF9A448A8
:1014B000408C642100F024FE0200A3A108A800F0E3
:1014C00065F99F48808C642100F01AFE02009EA1FD
:1014D00007A800F05BF99A48C08C642100F010FE68
:1014E000020099A106A800F051F994480078C0B212
:1014F000C009C0B200280DD09148C37F9048827FB8
:10150000924913A800F042F913AA2D215C2001F0A2
:1015100099FA0EE08A48008D642100F0F1FD020086
:1015200089A105A800F032F905AA2D21622001F059
:1015300089FA87488249898B12224A4382180021FE
:10154000002001F07FFA15AA1821002001F038FAD6
:1015500008AA0F21622001F075FA07AA192162205A
:1015600001F070FA06AA2321622001F06BFA734899
:101570000078C0B240098007800F002827D1F820EA
:1015800002907448006801F0F1FD4900490800909C
:101590000191E222684909A800F0F8F809AA282177
:1015A000002001F04FFA0BAA28212A2001F04AFA64
:1015B00008233822684801886648006800F0CBFE9E
:1015C000664801885B48006801F031F8B0E0644883
:1015D00002885DA104A800F0D9F86248008864215F
:1015E00000F08EFD04005F480088A4B264216143CE
:1015F000401A0500A4B2002C02D15A480088050008
:10160000ADB20095A4B22300E62257490FA800F01E
:10161000BDF856480088642100F072FD040053486C
:101620000088A4B264216143401A0500A4B2002CD2
:1016300002D14E4800880500ADB20095A4B2230047
:10164000E52249490DA800F0A1F849480088642125
:1016500000F056FD040046480088A4B264216143AE
:10166000401A0500A4B2002C02D1414800880500B0
:101670003A200090ADB22B00A4B22200314911A84B
:1016800000F084F804AA3721622001F0DBF90FAAE8
:101690002421002001F0D6F90DAA2421312001F0E7
:1016A000D1F911AA3821002001F08AF940E023483D
:1016B0000078C0B240098007800F02282FD13D205A
:1016C00002902448006801F051FD4900490800904B
:1016D00001913B22184909A800F058F8F820009021
:1016E0001D480388F122234903A800F04FF809AAF6
:1016F0000821002001F064F90BAA00214C2001F020
:10170000A1F903AA09214C2001F09CF92E231222F1
:10171000114801880F48006800F01DFE08E01649D6
:1017200017A800F033F817AA0021082001F08AF961
:101730001DB030BD680A00207C660008D40D002072
:101740000C0800208866000825750000E466000883
:10175000700A0020640A00206C0A00206E0A002033
:10176000440A0020480A0020946600084A0A002023
:10177000460A0020EC660008E0640008002300E050
:101780005B1CCA5C002AC254FAD170470CB41CB569
:10179000040004A80190009401AB0A0069460848BF
:1017A00078441C3001F0B4FF0021009A1170002829
:1017B00001D40098001B02B0019910BC03B0084787
:1017C000A31900003A4800687047F1B582B002984A
:1017D0003849884202D00298002800D153E0FFF730
:1017E000F1FF0299C068814205D0FFF7EBFF029933
:1017F0008068814202D100202F49087002982C494C
:1018000008602B480068050000200400A8680090CC
:10181000641C2A48047068682649884202D1002066
:10182000040001E06D68F1E7E4B20A2C10DA14203C
:10183000019000262248E4B21421614340180700B9
:10184000143732000199380000F0B4FC641CEBE757
:101850000098010018311A48FFF790FF002004009B
:10186000290018311648E4B214226243801814305B
:10187000FFF784FF641C1348047028680D498842F0
:1018800001D02D68ECE7F7BD10B50948006809499B
:10189000884203D006480068002800D106E00448CA
:1018A000006844692000002800D0A04710BD000057
:1018B00004000020F8640008F60C0020F40C00205E
:1018C000DC0B0020F50C00200121C206D20E914055
:1018D0005E4A116070470121C206D20E91405C4AF7
:1018E00011607047F0B540B2002821D5594C40B284
:1018F0000207120F083A950804225543554A40B290
:1019000003071B0F083B9B0804267343D258FF2391
:101910008607B60F08277E43B3409A438B01DBB29C
:101920008607B60F08277E43B340134363511AE07E
:10193000494A40B2830804246343D258FF238407F2
:10194000A40F08256C43A3409A438B01DBB28407A4
:10195000A40F08256C43A34013433F4A40B28408B8
:1019600004256C431351F0BD80B53C480068000667
:101970000AD53A480068802101433848016002F0E6
:101980004DFD0720FFF7A7FF01BD80B53448006873
:101990008021490501433248016032480068042132
:1019A00001433048016030480068022188432E49D5
:1019B00008602D480068012101432B4801602B4835
:1019C00000682A4908602A480068802101432848A5
:1019D00001602848006880210143264801602648AC
:1019E000006880218843244908601C4800688021E1
:1019F00001431A4801600720FFF766FF0F21072007
:101A0000FFF770FF01BD80B500201C490870002061
:101A10001A49488000201A49887100201849C87165
:101A200001F08AF802F009FE02F0FEFFFFF7ADFFB9
:101A300030BF03F00BF801BD80B501200F490870DD
:101A400001F085F802F084FD01BD000000E100E036
:101A500080E100E01CED00E000E400E0140401403F
:101A60001C10024010ED00E0007000400C0001402E
:101A7000000401400C04014008040140C00D002096
:101A8000B80D002080B502F0C9FC03F079F803F02E
:101A900087F901F067F801F0FFF800F001F801BDE7
:101AA00048480068802109010143464801604448D4
:101AB00000688021090101434148016040480068F5
:101AC000414901403E48016031204049086040489A
:101AD0004049086040480068012101433E480160D8
:101AE0003E480068082101433C4801603B480068CB
:101AF0000121014339480160704770B537480068DB
:101B0000C00705D535480068C00706D500BFF9E70E
:101B100033480068401C3249086032484088401C05
:101B20003049488030480068401C2F4908602D48E3
:101B300081882E484843264900F0E2FA05002948EA
:101B40004088281A0400A4B2642C14DAA4B2002C31
:101B500011D0A4B21E486043254900F0D1FA401CC0
:101B60000600F6B2320023492348FFF70FFE022099
:101B70002249087016E028001A49498880B2884234
:101B800006D218480078012802D1FFF73CFF09E08F
:101B900014484088332805DB12480078002801D11A
:101BA000FFF731FF0D480068012101430B48016038
:101BB00013480068042101431148016070BD000012
:101BC0000C10024018100240FFF7FFFF282C0140C4
:101BD00050C300002C2C0140142C0140002C01406B
:101BE000600A0020C00D00205C0A002000879303DB
:101BF00040420F00D8650008B80C0020F70C002008
:101C000008240140F8B55A48006800695849898895
:101C10000840000A002801D1012000E000205549B9
:101C200048705548018855484843FA21890000F01A
:101C300067FA00B201F047FD05004E4845802800D4
:101C40004C49898880B2884202D36420060063E050
:101C50004848008B290089B288421AD30020060028
:101C60004448408B002857D1ADB24548854204DA3C
:101C700044494548FFF782FD03E044494248FFF7E5
:101C80007DFD3C20424908709620C00039494883B8
:101C900042E00020374948830A200400E4B2002CC7
:101CA00013D028003349E4B202226243891889889C
:101CB00080B2884207D36420E4B20A216143401A0B
:101CC000060068460470641EE8E72A4869460978F9
:101CD000022251434018408826496A46127802235E
:101CE0005A4389188988401A0700224869460978AA
:101CF00002225143401880882D1AADB20A20684351
:101D0000FFB2390000F0FCF90700FFB2002F03D04A
:101D1000FFB20A2F00DAF619164800783100C9B26E
:101D200088420FD213480078C01CF6B2B04203DBE1
:101D30001848007801281AD10120164908700D486A
:101D4000067014E030000B490978C0B288420ED208
:101D5000F6B208480078C01E864203DB0D480078C2
:101D6000022804D102200B49087002480670F1BD18
:101D7000BC5F00080C080020C80D00204C060000C5
:101D8000490D000010650008B80C00204C660008E2
:101D9000F70C0020DA0D002080B5A6480068006925
:101DA000A54909880840002808D1A448007865287A
:101DB00004DAA2480078401CA0490870B6480068C0
:101DC0000069B64909880840002808D19B48407836
:101DD000652804DA99484078401C98494870B04812
:101DE00000680069AF490988084000280CD1934871
:101DF0008078652808DA91488079002804D18F48D6
:101E00008078401C8D498870AE48806F0069AE496B
:101E10000988084000280CD18848C078652808DA6D
:101E20008648C079002804D18448C078401C834982
:101E3000C8708048006800697F4909880840002808
:101E40000FD07E48007900280BD17C48007800280C
:101E500007D07A480078142803DA00F025F9022028
:101E600019E174480068006973490988084000282E
:101E70000ED17248007900280AD1704800781428E1
:101E800006DB00F011F901206C490871022002E123
:101E900068480068006968490988084000280BD133
:101EA00066480079012807D164480078022803DBDE
:101EB00000F0FAF80220EEE05E48006800695E4932
:101EC00009880840002807D05C480079012803D120
:101ED00000205A490871DDE06F48006800696F49C9
:101EE0000988084000280FD05448407900280BD1B9
:101EF00052484078002807D050484078142803DA28
:101F000000F0D2F80320C6E0634800680069634926
:101F10000988084000280ED14848407900280AD195
:101F200046484078142806DB00F0BEF801204349FB
:101F300048710320AFE05848006800695749098894
:101F4000084000280BD13D484079012807D13B4883
:101F50004078022803DB00F0A7F803209BE04E48FE
:101F6000006800694D4909880840002807D03348B7
:101F70004079012803D10020304948718AE048485F
:101F80000068006947490988084000280BD02B48A1
:101F90008079002807D129488078002803D000F0F4
:101FA00083F8042077E03E48006800693D490988CD
:101FB000084000280ED12148807900280AD11F4806
:101FC0008078142806DB00F06FF801201B49887127
:101FD000062060E0324800680069324909880840FC
:101FE00000280BD015488079012807D11348807844
:101FF000002803D10020114988714BE03148806FDF
:102000000069314909880840002819D00B48C07977
:10201000002815D10948C078002811D00748C07899
:1020200014280DDA00F040F80020284948800520E7
:1020300031E000BF4060000844600008B80D002097
:102040002048806F006920490988084000280ED187
:102050001F48C07900280AD11D48C078142806DB23
:1020600000F022F801201A49C871072013E0154832
:10207000806F006914490988084000280AD0144874
:10208000C079012806D11248C078002802D100206A
:102090000F49C871012002BD70600008746000081B
:1020A000646000086860000800200949087000208A
:1020B0000749487000200649887000200449C8700C
:1020C00070470000BC5F000838600008C00D0020A9
:1020D000B80D0020F446002804D4494200F013F85B
:1020E000404260474042002905D45FD000F00BF821
:1020F000404249426047494200F005F84942604782
:1021000003460B43E6D40022030A8B420BD2030999
:102110008B4219D243088B422ED2411A00D201467B
:10212000524110467047FF2209023FD012068B42EF
:1021300005D3121209028B4201D3121209020309BC
:102140008B4219D300E0090AC3098B4201D3CB01AA
:10215000C01A524183098B4201D38B01C01A5241EC
:1021600043098B4201D34B01C01A524103098B42F0
:1021700001D30B01C01A5241C3088B4201D3CB00DB
:10218000C01A524183088B4201D38B00C01A5241BE
:1021900043088B4201D34B00C01A5241884200D3FE
:1021A000401A5241CFD201461046704708B502F09E
:1021B000E5FF08BD1206130A1A43130C1A4300BFA9
:1021C000094205D0830705D00270401C491EF9D191
:1021D00070470000130030B414001500103902D30A
:1021E00010393CC0FCD2490700D30CC000D504C054
:1021F000890002D30280801C002900D5027030BC07
:1022000070470000F3B587B000A8801C2D490A88EC
:10221000028068462C490A880280082007000820AE
:10222000060000200500EDB2702D23DA0020040026
:10223000E4B2302C1CDAE4B2002C08D0E4B22F2C2B
:1022400005D0EDB2002D02D0EDB26F2D07D10122E5
:102250003119C9B27819C0B200F006FC06E00022BC
:102260003119C9B27819C0B200F0FEFB641CDFE777
:102270006D1CD8E7079A0A210A2000F0E3FB08A8A2
:10228000007801280AD100AA921C2E212E2000F0ED
:10229000D9FB6A462E214C2000F0D4FBB64901A898
:1022A000FFF76CFA01AA2E210A2000F0CBFBB349FC
:1022B00001A8FFF763FA01AA2E215E2000F0C2FBFD
:1022C00009B0F0BD223400081A350008F1B582B01B
:1022D00068466946097A0622514308310171402156
:1022E0000091684600790221FFF70AFF0099081A59
:1022F0000700172006000020050068460079290025
:10230000C9B2884226D300200400E4B2112C1FDA9F
:10231000E4B2002C0BD0E4B2102C08D0EDB2002DAA
:1023200005D0280069460979C0B2884207D1012248
:102330003119C9B27819C0B200F096FB06E000224C
:102340003119C9B27819C0B200F08EFB641CDCE709
:102350006D1CD2E7F7BDF7B588B01F0001206946B4
:10236000087268466946097A791A491E01736846F7
:102370000AA909786A46127A8918491C4172684686
:102380006946097B6A46127A891A491EC173002080
:102390000500EDB2802D58DA2E00EDB2402D02DBA3
:1023A000280040380600F6B230000721FFF7A8FEEB
:1023B000002902D0F6B2002E45D1002004002000F2
:1023C0003900C0B2C9B288423DD2FFB23800032101
:1023D000FFF796FE401E69468873FFB202207843DD
:1023E0000321FFF78DFE401C69464873EDB23F2D77
:1023F00002D0EDB2402D07D16846007A6946887355
:102400006846007B69464873E4B2002C10D06846E9
:10241000807B2100C9B2884205D220006946497BF1
:10242000C0B2884204D3E4B2FFB2781E844208D11D
:1024300001220AA800780119C9B22800C0B200F030
:1024400013FB641CBBE76D1CA3E780200600089902
:10245000C64800F039FD02F093FE694608826846DE
:102460006946898C64225143C182002069464881B3
:10247000049800B202990914884200DAB61E684630
:1024800005990914029A1214891A8182059800B2DA
:1024900000286ED00298001402F090FE0100089807
:1024A00002F0A6FE07D86846049909B2029A1214EF
:1024B000891A418206E0684602990914049A12B208
:1024C000891A4182059800B204990914884203DAF6
:1024D000059800B26946488204990914802048434F
:1024E0000221FFF70DFE059909B2FFF709FE6946C3
:1024F0000883002005002800C0B2069909B200B286
:10250000884236DA0020040020006946C97BC0B248
:1025100088422CD2049800B202990914884212DB36
:1025200001226846407A2118C9B200910192F6B2A0
:1025300030000221FFF7E4FD4019019A0099C0B272
:1025400000F092FA11E001226846407A2118C9B2DF
:1025500000910192F6B230000221FFF7D1FD401B3D
:10256000019A0099C0B200F07FFA641CCCE76D1CA0
:10257000C1E70BB0F0BD0000FC660008046700086E
:10258000F8B53420694608707D2007000A2006004F
:1025900000200500280069460978C0B288420FD2A1
:1025A00000200400E4B2022C08DA01227119C9B239
:1025B0003819C0B200F058FA641CF3E76D1CE9E763
:1025C0007C200700BE480078401E694609784843D1
:1025D000BC490978FFF794FD694648706846407821
:1025E0000A30060000200500EDB2042D1ED20020A6
:1025F0000400E4B2082C17DAB348EDB2405D0121C3
:10260000A140084207D001223119C9B27819C0B2DD
:1026100000F02AFA06E000223119C9B27819C0B2D6
:1026200000F022FA641CE4E76D1CDDE7F1BDF3B5B0
:1026300085B04020060005994C4800F045FC02F0AA
:102640009FFD6946888068466946098B642251432C
:102650004181002007003800019909B200B2884288
:1026600000DAB61E684602990914C91B0181029856
:1026700000B2002878D03FB2380002F09FFD010080
:10268000059802F0B5FD05D86846019909B2C91B45
:10269000C18004E06846019909B2791AC1800298A4
:1026A00000B201990914884203DA029800B269461F
:1026B000C880019909142C2048430221FFF720FD0E
:1026C000029909B2FFF71CFD6946888100200500C8
:1026D0002800C0B2039909B200B288422DDA002066
:1026E0000400E4B2042C26DA019800B2390009B2E1
:1026F00088420FDB01220092F6B230000221FFF780
:10270000FFFC411B009AC9B220007C30C0B200F02F
:10271000ABF90EE001220092F6B230000221FFF781
:10272000EFFC4119009AC9B220007C30C0B200F021
:102730009BF9641CD5E76D1CCAE700200500EDB2CB
:10274000022D11DA00200400E4B2042C0ADA01227E
:102750002020411BC9B220007C30C0B200F084F9B7
:10276000641CF1E76D1CEAE707B0F0BD0000C84249
:10277000F8B50027002600200500EDB20D2D1ED271
:1027800000200400E4B2082C17DAAD48EDB2405D39
:102790000121A140084207D001223119C9B278199C
:1027A000C0B200F061F906E000223119C9B278190F
:1027B000C0B200F059F9641CE4E76D1CDDE7F1BD1F
:1027C000F3B581B07120070000200600694638008B
:1027D000801C487069463000801C0870684600798B
:1027E000652802DB64206946087100200500EDB20F
:1027F0000F2D1ED200200400E4B2082C17DACC48BA
:10280000EDB2405D0121A140084207D001223119FB
:10281000C9B27819C0B200F027F906E000223119D8
:10282000C9B27819C0B200F01FF9641CE4E76D1C4E
:10283000DDE700200500684600790A21FFF760FC0B
:10284000EDB2854213DA00200400E4B2042C0CDA65
:102850000122684600780119C9B2684640784019DB
:10286000C0B200F001F9641CEFE76D1CE3E76846B5
:10287000007A002823D000200500EDB2062D1ED2DC
:1028800000200400E4B2082C17DAAA48EDB2405D3B
:102890000121A140084207D001223119C9B278199B
:1028A000C0B200F0E1F806E000223119C9B278198F
:1028B000C0B200F0D9F8641CE4E76D1CDDE7F7BD99
:1028C000F40C0020F50C00201C670008F7B5070089
:1028D0000E0000200500EDB2182D70DA0020040073
:1028E000E4B2082C69DAEDB228000221FFF708FCF7
:1028F00000292FD1D3486946097A1822514340183C
:10290000EDB24019D049405C0121A140084210D0ED
:1029100001223119C9B200910192EDB228000221C1
:10292000FFF7EEFB3818019A0099C0B200F09CF84E
:1029300041E000223119C9B200910192EDB22800A4
:102940000221FFF7DDFB3818019A0099C0B200F0B0
:102950008BF830E0BB486946097A18225143401889
:10296000EDB24019B849405C0121A140084211D0A4
:10297000012231190839C9B200910192EDB2280043
:102980000221FFF7BDFB3818019A0099C0B200F090
:102990006BF810E0002231190839C9B20091019298
:1029A000EDB228000221FFF7ABFB3818019A00991D
:1029B000C0B200F059F8641C92E76D1C8BE7F7BDBC
:1029C00070B505000E0014002078002809D0227888
:1029D0003100C9B22800C0B2FFF778FF641C0C3583
:1029E000F2E770BDF4B507000E0000200500EDB25F
:1029F000062D23DA00200400E4B2082C1CDA9B48E0
:102A000069460978062251434018EDB2405D012124
:102A1000A140084207D001223119C9B27819C0B2C9
:102A200000F022F806E000223119C9B27819C0B2CC
:102A300000F01AF8641CDFE76D1CD8E7F1BD000058
:102A40002C66000870B505000E00140020780028E0
:102A500009D022783100C9B22800C0B2FFF7C2FF06
:102A6000641CAD1DF2E770BDF0B504000D0016004A
:102A7000F6B2002E20D0022E3CD058D2E4B2EDB2F5
:102A800028000821FFF73CFB8021484320187849A3
:102A90000F18E4B2EDB228000821FFF731FB8021C6
:102AA0004843201872490818407801216A07520FDC
:102AB0009140014379703AE0E4B2EDB22800082178
:102AC000FFF71EFB80214843201869490F18E4B224
:102AD000EDB228000821FFF713FB8021484320189E
:102AE00063490818407801216A07520F91408843D2
:102AF00078701CE0E4B2EDB228000821FFF700FB7B
:102B00008021484320185A490F18E4B2EDB228003A
:102B10000821FFF7F5FA8021484320185449081886
:102B2000407801216A07520F914041407970F0BD11
:102B30003C660008F466000880B5AE2000F06BF833
:102B40008D2000F068F8102000F065F801BD80B518
:102B50008D2000F060F8142000F05DF8AF2000F048
:102B60005AF801BD80B5434800884349C96B886263
:102B7000424802F051FB3F4800883F49C96B8861D9
:102B8000AE2000F048F8002000F045F8102000F0DA
:102B900042F8402000F03FF8812000F03CF880200F
:102BA00000F039F8C82000F036F8A12000F033F822
:102BB000202000F030F8002000F02DF8A62000F0D2
:102BC0002AF8A82000F027F83F2000F024F8D320AE
:102BD00000F021F8002000F01EF8D52000F01BF8CE
:102BE000F02000F018F8D92000F015F8F12000F0DE
:102BF00012F8DA2000F00FF8122000F00CF8DB20B9
:102C000000F009F8402000F006F84020184908704C
:102C100000F01CF801BD38B5050078246846002195
:102C200001806846457016480068000401D500BF61
:102C3000F9E70222694601202043C0B202F016FAE9
:102C400031BD00003C5E0008B0FBFFFF10B57824EA
:102C50000B480068000401D500BFF9E7094A0449A0
:102C600001202043C0B202F001FA10BD3C58000818
:102C700008040020FC5F0008BC5F0008102700006B
:102C80001854004001040000010000E0491C0A78CB
:102C9000002AFBD1081A704780B50121232000F0DB
:102CA00019F8824802F0B8FA0021232000F012F847
:102CB0000021242000F00EF81021252000F00AF851
:102CC0007B487C4988807A487A49C8807848794925
:102CD000088101BD70B582B006000D003A24684637
:102CE00006706846457074480068000401D500BF4E
:102CF000F9E7022269462000C0B202F0B7F973BDBD
:102D000011B581B03A246C480068000401D500BFB9
:102D1000F9E7012201A92000C0B202F0A7F9664834
:102D20000068000401D500BFF9E7012269460120CF
:102D30002043C0B202F0C8F86846007816BD10B54E
:102D400082B03A242820694608705B480068000475
:102D500001D500BFF9E7012269462000C0B202F0A8
:102D600085F955480068000401D500BFF9E706223F
:102D7000524901202043C0B202F0A6F813BD00B5AD
:102D80004F48807C002806D0022800D186E00CD372
:102D9000032858D089E001204A4908700420484996
:102DA000887405204649C8747FE04548C07C0528E2
:102DB00009D047D307281CD010D309282FD023D3FC
:102DC0000A2837D03EE03E4800883D49C8800420AC
:102DD0003B49887406203A49C87433E03848008873
:102DE0003749088104203649887407203449C8745B
:102DF00028E03348408832494881042030498874AB
:102E000008202F49C8741DE02D4840882C4988812E
:102E100004202B49887409202949C87412E02848E5
:102E200080882749C8810420254988740A202449BC
:102E3000C87407E02248808821490882032020497D
:102E40008874FFE731E01E480821405E1C490622D5
:102E5000895E401A0221FFF753F916498880184805
:102E60000C21405E16490A22895E401A0221FFF7B2
:102E700047F91049C88012481021405E10490E22BF
:102E8000895E401A0221FFF73BF90A4908810020B8
:102E90000C49087000200A49887406E0002009499E
:102EA0000870002006498874FFE700BD1027000065
:102EB000FF3F0000780D002018540040880D0020CE
:102EC000A40D0020FE0C002030B405004D4001226E
:102ED000D20715404B180418240E2ED01B0E32D0EA
:102EE000FF2C34D0FF2B3AD0E41800020902104323
:102EF0001143000A090A9446C2B24A43000AC3B207
:102F00004B43000A4843110A5B181A43D2B2190A0C
:102F1000091801D44918641E080A7F3C23DBFE2CE3
:102F200008DAE405090611436346994160412843E4
:102F300030BC7047FF20C005F9E728001B0EFF2BAF
:102F4000F6D1D043F4E72800FF2CF1D1F9E7400295
:102F5000F7D1FF2B01D14902F3D1E005E7E7D8050E
:102F60004902E4D0EDE743020020641CDFD15B128C
:102F70009B1CDCD9D805DAE70122D20703004B40BD
:102F80002ED4431A01D2C01AC91830B44B180418F1
:102F9000240E1B0E22D0FF2C20D0E31A182B1DDC90
:102FA00009021143C40D641E000210439446192502
:102FB000ED1A0A00AA40D940451801D36D08A41C97
:102FC000E405D209280A2D062A436546AA41604134
:102FD00003181B0EFF2B01D3C00DC00530BC70477A
:102FE000514006E05140CCE70122D20703004B409C
:102FF000F8D4431A03D2C01AC9185040514030B413
:103000004B18090211430418240E1B0E40D0FF2C4C
:103010003AD025009D410BD31ED8C50D4002401A61
:103020000BD3ED050100400AC90591416841D5E780
:10303000C50D40024918401AD0D001214008491C52
:103040000018FCD58C4204D36D1A000AED05401916
:10305000C4E7E8051040C1E7182DBFDCAC1C0D002B
:10306000E140E5414D40012D4941C40D00021043AE
:10307000451A01D46D199543641EE405280A2D06EE
:103080009541604130BC7047FF2BA7D1D843A5E7DD
:103090002442A3D10020A1E7944602000A439218DB
:1030A00008D0884206D1012212060018D0420846F4
:1030B00000D880426246704730B405004D4001227E
:1030C000D20715404B180418240E28D01B0E2FD001
:1030D000FF2C34D0FF2B37D0E41A00020902104332
:1030E000114343084808D10D1B1A02D2641EDB1895
:1030F0001B18DB18834200D31B1A4941F9D37F34D4
:1031000026DDFE2C08DAE4054808C9071943914179
:103110006041284330BC7047FF20C005F9E7280014
:103120001B0E03D0FF2BF5D14902F3D0D043F1E7BA
:10313000FF2C01D14002F9D1FF20C005E9E7400290
:10314000F4D1FF2BF8D1F1E728004902E2D0EDE7F6
:103150000B0200202442DCD15B129B1CD9D9D8057C
:10316000D7E70268531C03601170704701221206F2
:103170000118CA420AD28A420DD838221206090919
:103180008918C20FD20711434007704700D0490881
:103190000909014301E0C10FC907002070471A0067
:1031A00013B54800400D204A904211D000281AD093
:1031B000684603C80022002302F05EF819D2684670
:1031C00003C88022120651406A4603C2082411E057
:1031D0000A03120B684603C8104304D1002905D422
:1031E00012A003C81CBD684603C81CBD11A003C8BB
:1031F0001CBD0024684603C801220A4B02F055F8A2
:103200000AD8002019466A460CCA00F025F96A4619
:1032100003C22000022444402200684603C802F092
:103220007BF81CBD0000F03FFF070000182D445440
:10323000FB21F93F182D4454FB21F9BFF0B50E00D6
:103240005E400125ED072E40B446AE0ADF184C184B
:10325000F44208D2F7420ED2640D01D07F0D12D194
:1032600000206146F0BD05D1F74201D87F0D05D1A0
:103270000020C143F0BDFBD1640DF9D00020C14353
:10328000490549088FE0E419C902DB0229432B43B1
:10329000DB0A460DC00231438E4630B487B295B288
:1032A0007D432E0CADB2140C7C43A419260C2404CF
:1032B00025439CB27C43A419190C7943270CC919E6
:1032C000A4B20F043C43090C000C97B247432E0CE8
:1032D000BE193543ADB2170C4743360CBF19A6B221
:1032E000BF193E043543240C3E0C36199FB24743A8
:1032F000BF19BCB23E0C89191F0C47437F183E040E
:103300003443390C704680B297B247432E0CBE1935
:103310003543ADB2170C4743360CBF19A6B2BF19DF
:103320003E043543240C3E0C36199FB24743BF1967
:10333000BCB23E0C89191F0C47437F183E0434432E
:10334000390C77463F0C90B278432E0C8019060456
:10335000ADB22E43050CA0B22D18120C7A435019B1
:10336000020C80B2240CA4189AB27A4312191404E5
:103370002043120C89181B0C7B43C91830BCEF0A80
:10338000394203D1B61940414941641E6F12BF0D45
:10339000E41B0BDBFF19BC4211DA240500274208AD
:1033A000AE417841614166463143F0BD641C05D1B0
:1033B000401C6141CF0201D34908F4E750E75DE7C3
:1033C000012252054B18DA4201D9581570475B0D9E
:1033D0000722D2019B1A10D9FF2B1DD2DB05012237
:1033E000D2070A4013430903020D1143490AC200E0
:1033F000524100D9491CC81870470AD1800A0A03F3
:1034000002435212921C04D9D3070B40D005184333
:103410007047C80FC0077047C80F0002FF30C005D3
:1034200070471800010009D5F446404200F006F844
:103430000122D20711436047010000BF422212015E
:10344000D21E004207D002D4521E0018FCD5C10A79
:103450004005120589187047F0B40E005E40012542
:10346000ED072E40B446AE0ADF184C18F4423BD2AA
:10347000F74241D2640D43D07F0D38D0E41BC9021E
:10348000DB0229432B43CF0ADB0A0600B61A9F4111
:1034900004D2641EB6197F41B6185F416812800DD0
:1034A00024180018844222DAE80C0021B6197F4162
:1034B000B61A9F4102D2B6185F413F1C40414941B4
:1034C000F4D3241C21DD2405B6197F41B61A9F418F
:1034D00005D33743C60737430026012F70416141AA
:1034E00066463143F0BC7047FCD1F74205D200205C
:1034F000C14349054908F3E704D00020C143F1E77F
:103500007F0DFAD000206146ECE72442FAD1401C3E
:1035100061410F03F6D30020E2E7190030B5040043
:103520000D0020682DB240190421615E401A206010
:1035300020683021FEF7E4FDA0800420205E30BD2D
:10354000F0B58DB005000E00E86804906A480421CB
:10355000405E01F033FE070000200400022C09DA6F
:1035600002206043285E09A904226243891848604A
:10357000641CF3E70A9801F021FE01000498FFF7AC
:10358000A3FC01F0FDFD00B206900698E8800499C6
:103590006869FFF799FC01000498FFF795FC0100AA
:1035A000009155480221405E01F008FE0099FFF7A6
:1035B000E3FC02900298A86102983900FFF784FCAE
:1035C000019002983900FFF77FFC3900FFF77CFC7F
:1035D0000100009148480021405E01F0EFFD009994
:1035E000FFF7CAFC01000198FFF766FD03900398FE
:1035F0002861069801F0E2FD0100019136B2300029
:1036000001F0DCFD0090069801F0D8FD3900FFF7CD
:103610005BFC01000098FFF7E7FC0399FFF754FCFF
:103620000199FFF7A9FC01F0ABFD00B20990002061
:103630000400032C08DA09A8042161434058022140
:1036400061436852641CF4E703983900FFF73CFCBF
:103650000100FE208005FFF7C7FC01000298FFF77C
:1036600033FC686109980A9902225143401A0B9968
:10367000401808900820285E08994018079007987D
:103680002881079801F09AFD1C49FFF715FD059068
:1036900005981B4901F030FF0AD20598194901F03D
:1036A000A7FD05D80599FE208005FFF765FCE860B9
:1036B000686901F034FF022801D10020686109988F
:1036C00000B20DB0F0BD10B504000F48006824B280
:1036D00000190E490022895E401A0B4908600A4809
:1036E00000686421FEF70CFD0849088007480021A6
:1036F000405E10BD00000000040D002000FC7F466D
:103700000100803F000080BFCC0D0020D80D0020BC
:10371000F1B5A4B014001F0014ADA9600020E86248
:103720000AE0A868249A9047A860002800D1CBE25C
:10373000E86A401CE862641C2178080001D1E86A4C
:10374000C4E22529EDD100206861A861E861286202
:103750006862A86202E0010001200843641C21782D
:103760002029F8D023290ED02B2904D02D2907D0C9
:1037700030290BD00DE001000220084380B2EDE7B4
:1037800001000420F9E701000820F6E701001020FD
:10379000F3E72A290FD1396839600A68091D3960B1
:1037A0006A63002A05D55142696301000420084379
:1037B00080B2641C12E0002169630AE06A6B774BF7
:1037C0009A4205D093009A18520051183039696313
:1037D000641C21780A00303A0A2AEFD321782E2976
:1037E00003D00021C94329631EE0641C21782A29E3
:1037F00007D1396839600A68091D39602A63641C79
:1038000012E0002129630AE02A6B644B9A4205D03A
:1038100093009A185200511830392963641C21789A
:103820000A00303A0A2AEFD32887267831005A480E
:103830007844FF30653001F083FE002801D0641C1D
:1038400000E000263A202E54285C682804D1217814
:10385000682901D1622005E06C2806D120786C2807
:1038600003D171203A216854641C05A82861267888
:10387000641C3000253824D02038022800D8D4E039
:10388000133800D1F6E00B3800D15DE1401E00D1C5
:1038900037E1401E022800D8C7E0001F00D130E108
:1038A000401F00D193E0401E00D1E3E0401E27D02E
:1038B000C01E0BD0801E00D1DCE0C01E00D1D9E0BC
:1038C0004CE1252069460875012051E138683860CF
:1038D0000168001D3860E9602E6B002E03D5084694
:1038E000FFF7D2F90AE032000021E86801F032FE69
:1038F000002802D0E968401A00E03000A86138E1F1
:10390000386838600268001D38600020C04300211C
:10391000104014AA03C205A8E860286900903C2260
:1039200014A803C802AB03C302A803C8002904D12A
:10393000002802D1286B00281DD0521E02A803C8FF
:103940000007000F3030C0B23A2800DB2730009962
:10395000885402A803C800090B071843090902ABE1
:1039600003C302A803C801D1002804D0E868009965
:1039700089188842E1D33C20801AA86100998918EF
:10398000E960296B88420DDA081A2862288F0449F9
:1039900001402987EDE000BF742D0000FFFFFF7F8D
:1039A000EFFF0000002900D4E3E03821695C142215
:1039B0000A40102A00D0DCE0696B6A69891A2A6A19
:1039C000891A0A1A012A00DAD3E02A62D1E03A20E1
:1039D000285C622819D0682806D06A280CD06C2888
:1039E0001BD0712808D018E0386838600168001DC5
:1039F0003860E86A0880BCE0386838600268001DFA
:103A00003860E86AC11703C2B3E0386838600168FB
:103A1000001D3860E86A0870ABE0386838600168FB
:103A2000001D3860E86A0860A3E03A68D21D0720EC
:103A300082433A6003CA3A6014AA03C2002902D53D
:103A400068692D2109E0288F810702D568692B213B
:103A500003E0C00705D56869202105AA1154401C60
:103A6000686105A869694018E860310014A800F091
:103A7000F9F97EE03A20285C6C280BD0712801D03F
:103A80006A2807D13A68D21D072082433A6003CAE8
:103A90003A6005E0396839600868091D396000211D
:103AA00014AA03C23A20285C682803D114A803C8CA
:103AB00080B20BE0622803D114A803C8C0B205E0AD
:103AC000742801D07A2804D114A803C8002114AAAC
:103AD00003C23820285C00072DD514A803C800298C
:103AE00001D1002827D020203043782823D16869CD
:103AF000302105AA1154401C411C696105A90E54CE
:103B000019E039003A20285C00F0E2F814AA03C258
:103B1000002902DA68692D2109E0288F810702D582
:103B200068692B2103E0C00705D56869202105AA33
:103B30001154401C686105A869694018E8603100AB
:103B400014A800F0F9F814E00120686138683860C2
:103B50000168001D3860684601750AE02520694645
:103B6000087501206861300003D005A84670022066
:103B70006861686B6969401A296A401AA969401A24
:103B8000696A401AE969401AA96A401A0490382003
:103B9000285C400711D42020694608710498012848
:103BA0000BDB049E012301AA14A9249800F01BFC3E
:103BB000002800D088E0761EF4D1686905AE0028A0
:103BC0000FD000903178A868249A9047A860002808
:103BD0007AD0E86A401CE862761C0098401E00908B
:103BE000F0D13020694608712E6A012E09DB0123CD
:103BF00001AA14A9249800F0F6FB002864D1761ECF
:103C0000F5D1EE68A86900280FD000903178A86837
:103C1000249A9047A860002856D0E86A401CE862C1
:103C2000761C0098401E0090F0D130206946087143
:103C30006E6A012E09DB012301AA14A9249800F061
:103C4000D2FB002840D1761EF5D1E868A969461854
:103C5000E86900280FD000903178A868249A90472E
:103C6000A860002830D0E86A401CE862761C009802
:103C7000401E0090F0D1302069460871AE6A012ED6
:103C800009DB012301AA14A9249800F0ACFB002849
:103C90001AD1761EF5D13820285C400700D44BE5B8
:103CA0002020694608710498012800DA44E5049E42
:103CB000012301AA14A9249800F095FB002803D140
:103CC000761E00D138E5F3E70020C04325B0F0BDF3
:103CD0000A00622822D0682819D06A2808D06C28E7
:103CE00023D0712804D074281FD07A2808D01CE073
:103CF0001368DB1D07208343136003CB13607047F9
:103D0000116811600868091D116000217047116871
:103D100011600868091D116000B20BE011681160A4
:103D20000868091D116040B204E01168116008685C
:103D3000091D1160C1177047F3B583B00069009089
:103D40006846027C6F2A01D1082406E02021114335
:103D5000782901D00A2400E010243C25039803C8E8
:103D600006000F00642A01D0692A07D1002905DA6C
:103D700000200021801BB94106000F00002F10D148
:103D8000002E0ED10398006B00280AD1082C3AD1DE
:103D900003983821405C000735D53B253020009939
:103DA00030E06D1E0195300039002200E31701F06C
:103DB000DDFB3032D2B23A2A03DB6846007C513850
:103DC000121800984255300039002200E31701F024
:103DD000CDFB06000F0001D1002E05D00398C0686E
:103DE000009949198842DCD3082C0CD1039838215A
:103DF000405C000707D50098405D302803D06D1E59
:103E00003020009948553C20401B03998861009957
:103E10004919039AD1600399096B884209DA081A93
:103E2000039908620398008FBA49014003980187FB
:103E300015E0002913D503993822895C14220A4021
:103E4000102A0CD10399496B039A5269891A039A73
:103E5000126A891A0D1A012D01DB0398056205B05B
:103E6000F0BD0000F3B591B006AA03C802AB03C3CE
:103E70001198006B002801D5062007E008D112A890
:103E8000007820210143672902D10120119908639C
:103E9000119840684100490D9F4B994223D100037E
:103EA0000FD11198006800280BD103201199886167
:103EB00012A8007861381A2864D300BF9FA0009030
:103EC0000AE003201199886112A8007861381A2845
:103ED00056D300BF9AA00090032200991198C068A1
:103EE00001F07AFB14E1012947DB8C4A02408C483F
:103EF0001043119A50608B48091A09B28A48484306
:103F00008A49FEF7FDF8040002A803C80022002336
:103F100001F0B2F906D202A803C88022120651406D
:103F200002AA03C2684684800720019909B2421A96
:103F300000207F49012A27DB009202AA30CA00260E
:103F40000F000098C00707D532003B002000290071
:103F5000FFF774F904000D00009840100090300045
:103F6000390032003B00FFF769F906000F000098A6
:103F70000028E6D102A830C027E000200023BCE0E2
:103F800070A0A8E770A09AE754420026694F10E09D
:103F9000E00707D504A803C832003B00FFF74EF93D
:103FA00006000F00641004A803C804AA0CCAFFF797
:103FB00045F904AA03C2002CEAD102A803C83200C2
:103FC0003B00FFF749FA02AA03C212A80078202199
:103FD00001430491662903D1019800B20A3000E040
:103FE00006201199096B08180090142801DB132092
:103FF000009030206946087606A8441C00980128E5
:1040000039DB02A803C801F015FB05900646083409
:10401000042530000A21FEF776F80F0030000A214F
:10402000FEF771F806003037601E077030000A2175
:10403000FEF769F80F0030000A21FEF764F8060069
:10404000A41E303727706D1EE3D10834009808385D
:1040500000900128D2DB0598FFF7EEF902000B0073
:1040600002A803C801F060FB0022334BFFF7E6F81B
:1040700002AA03C2C5E706A8401C201A06A94A1CCA
:104080006B4605E0401E019909B2491E9980521CF9
:1040900011783029F6D00499662903D1019909B223
:1040A000491C04E0652901D1012100E00021119B98
:1040B0001B6B5B181BB2984200DA03001BB219009D
:1040C0001DD4814204DA505C352801DB392000E040
:1040D0003020541800E05B1E641E491E257885427E
:1040E000F9D0392802D1505C401C5054002906D523
:1040F000521E5B1C019800B2401C694688800198E2
:1041000000B200901BB212A80178119800F01EF8BE
:1041100013B0F0BDEFFF0000FF070000FFFF0F80AE
:104120000000E03FFE03000097750000A08601003C
:10413000000024400000F03F84D79741494E4600DC
:104140004E414E006E616E00696E6600F3B585B03B
:1041500014001D00066B012D01DA0125AEA42020FC
:1041600008430C9F662801D17F1C17E0672800D008
:10417000AAE00321C9438F4200DA91E0B74200DB95
:104180008EE07F1C05983821405C000702D4B542C0
:1041900000DA2E003FB2F61B00D500260598816993
:1041A000C06840183FB2012F2CDA491C302202703F
:1041B000012E04DA05983822805C000704D52E20F1
:1041C000059AD2685054491C05988161784286420C
:1041D00000DA77423FB2784205994862F619AE425A
:1041E00000DA35002DB20598C5612A002100059836
:1041F000C068059B9B69C01801F0EEF9701B05991A
:104200008862D2E03A0095421EDA2A00210001F0CD
:10421000E3F9059989694919059A9161781B059A0D
:104220005062012E04DA05983822805C000708D518
:104230002E20059AD26850540598C069401C0599F3
:10424000C86105988662B0E0210001F0C5F90598C3
:104250008069C019ED1B012E04DA05993822895CAA
:10426000090704D52E21059AD2681154401C0599DE
:1042700088612DB2AE4200DA35002DB22A00E11974
:104280000598C068059B9B69C01801F0A5F90598C1
:104290008069401905998861701B0599486284E01E
:1042A000B54205DA05993822895C090700D42E0049
:1042B000761E00D500266846007E672801D165205D
:1042C00000E045206946087605988169481C059AF2
:1042D00090612278059BDB685A54611C012E04DA38
:1042E000059A3823D25C12071DD50200401C059B9D
:1042F00098612E23059CE468A354012E13DB6D1EE8
:104300002DB2AE4200DA35002DB22A00059BDB68E3
:10431000181801F061F905988069401905998861BC
:10432000701B059948620598C0680599896941180C
:104330006846007E0870380003D42B2048708C1C1F
:1043400003E02D224A708C1C4742002502AE08E093
:104350000A22684601F05FFA01983070009F6D1CD8
:10436000761C39B20129F3DA022D08DA6846007E9C
:1043700020210143652902D130202070641C002DCA
:1043800009D130202070641C07E06D1E02A8405D3A
:1043900030302070641C012DF7DA0598C06805994B
:1043A00089694018201A0599C86105983821405C30
:1043B00014210140102914D1059840690599896993
:1043C00040180599496A40180599C9694018059926
:1043D000896A40180599496B884202DA081A0599DA
:1043E000086207B0F0BDF1B50E0014000027002BE5
:1043F0000FD01D002178B068009A9047B060002867
:1044000006D0F06A401CF062641C6D1E01D0F1E71A
:10441000FF433800F2BD00003000FEE700B5204841
:104420000068012101431E4801601D4800688007A3
:1044300001D400BFF9E71A4800688021490201430E
:104440001748016016480068800301D400BFF9E7EF
:1044500014480068032101431248016011480068B4
:104460008007800F032801D000BFF7E70E480068DF
:10447000102101430C4801600B480068800601D4FC
:1044800000BFF9E7084800680121014306480160C0
:1044900006480068902188430449086000BD00BFB9
:1044A000341002400410024000200240301002404C
:1044B0000121C206D20E9140724A1160704701215B
:1044C000C206D20E9140704A11607047F0B540B2FA
:1044D000002821D56D4C40B20207120F083A95080A
:1044E00004225543694A40B203071B0F083B9B084F
:1044F00004267343D258FF238607B60F08277E434E
:10450000B3409A438B01DBB28607B60F08277E4380
:10451000B340134363511AE05D4A40B28308042458
:104520006343D258FF238407A40F08256C43A3409C
:104530009A438B01DBB28407A40F08256C43A34088
:104540001343534A40B2840804256C431351F0BD11
:1045500080B550480068012101434E4801604E4833
:104560000068012101434C4801604B48006801216B
:10457000884349490860312048490860484849490A
:104580000860494800884949C96E88614848006800
:10459000012101434648016045480068302101433C
:1045A00043480160434800680A21014341480160D3
:1045B0003F4800683E4908603E48006801210143C9
:1045C0003C4801603C480068022101433A480160D0
:1045D00039480068012101433748016037480068C5
:1045E000374901403548016034480068022188435A
:1045F0003249086031480068012188432F4908602A
:1046000000203049087000202E49487000202D49B4
:1046100088700F20FFF74CFF0F210F20FFF756FF88
:1046200029480068012101432748016026480068A5
:10463000022101432448016001BD80B5154800688E
:104640000121884313490860174800881749C96E3B
:104650008862184800680121884316490860164896
:10466000006802218843144908601348006801214A
:104670008843114908600120124988700F20FFF714
:104680001EFF01BD00E100E080E100E01CED00E064
:1046900000E400E01C10024010100240280000401E
:1046A000E09304002C0000402C600008BC5F000870
:1046B00018000040200000400C00004010000040A6
:1046C000FFFDFFFF900D00201400004000B5A24840
:1046D0000068800522D5A0480068A04901409E4896
:1046E00001609D480068022188439B490860802042
:1046F000C0050068012188438021C90508609848E9
:104700008078022800D125E100209549087000201A
:10471000934948700020924988701BE18E480068D8
:10472000800700D4F7E08C480068022188438A495A
:1047300008608B488078022808D18020C005006876
:10474000012188438021C905086003E1854800688C
:1047500080062AD5844800688449884221D282484C
:104760000068834988421CD38020C005006801216D
:1047700088438021C905086000207949087078487D
:104780004078102807D176488078032803D002208B
:104790007349887005E00020714948700020704915
:1047A0008870002070490860D4E08020C00500684F
:1047B000C00700D4A3E08020C00500680121884321
:1047C0008021C9050860684800686A49884212D299
:1047D00065480068684988420DD3614880780028A0
:1047E00009D100205E49087000205D494870012011
:1047F0005B49887083E05C4800686049884233D236
:10480000594800685E4988422ED35548807801286F
:104810002AD15348524949784018C0780121504A5A
:104820001278914088434E494D4A52788918C87091
:104830004B480078401C4A490870494800780828CD
:104840005DDB00204649087045484078401C4449DB
:10485000487043484078112851DB03204049887054
:1048600000203F4948704AE03F4800683F4988427D
:1048700033D23D4800683E4988422ED3384880787C
:1048800001282AD13648364949784018C078012194
:10489000334A1278914001433148314A52788018A6
:1048A000C1702F480078401C2D4908702C480078B2
:1048B000082824DB00202A49087029484078401C39
:1048C0002749487026484078112818DB03202449DE
:1048D000887000202249487011E08020C0050068DF
:1048E000012188438021C905086000201C49087007
:1048F00000201B4948700020194988702AE00020D8
:10490000204908608020C005006801210143802003
:10491000C00501601EE010480068C0071AD50E48A7
:104920000068012188430C4908608020C0050068A8
:10493000012188438021C905086009488078022840
:1049400008D0002006490870002005494870002062
:104950000349887000BD000010000040FFFDFFFF0C
:10496000900D00201000004834000040BB040000FF
:10497000DE030000131B000026160000750900006E
:10498000BC070000240000400121C206D20E914065
:104990006E4A116070470121C206D20E91406C4AE6
:1049A00011607047F0B540B2002821D5694C40B283
:1049B0000207120F083A950804225543654A40B28F
:1049C00003071B0F083B9B0804267343D258FF23A1
:1049D0008607B60F08277E43B3409A438B01DBB2AC
:1049E0008607B60F08277E43B340134363511AE08E
:1049F000594A40B2830804246343D258FF238407F2
:104A0000A40F08256C43A3409A438B01DBB28407B3
:104A1000A40F08256C43A34013434F4A40B28408B7
:104A200004256C431351F0BD80B54C4800688021CB
:104A300089000143494801604948006849490140EB
:104A4000474801600C20FFF7A6FF01BD80B5444830
:104A50000068802189000143414801603F480068A7
:104A60008021890001433D4801603C4800683D4980
:104A700001403A4801603C48006880210906014332
:104A80003948016038480068002801D500BFF9E7BF
:104A9000354800680121014333480160334800680C
:104AA00033480068102101433148016031480068F3
:104AB000182101432F4801600C20FFF765FF0E21EC
:104AC0000C20FFF76FFF01BD00B5274800684007C5
:104AD0001FD42648006800070DD524480068082127
:104AE00001432248016024480068244908800120CD
:104AF0002249887028E01D480068C00624D51B485C
:104B00000068102101431948016000201B4988708A
:104B10001AE015480068102101431348016012484B
:104B20000068C00601D500BFF9E7104800680821F9
:104B300001430E4801600D480068102101430B48F5
:104B4000016000200D49887000BD000000E100E018
:104B500080E100E01CED00E000E400E00C10024009
:104B600018100240FFFDFFFF08240140002401400F
:104B7000282401400424014040240140C80D0020A5
:104B800038B581480400814800680C21484320184A
:104B90000500AC4210D2207AC0B240080007000FD6
:104BA0000090207A0300DB07DB0FA279E17920680F
:104BB00000F003F80C34ECE731BDF4B583B0040029
:104BC0000D001E00099F9020C005844206D1704848
:104BD00000688021890201436D4801606D4884426C
:104BE00006D16B4800688021C90201436848016012
:104BF0006948844206D16648006880210903014360
:104C0000634801606548844206D16148006880219C
:104C1000C90301435E480160F6B2002E03D00120B3
:104C2000A840A06102E00120A840A0622068032102
:104C300002226A4391408843206060680121A940B4
:104C400088436060E068032102226A439140884300
:104C5000E060EDB228000821FDF752FA0421484334
:104C600020180290EDB228000821FDF749FA04212E
:104C700048432018016A01910F200090EDB22800EE
:104C80000821FDF73DFA042041430098884001992E
:104C90008143029801626846007B00280BD00228FD
:104CA00012D010D304281FD016D3062833D025D312
:104CB00007283AD045E02068032102226A43914048
:104CC000014321603DE03CE0E068012102226A43AB
:104CD00091400143E16034E0E068022102226A432E
:104CE00091400143E1602CE02068012102226A43E7
:104CF0009140014321606068606022E020680121EA
:104D000002226A4391400143216060680121A94069
:104D10000143616015E02068022102226A4391404C
:104D200001432160606860600BE02068022102227C
:104D30006A4391400143216060680121A940014319
:104D40006160EDB228000821FDF7DAF9042148433B
:104D500021180191EDB228000821FDF7D1F90421B5
:104D600048432018016A0091FFB2EDB228000821E3
:104D7000FDF7C6F9042041433800884000990843F4
:104D800001990862FFBD0000BC5F00080000002020
:104D900014100240000400480008004800140048B5
:104DA000AD48006803210143AB480160AA48006890
:104DB0000C210143A8480160A84800680121014373
:104DC000A6480160A548006804210143A34801608A
:104DD0009F4800688021890301439D4801609B48EA
:104DE0000068802189030143984801609748006862
:104DF000984901409548016099480068092101439C
:104E00009748016096480068C02189000143944892
:104E1000016093480068C021890201439048016005
:104E20008F480068C021890301438D4801607047A5
:104E300000B58C4A126801239A438A4B1A60894A4A
:104E4000126801231343874A1360C34A1268864BD2
:104E50001340C14A136089B2FF290EDDBE4A1268B1
:104E6000FF231B041343BC4A1360BB4A1268802310
:104E70005B041343B84A13600BE0B74A12680B0493
:104E80001343B54A1360B44A1268B44B1340B24A94
:104E90001360B14A1268FF239A43AF4B1A60AE4ABF
:104EA0001268C0B20243AC4B1A60AB4A126880234E
:104EB000DB001343A84A1360A74A126880239B01B2
:104EC0001343A54A136000BDF8B505000C00160099
:104ED000A3480068000468D4310089B22800C0B239
:104EE000FFF7A6FFB6B2FF2E00DDFF3E9C4800682C
:104EF000400704D59B4800682070641CF6E798487A
:104F00000068400609D5944800688021C901014322
:104F10009148016002200700E8E791480068000618
:104F200025D58D480068504901408B480160B6B2D4
:104F3000FF2E0FDD88480068FF21090401438648E1
:104F4000016085480068802149040143824801606E
:104F5000FF3ECBE780480068310401437E48016092
:104F60007D4800687D4901407B480160BEE77C4880
:104F70000068C0060ED57C480068102101437A48BD
:104F800001607948006820210143774801600320CF
:104F900007000CE0724800688006A7D572480068D8
:104FA000202101437048016001E001200700380022
:104FB000C0B2F2BD00B52B4A126801239A43294BB7
:104FC0001A60284A126801231343264A1360624A72
:104FD0001268254B1340604A136089B2FF290EDD29
:104FE0005D4A1268FF231B0413435B4A13605A4A4D
:104FF000126880235B041343574A13600BE0564A40
:1050000012680B041343544A1360534A1268534BFB
:105010001340514A1360504A1268FF239A434E4B83
:105020001A604D4A1268C0B202434B4B1A604A4A9A
:1050300012684E4B1340484A1360474A1268802357
:105040009B011343444A136000BD0000101002404E
:105050001C100240FFFFDFFF081400480C1400483A
:105060001054004000540040FFFF00FFF8B5050059
:105070000C0016003A480068000468D4310089B278
:105080002800C0B2FFF796FFB6B2FF2E00DDFF3E4C
:1050900033480068800704D5207835490860641CCF
:1050A000F6E72F480068400609D52B4800688021A4
:1050B000C90101432848016002200700E8E72848A9
:1050C0000068000625D5244800682A490140224886
:1050D0000160B6B2FF2E0FDD1F480068FF210904F2
:1050E00001431D4801601C480068802149040143B8
:1050F00019480160FF3ECBE71748006831040143BF
:1051000015480160144800681449014012480160C4
:10511000BEE713480068C0060ED51348006810218A
:1051200001431148016010480068202101430E48E6
:105130000160032007000CE0094800688006A7D53D
:1051400009480068202101430748016001E001206F
:1051500007003800C0B2F2BD04540040FFFFFFFE5C
:1051600018540040245400401C540040FFFBFFFF33
:1051700028540040FFFF00FF7047FEE77047FEE73E
:105180000122D2070118090E7F3910D449421F317C
:105190000FD4001805D2C0011043C84000D5D04339
:1051A0007047C0011043C84005D4404270470020FA
:1051B00070470042F3D510007047FEE79D210200C2
:1051C00008D5F446524200F005F80122D2071043F8
:1051D000604700000AD002D4491E9218FCD5C905C8
:1051E000100A1206524100D3012A48417047FEE7D7
:1051F0000CB4012212060318DA4207D84B18DA421F
:1052000004D802000A43921802D281420CBC7047B3
:10521000FCD088420CBC704700B5124909680222D4
:105220000A4310490A6031210F4A116080B20F49C8
:1052300008600F49096801220A430D490A600D49B7
:10524000096808220A430B490A600A4909680122D1
:105250000A4308490A6007490968C90701D500BF20
:10526000F9E700BD1C100240280400402C04004057
:10527000140400400004004030B4012464054D00D3
:10528000EC420BD85D00EC4208D80C001C436400D3
:105290000443144304D2994200D1904230BC704779
:1052A000FCD08B42FAD18242F8E730B40124640585
:1052B0004D00EC420BD85D00EC4208D80C001C43BA
:1052C00064000443144304D28B4200D1824230BCB8
:1052D0007047FCD09942FAD19042F8E7094880F330
:1052E000088804200168090E1F22914205D1064852
:1052F00001210160054800210160054880470548FB
:10530000004700000804002018100240000001407F
:105310007D600008A1660008F7B504000D0050A2EA
:105320000CCAFFF7C2FF1DD850A003C822002B00F3
:10533000FDF784FF00224C4B00F093F906000F00AC
:105340004AA003C822002B0000F08BF902000B00DA
:1053500030003900FEF780F804000D0002980121AA
:1053600001430291200029000022424BFFF784FFF5
:1053700005D30122F9239B05FFF797FF53D822009D
:105380002B00FDF75BFF06000F0032003B00200002
:105390002900FDF753FF0090019137A003C83200A8
:1053A0003B00FDF74BFF36A20CCA00F05AF9320061
:1053B0003B00FDF743FF34A20CCA00F052F9009AFB
:1053C000019BFDF73BFF22002B0000F04AF904008F
:1053D0000D002FA003C832003B00FDF72FFF2EA2C7
:1053E0000CCA00F03EF932003B00FDF727FF2CA26B
:1053F0000CCA00F036F932003B00FDF71FFF2AA26D
:105400000CCA00F02EF932003B00FDF717FF002216
:10541000274B00F026F902000B0020002900FEF7C0
:105420001BF804000D000298800702D580200006BA
:1054300045400298400709D01FA1800E081803C8F4
:1054400022002B0000F00DF904000D000298000767
:1054500002D58020000645402000290003B0F0BDA1
:1054600057CD9E5E1426D13F0000F0BFAA4C58E8ED
:105470007AB6FB3F000040BE845D57134B57B03FE8
:10548000B2934C19ED5EE43FBEDE02B90240F83F34
:10549000DE39028FC7C0743F8AAB1283000CC83F4D
:1054A00024D7E508B6D8F03F0F34580E5895FD3F85
:1054B0000000F03F000000000000000000000000BD
:1054C00066732D3852C1E03F182D4454FB21F93F3B
:1054D00066732D3852C1F03F182D4454FB21F93F1B
:1054E00066732D3852C10040182D4454FB210940E9
:1054F0003FD038C6A6F104400CB4012212060318AE
:10550000DA4207D84B18DA4204D802000A4392184C
:1055100002D288420CBC7047FCD08142FAE74100BD
:10552000090EFF2906D0002902D00020C043704791
:1055300000207047400201D00220704701207047D0
:10554000C9B200E0401C02788A4202D0002AF9D198
:1055500000207047C9B201E0401C521E002A03D04F
:1055600003788B42F8D1704700207047124224D054
:10557000994228D970B500251B4202D00C000021A9
:1055800009E00024012649186441944200D3A41A7A
:105590007641F8D33100012601E0764109D20018A6
:1055A00064416D41A41A9D41F7D2A4185D41B6191A
:1055B000F5D3300022002B0070BD1B42D8D108B5B6
:1055C00000F03AF908BD01D19042D3D202000B009D
:1055D000002100207047FEE7124207D08B0706D05B
:1055E0000B78491C0370401C521EF7D87047830784
:1055F00006D00B78491C0370401C521EF9D170472D
:1056000070B4103A03D378C9103A78C0FBD253076C
:1056100001D318C918C001D508C908C0D20704D3DE
:105620000B880380891C801C002A01D50B7803702D
:1056300070BC70474A1812D2400DC90208430121BC
:10564000C9070843520D40210901521A521C06D4C1
:1056500052421F3201D4D0407047C017704700201B
:105660007047F0B40125ED070F005F404FD48B4227
:1056700000D1824205D98446100062468C4619004A
:105680006346DF184C18640D7F0D3AD0661C760512
:1056900037D0E61B352E34DCDB022B43DB0A0C0D46
:1056A000C9022943C912202E0DDB1700203E06D067
:1056B0001F00F741F3405F400026012A7741C018E0
:1056C00071410DD217E01700F741F2405740F34106
:1056D0005A40B340F3405A400026801859410AD33B
:1056E000A21C52050FD0C207012F724117004008BB
:1056F000CB0718434908641C24054208AF41704198
:105700006141F0BC7047641C21050020F9E76B4043
:1057100010E06B40ABE7F742F3D1E943F1E72442F5
:10572000EFD100200021ECE7F0B40125ED070F00D8
:105730005F40EED40C00871A9C4105D2C01BA141EA
:10574000D219634169406B40AE0ADF184C18F4422D
:10575000E1D2640D7F0DE2D0E61B362ED1DCDB02F8
:105760002B43DB0AA4460C0DC9022943C90A012EAA
:1057700028DC04D1D6075208DF073A435B08EF0A5A
:1057800076429041994114D039423BD1B6194041FB
:105790004941761C394204D1761C001849413942EE
:1057A000FAD0B9436746B74208D9A41B2405214360
:1057B000A7E70042EAD13642E8D1A2E7E40AE107CE
:1057C00000209EE7202E0BDD203E1F00F340F74116
:1057D0005F40012A002257417E42984191410BE0EF
:1057E0001700F741F2405740F3415A40B340F340AD
:1057F0005A407E42904199410A0303D2641EB61971
:10580000404149410027641E24054208AE417841C9
:105810006141F0BC70477CB504000E0015003000FB
:105820002900FCF76DFC00904543701B0190684611
:1058300003C803C473BDFEE77047FEE70000000025
:105840000000003E4551453E003E6B6F6B3E001C24
:105850003E7C3E1C00183C7E3C180030367F3630C3
:1058600000185C7E5C1800000000000000000000D2
:1058700000000000000000000000000000000030F8
:10588000484A360E0006297929060000000000006B
:1058900000607E0A353F002A1C361C2A00007F3E2D
:1058A0001C0800081C3E7F000014367F36140000E0
:1058B0005F005F000006097F017F00224D555922DD
:1058C0000060606060000014B6FFB6140004067F3C
:1058D00006040010307F30100008083E1C08000845
:1058E0001C3E080800784040404000083E083E0842
:1058F00000303C3F3C3000030F3F0F03000000002E
:1059000000000000065F06000007030007030024F4
:105910007E247E2400242B6A120000631308646333
:1059200000364956205000000703000000003E41A9
:1059300000000000413E000000083E1C3E08000838
:10594000083E08080000E060000000080808080899
:10595000000060600000002010080402003E514971
:10596000453E0000427F4000006251494946002206
:1059700049494936001814127F10002F494949310E
:10598000003C4A4949300001710905030036494984
:10599000493600064949291E00006C6C00000000D1
:1059A000EC6C00000008142241000024242424246C
:1059B000000041221408000201590906003E415D21
:1059C000551E007E1111117E007F49494936003E67
:1059D00041414122007F4141413E007F49494941C7
:1059E000007F09090901003E4149497A007F080802
:1059F000087F0000417F410000304040403F007F71
:105A000008142241007F40404040007F0204027F92
:105A1000007F0204087F003E4141413E007F0909AA
:105A20000906003E4151215E007F090919660026E2
:105A3000494949320001017F0101003F4040403F98
:105A4000001F2040201F003F403C403F00631408DF
:105A500014630007087008070071494543000000FF
:105A60007F414100000204081020000041417F00F6
:105A7000000402010204808080808080000003070F
:105A80000000002054545478007F444444380038C7
:105A90004444442800384444447F00385454540853
:105AA00000087E0909000018A4A4A47C007F040457
:105AB00078000000007D4000004080847D00007F71
:105AC000102844000000007F4000007C0418047887
:105AD000007C0404780000384444443800FC44440A
