:020000040800F2
:1000000008040020495A0008AF4800086B4900085E
:1000100000000000000000000000000000000000E0
:10002000000000000000000000000000DB4B0008A2
:100030000000000000000000BB4C000887510008D1
:100040008B510008335E00083F5E000885600008A1
:1000500087600008896000088B600008F9150008B7
:100060008D6000088F6000089160000893600008B0
:10007000711800089560000897600008093F0008A3
:100080009960000800000000000000009B6000086C
:10009000000000009D6000089F600008BD47000848
:1000A00000000000A1600008A3600008A56000082F
:1000B000A760000800000000A9600008AB6000080D
:1000C000F0B59FB056485749888057485549C88071
:1000D000564854490881D44852494881D348514927
:1000E0008881D3484F49C881D2484E490882D248B6
:1000F0004C494882D1484B498882D1484949C882F5
:10010000D04848490883D049D04801F093F90120EC
:100110000400E4B2102C0BDAE4B22200CC49CB4844
:10012000E4B212236343C01801F08CF9641CF0E7B9
:100130000520C84908805A203D49088001203949D6
:10014000C877C82037490886FC208005C249486125
:10015000C248C149C861FC208005BF498861FC20B4
:100160008005BD490863BD48BB498863FC20800504
:10017000B9494863FC208005B749C864B748B64907
:100180004865FC208005B44908650120B249888093
:100190000220B14948800F20AF4908800520D74987
:1001A0008880D74801F06DF901F0B4FA01F022FB24
:1001B00001F08AFA01F0E5FBD2488078012818D1D5
:1001C0000020D049887001F061FC1648408B00285F
:1001D00004D01448408B401E124948831148408B7C
:1001E000002806D10F484088C749884201DA01F04B
:1001F00052FA01F043F9C5490860C0480078012867
:10020000D8D101F03BF9C14908600648C07F0228F7
:1002100010DBBF48007880210143BD4801700FE02A
:10022000361000000C080020D20F0000820F0000E2
:100230006A0A0020B64800784006400EB4490870AB
:10024000E1488078022800D0E2E2DF48807CDE4985
:10025000497C09020143DC48007C00040843DA4978
:10026000C97B090601430991A9480078C0B2400939
:100270008007800F022800D1C7E2D448C06A0999DC
:10028000884209D0A2480078C0B200090100C9071D
:10029000C90F002900D1B8E20020984948809C4845
:1002A0000078C0B200090100C907C90F00290FD0AA
:1002B00097480078EF210140954801700998C3499B
:1002C000C862C349C34801F0B5F81E20C24908708E
:1002D000C2480068401CC1490860BC48008EE34920
:1002E00041430291B848C0780102B74800790843F9
:1002F0007D214843642101F0A9FC0100029801F02E
:10030000A8FC0890B04840790002AF4989790843B9
:10031000AE494885AC48C0790102AB48007A084331
:100320007D214843642101F091FC0100029801F015
:1003300090FC0790A448407A0102A348807A0843C1
:100340007D214843642101F081FC0100029801F005
:1003500080FC06909C48C07A01029B48007B0843C1
:100360007D214843642101F071FC0100029801F0F5
:1003700070FC05909448407B01029348807B0843C1
:100380007D214843642101F061FC0100029801F0E5
:1003900060FC049008988D4908840898CA498842EE
:1003A00002D3C9488949088407988849488407982E
:1003B000C549884202D3C448844948840698834981
:1003C00088840698C049884202D3BF487F49888400
:1003D00005987E49C8840598BB49884202D3BA482B
:1003E0007A49C8840498794908850498B6498842AE
:1003F00002D3B5487549088545480078C0B2C009A0
:10040000C0B200283CD07148807F002828D16F48B6
:10041000C07F6E498877DB496E4801F00BF81E20DB
:100420006D49087027E000BF410F0000190F000060
:10043000C90E0000B50E0000A60E00009D0E0000C3
:10044000790E00000B0E0000985E00086C0A002078
:10045000AC5E0008680A0020000D0020CDCCCC3D29
:100460005A48807F012806D1C7495A4800F0E2FF68
:100470001E20C64908705548807F401E5349887722
:10048000C3480078002800D009E15048478D4F4804
:10049000408D0A2101F0DAFB381A01904B48478D54
:1004A0004A48408D0A2101F0D1FB38180390B94821
:1004B0004649898B02224A438018A0214900405AAC
:1004C0000199884226D30398B249404A928B02236D
:1004D0005343C918A0225200895A88421AD3AE4801
:1004E0000078002816D00020AC4908600020AC49F4
:1004F00008700020AB490870D1E000BFBC0D00209F
:100500008C5D0008C40D0020490D0000CC0D0020BA
:10051000D00D0020A0480078002863D09F480068D4
:100520002A49498D40189D4908609D480078401C23
:100530009B4908709B480078401C9A49087098486D
:100540000078052800DAAAE0944800689449097800
:1005500001F07FFBCE49088000208F490870CC480D
:100560000788CB4800880A2101F070FB381A1090E8
:10057000C7480788C64800880A2101F067FB381879
:100580000F9001200400E4B2102C00DB87E08148CA
:10059000E4B2022161434018A0214900405A109959
:1005A00088421DD30F987B49E4B202226243891826
:1005B000A0225200895A884212D377480470012041
:1005C000734908706BE000BF8C0D00200C08002000
:1005D00004600008B40C0020F30C00204C0A00203A
:1005E000641CD0E76F480078401C6E490870A8482A
:1005F00000880199884211D30398A5490988884247
:100600000CD367480078401C65490870634800684F
:10061000BE49498D4018614908600AE0BB48408DD9
:100620009B49088001205E490870B848408D5B49AD
:1006300008605B4800780A281ADB58480068584967
:10064000097801F006FB92490880022050490870A1
:10065000012051490870002052490870002050497B
:10066000087000204D49086019E000BFA086010015
:100670004C4800780F2812D3D449D54800F0DAFE50
:100680001E20424908700020414908700020454959
:100690000870002042490870002040490860CD4899
:1006A0000078C0B240098007800F012800D0ACE07C
:1006B000C9480088FF2809DBC849C54800F0BAFED0
:1006C0001E2032490870A0E0FFFF00008F48008C18
:1006D0008E49C14A128802235343C9184886D34819
:1006E00000688A49BC4A128802235343C918498EBC
:1006F0004018CE490860B8480088401CB6490880B8
:10070000B5480088022857DBC8480068B249098804
:1007100001F09FFAD44908800020D44908600020E5
:1007200004002000C0B2AC49098880B288423BD2A4
:10073000CD4800887549E4B2022262438918498E87
:1007400088420ED3C9480068C74909886F4AE4B295
:1007500002236343D218528E891A4018C349086095
:100760000DE0C24800686949E4B202226243891878
:10077000498EBD4A1288891A4018BC490860641C19
:10078000CFE700BF605F0008BC5F0008F30C0020EB
:10079000D60B00206C0A0020CC0B0020D00B0020D0
:1007A000D40B0020D50B0020B04800688A49098886
:1007B00001F04FFAAE4908805448808B002824D0BD
:1007C000AC485249898B02224A4380189021490043
:1007D000405A002819D04D48008C4C49098C484398
:1007E000A54901F033FAA349484A928B02235343A7
:1007F000C91890225200895A48439F4901F026FAAD
:10080000022101F023FAD24908800020D1498870E2
:1008100000F0FEFA8020C000149000201390CE4F0C
:10082000139A1499380001F06BFA38484178374828
:10083000007801F06BFDC9480068C949884202D1BF
:1008400000F038FC01E000F0B5FBC6480078002855
:1008500003D1C548807C002801D000F09DF9C34831
:100860000078012800D009E1BF48807C002800D131
:10087000B6E0BD48C07C05280CD049D307281DD060
:1008800012D309282ED023D30A2835D040E000BF48
:10089000CE0B0020B6490AA800F0CCFD1922B5A164
:1008A000684600F0CFFD33E0B3490AA800F0C2FD6E
:1008B0001822B0A1684600F0C5FD29E0AF490AA89A
:1008C00000F0B8FD1B22ABA1684600F0BBFD1FE0A5
:1008D000AB490AA800F0AEFD1A22A6A1684600F0B6
:1008E000B1FD15E0A7490AA800F0A4FD9E22A1A130
:1008F000684600F0A7FD0BE0A3490AA800F09AFDA6
:1009000004229CA1684600F09DFD01E00C08002037
:1009100095480021425E9D491BA800F093FD924836
:100920000221425E9A4918A800F08CFD8E480421ED
:10093000425E984915A800F085FD00210AA801F043
:1009400007FA1BA801F046FF05004027EDB206207C
:100950006843022101F07AF9381A06001BAA162111
:100960003000C0B201F014FE18A801F033FF0500FA
:100970004027EDB206206843022101F067F9381ADA
:10098000060018AA20213000C0B201F001FE15A80F
:1009900001F020FF05004027EDB206206843022148
:1009A00001F054F9381A060015AA2A213000C0B205
:1009B00001F0EEFD6A461C21142001F0E9FD6A46B3
:1009C0001C21652001F0E4FD84E000BF705F000899
:1009D000B40C0020D00D0020440A0020805F0008E5
:1009E0005E480068010018310AA800F023FD0121CB
:1009F0000AA801F0ADF9BB480078002818D0A44837
:100A00000021405EB749097801F020F90190A04823
:100A10000021405E019901F01CF90391039B019AAA
:100A20009C4911A800F00EFD09E000BF3C0A00201F
:100A300097480021425E98A111A800F003FD11A87B
:100A400001F0C8FE05004027EDB2062068430221F0
:100A500001F0FCF8381A060011AA1C213000C0B2BF
:100A600001F096FD36E000BF480A0020400A002051
:100A70004A0A00206C0A0020102700009A480078DB
:100A8000012803D098480078022823D197490AA862
:100A900000F0D0FC01210AA801F05AF994489549C8
:100AA00009781222514341180AA800F0CBFC0AA889
:100AB00001F090FE05004027EDB2062068430221B8
:100AC00001F0C4F8381A06000AAA1C213000C0B28E
:100AD00001F05EFD88480078002835D0864800780F
:100AE000401E85490870A3480078C0B20009010083
:100AF000C907C90F002910D07F48007800280CD101
:100B00009C480078EF2101409A4801707B49B04829
:100B100000F090FC1E2078490870AD4801F05AFEA4
:100B200005002800C0B201F077F94027EDB2062099
:100B30006843022101F08AF8381A0600A44A1C21F1
:100B40003000C0B201F024FD01F026FEFFF732FBB9
:100B5000460A00208C0D002009040020CC0D002046
:100B60008C5D0008FC0C0020A00D0020FA0C002079
:100B7000C05E000825630000D45E0008E85E00083F
:100B8000FC5E0008105F0008245F00080C6000088D
:100B9000146000081C60000880B5002051490870EE
:100BA000894800687449884211D1632089490880C6
:100BB0000120894908807148C07F00B200F06EF8BA
:100BC0006E49C8776D48C07F6C4988775EE07E4883
:100BD00000687E4988420DD15A207E490880012054
:100BE0007D4908807D48008800B200F057F87B49B5
:100BF00008804BE074480068794988420DD17949F2
:100C0000734800F017FC64203B490870594800788D
:100C1000102101435748017038E06B480068724961
:100C2000884210D171486B49088064206A49088065
:100C30005248008E00B200F031F8504908860A2070
:100C40002849087022E060480068694988421DD040
:100C50005D4800686749884202D101F036FE15E020
:100C6000594800686449884210D11E2059490880BB
:100C70000120594908806148808800B200F00EF8D0
:100C80005E49888000205D494880FFE701BD000083
:100C9000F40C0020246000082575000000B5010058
:100CA0000800BE4A1278012A15D1554A1278012A45
:100CB00008D1544A0023D25E10000022B74B1A70AC
:100CC00000B20EE04E4A1278022A09D10022B34B3C
:100CD0001A7000B205E04B4A11800122AF4B1A7026
:100CE00000B200BDFD0C0020D60B0020385F0008CC
:100CF0006C0A0020CC0B0020F30C00202C600008B4
:100D000080B5314800684049884206D119480078CA
:100D10009F210140174801701AE02B4800683B49A9
:100D2000884208D1134800789F21014020200843C1
:100D3000104908700CE0244800689949884207D19E
:100D40000C4800789F210140402008430949087061
:100D500094A11F4800F06EFB1E20934908701A48AA
:100D6000006880689149884202D1914800F089FB6F
:100D700001BD0000D00D0020C45B00080C0800205D
:100D8000F0B585B005000C0017002100200001F02F
:100D900053FE02903900380001F04EFE0190019997
:100DA000029801F037FE0600002E01D10120060056
:100DB0003100280001F08AFE0090009801F082FFC7
:100DC0000390039805B0F0BDCC0D0020F05A000848
:100DD000B40C0020F60C0020F80C0020680A00205B
:100DE000EC5D0008C85F0008645C0008E7030000D1
:100DF0001C5B0008485B0008145C0008BC0D002068
:100E0000FC0C0020F40C0020CC5D0008205D0008E4
:100E1000F0B585B00A24964800780100C9B21020C8
:100E200001F0FEFC924840780100C9B2112001F0A7
:100E3000F7FC8F4880780100C9B2122001F0F0FC65
:100E40008721202001F0ECFCE4B2002C30D02720D8
:100E500001F0FCFC694608736846007B8007F3D00C
:100E600001F013FD8248007C8149497C090201435D
:100E700009B2804801F038FF7D4948817C48807C78
:100E80007B49C97C0902014309B27B4801F02CFF70
:100E9000774988817648007D7549497D090201437B
:100EA00009B2764801F020FF7149C881641ECBE782
:100EB0000021202001F0B4FC6D480A21415E7048F9
:100EC00001F024FF6A49488169480C21415E6D4860
:100ED00001F01CFF6649888165480E21415E6A4821
:100EE00001F014FF6249C881614840896749088060
:100EF0005F488089654948805D48C089634988802A
:100F00005B480A21415E6248484359490422895E90
:100F100000F09CFE070056480C21415E5C484843A7
:100F200053490622895E00F091FE060050480E21CA
:100F3000415E574848434E490822895E00F086FECC
:100F40000500380001F048FE0700300001F044FEC3
:100F50000600280001F040FE05004E4800902A00DF
:100F600039003000FFF70CFF02900299009801F061
:100F700063FD02902D204849088032003900280086
:100F8000FFF7FEFE01900199009801F055FD0190D8
:100F900036204649088005B0F0BD0000FA0C00205C
:100FA0009C5B00084F4B0000F30C0020B45C000871
:100FB0008C5D000870B582B0684638490A880280A6
:100FC00001F07CF936480078062801DB01F07EF854
:100FD000344800780500EDB233480078401F854260
:100FE00008DA31480078062804DB2F480078401FD3
:100FF00005000DE02C480078401FEDB2A84207DA4A
:10100000EDB229480078281A401D052800DB6D1E26
:101010002448057024480078401B0600244A01211A
:101020000E2001F0B5FA6A46F6B20A207043801C21
:101030000100C9B2002001F0ABFA00200400E4B2C4
:10104000052C13DA1A48EDB2E4B2291914225143DF
:10105000401802001432E4B20A2060430C30010050
:10106000C9B2082001F094FA641CE8E773BD0000DF
:10107000740D00205C0D0020640D00206C0D00201C
:10108000080D0020240D0020400D0020A00D0020A0
:10109000FFFF0000C7FF3800640A0020563C00082C
:1010A000F10C0020F20C0020F00C0020660A002059
:1010B000D80B0020F0B59DB0F8200290CB4800215D
:1010C000405E01F00BFF4900490800900191E822C1
:1010D000C7490BA800F0B6F9C6480078C0B240096D
:1010E0008007800F002808D0C2480078C0B24009AD
:1010F0008007800F012800D02BE1BF48008C6421BD
:1011000000F0A4FD0400BC48008CA4B2642161433B
:10111000401A0500A4B2002C02D1B748008C05008B
:101120002F200090ADB22B00A4B22200B34915A825
:1011300000F088F9B048408C642100F087FD02007F
:10114000AFA108A800F07EF9AB48808C642100F0C4
:101150007DFD0200AAA107A800F074F9A648C08C82
:10116000642100F073FD0200A5A106A800F06AF951
:10117000A0480078C0B2C009C0B200280DD09E4877
:10118000C37F9D48827F9F4913A800F05BF913AA93
:101190002D215C2001F0FCF90EE09748008D6421C0
:1011A00000F054FD020096A105A800F04BF905AA35
:1011B0002D21622001F0ECF993488F49898B12228E
:1011C0004A4382180021002001F0E2F915AA1821F3
:1011D000002001F09BF908AA0F21622001F0D8F944
:1011E00007AA1921622001F0D3F906AA232162205F
:1011F00001F0CEF97F480078C0B240098007800F27
:10120000002836D1F820029080480021405E01F08D
:1012100065FE4900490800900191E222744909A83D
:1012200000F010F909AA2821002001F0B1F90BAA59
:1012300028212A2001F0ACF90823382274480188BB
:10124000009116001F0071480021405E01F060FE11
:101250003B003200009900F024FE6E4801880E0029
:1012600062480021405E01F053FE310000F085FF2E
:10127000BAE06948028862A104A800F0E3F8674870
:101280000088642100F0E2FC040064480088A4B2F5
:1012900064216143401A0500A4B2002C02D15F48CA
:1012A00000880500ADB20095A4B22300E6225C4997
:1012B0000FA800F0C7F85B480088642100F0C6FC66
:1012C000040058480088A4B264216143401A050014
:1012D000A4B2002C02D1534800880500ADB200959D
:1012E000A4B22300E5224E490DA800F0ABF84E4809
:1012F0000088642100F0AAFC04004B480088A4B2D6
:1013000064216143401A0500A4B2002C02D1464872
:10131000008805003A200090ADB22B00A4B2220054
:10132000364911A800F08EF804AA3721622001F096
:101330002FF90FAA2421002001F02AF90DAA242157
:10134000312001F025F911AA3821002001F0DEF842
:101350004AE028480078C0B240098007800F022880
:1013600039D13D20029029480021405E01F0B6FDB0
:1013700049004908009001913B221D4909A800F04D
:1013800061F8F820009022480388F122274903A839
:1013900000F058F809AA0821002001F0B7F80BAABC
:1013A00000214C2001F0F4F803AA09214C2001F09F
:1013B000EFF82E23122216480188009116001F0014
:1013C00012480021405E01F0A3FD3B00320000996D
:1013D00000F067FD08E0164917A800F033F817AAD7
:1013E0000021082001F0D4F81DB0F0BD660A0020ED
:1013F000D45F0008D00D00200C080020E05F00083A
:1014000025750000346000086C0A0020640A002082
:10141000680A00206A0A0020440A0020480A0020C6
:10142000EC5F00084A0A0020460A00203C600008E1
:10143000545E0008002300E05B1CCA5C002AC25412
:10144000FAD170470CB41CB5040004A801900094B4
:1014500001AB0A006946084878441C3001F076FD6B
:101460000021009A1170002801D40098001B02B0DE
:10147000019910BC03B00847CB1A0000304800683F
:101480007047F1B582B002982E49884202D0029886
:10149000002800D153E0FFF7F1FF0299C0688142B4
:1014A00005D0FFF7EBFF02998068814202D100204E
:1014B0002549087002982249086021480068050003
:1014C00000200400A8680090641C2048047068682C
:1014D0001C49884202D10020040001E06D68F1E758
:1014E000E4B20A2C10DA1420019000261848E4B265
:1014F0001421614340180700143732000199380065
:1015000000F0FEFB641CEBE7009801001831104866
:10151000FFF790FF00200400290018310C48E4B2C6
:101520001422624380181430FFF784FF641C0948BA
:10153000047028680349884201D02D68ECE7F7BDA4
:10154000040000206C5E0008F20C0020F00C00206B
:10155000D80B0020F10C00200121C206D20E9140D0
:101560005E4A116070470121C206D20E91405C4A6A
:1015700011607047F0B540B2002821D5594C40B2F7
:101580000207120F083A950804225543554A40B203
:1015900003071B0F083B9B0804267343D258FF2305
:1015A0008607B60F08277E43B3409A438B01DBB210
:1015B0008607B60F08277E43B340134363511AE0F2
:1015C000494A40B2830804246343D258FF23840766
:1015D000A40F08256C43A3409A438B01DBB2840718
:1015E000A40F08256C43A34013433F4A40B284082C
:1015F00004256C431351F0BD80B53C4800680006DB
:101600000AD53A480068802101433848016002F059
:1016100023FB0720FFF7A7FF01BD80B53448006812
:1016200080214905014332480160324800680421A5
:1016300001433048016030480068022188432E4948
:1016400008602D480068012101432B4801602B48A8
:1016500000682A4908602A48006880210143284818
:10166000016028480068802101432648016026481F
:10167000006880218843244908601C480068802154
:1016800001431A4801600720FFF766FF0F2107207A
:10169000FFF770FF01BD80B500201C4908700020D5
:1016A0001A49488000201A49887100201849C871D9
:1016B00000F0E8FF02F0DFFB00F08AF8FFF7ADFF73
:1016C00030BF00F097F801BD80B501200F490870C8
:1016D00000F0E3FF02F05AFB01BD000000E100E072
:1016E00080E100E01CED00E000E400E014040140B3
:1016F0001C10024010ED00E0007000400C000140A2
:10170000000401400C04014008040140BC0D00200D
:10171000B40D002080B502F09FFA02F053FD02F0F4
:1017200061FE00F0C5FF01F05DF800F0FDF801BDBD
:101730000121C206D20E91406E4A1160704701210C
:10174000C206D20E91406C4A11607047F0B540B2AB
:10175000002821D5694C40B20207120F083A9508BB
:1017600004225543654A40B203071B0F083B9B0800
:1017700004267343D258FF238607B60F08277E43FB
:10178000B3409A438B01DBB28607B60F08277E432E
:10179000B340134363511AE0594A40B2830804240A
:1017A0006343D258FF238407A40F08256C43A3404A
:1017B0009A438B01DBB28407A40F08256C43A34036
:1017C00013434F4A40B2840804256C431351F0BDC3
:1017D00080B54C4800688021890001434948016078
:1017E0004948006849490140474801600C20FFF71B
:1017F000A6FF01BD80B544480068802189000143EF
:10180000414801603F4800688021890001433D480C
:1018100001603C4800683D4901403A4801603C484D
:101820000068802109060143394801603848006892
:10183000002801D500BFF9E73548006801210143C0
:101840003348016033480068334800681021014381
:101850003148016031480068182101432F48016078
:101860000C20FFF765FF0E210C20FFF76FFF01BD75
:1018700000B52748006840071FD4264800680007C5
:101880000DD52448006808210143224801602448FE
:1018900000682449088001202249887028E01D48FA
:1018A0000068C00624D51B48006810210143194870
:1018B000016000201B4988701AE01548006810215B
:1018C00001431348016012480068C00601D500BFFB
:1018D000F9E710480068082101430E4801600D48EF
:1018E0000068102101430B48016000200D498870F9
:1018F00000BD000000E100E080E100E01CED00E040
:1019000000E400E00C10024018100240FFFDFFFF51
:1019100008240140002401402824014004240140FF
:1019200040240140C40D002048480068802109017E
:101930000143464801604448006880210901014391
:101940004148016040480068414901403E4801600B
:1019500031204049086040484049086040480068DC
:10196000012101433E4801603E48006808210143CF
:101970003C4801603B48006801210143394801604F
:10198000704770B537480068C00705D5354800680E
:10199000C00706D500BFF9E733480068401C32494C
:1019A000086032484088401C304948803048006810
:1019B000401C2F4908602D4881882E4848432649FD
:1019C00000F044F9050029484088281A0400A4B210
:1019D000642C14DAA4B2002C11D0A4B21E486043C7
:1019E000254900F033F9401C0600F6B232002349C5
:1019F0002348FFF727FD02202249087016E028003F
:101A00001A49498880B2884206D2184800780128CD
:101A100002D1FFF740FE09E014484088332805DB77
:101A200012480078002801D1FFF735FE0D48006804
:101A3000012101430B480160134800680421014360
:101A40001148016070BD00000C10024018100240E7
:101A5000FFF7FFFF282C014050C300002C2C014051
:101A6000142C0140002C0140600A0020BC0D002015
:101A70005C0A00200087930340420F004C5F00087F
:101A8000B40C0020F30C002008240140F8B55A489B
:101A900000680069584989880840000A002801D177
:101AA000012000E0002055494870554801885548FC
:101AB0004843FA21890000F0C9F800B201F0E9F9C1
:101AC00005004E48458028004C49898880B28842EC
:101AD00002D36420060063E04848008B290089B2E5
:101AE00088421AD3002006004448408B002857D172
:101AF000ADB24548854204DA44494548FFF79AFCAF
:101B000003E044494248FFF795FC3C2042490870F5
:101B10009620C0003949488342E000203749488375
:101B20000A200400E4B2002C13D028003349E4B2A8
:101B3000022262438918898880B2884207D36420D0
:101B4000E4B20A216143401A060068460470641E2C
:101B5000E8E72A486946097802225143401840883C
:101B600026496A46127802235A4389188988401AFE
:101B700007002248694609780222514340188088AC
:101B80002D1AADB20A206843FFB2390000F05EF8AA
:101B90000700FFB2002F03D0FFB20A2F00DAF619B8
:101BA000164800783100C9B288420FD21348007835
:101BB000C01CF6B2B04203DB1848007801281AD1E5
:101BC0000120164908700D48067014E030000B49DA
:101BD0000978C0B288420ED2F6B208480078C01E1A
:101BE000864203DB0D480078022804D102200B490D
:101BF000087002480670F1BD0C5900080C0800205E
:101C0000C40D00204C060000490D0000845E000851
:101C1000B40C0020B05F0008F30C0020D60D0020AB
:101C2000F446002804D4494200F013F840426047CB
:101C30004042002905D45FD000F00BF840424942F1
:101C40006047494200F005F84942604703460B43AC
:101C5000E6D40022030A8B420BD203098B4219D22D
:101C600043088B422ED2411A00D2014652411046FF
:101C70007047FF2209023FD012068B4205D3121291
:101C800009028B4201D31212090203098B4219D3B4
:101C900000E0090AC3098B4201D3CB01C01A5241AB
:101CA00083098B4201D38B01C01A524143098B42F5
:101CB00001D34B01C01A524103098B4201D30B01DE
:101CC000C01A5241C3088B4201D3CB00C01A524103
:101CD00083088B4201D38B00C01A524143088B42C8
:101CE00001D34B00C01A5241884200D3401A5241DE
:101CF000CFD201461046704708B502F061FD08BD1D
:101D00001206130A1A43130C1A4300BF094205D0E6
:101D1000830705D00270401C491EF9D170470000AE
:101D2000130030B414001500103902D310393CC030
:101D3000FCD2490700D30CC000D504C0890002D3EF
:101D40000280801C002900D5027030BC7047000062
:101D5000F3B587B000A8801C2D490A880280684628
:101D60002C490A880280082007000820060000206D
:101D70000500EDB2702D23DA00200400E4B2302C0F
:101D80001CDAE4B2002C08D0E4B22F2C05D0EDB25E
:101D9000002D02D0EDB26F2D07D101223119C9B249
:101DA0007819C0B200F006FC06E000223119C9B271
:101DB0007819C0B200F0FEFB641CDFE76D1CD8E7A9
:101DC000079A0A210A2000F0E3FB08A800780128FE
:101DD0000AD100AA921C2E212E2000F0D9FB6A46BF
:101DE0002E214C2000F0D4FBB64901A8FFF722FBBE
:101DF00001AA2E210A2000F0CBFBB34901A8FFF76E
:101E000019FB01AA2E215E2000F0C2FB09B0F0BD33
:101E1000BE47000872480008F1B582B068466946BE
:101E2000097A062251430831017140210091684628
:101E300000790221FFF70AFF0099081A070017200E
:101E4000060000200500684600792900C9B28842D2
:101E500026D300200400E4B2112C1FDAE4B2002CD7
:101E60000BD0E4B2102C08D0EDB2002D05D0280024
:101E700069460979C0B2884207D101223119C9B235
:101E80007819C0B200F096FB06E000223119C9B201
:101E90007819C0B200F08EFB641CDCE76D1CD2E741
:101EA000F7BDF7B588B01F00012069460872684683
:101EB0006946097A791A491E017368460AA90978A0
:101EC0006A46127A8918491C417268466946097B3C
:101ED0006A46127A891A491EC17300200500EDB2C4
:101EE000802D58DA2E00EDB2402D02DB280040385C
:101EF0000600F6B230000721FFF7A8FE002902D045
:101F0000F6B2002E45D10020040020003900C0B2F6
:101F1000C9B288423DD2FFB238000321FFF796FED6
:101F2000401E69468873FFB2022078430321FFF701
:101F30008DFE401C69464873EDB23F2D02D0EDB2D4
:101F4000402D07D16846007A694688736846007B51
:101F500069464873E4B2002C10D06846807B2100AB
:101F6000C9B2884205D220006946497BC0B2884286
:101F700004D3E4B2FFB2781E844208D101220AA839
:101F800000780119C9B22800C0B200F013FB641C2C
:101F9000BBE76D1CA3E7802006000899C64802F045
:101FA00010FC02F067FC6946088268466946898C25
:101FB00064225143C182002069464881049800B2DE
:101FC00002990914884200DAB61E68460599091478
:101FD000029A1214891A8182059800B200286ED0E4
:101FE0000298001400F094FF0100089802F060FCD1
:101FF00007D86846049909B2029A1214891A4182D4
:1020000006E0684602990914049A12B2891A4182BC
:10201000059800B204990914884203DA059800B2C1
:102020006946488204990914802048430221FFF739
:102030000DFE059909B2FFF709FE694608830020E5
:1020400005002800C0B2069909B200B2884236DA0B
:102050000020040020006946C97BC0B288422CD20F
:10206000049800B202990914884212DB01226846E2
:10207000407A2118C9B200910192F6B230000221D3
:10208000FFF7E4FD4019019A0099C0B200F092FAFE
:1020900011E001226846407A2118C9B200910192EC
:1020A000F6B230000221FFF7D1FD401B019A0099E2
:1020B000C0B200F07FFA641CCCE76D1CC1E70BB026
:1020C000F0BD00004C60000854600008F8B53420F2
:1020D000694608707D2007000A20060000200500E0
:1020E000280069460978C0B288420FD20020040057
:1020F000E4B2022C08DA01227119C9B23819C0B24F
:1021000000F058FA641CF3E76D1CE9E77C20070037
:10211000BE480078401E694609784843BC490978A2
:10212000FFF794FD69464870684640780A3006001B
:1021300000200500EDB2042D1ED200200400E4B200
:10214000082C17DAB348EDB2405D0121A1400842E6
:1021500007D001223119C9B27819C0B200F02AFAA9
:1021600006E000223119C9B27819C0B200F022FA93
:10217000641CE4E76D1CDDE7F1BDF3B585B04020DC
:10218000060005994C4802F01CFB02F073FB6946FF
:10219000888068466946098B64225143418100204A
:1021A00007003800019909B200B2884200DAB61E71
:1021B000684602990914C91B0181029800B20028DF
:1021C00078D03FB2380000F0A3FE0100059802F07D
:1021D0006FFB05D86846019909B2C91BC18004E0AC
:1021E0006846019909B2791AC180029800B2019932
:1021F0000914884203DA029800B26946C88001993E
:1022000009142C2048430221FFF720FD029909B24E
:10221000FFF71CFD69468881002005002800C0B238
:10222000039909B200B288422DDA00200400E4B21A
:10223000042C26DA019800B2390009B288420FDB7B
:1022400001220092F6B230000221FFF7FFFC411B91
:10225000009AC9B220007C30C0B200F0ABF90EE0A9
:1022600001220092F6B230000221FFF7EFFC411983
:10227000009AC9B220007C30C0B200F09BF9641C07
:10228000D5E76D1CCAE700200500EDB2022D11DA7A
:1022900000200400E4B2042C0ADA01222020411BB1
:1022A000C9B220007C30C0B200F084F9641CF1E7B0
:1022B0006D1CEAE707B0F0BD0000C842F8B5002782
:1022C000002600200500EDB20D2D1ED200200400D6
:1022D000E4B2082C17DAAD48EDB2405D0121A1400F
:1022E000084207D001223119C9B27819C0B200F0F2
:1022F00061F906E000223119C9B27819C0B200F0C4
:1023000059F9641CE4E76D1CDDE7F1BDF3B581B05C
:10231000712007000020060069463800801C4870C4
:1023200069463000801C087068460079652802DB29
:1023300064206946087100200500EDB20F2D1ED201
:1023400000200400E4B2082C17DACC48EDB2405D5E
:102350000121A140084207D001223119C9B27819E0
:10236000C0B200F027F906E000223119C9B278198D
:10237000C0B200F01FF9641CE4E76D1CDDE700202B
:102380000500684600790A21FFF760FCEDB285423E
:1023900013DA00200400E4B2042C0CDA01226846AF
:1023A00000780119C9B2684640784019C0B200F0FF
:1023B00001F9641CEFE76D1CE3E76846007A00282A
:1023C00023D000200500EDB2062D1ED2002004000F
:1023D000E4B2082C17DAAA48EDB2405D0121A14011
:1023E000084207D001223119C9B27819C0B200F0F1
:1023F000E1F806E000223119C9B27819C0B200F044
:10240000D9F8641CE4E76D1CDDE7F7BDF00C002093
:10241000F10C002080600008F7B507000E000020D6
:102420000500EDB2182D70DA00200400E4B2082C8B
:1024300069DAEDB228000221FFF708FC00292FD14C
:10244000D3486946097A182251434018EDB2401921
:10245000D049405C0121A140084210D0012231192D
:10246000C9B200910192EDB228000221FFF7EEFB04
:102470003818019A0099C0B200F09CF841E000229F
:102480003119C9B200910192EDB228000221FFF783
:10249000DDFB3818019A0099C0B200F08BF830E0EB
:1024A000BB486946097A182251434018EDB24019D9
:1024B000B849405C0121A140084211D001223119E4
:1024C0000839C9B200910192EDB228000221FFF74C
:1024D000BDFB3818019A0099C0B200F06BF810E00B
:1024E000002231190839C9B200910192EDB22800D9
:1024F0000221FFF7ABFB3818019A0099C0B200F037
:1025000059F8641C92E76D1C8BE7F7BD70B50500A8
:102510000E0014002078002809D022783100C9B2BA
:102520002800C0B2FFF778FF641C0C35F2E770BDDD
:10253000F4B507000E0000200500EDB2062D23DAE9
:1025400000200400E4B2082C1CDA9B486946097894
:10255000062251434018EDB2405D0121A1400842DE
:1025600007D001223119C9B27819C0B200F022F89F
:1025700006E000223119C9B27819C0B200F01AF889
:10258000641CDFE76D1CD8E7F1BD0000905F000818
:1025900070B505000E0014002078002809D02278BC
:1025A0003100C9B22800C0B2FFF7C2FF641CAD1DE4
:1025B000F2E770BDF0B504000D001600F6B2002E73
:1025C00020D0022E3CD058D2E4B2EDB2280008212F
:1025D000FFF73CFB80214843201878490F18E4B2EC
:1025E000EDB228000821FFF731FB80214843201875
:1025F00072490818407801216A07520F914001433F
:1026000079703AE0E4B2EDB228000821FFF71EFB32
:1026100080214843201869490F18E4B2EDB2280020
:102620000821FFF713FB802148432018634908184D
:10263000407801216A07520F9140884378701CE06E
:10264000E4B2EDB228000821FFF700FB80214843E7
:1026500020185A490F18E4B2EDB228000821FFF7FC
:10266000F5FA802148432018544908184078012180
:102670006A07520F914041407970F0BDA05F000899
:102680004460000880B5AE2000F06BF88D2000F0AB
:1026900068F8102000F065F801BD80B58D2000F0CD
:1026A00060F8142000F05DF8AF2000F05AF801BD8A
:1026B00080B5434800884349C96B8862424802F0AC
:1026C0000BF93F4800883F49C96B8861AE2000F094
:1026D00048F8002000F045F8102000F042F84020B3
:1026E00000F03FF8812000F03CF8802000F039F83D
:1026F000C82000F036F8A12000F033F8202000F0C8
:1027000030F8002000F02DF8A62000F02AF8A820CC
:1027100000F027F83F2000F024F8D32000F021F843
:10272000002000F01EF8D52000F01BF8F02000F08B
:1027300018F8D92000F015F8F12000F012F8DA208E
:1027400000F00FF8122000F00CF8DB2000F009F880
:10275000402000F006F840201849087000F01CF8EE
:1027600001BD38B50500782468460021018068461F
:10277000457016480068000401D500BFF9E7022241
:10278000694601202043C0B201F092FF31BD000034
:102790008C570008B0FBFFFF10B578240B48006889
:1027A000000401D500BFF9E7094A0449012020438C
:1027B000C0B201F07DFF10BD8C510008080400205C
:1027C0004C5900080C59000810270000185400400C
:1027D00001040000010000E0491C0A78002AFBD136
:1027E000081A704780B50121232000F019F88248AB
:1027F00002F072F80021232000F012F800212420BA
:1028000000F00EF81021252000F00AF87B487C49E2
:1028100088807A487A49C88078487949088101BD1A
:1028200070B582B006000D003A246846067068460E
:10283000457074480068000401D500BFF9E7022222
:1028400069462000C0B201F033FF73BD11B581B0FD
:102850003A246C480068000401D500BFF9E7012262
:1028600001A92000C0B201F023FF664800680004FF
:1028700001D500BFF9E70122694601202043C0B21B
:1028800001F044FE6846007816BD10B582B03A24C7
:102890002820694608705B480068000401D500BF25
:1028A000F9E7012269462000C0B201F001FF554856
:1028B0000068000401D500BFF9E706225249012053
:1028C0002043C0B201F022FE13BD00B54F48807C0A
:1028D000002806D0022800D186E00CD3032858D067
:1028E00089E001204A49087004204849887405207D
:1028F0004649C8747FE04548C07C052809D047D3C5
:1029000007281CD010D309282FD023D30A2837D06A
:102910003EE03E4800883D49C88004203B49887419
:1029200006203A49C87433E038480088374908819E
:1029300004203649887407203449C87428E0334895
:1029400040883249488104203049887408202F4942
:10295000C8741DE02D4840882C49888104202B49EB
:10296000887409202949C87412E0284880882749BA
:10297000C8810420254988740A202449C87407E0C6
:102980002248808821490882032020498874FFE773
:1029900031E01E480821405E1C490622895E401A2B
:1029A0000221FFF753F91649888018480C21405E30
:1029B00016490A22895E401A0221FFF747F9104999
:1029C000C88012481021405E10490E22895E401ACC
:1029D0000221FFF73BF90A49088100200C490870E1
:1029E00000200A49887406E0002009490870002088
:1029F00006498874FFE700BD10270000FF3F000074
:102A0000740D002018540040840D0020A00D0020FB
:102A1000FA0C002030B5020013000C001D19200034
:102A20005840002806D428005840002802D568489D
:102A3000006800E0280030BDF0B504000D00200063
:102A4000E1172A00EB1701F077FF02000B001000DE
:102A50001900C813C9170600002B0CDC01DB002A83
:102A600009D2F043002802D05948006817E000203E
:102A7000521E834104E0002E02D0554800680EE04B
:102A800010001900000C0F04384309140100100055
:102A900000B2C0130700FF07FF0F3FB2C819F0BD17
:102AA00000B501000022002901D120200DE0080F0F
:102AB0000007002802D1121D0901F8E7002902D4FD
:102AC000521C4900FAE71000C0B200BDF3B583B054
:102AD0000498002802D13F48006877E00398002856
:102AE00001D4039C01E0039844420498002801D4D7
:102AF000049E01E004984642002002901125300D0A
:102B00000005002819D0770C7F1C20003900FFF742
:102B1000A0F802902000002100900191029800216D
:102B20003200002301F008FF400CCA031043490C97
:102B3000009A019B121A8B4114003007000F0028E5
:102B400004D1042D02DB36092D1FF6E7002C29D015
:102B5000002D27D42000FFF7A3FF009000988542A6
:102B600000DA00950098844000982D1A200031006A
:102B7000FFF76FF8070020003100FFF76AF80C003C
:102B800002993800A840081802900020C043E8408D
:102B9000C1433940002902D00D48006816E06400A6
:102BA0006D1ED3E70298401C0290029841080398DA
:102BB000049A4240002A08D506480068814202D1A2
:102BC0000348006802E048420100080005B0F0BD7B
:102BD000706000086C60000838B504003E4800686A
:102BE000A04204DB3C48006841428C4201DA0020EC
:102BF00014E021002000FFF71FFF37490968081A79
:102C00000500280001F0B2FE01002000FFF75EFF82
:102C10000500280000F056F80500280032BDF1B587
:102C200084B00C000498C0170290049802994018D0
:102C3000029941400091002C1ED400982118009860
:102C4000201AFFF743FF070039003800FFF7F4FEB2
:102C50003900FFF7F1FE01900199C9208001FFF7CB
:102C6000EBFE050039001D48FFF7E6FE281A1C4957
:102C70000968401806001DE00098011B0098201804
:102C8000FFF724FF070039003800FFF7D5FE3900B1
:102C9000FFF7D2FE01900199C9208001FFF7CCFE19
:102CA000050039000D48FFF7C7FE281A0D490968CD
:102CB000401806000498002801D570420600300034
:102CC00005B0F0BD10B50400034801682000FFF70F
:102CD000A6FF10BD000000007C60000850FB000053
:102CE000746000087860000830B504000D002068AA
:102CF0002DB240190421615E401A20602068302105
:102D0000FEF7A4FFA0800420205E30BDF0B58DB09A
:102D100005000E00E86804906A480421405E00F057
:102D2000F7F8070000200400022C09DA02206043B3
:102D3000285E09A90422624389184860641CF3E7ED
:102D40000A9800F0E5F80100049801F03AFD01F05E
:102D500091FD00B206900698E8800499686901F038
:102D600030FD0100049801F02CFD01000091554850
:102D70000221405E00F0CCF8009901F049FE02907B
:102D80000298A8610298390001F01BFD0190029899
:102D9000390001F016FD390001F013FD010000912A
:102DA00048480021405E00F0B3F8009901F030FE81
:102DB0000100019801F0BCFE039003982861069879
:102DC00000F0A6F80100019136B2300000F0A0F842
:102DD0000090069800F09CF8390001F0F2FC010028
:102DE000009801F04DFE039901F0EBFC019901F010
:102DF0000FFE01F03FFD00B2099000200400032CFB
:102E000008DA09A80421614340580221614368524D
:102E1000641CF4E70398390001F0D3FC0100FE20A4
:102E2000800501F02DFE0100029801F0CAFC6861E6
:102E300009980A9902225143401A0B9940180890A8
:102E40000820285E0899401807900798288107985D
:102E500000F05EF81C4901F06BFE059005981B49D7
:102E600001F0BCFE0AD20598194901F021FD05D8F0
:102E70000599FE20800501F0CBFDE860686901F04E
:102E8000C0FE022801D100206861099800B20DB08F
:102E9000F0BD10B504000F48006824B200190E49B7
:102EA0000022895E401A0B4908600A4800686421C4
:102EB000FEF7CCFE0849088007480021405E10BD9F
:102EC00000000000000D002000FC7F460100803F54
:102ED000000080BFC80D0020D40D0020010009D5DE
:102EE000F446404200F006F80122D2071143604741
:102EF000010000BF42221201D21E004207D002D4BC
:102F0000521E0018FCD5C10A4005120589187047E9
:102F10009D21020008D5F446524200F005F8012236
:102F2000D2071043604700000AD002D4491E92180D
:102F3000FCD5C905100A1206524100D3012A4841A6
:102F400070470268531C036011707047F1B5A4B05C
:102F500014001F0014ADA9600020E8620AE0A86810
:102F6000249A9047A860002800D1CBE2E86A401C70
:102F7000E862641C2178080001D1E86AC4E22529CE
:102F8000EDD100206861A861E86128626862A862EA
:102F900002E0010001200843641C21782029F8D0B8
:102FA00023290ED02B2904D02D2907D030290BD06E
:102FB0000DE001000220084380B2EDE7010004208B
:102FC000F9E701000820F6E701001020F3E72A29BD
:102FD0000FD1396839600A68091D39606A63002AAF
:102FE00005D55142696301000420084380B2641C86
:102FF00012E0002169630AE06A6B774B9A4205D0C0
:1030000093009A185200511830396963641C217872
:103010000A00303A0A2AEFD321782E2903D0002162
:10302000C94329631EE0641C21782A2907D1396825
:1030300039600A68091D39602A63641C12E00021A6
:1030400029630AE02A6B644B9A4205D093009A18D0
:103050005200511830392963641C21780A00303A33
:103060000A2AEFD32887267831005A487844FF305F
:10307000653001F0D7FD002801D0641C00E0002677
:103080003A202E54285C682804D12178682901D17F
:10309000622005E06C2806D120786C2803D17120CD
:1030A0003A216854641C05A828612678641C300005
:1030B000253824D02038022800D8D4E0133800D195
:1030C000F6E00B3800D15DE1401E00D137E1401E33
:1030D000022800D8C7E0001F00D130E1401F00D116
:1030E00093E0401E00D1E3E0401E27D0C01E0BD06D
:1030F000801E00D1DCE0C01E00D1D9E04CE12520CB
:1031000069460875012051E1386838600168001D82
:103110003860E9602E6B002E03D50846FFF75AFB96
:103120000AE032000021E86801F086FD002802D0A4
:10313000E968401A00E03000A86138E1386838607A
:103140000268001D38600020C0430021104014AA0E
:1031500003C205A8E860286900903C2214A803C8AF
:1031600002AB03C302A803C8002904D1002802D17E
:10317000286B00281DD0521E02A803C80007000FAC
:103180003030C0B23A2800DB27300099885402A8BA
:1031900003C800090B071843090902AB03C302A8BF
:1031A00003C801D1002804D0E86800998918884232
:1031B000E1D33C20801AA86100998918E960296B45
:1031C00088420DDA081A2862288F044901402987AD
:1031D000EDE000BF882E0000FFFFFF7FEFFF000043
:1031E000002900D4E3E03821695C14220A40102A47
:1031F00000D0DCE0696B6A69891A2A6A891A0A1A9E
:10320000012A00DAD3E02A62D1E03A20285C622861
:1032100019D0682806D06A280CD06C281BD07128D9
:1032200008D018E0386838600168001D3860E86A26
:103230000880BCE0386838600268001D3860E86AC1
:10324000C11703C2B3E0386838600168001D3860F8
:10325000E86A0870ABE0386838600168001D3860C3
:10326000E86A0860A3E03A68D21D072082433A600A
:1032700003CA3A6014AA03C2002902D568692D2145
:1032800009E0288F810702D568692B2103E0C00778
:1032900005D56869202105AA1154401C686105A85C
:1032A00069694018E860310014A800F0F9F97EE07F
:1032B0003A20285C6C280BD0712801D06A2807D1ED
:1032C0003A68D21D072082433A6003CA3A6005E09B
:1032D000396839600868091D3960002114AA03C2E1
:1032E0003A20285C682803D114A803C880B20BE0F8
:1032F000622803D114A803C8C0B205E0742801D025
:103300007A2804D114A803C8002114AA03C23820C3
:10331000285C00072DD514A803C8002901D1002876
:1033200027D020203043782823D16869302105AA8E
:103330001154401C411C696105A90E5419E0390063
:103340003A20285C00F0E2F814AA03C2002902DA4D
:1033500068692D2109E0288F810702D568692B2132
:1033600003E0C00705D56869202105AA1154401C57
:10337000686105A869694018E860310014A800F088
:10338000F9F814E001206861386838600168001DB0
:103390003860684601750AE02520694608750120F5
:1033A0006861300003D005A8467002206861686B30
:1033B0006969401A296A401AA969401A696A401A5B
:1033C000E969401AA96A401A04903820285C40072D
:1033D00011D4202069460871049801280BDB049E53
:1033E000012301AA14A9249800F01BFC002800D096
:1033F00088E0761EF4D1686905AE00280FD00090F1
:103400003178A868249A9047A86000287AD0E86AA2
:10341000401CE862761C0098401E0090F0D13020DD
:10342000694608712E6A012E09DB012301AA14A93D
:10343000249800F0F6FB002864D1761EF5D1EE68E2
:10344000A86900280FD000903178A868249A904786
:10345000A860002856D0E86A401CE862761C0098F4
:10346000401E0090F0D13020694608716E6A012E2E
:1034700009DB012301AA14A9249800F0D2FB00283B
:1034800040D1761EF5D1E868A9694618E869002898
:103490000FD000903178A868249A9047A86000283F
:1034A00030D0E86A401CE862761C0098401E00900C
:1034B000F0D1302069460871AE6A012E09DB012384
:1034C00001AA14A9249800F0ACFB00281AD1761E9A
:1034D000F5D13820285C400700D44BE52020694610
:1034E00008710498012800DA44E5049E012301AA2A
:1034F00014A9249800F095FB002803D1761E00D172
:1035000038E5F3E70020C04325B0F0BD0A0062288B
:1035100022D0682819D06A2808D06C2823D07128B6
:1035200004D074281FD07A2808D01CE01368DB1D53
:1035300007208343136003CB136070471168116049
:103540000868091D11600021704711681160086842
:10355000091D116000B20BE0116811600868091DB7
:10356000116040B204E0116811600868091D116023
:10357000C1177047F3B583B0006900906846027CBC
:103580006F2A01D1082406E020211143782901D0B7
:103590000A2400E010243C25039803C806000F000D
:1035A000642A01D0692A07D1002905DA0020002108
:1035B000801BB94106000F00002F10D1002E0ED144
:1035C0000398006B00280AD1082C3AD103983821BF
:1035D000405C000735D53B253020009930E06D1E5A
:1035E0000195300039002200E31701F031FB303241
:1035F000D2B23A2A03DB6846007C51381218009890
:103600004255300039002200E31701F021FB06008B
:103610000F0001D1002E05D00398C0680099491908
:103620008842DCD3082C0CD103983821405C000779
:1036300007D50098405D302803D06D1E30200099DA
:1036400048553C20401B0399886100994919039A09
:10365000D1600399096B884209DA081A0399086254
:103660000398008FBA4901400398018715E00029AB
:1036700013D503993822895C14220A40102A0CD1F0
:103680000399496B039A5269891A039A126A891A33
:103690000D1A012D01DB0398056205B0F0BD000095
:1036A000F3B591B006AA03C802AB03C31198006B2F
:1036B000002801D5062007E008D112A800782021B3
:1036C0000143672902D101201199086311984068CC
:1036D0004100490D9F4B994223D100030FD111980E
:1036E000006800280BD103201199886112A8007886
:1036F00061381A2864D300BF9FA000900AE003201D
:103700001199886112A8007861381A2856D300BF31
:103710009AA00090032200991198C06801F0CEFA97
:1037200014E1012947DB8C4A02408C481043119A6E
:1037300050608B48091A09B28A4848438A49FEF703
:1037400085FA040002A803C80022002301F0E4FA6D
:1037500006D202A803C880221206514002AA03C260
:10376000684684800720019909B2421A00207F49E7
:10377000012A27DB009202AA30CA00260F00009817
:10378000C00707D532003B002000290001F0DDFA18
:1037900004000D0000984010009030003900320005
:1037A0003B0001F0D2FA06000F0000980028E6D195
:1037B00002A830C027E000200023BCE070A0A8E7EA
:1037C00070A09AE754420026694F10E0E00707D541
:1037D00004A803C832003B0001F0B7FA06000F004E
:1037E000641004A803C804AA0CCA01F0AEFA04AA23
:1037F00003C2002CEAD102A803C832003B0001F04A
:1038000066FB02AA03C212A800782021014304919A
:10381000662903D1019800B20A3000E00620119910
:10382000096B08180090142801DB13200090302049
:103830006946087606A8441C0098012839DB02A8CE
:1038400003C801F0A5FB05900646083404253000A6
:103850000A21FEF7FEF90F0030000A21FEF7F9F900
:1038600006003037601E077030000A21FEF7F1F9BC
:103870000F0030000A21FEF7ECF90600A41E3037D5
:1038800027706D1EE3D10834009808380090012895
:10389000D2DB0598FFF72CFB02000B0002A803C83F
:1038A00001F0EAFB0022334B01F04FFA02AA03C2F7
:1038B000C5E706A8401C201A06A94A1C6B4605E06D
:1038C000401E019909B2491E9980521C1178302975
:1038D000F6D00499662903D1019909B2491C04E084
:1038E000652901D1012100E00021119B1B6B5B18B0
:1038F0001BB2984200DA03001BB219001DD48142AA
:1039000004DA505C352801DB392000E030205418FF
:1039100000E05B1E641E491E25788542F9D03928D7
:1039200002D1505C401C5054002906D5521E5B1C2D
:10393000019800B2401C69468880019800B200904E
:103940001BB212A80178119800F01EF813B0F0BD58
:10395000EFFF0000FF070000FFFF0F800000E03FC7
:10396000FE03000097750000A086010000002440BF
:103970000000F03F84D79741494E46004E414E002B
:103980006E616E00696E6600F3B585B014001D00AF
:10399000066B012D01DA0125AEA4202008430C9FFF
:1039A000662801D17F1C17E0672800D0AAE0032118
:1039B000C9438F4200DA91E0B74200DB8EE07F1C02
:1039C00005983821405C000702D4B54200DA2E0089
:1039D0003FB2F61B00D5002605988169C0684018E3
:1039E0003FB2012F2CDA491C30220270012E04DA7A
:1039F00005983822805C000704D52E20059AD268ED
:103A00005054491C059881617842864200DA774219
:103A10003FB2784205994862F619AE4200DA3500A5
:103A20002DB20598C5612A0021000598C068059B44
:103A30009B69C01801F042F9701B05998862D2E0B9
:103A40003A0095421EDA2A00210001F037F9059963
:103A500089694919059A9161781B059A5062012E6E
:103A600004DA05983822805C000708D52E20059AD4
:103A7000D26850540598C069401C0599C8610598E2
:103A80008662B0E0210001F019F905988069C0193B
:103A9000ED1B012E04DA05993822895C090704D54B
:103AA0002E21059AD2681154401C059988612DB2C7
:103AB000AE4200DA35002DB22A00E1190598C0683F
:103AC000059B9B69C01801F0F9F8059880694019B9
:103AD00005998861701B0599486284E0B54205DA52
:103AE00005993822895C090700D42E00761E00D57E
:103AF00000266846007E672801D1652000E0452049
:103B00006946087605988169481C059A9061227873
:103B1000059BDB685A54611C012E04DA059A382390
:103B2000D25C12071DD50200401C059B98612E2314
:103B3000059CE468A354012E13DB6D1E2DB2AE422A
:103B400000DA35002DB22A00059BDB68181801F059
:103B5000B5F805988069401905998861701B059929
:103B600048620598C0680599896941186846007ED1
:103B70000870380003D42B2048708C1C03E02D22E1
:103B80004A708C1C4742002502AE08E00A226846B3
:103B900001F0E9FA01983070009F6D1C761C39B273
:103BA0000129F3DA022D08DA6846007E202101435C
:103BB000652902D130202070641C002D09D13020ED
:103BC0002070641C07E06D1E02A8405D303020703C
:103BD000641C012DF7DA0598C068059989694018B9
:103BE000201A0599C86105983821405C14210140CC
:103BF000102914D1059840690599896940180599DB
:103C0000496A40180599C96940180599896A401898
:103C10000599496B884202DA081A0599086207B0CB
:103C2000F0BDF1B50E0014000027002B0FD01D00D1
:103C30002178B068009A9047B060002806D0F06AFA
:103C4000401CF062641C6D1E01D0F1E7FF43380098
:103C5000F2BD000030001A0000B5204800680121C4
:103C600001431E4801601D480068800701D400BF61
:103C7000F9E71A48006880214902014317480160AA
:103C800016480068800301D400BFF9E714480068B3
:103C90000321014312480160114800688007800F2A
:103CA000032801D000BFF7E70E4800681021014348
:103CB0000C4801600B480068800601D400BFF9E79A
:103CC0000848006801210143064801600648006871
:103CD000902188430449086000BD00BF34100240B1
:103CE0000410024000200240301002400121C206B0
:103CF000D20E9140724A116070470121C206D20E65
:103D00009140704A11607047F0B540B2002821D54B
:103D10006D4C40B20207120F083A95080422554331
:103D2000694A40B203071B0F083B9B0804267343F4
:103D3000D258FF238607B60F08277E43B3409A4325
:103D40008B01DBB28607B60F08277E43B3401343CF
:103D500063511AE05D4A40B2830804246343D25899
:103D6000FF238407A40F08256C43A3409A438B01CB
:103D7000DBB28407A40F08256C43A3401343534AC6
:103D800040B2840804256C431351F0BD80B55048FF
:103D90000068012101434E4801604E48006801213E
:103DA00001434C4801604B48006801218843494960
:103DB0000860312048490860484849490860494836
:103DC00000884949C96E886148480068012101435B
:103DD000464801604548006830210143434801607E
:103DE000434800680A210143414801603F48006898
:103DF0003E4908603E480068012101433C4801609B
:103E00003C480068022101433A4801603948006893
:103E100001210143374801603748006837490140B4
:103E200035480160344800680221884332490860FF
:103E300031480068012188432F490860002030493B
:103E4000087000202E49487000202D4988700F20EE
:103E5000FFF74CFF0F210F20FFF756FF294800689E
:103E600001210143274801602648006802210143DF
:103E70002448016001BD80B51548006801218843D0
:103E800013490860174800881749C96E88621848A6
:103E9000006801218843164908601648006802211D
:103EA0008843144908601348006801218843114978
:103EB00008600120124988700F20FFF71EFF01BD26
:103EC00000E100E080E100E01CED00E000E400E043
:103ED0001C1002401010024028000040E093040033
:103EE0002C0000407C5900080C59000818000040C4
:103EF000200000400C00004010000040FFFDFFFFCC
:103F00008C0D00201400004000B5A2480068800518
:103F100022D5A0480068A04901409E4801609D4804
:103F20000068022188439B4908608020C005006822
:103F3000012188438021C9050860984880780228BB
:103F400000D125E100209549087000209349487070
:103F50000020924988701BE18E480068800700D4D9
:103F6000F7E08C480068022188438A4908608B4842
:103F70008078022808D18020C0050068012188438C
:103F80008021C905086003E18548006880062AD5BC
:103F9000844800688449884221D282480068834965
:103FA00088421CD38020C0050068012188438021FD
:103FB000C9050860002079490870784840781028C1
:103FC00007D176488078032803D00220734988708F
:103FD00005E0002071494870002070498870002079
:103FE00070490860D4E08020C0050068C00700D494
:103FF000A3E08020C0050068012188438021C90515
:104000000860684800686A49884212D265480068BA
:10401000684988420DD361488078002809D1002082
:104020005E49087000205D49487001205B49887036
:1040300083E05C4800686049884233D25948006890
:104040005E4988422ED35548807801282AD15348AA
:10405000524949784018C0780121504A127891405D
:1040600088434E494D4A52788918C8704B480078A9
:10407000401C4A4908704948007808285DDB002048
:104080004649087045484078401C444948704348B8
:104090004078112851DB03204049887000203F49B7
:1040A00048704AE03F4800683F49884233D23D4863
:1040B00000683E4988422ED33848807801282AD1AA
:1040C0003648364949784018C0780121334A127879
:1040D000914001433148314A52788018C1702F48CD
:1040E0000078401C2D4908702C480078082824DBF3
:1040F00000202A49087029484078401C2749487008
:1041000026484078112818DB0320244988700020B5
:104110002249487011E08020C005006801218843D1
:104120008021C905086000201C49087000201B4937
:1041300048700020194988702AE000202049086052
:104140008020C0050068012101438020C005016076
:104150001EE010480068C0071AD50E48006801210B
:1041600088430C4908608020C0050068012188430D
:104170008021C905086009488078022808D00020FD
:1041800006490870002005494870002003498870DE
:1041900000BD000010000040FFFDFFFF8C0D00205F
:1041A0001000004834000040BB040000DE030000A3
:1041B000131B00002616000075090000BC07000054
:1041C0002400004038B581480400814800680C2173
:1041D000484320180500AC4210D2207AC0B24008F3
:1041E0000007000F0090207A0300DB07DB0FA279A5
:1041F000E179206800F003F80C34ECE731BDF4B548
:1042000083B004000D001E00099F9020C005844269
:1042100006D1704800688021890201436D48016021
:104220006D48844206D16B4800688021C902014371
:10423000684801606948844206D166480068802168
:1042400009030143634801606548844206D161481F
:1042500000688021C90301435E480160F6B2002E68
:1042600003D00120A840A06102E00120A840A06284
:104270002068032102226A439140884320606068DD
:104280000121A94088436060E068032102226A435B
:1042900091408843E060EDB228000821FDF7D6FC8C
:1042A0000421484320180290EDB228000821FDF7B0
:1042B000CDFC042148432018016A01910F20009091
:1042C000EDB228000821FDF7C1FC0420414300980D
:1042D000884001998143029801626846007B00286A
:1042E0000BD0022812D010D304281FD016D30628D2
:1042F00033D025D307283AD045E020680321022295
:104300006A439140014321603DE03CE0E0680121C7
:1043100002226A4391400143E16034E0E0680221F7
:1043200002226A4391400143E1602CE020680121B0
:1043300002226A439140014321606068606022E08C
:104340002068012102226A43914001432160606894
:104350000121A9400143616015E020680221022289
:104360006A43914001432160606860600BE020680F
:10437000022102226A4391400143216060680121C9
:10438000A94001436160EDB228000821FDF75EFC01
:104390000421484321180191EDB228000821FDF7BE
:1043A00055FC042148432018016A0091FFB2EDB288
:1043B00028000821FDF74AFC0420414338008840CA
:1043C0000099084301990862FFBD00000C590008DC
:1043D00000000020141002400004004800080048BB
:1043E00000140048AD48006803210143AB48016058
:1043F000AA4800680C210143A8480160A848006849
:1044000001210143A6480160A54800680421014339
:10441000A34801609F4800688021890301439D48AB
:1044200001609B480068802189030143984801602E
:10443000974800689849014095480160994800688C
:10444000092101439748016096480068C02189000E
:1044500001439448016093480068C02189020143E8
:10446000904801608F480068C021890301438D484E
:104470000160704700B58C4A126801239A438A4B49
:104480001A60894A126801231343874A1360C34A9A
:104490001268864B1340C14A136089B2FF290EDDB2
:1044A000BE4A1268FF231B041343BC4A1360BB4A75
:1044B000126880235B041343B84A13600BE0B74AC9
:1044C00012680B041343B54A1360B44A1268B44B24
:1044D0001340B24A1360B14A1268FF239A43AF4BAC
:1044E0001A60AE4A1268C0B20243AC4B1A60AB4AC3
:1044F00012688023DB001343A84A1360A74A12689E
:1045000080239B011343A54A136000BDF8B5050045
:104510000C001600A3480068000468D4310089B27A
:104520002800C0B2FFF7A6FFB6B2FF2E00DDFF3EA7
:104530009C480068400704D59B4800682070641CB4
:10454000F6E798480068400609D59448006880213D
:10455000C90101439148016002200700E8E7914842
:104560000068000625D58D480068504901408B48F9
:104570000160B6B2FF2E0FDD88480068FF210904F4
:104580000143864801608548006880214904014351
:1045900082480160FF3ECBE7804800683104014358
:1045A0007E4801607D4800687D4901407B4801608C
:1045B000BEE77C480068C0060ED57C480068102124
:1045C00001437A4801607948006820210143774817
:1045D0000160032007000CE0724800688006A7D540
:1045E00072480068202101437048016001E0012009
:1045F00007003800C0B2F2BD00B52B4A1268012393
:104600009A43294B1A60284A126801231343264A09
:104610001360624A1268254B1340604A136089B2E6
:10462000FF290EDD5D4A1268FF231B0413435B4A1A
:1046300013605A4A126880235B041343574A13607D
:104640000BE0564A12680B041343544A1360534A52
:104650001268534B1340514A1360504A1268FF23AB
:104660009A434E4B1A604D4A1268C0B202434B4BFC
:104670001A604A4A12684E4B1340484A1360474A30
:10468000126880239B011343444A136000BD00005D
:10469000101002401C100240FFFFDFFF081400480A
:1046A0000C1400481054004000540040FFFF00FF6D
:1046B000F8B505000C0016003A480068000468D4FC
:1046C000310089B22800C0B2FFF796FFB6B2FF2EC4
:1046D00000DDFF3E33480068800704D52078354967
:1046E0000860641CF6E72F480068400609D52B488F
:1046F00000688021C90101432848016002200700A9
:10470000E8E728480068000625D5244800682A49BB
:10471000014022480160B6B2FF2E0FDD1F4800683D
:10472000FF21090401431D4801601C4800688021E5
:104730004904014319480160FF3ECBE71748006870
:1047400031040143154801601448006814490140D0
:1047500012480160BEE713480068C0060ED5134832
:1047600000681021014311480160104800682021B1
:1047700001430E480160032007000CE0094800686F
:104780008006A7D509480068202101430748016039
:1047900001E0012007003800C0B2F2BD045400401F
:1047A000FFFFFFFE18540040245400401C540040FA
:1047B000FFFBFFFF28540040FFFF00FF7047180079
:1047C000704730B405004D400122D20715404B1808
:1047D0000418240E2ED01B0E32D0FF2C34D0FF2B09
:1047E0003AD0E4180002090210431143000A090AF2
:1047F0009446C2B24A43000AC3B24B43000A48433C
:10480000110A5B181A43D2B2190A091801D44918BF
:10481000641E080A7F3C23DBFE2C08DAE405090647
:104820001143634699416041284330BC7047FF20E3
:10483000C005F9E728001B0EFF2BF6D1D043F4E7A3
:104840002800FF2CF1D1F9E74002F7D1FF2B01D16D
:104850004902F3D1E005E7E7D8054902E4D0EDE7E6
:1048600043020020641CDFD15B129B1CDCD9D805FD
:10487000DAE719000122D2070118090E7F3910D496
:1048800049421F310FD4001805D2C0011043C8405F
:1048900000D5D0437047C0011043C84005D4404202
:1048A0007047002070470042F3D510007047FEE7C4
:1048B0000CB4012212060318DA4207D84B18DA4268
:1048C00004D802000A43921802D281420CBC7047FD
:1048D000FCD088420CBC704700B51249096802221E
:1048E0000A4310490A6031210F4A116080B20F4912
:1048F00008600F49096801220A430D490A600D4901
:10490000096808220A430B490A600A49096801221A
:104910000A4308490A6007490968C90701D500BF69
:10492000F9E700BD1C100240280400402C040040A0
:10493000140400400004004030B4434351435D1868
:10494000010C0C00130C5C432D1980B2434392B24E
:1049500051430024C918644124040B04090C0919AB
:104960005043C018694130BC7047FEE770B5010084
:10497000002901D5012200E00022D2B2002A01D094
:104980004B4200E00B0000201E0D3605002E03D028
:104990008026F605340002E08026F6023400A342A9
:1049A00001D2A408FBE700263500EDB2022D23DA80
:1049B000002C0AD00619B34204D31B1A1B1B400853
:1049C000001900E04008A408F2E7EDB2002D11D173
:1049D00080267602B34208D31B1A1B040B4E9B1988
:1049E000000480263602801901E01B0400048026A2
:1049F000F60134006D1CD8E7984200D2401CD2B2B8
:104A0000002A02D041420800FFE770BD0080FFFF8E
:104A10000122D20703004B402ED4431A01D2C01A00
:104A2000C91830B44B180418240E1B0E22D0FF2CCA
:104A300020D0E31A182B1DDC09021143C40D641E9B
:104A40000002104394461925ED1A0A00AA40D940E5
:104A5000451801D36D08A41CE405D209280A2D06C7
:104A60002A436546AA41604103181B0EFF2B01D360
:104A7000C00DC00530BC7047514006E05140CCE746
:104A80000122D20703004B40F8D4431A03D2C01AC4
:104A9000C9185040514030B44B1809021143041852
:104AA000240E1B0E40D0FF2C3AD025009D410BD385
:104AB0001ED8C50D4002401A0BD3ED050100400A77
:104AC000C90591416841D5E7C50D40024918401A12
:104AD000D0D001214008491C0018FCD58C4204D3D9
:104AE0006D1A000AED054019C4E7E8051040C1E75A
:104AF000182DBFDCAC1C0D00E140E5414D40012DFF
:104B00004941C40D00021043451A01D46D19954363
:104B1000641EE405280A2D069541604130BC7047AB
:104B2000FF2BA7D1D843A5E72442A3D10020A1E7BA
:104B300030B405004D400122D20715404B1804182F
:104B4000240E28D01B0E2FD0FF2C34D0FF2B37D0B3
:104B5000E41A000209021043114343084808D10D2A
:104B60001B1A02D2641EDB181B18DB18834200D309
:104B70001B1A4941F9D37F3426DDFE2C08DAE405FF
:104B80004808C907194391416041284330BC704728
:104B9000FF20C005F9E728001B0E03D0FF2BF5D13D
:104BA0004902F3D0D043F1E7FF2C01D14002F9D103
:104BB000FF20C005E9E74002F4D1FF2BF8D1F1E76F
:104BC00028004902E2D0EDE70B0200202442DCD1AC
:104BD0005B129B1CD9D9D805D7E7FEE70CB401229C
:104BE00012060318DA4207D84B18DA4204D802003A
:104BF0000A43921802D288420CBC7047FCD0814212
:104C0000FAE74100090EFF2906D0002902D0002052
:104C1000C043704700207047400201D00220704717
:104C200001207047C9B200E0401C02788A4202D0DD
:104C3000002AF9D100207047C9B201E0401C521E81
:104C4000002A03D003788B42F8D1704700207047C8
:104C5000124224D0994228D970B500251B4202D0B7
:104C60000C00002109E00024012649186441944207
:104C700000D3A41A7641F8D33100012601E0764131
:104C800009D2001864416D41A41A9D41F7D2A418BD
:104C90005D41B619F5D3300022002B0070BD1B42D8
:104CA000D8D108B500F070FA08BD01D19042D3D236
:104CB00002000B00002100207047FEE7124207D0DF
:104CC0008B0706D00B78491C0370401C521EF7D886
:104CD0007047830706D00B78491C0370401C521E96
:104CE000F9D1704770B4103A03D378C9103A78C03C
:104CF000FBD2530701D318C918C001D508C908C091
:104D0000D20704D30B880380891C801C002A01D59C
:104D10000B78037070BC704730B4012464054D00FB
:104D2000EC420BD85D00EC4208D80C001C43640038
:104D30000443144304D2994200D1904230BC7047DE
:104D4000FCD08B42FAD18242F8E7F0B50E005E400B
:104D50000125ED072E40B446AE0ADF184C18F44288
:104D600008D2F7420ED2640D01D07F0D12D100207F
:104D70006146F0BD05D1F74201D87F0D05D1002075
:104D8000C143F0BDFBD1640DF9D00020C1434905FA
:104D900049088FE0E419C902DB0229432B43DB0AEF
:104DA000460DC00231438E4630B487B295B27D4382
:104DB0002E0CADB2140C7C43A419260C24042543FC
:104DC0009CB27C43A419190C7943270CC919A4B2CD
:104DD0000F043C43090C000C97B247432E0CBE193C
:104DE0003543ADB2170C4743360CBF19A6B2BF19F5
:104DF0003E043543240C3E0C36199FB24743BF197D
:104E0000BCB23E0C89191F0C47437F183E04344343
:104E1000390C704680B297B247432E0CBE19354309
:104E2000ADB2170C4743360CBF19A6B2BF193E04EA
:104E30003543240C3E0C36199FB24743BF19BCB210
:104E40003E0C89191F0C47437F183E043443390C2C
:104E500077463F0C90B278432E0C80190604ADB211
:104E60002E43050CA0B22D18120C7A435019020CD7
:104E700080B2240CA4189AB27A4312191404204365
:104E8000120C89181B0C7B43C91830BCEF0A39423D
:104E900003D1B61940414941641E6F12BF0DE41B96
:104EA0000BDBFF19BC4211DA240500274208AE4192
:104EB0007841614166463143F0BD641C05D1401C18
:104EC0006141CF0201D34908F4E750E75DE7F0B450
:104ED0000E005E400125ED072E40B446AE0ADF18F5
:104EE0004C18F4423BD2F74241D2640D43D07F0DBF
:104EF00038D0E41BC902DB0229432B43CF0ADB0A6B
:104F00000600B61A9F4104D2641EB6197F41B61836
:104F10005F416812800D24180018844222DAE80CE0
:104F20000021B6197F41B61A9F4102D2B6185F41DF
:104F30003F1C40414941F4D3241C21DD2405B6190E
:104F40007F41B61A9F4105D33743C6073743002632
:104F5000012F7041614166463143F0BC7047FCD17E
:104F6000F74205D20020C14349054908F3E704D0C0
:104F70000020C143F1E77F0DFAD000206146ECE745
:104F80002442FAD1401C61410F03F6D30020E2E72E
:104F90004A1812D2400DC90208430121C90708432B
:104FA000520D40210901521A521C06D452421F329E
:104FB00001D4D0407047C0177047002070478B4223
:104FC00000D1824205D98446100062468C46190001
:104FD0006346DF184C18640D7F0D3AD0661C7605C9
:104FE00037D0E61B352E34DCDB022B43DB0A0C0DFD
:104FF000C9022943C912202E0DDB1700203E06D01E
:105000001F00F741F3405F400026012A7741C01896
:1050100071410DD217E01700F741F2405740F341BC
:105020005A40B340F3405A400026801859410AD3F1
:10503000A21C52050FD0C207012F72411700400871
:10504000CB0718434908641C24054208AF4170414E
:105050006141F0BC7047641C21050020F9E76B40FA
:1050600010E06B40ABE7F742F3D1E943F1E72442AC
:10507000EFD100200021ECE7F0B40125ED070F008F
:105080005F40EED40C00871A9C4105D2C01BA141A1
:10509000D219634169406B40AE0ADF184C18F442E4
:1050A000E1D2640D7F0DE2D0E61B362ED1DCDB02AF
:1050B0002B43DB0AA4460C0DC9022943C90A012E61
:1050C00028DC04D1D6075208DF073A435B08EF0A11
:1050D00076429041994114D039423BD1B6194041B2
:1050E0004941761C394204D1761C001849413942A5
:1050F000FAD0B9436746B74208D9A41B2405214317
:10510000A7E70042EAD13642E8D1A2E7E40AE10784
:1051100000209EE7202E0BDD203E1F00F340F741CC
:105120005F40012A002257417E42984191410BE0A5
:105130001700F741F2405740F3415A40B340F34063
:105140005A407E42904199410A0303D2641EB61927
:10515000404149410027641E24054208AE41784180
:105160006141F0BC70477CB504000E0015003000B2
:105170002900FCF76BFD00904543701B01906846C9
:1051800003C803C473BDFEE77047FEE700000000DC
:105190000000003E4551453E003E6B6F6B3E001CDB
:1051A0003E7C3E1C00183C7E3C180030367F36307A
:1051B00000185C7E5C180000000000000000000089
:1051C00000000000000000000000000000000030AF
:1051D000484A360E00062979290600000000000022
:1051E00000607E0A353F002A1C361C2A00007F3EE4
:1051F0001C0800081C3E7F000014367F3614000097
:105200005F005F000006097F017F00224D55592293
:105210000060606060000014B6FFB6140004067FF2
:1052200006040010307F30100008083E1C080008FB
:105230001C3E080800784040404000083E083E08F8
:1052400000303C3F3C3000030F3F0F0300000000E4
:1052500000000000065F06000007030007030024AB
:105260007E247E2400242B6A1200006313086463EA
:1052700000364956205000000703000000003E4160
:1052800000000000413E000000083E1C3E080008EF
:10529000083E08080000E060000000080808080850
:1052A000000060600000002010080402003E514928
:1052B000453E0000427F40000062514949460022BD
:1052C00049494936001814127F10002F49494931C5
:1052D000003C4A494930000171090503003649493B
:1052E000493600064949291E00006C6C0000000088
:1052F000EC6C000000081422410000242424242423
:10530000000041221408000201590906003E415DD7
:10531000551E007E1111117E007F49494936003E1D
:1053200041414122007F4141413E007F494949417D
:10533000007F09090901003E4149497A007F0808B8
:10534000087F0000417F410000304040403F007F27
:1053500008142241007F40404040007F0204027F49
:10536000007F0204087F003E4141413E007F090961
:105370000906003E4151215E007F09091966002699
:10538000494949320001017F0101003F4040403F4F
:10539000001F2040201F003F403C403F0063140896
:1053A00014630007087008070071494543000000B6
:1053B0007F414100000204081020000041417F00AD
:1053C00000040201020480808080808000000307C6
:1053D0000000002054545478007F4444443800387E
:1053E0004444442800384444447F0038545454080A
:1053F00000087E0909000018A4A4A47C007F04040E
:1054000078000000007D4000004080847D00007F27
:10541000102844000000007F4000007C041804783D
:10542000007C0404780000384444443800FC4444C0
:1054300044380038444444FC0044784404080008DC
:105440005454542000043E442400003C40207C007E
:10545000001C2040201C003C6030603C006C1010A0
:105460006C00009CA0603C00006454544C00000898
:105470003E414100000000770000000041413E082D
:10548000000201020100003C2623263C001EA1E18F
:105490002112003D40207D00003854545509002061
:1054A0005555557800205554557800205555547859
:1054B000002057555778001CA2E222140038555599
:1054C0005508003855545508003855555408000003
:1054D000017C41000000017D41000000017C400092
:1054E00000702924297000782F252F78007C5454CF
:1054F00055450034547C5458007E097F4949003892
:1055000045453900003845443900003945443800E4
:10551000003C41217D00003D41207C00009CA160B9
:105520003D00003D42423D00003C41403D00807056
:105530006858380400483E494962007E615D433F37
:105540000022140814220040887E090200205455CD
:1055500055780000007D4100003844453900003C8A
:1055600040217D00007A090A7100007A1122790039
:1055700000085555555E004E51514E000030484DC3
:1055800040203E415D4B553E04040404041C0017BA
:10559000084C6A50001708342A780000307D30002B
:1055A00000081400081400140800140844114411E1
:1055B0004411AA55AA55AA55BBEEBBEEBBEE00009E
:1055C00000FF0000080808FF00000070282529706F
:1055D0000070292529700070292528703E415D55ED
:1055E000413E0AFB00FF000000FF00FF00000AFA36
:1055F00002FE00000A0B080F0000001824662400B9
:1056000000292A7C2A29080808F800000000000F59
:1056100008080808080F0808080808F80808000023
:1056200000FF0808080808080808080808FF080814
:1056300000205655567900702A252A71000F080B54
:105640000A0A00FE02FA0A0A0A0B080B0A0A0AFAF8
:1056500002FA0A0A00FF00FB0A0A0A0A0A0A0A0AF0
:105660000AFB00FB0A0A005D2222225D0022555936
:10567000300000087F49413E007C55555544007C70
:1056800055545544007C5555544400000007000013
:105690000000447D45000000457D45000000457C3C
:1056A00045000808080F0000000000F80808FFFF88
:1056B000FFFFFFFFF0F0F0F0F0F0000000770000D7
:1056C0000000457D44000F0F0F0F0F0F003C4243B9
:1056D0003D0000FE4A4A34000001314A3C02003DD0
:1056E00043423C000032494A31001C2222261A0261
:1056F000FF2020103F2000FEAA281000000C12FFFF
:10570000120C003C40413D00003C41413D00003D49
:1057100041403C00009CA0613D0000040871090468
:105720000000020202000000070300000000080859
:1057300008000000242E240000242424242405171B
:105740000A342A780006097F017F00224D5559222C
:105750000008082A080800000818180000060909AF
:105760000600000008000800000008000000000219
:105770000F00000000090F05000000090D0A0000DD
:10578000003C3C3C3C000000000000000000000029
:105790000000000038003800380000000000000061
:1057A000000000000000081F040102060101009E25
:1057B00004402A202A102A0810040000000007F8DC
:1057C0001FFE1E063303318330C330633033181E8F
:1057D0001FFE07F8000000000000300C300C300EF7
:1057E0003FFF3FFF30003000300000000000301C61
:1057F000381E3C073E033703338331C330E3307731
:10580000303E301C00000C0C1C0E380730C330C377
:1058100030C330C330C339E71F7E0E3C000003C0E5
:1058200003E003700338031C030E03073FFF3FFF31
:105830000300030000000C3F1C7F386330633063BB
:1058400030633063306338E31FC30F8300000FC041
:105850001FF039F830DC30CE30C730C330C339C325
:105860001F800F00000000030003000330033C030F
:105870000F0303C300F3003F000F000300000F00FD
:105880001FBC39FE30E730C330C330C330E739FEC8
:105890001FBC0F000000003C007E30E730C330C367
:1058A00038C31CC30EC307E703FE00FC00000E0054
:1058B0001E003800300030003000300038001FFF7C
:1058C00007FF0000000200030007001F38FF3FFC35
:1058D0001FC000E0007C001F00070001000000085E
:1058E000003E006700C31CC03FFE1CC300C300672E
:1058F000003E0008000000000000001E003F0033D2
:105900000033003F001E00000000000000040048BB
:105910000001020800000000001400480100070018
:10592000030000000014004802000701030000000B
:1059300000000048010004000000000000000048D2
:105940000200010100000000000000480400040201
:1059500000000000000000480800020300000000F2
:105960000000004810000004000000000000004893
:105970002000060504000000000000484000040666
:105980000000000000000048800002070100000045
:10599000000400480200020101000000000000486D
:1059A0000008010B00000000000000480010010C7E
:1059B00000000000194800680121014317480160F8
:1059C00017480068174901401548016013480068EE
:1059D0001549014011480160104800681349014011
:1059E0000E4801600E480068114901400C480160F2
:1059F000104800680F2188430E4908600E4800686F
:105A00000E4901400C4801600D480068012188439F
:105A10000B49086000200B490860704700100240E5
:105A2000041002400CB8FF08FFFFF6FEFFFFFBFF6B
:105A3000FFFFC0FF2C100240301002402CFEFFFF81
:105A40003410024008100240094880F308880420FE
:105A50000168090E1F22914205D10648012101600B
:105A600005480021016005488047054800470000BF
:105A7000080400201810024000000140B559000839
:105A8000F95F000870B40121002213E00468001DD2
:105A90000C4202D04D466D1E64192260241D1B1F4E
:105AA000042BFAD225009E0701D52280AD1C0B40A5
:105AB00000D02A700368001D002BE7D170BC70472E
:105AC00030B401210268001D002A0FD00368C318FA
:105AD000446808300C4202D04D466D1E64191D68A2
