:020000020000FC
:100000001AC0189508C009C018950CC01895189505
:1000100018951895189502BB189512B5129313B53B
:10002000129318950DBD0BBD17E21ABD18ED23E014
:100030001CBF26BF089503E40DBF00E00EBF04E01F
:1000400001B90AE003B902B902E005BF0027E0E404
:10005000F0E010E201931A95E9F704C00BBD0DBD65
:1000600017E21ABD1298F894002715E009BD18BDD3
:1000700010E217BD06BD15E01ABF0EAB0FABEEE5E3
:10008000F0E012E010BB11E011BB12BB18ED1CBF79
:1000900006BF1CBF01BF789411E01DBD889512E218
:1000A0001ABD1BBDA8951EE411BF11E01ABF8895AB
:1000B00020E0E035F20790F22DB520FDF8CF119148
:1000C0000191202F312F402F512F602F712F5695E6
:1000D000479556954795041B150B06C0642F752F41
:1000E000422F532F3191219102171307B8F3641B4C
:1000F000750B2DA33CA3620F731F42AB53AB60ABD8
:1001000071AB31E02FE411EB00E837A926A915A95E
:1001100004A958D0222311F00FEF1FEF02AB13AB4D
:100120001BE60CE660A371A33ED04CD000AB11AB34
:10013000A4E5B0E030E14E9140952AE005C00027EB
:10014000213019F0479508F404E014E100B90000EB
:10015000000000000000000000000000000000009F
:1001600000B900001A9551F00000000000000000E6
:1001700000000000000000000000E8CF2A95F9F61A
:100180003A95C9F60AA108A90BA109A90CA10AA9C7
:100190000DA10BA90EA10CA90FA10DA902A30EA9D7
:1001A00003A30FA95FCF2227332740E116950795B8
:1001B00010F4260F371F37952795179507954A9501
:1001C000B9F70895662771E288279927AA27BB1BEC
:1001D000001F111F221F331F7A9509F40895881FED
:1001E000991FAA1FBB1F841B950BA60BB60B30F4DF
:1001F000840F951FA61FB61F8894EACF0894E8CFF6
:00000001FF
