:020000020000FC
:100000001AC0189508C009C018950CC01895189505
:1000100018951895189502BB189512B5129313B53B
:10002000129318950DBD0BBD17E21ABD18ED23E014
:100030001CBF26BF089503E40DBF00E00EBF04E01F
:1000400001B90AE003B902B902E005BF0027E0E404
:10005000F0E010E201931A95E9F704C00BBD0DBD65
:1000600017E21ABD1298F894002715E009BD18BDD3
:1000700010E217BD06BD15E01ABFEEE5F0E012E094
:1000800010BB11E011BB12BB18ED1CBF06BF1CBF9B
:1000900001BF789411E01DBD889512E21ABD1BBD09
:1000A000A8951EE411BF11E01ABF889520E0E03545
:1000B000F207A0F22DB520FDF8CF11910191202F6C
:1000C000312F402F512F602F712F56954795569500
:1000D0004795041B150B06C0642F752F422F532F15
:1000E0003191219102171307B8F3641B750B42ABD2
:1000F00053AB60AB71AB442737A126A115A104A176
:10010000401741074207430770F119A108A1FF27D3
:10011000F017F10708F05AC0DBA1CAA1BDA1ACA13C
:100120009FA18EA173A362A351A340A333272227CB
:10013000E5E0000F111F221F331F000F111F221FA8
:10014000331F000F111F221F331F000F111F221F0B
:10015000331F0C0F1D1F2F1F3F1FEA9571F704A9B6
:1001600015A926A937A9A4E5B0E01EE72CEF31E0D8
:1001700041E108C05E9138E0000016E128E556959F
:1001800008F42CE204E000B90000000000000000C8
:100190000000000000000000000000B900002A95E7
:1001A00051F00000000000000000000000001A955F
:1001B00009F40027E8CF3A95F9F64A95D9F636F0D2
:1001C0001FEF2CE231E041E06894DCCF0AA108A9DE
:1001D0000BA109A90CA10AA90DA10BA90EA10CA99B
:1001E0000FA10DA902A30EA903A30FA90027E4E5FF
:0E01F000F0E01CE001931A95E9F7E89433CF94
:00000001FF
